{"contracts/EchidnaCrowdsaleTest.sol":{"EchidnaCrowdsaleTest":{"abi":[{"inputs":[],"stateMutability":"payable","type":"constructor"},{"inputs":[],"name":"echidna_hardcap_not_exceeded","outputs":[{"internalType":"bool","name":"","type":"bool"}],"stateMutability":"view","type":"function"},{"inputs":[],"name":"echidna_tokens_sold_valid","outputs":[{"internalType":"bool","name":"","type":"bool"}],"stateMutability":"view","type":"function"},{"inputs":[{"internalType":"uint256","name":"amount","type":"uint256"}],"name":"fuzzBuy","outputs":[],"stateMutability":"payable","type":"function"},{"inputs":[],"name":"sale","outputs":[{"internalType":"contract EITCrowdsale","name":"","type":"address"}],"stateMutability":"view","type":"function"}],"evm":{"bytecode":{"linkReferences":{},"object":"6080604052600160026003600460405161001890610082565b6001600160a01b039485168152928416602084015290831660408301529091166060820152608001604051809103906000f08015801561005c573d6000803e3d6000fd5b50600080546001600160a01b0319166001600160a01b039290921691909117905561008f565b612c6f806104ce83390190565b6104308061009e6000396000f3fe60806040526004361061003f5760003560e01c80632a5960f1146100445780632d8e31321461005957806357b8633d146100835780636ad1fe0214610098575b600080fd5b610057610052366004610376565b6100d0565b005b34801561006557600080fd5b5061006e61014c565b60405190151581526020015b60405180910390f35b34801561008f57600080fd5b5061006e610240565b3480156100a457600080fd5b506000546100b8906001600160a01b031681565b6040516001600160a01b03909116815260200161007a565b6100e2670de0b6b3a76400008261038f565b9050806000036100ef5750565b600080546040516331ad36ab60e01b815260048101929092526001600160a01b0316906331ad36ab9083906024016000604051808303818588803b15801561013657600080fd5b505af193505050508015610148575060015b5050565b60008060009054906101000a90046001600160a01b03166001600160a01b0316633a03171c6040518163ffffffff1660e01b8152600401602060405180830381865afa1580156101a0573d6000803e3d6000fd5b505050506040513d601f19601f820116820180604052508101906101c491906103b1565b60008054906101000a90046001600160a01b03166001600160a01b0316631252af756040518163ffffffff1660e01b8152600401602060405180830381865afa158015610215573d6000803e3d6000fd5b505050506040513d601f19601f8201168201806040525081019061023991906103b1565b1115905090565b60008060009054906101000a90046001600160a01b03166001600160a01b031663fc0c546a6040518163ffffffff1660e01b8152600401602060405180830381865afa158015610294573d6000803e3d6000fd5b505050506040513d601f19601f820116820180604052508101906102b891906103ca565b6000546040516370a0823160e01b81526001600160a01b0391821660048201529116906370a0823190602401602060405180830381865afa158015610301573d6000803e3d6000fd5b505050506040513d601f19601f8201168201806040525081019061032591906103b1565b60008054906101000a90046001600160a01b03166001600160a01b03166363b201176040518163ffffffff1660e01b8152600401602060405180830381865afa158015610215573d6000803e3d6000fd5b60006020828403121561038857600080fd5b5035919050565b6000826103ac57634e487b7160e01b600052601260045260246000fd5b500690565b6000602082840312156103c357600080fd5b5051919050565b6000602082840312156103dc57600080fd5b81516001600160a01b03811681146103f357600080fd5b939250505056fea264697066735822122043a64c0460efc4f750bbcdff03346847922a076b9f8e5c0372f94d9a8498334a64736f6c6343000814003360e06040523480156200001157600080fd5b5060405162002c6f38038062002c6f8339810160408190526200003491620001bd565b600180556001600160a01b0384166200004c57600080fd5b6001600160a01b0383166200006057600080fd5b6001600160a01b0382166200007457600080fd5b6001600160a01b0381166200008857600080fd5b6001600160a01b0384811660805283811660a052821660c0526002805461ff0019169055620000b9600082620000f1565b50620000e67f97667070c54ef182b0f5858b034beac1b6f3089aa2d3188bb1e8929f4fa9b92982620000f1565b50505050506200021a565b6000828152602081815260408083206001600160a01b038516845290915281205460ff1662000196576000838152602081815260408083206001600160a01b03861684529091529020805460ff191660011790556200014d3390565b6001600160a01b0316826001600160a01b0316847f2f8788117e7eff1d82e926ec794901d17c78024a50270940304540a733656f0d60405160405180910390a45060016200019a565b5060005b92915050565b80516001600160a01b0381168114620001b857600080fd5b919050565b60008060008060808587031215620001d457600080fd5b620001df85620001a0565b9350620001ef60208601620001a0565b9250620001ff60408601620001a0565b91506200020f60608601620001a0565b905092959194509250565b60805160a05160c0516129ed6200028260003960008181610660015281816115e501526123a10152600081816106fa015281816119340152611ac0015260008181610a1a01528181610c5001528181611513015281816115c30152611e4601526129ed6000f3fe6080604052600436106102cd5760003560e01c80637dc0d1d011610175578063b652dc2f116100dc578063d5f8cf0d11610095578063e746a1d21161006f578063e746a1d214610999578063f5b541a6146109b9578063f96f5b35146109db578063fc0c546a14610a0857610315565b8063d5f8cf0d14610937578063db5e006314610957578063e1c1dd6f1461096c57610315565b8063b652dc2f1461085b578063c6bc88be1461087a578063c6d3107f146108aa578063c8bdbfb6146108c0578063d21a74ff146108d5578063d547741f1461091757610315565b806391d148541161012e57806391d14854146107b657806394d95f8f146107d65780639b9ecc99146107f4578063a217fddf14610811578063a52dba3c14610826578063b5545a3c1461084657610315565b80637dc0d1d0146106e85780637f6497831461071c5780638456cb591461073c578063865eb74a146107515780638b9a71cf146107815780638c52dc41146107a157610315565b80633af32abf11610234578063599d56e0116101ed578063603f4d52116101c7578063603f4d521461062257806361d027b31461064e57806363b201171461069a5780636620cbe2146106b057610315565b8063599d56e0146105d65780635c975abb146105ec5780635fc2d2831461060457610315565b80633af32abf1461051f5780633f4ba83a1461054f57806340650c911461056457806348eb38fb14610581578063548db174146105a157806358a687ec146105c157610315565b80632f2ff15d116102865780632f2ff15d1461046c57806330e9d37b1461048e57806331ad36ab146104ad57806332855ed2146104c057806336568abe146104e05780633a03171c1461050057610315565b806301ffc9a714610353578063055ad42e146103885780631252af75146103ac578063248a9ca3146103c257806325915ff2146103f25780632e37eef61461042a57610315565b366103155760405162461bcd60e51b815260206004820152601360248201527255736520627579576974684e6174697665282960681b60448201526064015b60405180910390fd5b60405162461bcd60e51b815260206004820152601360248201527255736520627579576974684e6174697665282960681b604482015260640161030c565b34801561035f57600080fd5b5061037361036e366004612522565b610a3c565b60405190151581526020015b60405180910390f35b34801561039457600080fd5b5061039e60045481565b60405190815260200161037f565b3480156103b857600080fd5b5061039e60055481565b3480156103ce57600080fd5b5061039e6103dd366004612553565b60009081526020819052604090206001015490565b3480156103fe57600080fd5b5061039e61040d366004612588565b600d60209081526000928352604080842090915290825290205481565b34801561043657600080fd5b5061044a610445366004612553565b610a73565b604080519485526020850193909352918301521515606082015260800161037f565b34801561047857600080fd5b5061048c6104873660046125bb565b610ab0565b005b34801561049a57600080fd5b5061039e6a0422ca8b0a00a42500000081565b61048c6104bb366004612553565b610adb565b3480156104cc57600080fd5b5061048c6104db366004612553565b610bde565b3480156104ec57600080fd5b5061048c6104fb3660046125bb565b610cc0565b34801561050c57600080fd5b5061039e6a52b7d2dcc80cd2e400000081565b34801561052b57600080fd5b5061037361053a3660046125de565b60086020526000908152604090205460ff1681565b34801561055b57600080fd5b5061048c610cf8565b34801561057057600080fd5b5061039e68056bc75e2d6310000081565b34801561058d57600080fd5b5061048c61059c366004612553565b610d0b565b3480156105ad57600080fd5b5061048c6105bc3660046125f9565b610d9a565b3480156105cd57600080fd5b5061048c610ea0565b3480156105e257600080fd5b5061039e60065481565b3480156105f857600080fd5b5060025460ff16610373565b34801561061057600080fd5b5061039e69043c33c193756480000081565b34801561062e57600080fd5b5060025461064190610100900460ff1681565b60405161037f9190612684565b34801561065a57600080fd5b506106827f000000000000000000000000000000000000000000000000000000000000000081565b6040516001600160a01b03909116815260200161037f565b3480156106a657600080fd5b5061039e60075481565b3480156106bc57600080fd5b5061039e6106cb3660046125bb565b600a60209081526000928352604080842090915290825290205481565b3480156106f457600080fd5b506106827f000000000000000000000000000000000000000000000000000000000000000081565b34801561072857600080fd5b5061048c6107373660046125f9565b610f0e565b34801561074857600080fd5b5061048c611014565b34801561075d57600080fd5b5061037361076c3660046125de565b600e6020526000908152604090205460ff1681565b34801561078d57600080fd5b5061048c61079c3660046126ac565b611027565b3480156107ad57600080fd5b5061048c61118a565b3480156107c257600080fd5b506103736107d13660046125bb565b6111c0565b3480156107e257600080fd5b5061039e690a968163f0a57b40000081565b34801561080057600080fd5b5061039e683635c9adc5dea0000081565b34801561081d57600080fd5b5061039e600081565b34801561083257600080fd5b5061048c6108413660046126ee565b6111e9565b34801561085257600080fd5b5061048c6112b2565b34801561086757600080fd5b5061039e6a0c685fa11e01ec6f00000081565b34801561088657600080fd5b50610373610895366004612553565b600b6020526000908152604090205460ff1681565b3480156108b657600080fd5b5061039e61038481565b3480156108cc57600080fd5b5061048c6114a3565b3480156108e157600080fd5b506109056108f03660046125de565b600f6020526000908152604090205460ff1681565b60405160ff909116815260200161037f565b34801561092357600080fd5b5061048c6109323660046125bb565b61160a565b34801561094357600080fd5b5061048c610952366004612725565b61162f565b34801561096357600080fd5b5060035461039e565b34801561097857600080fd5b5061039e6109873660046125de565b60096020526000908152604090205481565b3480156109a557600080fd5b506106826109b4366004612553565b611816565b3480156109c557600080fd5b5061039e60008051602061299883398151915281565b3480156109e757600080fd5b5061039e6109f63660046125de565b600c6020526000908152604090205481565b348015610a1457600080fd5b506106827f000000000000000000000000000000000000000000000000000000000000000081565b60006001600160e01b03198216637965db0b60e01b1480610a6d57506301ffc9a760e01b6001600160e01b03198316145b92915050565b60038181548110610a8357600080fd5b60009182526020909120600490910201805460018201546002830154600390930154919350919060ff1684565b600082815260208190526040902060010154610acb81611840565b610ad5838361184a565b50505050565b610ae36118dc565b610aeb611906565b3360009081526008602052604090205460ff16610b3c5760405162461bcd60e51b815260206004820152600f60248201526e139bdd081dda1a5d195b1a5cdd1959608a1b604482015260640161030c565b6000600254610100900460ff166003811115610b5a57610b5a61266e565b14610b6457600080fd5b60035460045410610b7457600080fd5b6000610b7e61192a565b90506000670de0b6b3a7640000610b95833461275d565b610b9f9190612774565b9050610bab8184611b9c565b336000908152600c602052604081208054349290610bca908490612796565b90915550506001805550610bdb9050565b50565b610be66118dc565b610bee611906565b6000818152600b602052604090205460ff16610c0957600080fd5b6000818152600a6020908152604080832033845290915290205480610c2d57600080fd5b6000828152600a60209081526040808320338085529252822091909155610c7f907f00000000000000000000000000000000000000000000000000000000000000006001600160a01b031690836120ad565b604051818152829033907f9923b4306c6c030f2bdfbf156517d5983b87e15b96176da122cd4f2effa4ba7b9060200160405180910390a350610bdb60018055565b6001600160a01b0381163314610ce95760405163334bd91960e11b815260040160405180910390fd5b610cf3828261210c565b505050565b6000610d0381611840565b610bdb612177565b600080516020612998833981519152610d2381611840565b60038281548110610d3657610d366127a9565b600091825260209091206003600490920201015460ff16610d5657600080fd5b6000828152600b6020526040808220805460ff191660011790555183917fd5f2e48a1b20537d5d9999bf63ead088cc70afd46ef059d6982ce1f68ac73dca91a25050565b600080516020612998833981519152610db281611840565b8115801590610dc357506101f48211155b610dcc57600080fd5b60005b82811015610ad557600060086000868685818110610def57610def6127a9565b9050602002016020810190610e0491906125de565b6001600160a01b031681526020810191909152604001600020805460ff1916911515919091179055838382818110610e3e57610e3e6127a9565b9050602002016020810190610e5391906125de565b6001600160a01b03167ff93f9a76c1bf3444d22400a00cb9fe990e6abe9dbb333fda48859cfee864543d6000604051610e90911515815260200190565b60405180910390a2600101610dcf565b6000610eab81611840565b6003600254610100900460ff166003811115610ec957610ec961266e565b03610ed357600080fd5b6002805461ff0019166102001790556040517ff33fd39ddc653e5f9033d50b852a4e85dc19ab2e3553927ce281aa99f9718c5d90600090a150565b600080516020612998833981519152610f2681611840565b8115801590610f3757506101f48211155b610f4057600080fd5b60005b82811015610ad557600160086000868685818110610f6357610f636127a9565b9050602002016020810190610f7891906125de565b6001600160a01b031681526020810191909152604001600020805460ff1916911515919091179055838382818110610fb257610fb26127a9565b9050602002016020810190610fc791906125de565b6001600160a01b03167ff93f9a76c1bf3444d22400a00cb9fe990e6abe9dbb333fda48859cfee864543d6001604051611004911515815260200190565b60405180910390a2600101610f43565b600061101f81611840565b610bdb6121c9565b61102f6118dc565b611037611906565b3360009081526008602052604090205460ff166110885760405162461bcd60e51b815260206004820152600f60248201526e139bdd081dda1a5d195b1a5cdd1959608a1b604482015260640161030c565b6001600160a01b0383166000908152600e602052604090205460ff166110ad57600080fd5b6000600254610100900460ff1660038111156110cb576110cb61266e565b146110d557600080fd5b600354600454106110e557600080fd5b6110fa6001600160a01b038416333085612206565b6001600160a01b0383166000908152600f602052604081205460ff16906111228260126127bf565b61112d90600a6128bc565b611137908561275d565b336000908152600d602090815260408083206001600160a01b038a16845290915281208054929350869290919061116f908490612796565b9091555061117f90508184611b9c565b5050610cf360018055565b600061119581611840565b6a0c685fa11e01ec6f000000600554106111ae57600080fd5b506002805461ff001916610300179055565b6000918252602082815260408084206001600160a01b0393909316845291905290205460ff1690565b60006111f481611840565b6001600160a01b0383166000908152600e602052604090205460ff161561121a57600080fd5b60128260ff16111561122b57600080fd5b506001600160a01b03919091166000818152600e602090815260408083208054600160ff199182168117909255600f909352908320805490921660ff90951694909417905560108054938401815590527f1b6847dc741a1b0cd08d278845f9d819d87b734759afb55fe2de5cb82a9ae67290910180546001600160a01b0319169091179055565b6112ba6118dc565b6003600254610100900460ff1660038111156112d8576112d861266e565b146112e257600080fd5b336000908152600c6020526040902054801561139157336000818152600c60205260408082208290555190919083908381818185875af1925050503d8060008114611349576040519150601f19603f3d011682016040523d82523d6000602084013e61134e565b606091505b505090508061138f5760405162461bcd60e51b815260206004820152600d60248201526c1499599d5b990819985a5b1959609a1b604482015260640161030c565b505b60105460005b81811015611427576000601082815481106113b4576113b46127a9565b6000918252602080832090910154338352600d825260408084206001600160a01b0390921680855291909252912054909150801561141d57336000818152600d602090815260408083206001600160a01b038716808552925282209190915561141d91836120ad565b5050600101611397565b50336000908152600960205260408120819055600354905b81811015611469576000818152600a6020908152604080832033845290915281205560010161143f565b5060405133907fe85b62fe517bf695ce7fed961f0244f59be2c256525a5a904fb90c32f42cfd3e90600090a25050506114a160018055565b565b60006114ae81611840565b60028054610100900460ff1660038111156114cb576114cb61266e565b14806114f257506003600254610100900460ff1660038111156114f0576114f061266e565b145b6114fb57600080fd5b6040516370a0823160e01b81523060048201526000907f00000000000000000000000000000000000000000000000000000000000000006001600160a01b0316906370a0823190602401602060405180830381865afa158015611562573d6000803e3d6000fd5b505050506040513d601f19601f8201168201806040525081019061158691906128cb565b90506000600754821161159a5760006115a7565b6007546115a790836128e4565b9050600081116115b657600080fd5b610cf36001600160a01b037f0000000000000000000000000000000000000000000000000000000000000000167f0000000000000000000000000000000000000000000000000000000000000000836120ad565b60008281526020819052604090206001015461162581611840565b610ad5838361210c565b600061163a81611840565b6000600254610100900460ff1660038111156116585761165861266e565b1461166257600080fd5b600083116116a95760405162461bcd60e51b8152602060048201526014602482015273125b9d985b1a59081c1a185cd9481d185c99d95d60621b604482015260640161030c565b600082116116ef5760405162461bcd60e51b8152602060048201526013602482015272496e76616c696420706861736520707269636560681b604482015260640161030c565b604080516080810182528481526020810184815260009282018381526060830184815260038054600180820183559682905294517fc2575a0e9e593c00f959f8c92f12db2869c3395a3b0502d05e2516446f71f85b60049096029586015592517fc2575a0e9e593c00f959f8c92f12db2869c3395a3b0502d05e2516446f71f85c85015590517fc2575a0e9e593c00f959f8c92f12db2869c3395a3b0502d05e2516446f71f85d840155517fc2575a0e9e593c00f959f8c92f12db2869c3395a3b0502d05e2516446f71f85e909201805460ff191692151592909217909155546117d991906128e4565b60408051858152602081018590527e3a614d69232d07ce423df77598aa26a786bec214178a4f4c288fb03e930fba910160405180910390a2505050565b6010818154811061182657600080fd5b6000918252602090912001546001600160a01b0316905081565b610bdb813361223f565b600061185683836111c0565b6118d4576000838152602081815260408083206001600160a01b03861684529091529020805460ff1916600117905561188c3390565b6001600160a01b0316826001600160a01b0316847f2f8788117e7eff1d82e926ec794901d17c78024a50270940304540a733656f0d60405160405180910390a4506001610a6d565b506000610a6d565b6002600154036118ff57604051633ee5aeb560e01b815260040160405180910390fd5b6002600155565b60025460ff16156114a15760405163d93c066560e01b815260040160405180910390fd5b60008060008060007f00000000000000000000000000000000000000000000000000000000000000006001600160a01b031663feaf968c6040518163ffffffff1660e01b815260040160a060405180830381865afa158015611990573d6000803e3d6000fd5b505050506040513d601f19601f820116820180604052508101906119b49190612911565b94509450509350935060008313611a045760405162461bcd60e51b8152602060048201526014602482015273496e76616c6964206f7261636c6520707269636560601b604482015260640161030c565b610384611a1183426128e4565b1115611a545760405162461bcd60e51b81526020600482015260126024820152714f7261636c65207072696365207374616c6560701b604482015260640161030c565b8369ffffffffffffffffffff168169ffffffffffffffffffff161015611abc5760405162461bcd60e51b815260206004820152601760248201527f496e636f6d706c657465206f7261636c6520726f756e64000000000000000000604482015260640161030c565b60007f00000000000000000000000000000000000000000000000000000000000000006001600160a01b031663313ce5676040518163ffffffff1660e01b8152600401602060405180830381865afa158015611b1c573d6000803e3d6000fd5b505050506040513d601f19601f82011682018060405250810190611b409190612961565b90506000611b4f8260126127bf565b611b5a90600a6128bc565b611b64908661275d565b9050683635c9adc5dea000008110158015611b89575069043c33c19375648000008111155b611b9257600080fd5b9695505050505050565b60008211611bdc5760405162461bcd60e51b815260206004820152600d60248201526c5a65726f20707572636861736560981b604482015260640161030c565b68056bc75e2d63100000821015611c355760405162461bcd60e51b815260206004820152601a60248201527f42656c6f77206d696e696d756d20636f6e747269627574696f6e000000000000604482015260640161030c565b33600090815260096020526040902054690a968163f0a57b40000090611c5c908490612796565b1115611c9e5760405162461bcd60e51b8152602060048201526011602482015270155cd95c8818d85c08195e18d959591959607a1b604482015260640161030c565b6a52b7d2dcc80cd2e400000082600554611cb89190612796565b1115611cfa5760405162461bcd60e51b815260206004820152601160248201527012185c990818d85c08195e18d959591959607a1b604482015260640161030c565b60006004549050600060038281548110611d1657611d166127a9565b60009182526020909120600490910201600381015490915060ff1615611d6f5760405162461bcd60e51b815260206004820152600e60248201526d506861736520636f6d706c65746560901b604482015260640161030c565b80546002820154611d81908690612796565b1115611dc45760405162461bcd60e51b8152602060048201526012602482015271141a185cd94818d85c08195e18d95959195960721b604482015260640161030c565b6001810154600090611dde86670de0b6b3a764000061275d565b611de89190612774565b905083811015611e2e5760405162461bcd60e51b815260206004820152601160248201527014db1a5c1c1859d948195e18d959591959607a1b604482015260640161030c565b6040516370a0823160e01b81523060048201526000907f00000000000000000000000000000000000000000000000000000000000000006001600160a01b0316906370a0823190602401602060405180830381865afa158015611e95573d6000803e3d6000fd5b505050506040513d601f19601f82011682018060405250810190611eb991906128cb565b90508160075482611eca91906128e4565b1015611f185760405162461bcd60e51b815260206004820152601c60248201527f496e73756666696369656e7420746f6b656e20696e76656e746f727900000000604482015260640161030c565b3360009081526009602052604081208054889290611f37908490612796565b9250508190555085836002016000828254611f529190612796565b925050819055508560056000828254611f6b9190612796565b90915550506000848152600a6020908152604080832033845290915281208054849290611f99908490612796565b925050819055508160076000828254611fb29190612796565b90915550506040805187815260208101849052859133917f0d1a0d5e3d583a0e92588799dd06e50fd78c07daf05f0cc06d7b848b1ca445f1910160405180910390a3825460028401541061209d5760038301805460ff1916600117905560405184907fd4259e19938b793359dfc6c726df41a4cce156deffd8c4a4ed4a681a6167077490600090a26a0c685fa11e01ec6f0000006005541015801561207257506000600254610100900460ff1660038111156120705761207061266e565b145b15612087576002805461ff0019166101001790555b600480549060006120978361297e565b91905055505b6120a561227c565b505050505050565b6040516001600160a01b03838116602483015260448201839052610cf391859182169063a9059cbb906064015b604051602081830303815290604052915060e01b6020820180516001600160e01b03838183161783525050505061230b565b600061211883836111c0565b156118d4576000838152602081815260408083206001600160a01b0386168085529252808320805460ff1916905551339286917ff6391f5c32d9c69d2a47ea670b442974b53935d1edc7fd64eb21e047a839171b9190a4506001610a6d565b61217f61237c565b6002805460ff191690557f5db9ee0a495bf2e6ff9c91a7834c1ba4fdd244a5e8aa4e537bd38aeae4b073aa335b6040516001600160a01b03909116815260200160405180910390a1565b6121d1611906565b6002805460ff191660011790557f62e78cea01bee320cd4e420270b5ea74000d11b0c9f74754ebdbfc544b05a2586121ac3390565b6040516001600160a01b038481166024830152838116604483015260648201839052610ad59186918216906323b872dd906084016120da565b61224982826111c0565b6122785760405163e2517d3f60e01b81526001600160a01b03821660048201526024810183905260440161030c565b5050565b6a0422ca8b0a00a4250000006006546122959190612796565b600554106114a1576a0422ca8b0a00a425000000600660008282546122ba9190612796565b909155506122c8905061239f565b6040516a0422ca8b0a00a42500000081527f952b264c8e0a06cddb4bbaa6d6af1d565145329fd95bbe72cb2b53942b2dc9669060200160405180910390a161227c565b600080602060008451602086016000885af18061232e576040513d6000823e3d81fd5b50506000513d91508115612346578060011415612353565b6001600160a01b0384163b155b15610ad557604051635274afe760e01b81526001600160a01b038516600482015260240161030c565b60025460ff166114a157604051638dfc202b60e01b815260040160405180910390fd5b7f0000000000000000000000000000000000000000000000000000000000000000478015612462576000826001600160a01b03168260405160006040518083038185875af1925050503d8060008114612414576040519150601f19603f3d011682016040523d82523d6000602084013e612419565b606091505b50509050806124605760405162461bcd60e51b8152602060048201526013602482015272115512081d1c985b9cd9995c8819985a5b1959606a1b604482015260640161030c565b505b60105460005b81811015610ad557600060108281548110612485576124856127a9565b60009182526020822001546040516370a0823160e01b81523060048201526001600160a01b03909116925082906370a0823190602401602060405180830381865afa1580156124d8573d6000803e3d6000fd5b505050506040513d601f19601f820116820180604052508101906124fc91906128cb565b90508015612518576125186001600160a01b03831687836120ad565b5050600101612468565b60006020828403121561253457600080fd5b81356001600160e01b03198116811461254c57600080fd5b9392505050565b60006020828403121561256557600080fd5b5035919050565b80356001600160a01b038116811461258357600080fd5b919050565b6000806040838503121561259b57600080fd5b6125a48361256c565b91506125b26020840161256c565b90509250929050565b600080604083850312156125ce57600080fd5b823591506125b26020840161256c565b6000602082840312156125f057600080fd5b61254c8261256c565b6000806020838503121561260c57600080fd5b823567ffffffffffffffff8082111561262457600080fd5b818501915085601f83011261263857600080fd5b81358181111561264757600080fd5b8660208260051b850101111561265c57600080fd5b60209290920196919550909350505050565b634e487b7160e01b600052602160045260246000fd5b60208101600483106126a657634e487b7160e01b600052602160045260246000fd5b91905290565b6000806000606084860312156126c157600080fd5b6126ca8461256c565b95602085013595506040909401359392505050565b60ff81168114610bdb57600080fd5b6000806040838503121561270157600080fd5b61270a8361256c565b9150602083013561271a816126df565b809150509250929050565b6000806040838503121561273857600080fd5b50508035926020909101359150565b634e487b7160e01b600052601160045260246000fd5b8082028115828204841417610a6d57610a6d612747565b60008261279157634e487b7160e01b600052601260045260246000fd5b500490565b80820180821115610a6d57610a6d612747565b634e487b7160e01b600052603260045260246000fd5b60ff8281168282160390811115610a6d57610a6d612747565b600181815b808511156128135781600019048211156127f9576127f9612747565b8085161561280657918102915b93841c93908002906127dd565b509250929050565b60008261282a57506001610a6d565b8161283757506000610a6d565b816001811461284d576002811461285757612873565b6001915050610a6d565b60ff84111561286857612868612747565b50506001821b610a6d565b5060208310610133831016604e8410600b8410161715612896575081810a610a6d565b6128a083836127d8565b80600019048211156128b4576128b4612747565b029392505050565b600061254c60ff84168361281b565b6000602082840312156128dd57600080fd5b5051919050565b81810381811115610a6d57610a6d612747565b805169ffffffffffffffffffff8116811461258357600080fd5b600080600080600060a0868803121561292957600080fd5b612932866128f7565b9450602086015193506040860151925060608601519150612955608087016128f7565b90509295509295909350565b60006020828403121561297357600080fd5b815161254c816126df565b60006001820161299057612990612747565b506001019056fe97667070c54ef182b0f5858b034beac1b6f3089aa2d3188bb1e8929f4fa9b929a264697066735822122042ce382f31fcf01bf9810e22be026a83c39303266e313989d351f7d5b5d1eedf64736f6c63430008140033","opcodes":"PUSH1 0x80 PUSH1 0x40 MSTORE PUSH1 0x1 PUSH1 0x2 PUSH1 0x3 PUSH1 0x4 PUSH1 0x40 MLOAD PUSH2 0x18 SWAP1 PUSH2 0x82 JUMP JUMPDEST PUSH1 0x1 PUSH1 0x1 PUSH1 0xA0 SHL SUB SWAP5 DUP6 AND DUP2 MSTORE SWAP3 DUP5 AND PUSH1 0x20 DUP5 ADD MSTORE SWAP1 DUP4 AND PUSH1 0x40 DUP4 ADD MSTORE SWAP1 SWAP2 AND PUSH1 0x60 DUP3 ADD MSTORE PUSH1 0x80 ADD PUSH1 0x40 MLOAD DUP1 SWAP2 SUB SWAP1 PUSH1 0x0 CREATE DUP1 ISZERO DUP1 ISZERO PUSH2 0x5C JUMPI RETURNDATASIZE PUSH1 0x0 DUP1 RETURNDATACOPY RETURNDATASIZE PUSH1 0x0 REVERT JUMPDEST POP PUSH1 0x0 DUP1 SLOAD PUSH1 0x1 PUSH1 0x1 PUSH1 0xA0 SHL SUB NOT AND PUSH1 0x1 PUSH1 0x1 PUSH1 0xA0 SHL SUB SWAP3 SWAP1 SWAP3 AND SWAP2 SWAP1 SWAP2 OR SWAP1 SSTORE PUSH2 0x8F JUMP JUMPDEST PUSH2 0x2C6F DUP1 PUSH2 0x4CE DUP4 CODECOPY ADD SWAP1 JUMP JUMPDEST PUSH2 0x430 DUP1 PUSH2 0x9E PUSH1 0x0 CODECOPY PUSH1 0x0 RETURN INVALID PUSH1 0x80 PUSH1 0x40 MSTORE PUSH1 0x4 CALLDATASIZE LT PUSH2 0x3F JUMPI PUSH1 0x0 CALLDATALOAD PUSH1 0xE0 SHR DUP1 PUSH4 0x2A5960F1 EQ PUSH2 0x44 JUMPI DUP1 PUSH4 0x2D8E3132 EQ PUSH2 0x59 JUMPI DUP1 PUSH4 0x57B8633D EQ PUSH2 0x83 JUMPI DUP1 PUSH4 0x6AD1FE02 EQ PUSH2 0x98 JUMPI JUMPDEST PUSH1 0x0 DUP1 REVERT JUMPDEST PUSH2 0x57 PUSH2 0x52 CALLDATASIZE PUSH1 0x4 PUSH2 0x376 JUMP JUMPDEST PUSH2 0xD0 JUMP JUMPDEST STOP JUMPDEST CALLVALUE DUP1 ISZERO PUSH2 0x65 JUMPI PUSH1 0x0 DUP1 REVERT JUMPDEST POP PUSH2 0x6E PUSH2 0x14C JUMP JUMPDEST PUSH1 0x40 MLOAD SWAP1 ISZERO ISZERO DUP2 MSTORE PUSH1 0x20 ADD JUMPDEST PUSH1 0x40 MLOAD DUP1 SWAP2 SUB SWAP1 RETURN JUMPDEST CALLVALUE DUP1 ISZERO PUSH2 0x8F JUMPI PUSH1 0x0 DUP1 REVERT JUMPDEST POP PUSH2 0x6E PUSH2 0x240 JUMP JUMPDEST CALLVALUE DUP1 ISZERO PUSH2 0xA4 JUMPI PUSH1 0x0 DUP1 REVERT JUMPDEST POP PUSH1 0x0 SLOAD PUSH2 0xB8 SWAP1 PUSH1 0x1 PUSH1 0x1 PUSH1 0xA0 SHL SUB AND DUP2 JUMP JUMPDEST PUSH1 0x40 MLOAD PUSH1 0x1 PUSH1 0x1 PUSH1 0xA0 SHL SUB SWAP1 SWAP2 AND DUP2 MSTORE PUSH1 0x20 ADD PUSH2 0x7A JUMP JUMPDEST PUSH2 0xE2 PUSH8 0xDE0B6B3A7640000 DUP3 PUSH2 0x38F JUMP JUMPDEST SWAP1 POP DUP1 PUSH1 0x0 SUB PUSH2 0xEF JUMPI POP JUMP JUMPDEST PUSH1 0x0 DUP1 SLOAD PUSH1 0x40 MLOAD PUSH4 0x31AD36AB PUSH1 0xE0 SHL DUP2 MSTORE PUSH1 0x4 DUP2 ADD SWAP3 SWAP1 SWAP3 MSTORE PUSH1 0x1 PUSH1 0x1 PUSH1 0xA0 SHL SUB AND SWAP1 PUSH4 0x31AD36AB SWAP1 DUP4 SWAP1 PUSH1 0x24 ADD PUSH1 0x0 PUSH1 0x40 MLOAD DUP1 DUP4 SUB DUP2 DUP6 DUP9 DUP1 EXTCODESIZE ISZERO DUP1 ISZERO PUSH2 0x136 JUMPI PUSH1 0x0 DUP1 REVERT JUMPDEST POP GAS CALL SWAP4 POP POP POP POP DUP1 ISZERO PUSH2 0x148 JUMPI POP PUSH1 0x1 JUMPDEST POP POP JUMP JUMPDEST PUSH1 0x0 DUP1 PUSH1 0x0 SWAP1 SLOAD SWAP1 PUSH2 0x100 EXP SWAP1 DIV PUSH1 0x1 PUSH1 0x1 PUSH1 0xA0 SHL SUB AND PUSH1 0x1 PUSH1 0x1 PUSH1 0xA0 SHL SUB AND PUSH4 0x3A03171C PUSH1 0x40 MLOAD DUP2 PUSH4 0xFFFFFFFF AND PUSH1 0xE0 SHL DUP2 MSTORE PUSH1 0x4 ADD PUSH1 0x20 PUSH1 0x40 MLOAD DUP1 DUP4 SUB DUP2 DUP7 GAS STATICCALL ISZERO DUP1 ISZERO PUSH2 0x1A0 JUMPI RETURNDATASIZE PUSH1 0x0 DUP1 RETURNDATACOPY RETURNDATASIZE PUSH1 0x0 REVERT JUMPDEST POP POP POP POP PUSH1 0x40 MLOAD RETURNDATASIZE PUSH1 0x1F NOT PUSH1 0x1F DUP3 ADD AND DUP3 ADD DUP1 PUSH1 0x40 MSTORE POP DUP2 ADD SWAP1 PUSH2 0x1C4 SWAP2 SWAP1 PUSH2 0x3B1 JUMP JUMPDEST PUSH1 0x0 DUP1 SLOAD SWAP1 PUSH2 0x100 EXP SWAP1 DIV PUSH1 0x1 PUSH1 0x1 PUSH1 0xA0 SHL SUB AND PUSH1 0x1 PUSH1 0x1 PUSH1 0xA0 SHL SUB AND PUSH4 0x1252AF75 PUSH1 0x40 MLOAD DUP2 PUSH4 0xFFFFFFFF AND PUSH1 0xE0 SHL DUP2 MSTORE PUSH1 0x4 ADD PUSH1 0x20 PUSH1 0x40 MLOAD DUP1 DUP4 SUB DUP2 DUP7 GAS STATICCALL ISZERO DUP1 ISZERO PUSH2 0x215 JUMPI RETURNDATASIZE PUSH1 0x0 DUP1 RETURNDATACOPY RETURNDATASIZE PUSH1 0x0 REVERT JUMPDEST POP POP POP POP PUSH1 0x40 MLOAD RETURNDATASIZE PUSH1 0x1F NOT PUSH1 0x1F DUP3 ADD AND DUP3 ADD DUP1 PUSH1 0x40 MSTORE POP DUP2 ADD SWAP1 PUSH2 0x239 SWAP2 SWAP1 PUSH2 0x3B1 JUMP JUMPDEST GT ISZERO SWAP1 POP SWAP1 JUMP JUMPDEST PUSH1 0x0 DUP1 PUSH1 0x0 SWAP1 SLOAD SWAP1 PUSH2 0x100 EXP SWAP1 DIV PUSH1 0x1 PUSH1 0x1 PUSH1 0xA0 SHL SUB AND PUSH1 0x1 PUSH1 0x1 PUSH1 0xA0 SHL SUB AND PUSH4 0xFC0C546A PUSH1 0x40 MLOAD DUP2 PUSH4 0xFFFFFFFF AND PUSH1 0xE0 SHL DUP2 MSTORE PUSH1 0x4 ADD PUSH1 0x20 PUSH1 0x40 MLOAD DUP1 DUP4 SUB DUP2 DUP7 GAS STATICCALL ISZERO DUP1 ISZERO PUSH2 0x294 JUMPI RETURNDATASIZE PUSH1 0x0 DUP1 RETURNDATACOPY RETURNDATASIZE PUSH1 0x0 REVERT JUMPDEST POP POP POP POP PUSH1 0x40 MLOAD RETURNDATASIZE PUSH1 0x1F NOT PUSH1 0x1F DUP3 ADD AND DUP3 ADD DUP1 PUSH1 0x40 MSTORE POP DUP2 ADD SWAP1 PUSH2 0x2B8 SWAP2 SWAP1 PUSH2 0x3CA JUMP JUMPDEST PUSH1 0x0 SLOAD PUSH1 0x40 MLOAD PUSH4 0x70A08231 PUSH1 0xE0 SHL DUP2 MSTORE PUSH1 0x1 PUSH1 0x1 PUSH1 0xA0 SHL SUB SWAP2 DUP3 AND PUSH1 0x4 DUP3 ADD MSTORE SWAP2 AND SWAP1 PUSH4 0x70A08231 SWAP1 PUSH1 0x24 ADD PUSH1 0x20 PUSH1 0x40 MLOAD DUP1 DUP4 SUB DUP2 DUP7 GAS STATICCALL ISZERO DUP1 ISZERO PUSH2 0x301 JUMPI RETURNDATASIZE PUSH1 0x0 DUP1 RETURNDATACOPY RETURNDATASIZE PUSH1 0x0 REVERT JUMPDEST POP POP POP POP PUSH1 0x40 MLOAD RETURNDATASIZE PUSH1 0x1F NOT PUSH1 0x1F DUP3 ADD AND DUP3 ADD DUP1 PUSH1 0x40 MSTORE POP DUP2 ADD SWAP1 PUSH2 0x325 SWAP2 SWAP1 PUSH2 0x3B1 JUMP JUMPDEST PUSH1 0x0 DUP1 SLOAD SWAP1 PUSH2 0x100 EXP SWAP1 DIV PUSH1 0x1 PUSH1 0x1 PUSH1 0xA0 SHL SUB AND PUSH1 0x1 PUSH1 0x1 PUSH1 0xA0 SHL SUB AND PUSH4 0x63B20117 PUSH1 0x40 MLOAD DUP2 PUSH4 0xFFFFFFFF AND PUSH1 0xE0 SHL DUP2 MSTORE PUSH1 0x4 ADD PUSH1 0x20 PUSH1 0x40 MLOAD DUP1 DUP4 SUB DUP2 DUP7 GAS STATICCALL ISZERO DUP1 ISZERO PUSH2 0x215 JUMPI RETURNDATASIZE PUSH1 0x0 DUP1 RETURNDATACOPY RETURNDATASIZE PUSH1 0x0 REVERT JUMPDEST PUSH1 0x0 PUSH1 0x20 DUP3 DUP5 SUB SLT ISZERO PUSH2 0x388 JUMPI PUSH1 0x0 DUP1 REVERT JUMPDEST POP CALLDATALOAD SWAP2 SWAP1 POP JUMP JUMPDEST PUSH1 0x0 DUP3 PUSH2 0x3AC JUMPI PUSH4 0x4E487B71 PUSH1 0xE0 SHL PUSH1 0x0 MSTORE PUSH1 0x12 PUSH1 0x4 MSTORE PUSH1 0x24 PUSH1 0x0 REVERT JUMPDEST POP MOD SWAP1 JUMP JUMPDEST PUSH1 0x0 PUSH1 0x20 DUP3 DUP5 SUB SLT ISZERO PUSH2 0x3C3 JUMPI PUSH1 0x0 DUP1 REVERT JUMPDEST POP MLOAD SWAP2 SWAP1 POP JUMP JUMPDEST PUSH1 0x0 PUSH1 0x20 DUP3 DUP5 SUB SLT ISZERO PUSH2 0x3DC JUMPI PUSH1 0x0 DUP1 REVERT JUMPDEST DUP2 MLOAD PUSH1 0x1 PUSH1 0x1 PUSH1 0xA0 SHL SUB DUP2 AND DUP2 EQ PUSH2 0x3F3 JUMPI PUSH1 0x0 DUP1 REVERT JUMPDEST SWAP4 SWAP3 POP POP POP JUMP INVALID LOG2 PUSH5 0x6970667358 0x22 SLT KECCAK256 NUMBER 0xA6 0x4C DIV PUSH1 0xEF 0xC4 0xF7 POP 0xBB 0xCD SELFDESTRUCT SUB CALLVALUE PUSH9 0x47922A076B9F8E5C03 PUSH19 0xF94D9A8498334A64736F6C6343000814003360 0xE0 PUSH1 0x40 MSTORE CALLVALUE DUP1 ISZERO PUSH3 0x11 JUMPI PUSH1 0x0 DUP1 REVERT JUMPDEST POP PUSH1 0x40 MLOAD PUSH3 0x2C6F CODESIZE SUB DUP1 PUSH3 0x2C6F DUP4 CODECOPY DUP2 ADD PUSH1 0x40 DUP2 SWAP1 MSTORE PUSH3 0x34 SWAP2 PUSH3 0x1BD JUMP JUMPDEST PUSH1 0x1 DUP1 SSTORE PUSH1 0x1 PUSH1 0x1 PUSH1 0xA0 SHL SUB DUP5 AND PUSH3 0x4C JUMPI PUSH1 0x0 DUP1 REVERT JUMPDEST PUSH1 0x1 PUSH1 0x1 PUSH1 0xA0 SHL SUB DUP4 AND PUSH3 0x60 JUMPI PUSH1 0x0 DUP1 REVERT JUMPDEST PUSH1 0x1 PUSH1 0x1 PUSH1 0xA0 SHL SUB DUP3 AND PUSH3 0x74 JUMPI PUSH1 0x0 DUP1 REVERT JUMPDEST PUSH1 0x1 PUSH1 0x1 PUSH1 0xA0 SHL SUB DUP2 AND PUSH3 0x88 JUMPI PUSH1 0x0 DUP1 REVERT JUMPDEST PUSH1 0x1 PUSH1 0x1 PUSH1 0xA0 SHL SUB DUP5 DUP2 AND PUSH1 0x80 MSTORE DUP4 DUP2 AND PUSH1 0xA0 MSTORE DUP3 AND PUSH1 0xC0 MSTORE PUSH1 0x2 DUP1 SLOAD PUSH2 0xFF00 NOT AND SWAP1 SSTORE PUSH3 0xB9 PUSH1 0x0 DUP3 PUSH3 0xF1 JUMP JUMPDEST POP PUSH3 0xE6 PUSH32 0x97667070C54EF182B0F5858B034BEAC1B6F3089AA2D3188BB1E8929F4FA9B929 DUP3 PUSH3 0xF1 JUMP JUMPDEST POP POP POP POP POP PUSH3 0x21A JUMP JUMPDEST PUSH1 0x0 DUP3 DUP2 MSTORE PUSH1 0x20 DUP2 DUP2 MSTORE PUSH1 0x40 DUP1 DUP4 KECCAK256 PUSH1 0x1 PUSH1 0x1 PUSH1 0xA0 SHL SUB DUP6 AND DUP5 MSTORE SWAP1 SWAP2 MSTORE DUP2 KECCAK256 SLOAD PUSH1 0xFF AND PUSH3 0x196 JUMPI PUSH1 0x0 DUP4 DUP2 MSTORE PUSH1 0x20 DUP2 DUP2 MSTORE PUSH1 0x40 DUP1 DUP4 KECCAK256 PUSH1 0x1 PUSH1 0x1 PUSH1 0xA0 SHL SUB DUP7 AND DUP5 MSTORE SWAP1 SWAP2 MSTORE SWAP1 KECCAK256 DUP1 SLOAD PUSH1 0xFF NOT AND PUSH1 0x1 OR SWAP1 SSTORE PUSH3 0x14D CALLER SWAP1 JUMP JUMPDEST PUSH1 0x1 PUSH1 0x1 PUSH1 0xA0 SHL SUB AND DUP3 PUSH1 0x1 PUSH1 0x1 PUSH1 0xA0 SHL SUB AND DUP5 PUSH32 0x2F8788117E7EFF1D82E926EC794901D17C78024A50270940304540A733656F0D PUSH1 0x40 MLOAD PUSH1 0x40 MLOAD DUP1 SWAP2 SUB SWAP1 LOG4 POP PUSH1 0x1 PUSH3 0x19A JUMP JUMPDEST POP PUSH1 0x0 JUMPDEST SWAP3 SWAP2 POP POP JUMP JUMPDEST DUP1 MLOAD PUSH1 0x1 PUSH1 0x1 PUSH1 0xA0 SHL SUB DUP2 AND DUP2 EQ PUSH3 0x1B8 JUMPI PUSH1 0x0 DUP1 REVERT JUMPDEST SWAP2 SWAP1 POP JUMP JUMPDEST PUSH1 0x0 DUP1 PUSH1 0x0 DUP1 PUSH1 0x80 DUP6 DUP8 SUB SLT ISZERO PUSH3 0x1D4 JUMPI PUSH1 0x0 DUP1 REVERT JUMPDEST PUSH3 0x1DF DUP6 PUSH3 0x1A0 JUMP JUMPDEST SWAP4 POP PUSH3 0x1EF PUSH1 0x20 DUP7 ADD PUSH3 0x1A0 JUMP JUMPDEST SWAP3 POP PUSH3 0x1FF PUSH1 0x40 DUP7 ADD PUSH3 0x1A0 JUMP JUMPDEST SWAP2 POP PUSH3 0x20F PUSH1 0x60 DUP7 ADD PUSH3 0x1A0 JUMP JUMPDEST SWAP1 POP SWAP3 SWAP6 SWAP2 SWAP5 POP SWAP3 POP JUMP JUMPDEST PUSH1 0x80 MLOAD PUSH1 0xA0 MLOAD PUSH1 0xC0 MLOAD PUSH2 0x29ED PUSH3 0x282 PUSH1 0x0 CODECOPY PUSH1 0x0 DUP2 DUP2 PUSH2 0x660 ADD MSTORE DUP2 DUP2 PUSH2 0x15E5 ADD MSTORE PUSH2 0x23A1 ADD MSTORE PUSH1 0x0 DUP2 DUP2 PUSH2 0x6FA ADD MSTORE DUP2 DUP2 PUSH2 0x1934 ADD MSTORE PUSH2 0x1AC0 ADD MSTORE PUSH1 0x0 DUP2 DUP2 PUSH2 0xA1A ADD MSTORE DUP2 DUP2 PUSH2 0xC50 ADD MSTORE DUP2 DUP2 PUSH2 0x1513 ADD MSTORE DUP2 DUP2 PUSH2 0x15C3 ADD MSTORE PUSH2 0x1E46 ADD MSTORE PUSH2 0x29ED PUSH1 0x0 RETURN INVALID PUSH1 0x80 PUSH1 0x40 MSTORE PUSH1 0x4 CALLDATASIZE LT PUSH2 0x2CD JUMPI PUSH1 0x0 CALLDATALOAD PUSH1 0xE0 SHR DUP1 PUSH4 0x7DC0D1D0 GT PUSH2 0x175 JUMPI DUP1 PUSH4 0xB652DC2F GT PUSH2 0xDC JUMPI DUP1 PUSH4 0xD5F8CF0D GT PUSH2 0x95 JUMPI DUP1 PUSH4 0xE746A1D2 GT PUSH2 0x6F JUMPI DUP1 PUSH4 0xE746A1D2 EQ PUSH2 0x999 JUMPI DUP1 PUSH4 0xF5B541A6 EQ PUSH2 0x9B9 JUMPI DUP1 PUSH4 0xF96F5B35 EQ PUSH2 0x9DB JUMPI DUP1 PUSH4 0xFC0C546A EQ PUSH2 0xA08 JUMPI PUSH2 0x315 JUMP JUMPDEST DUP1 PUSH4 0xD5F8CF0D EQ PUSH2 0x937 JUMPI DUP1 PUSH4 0xDB5E0063 EQ PUSH2 0x957 JUMPI DUP1 PUSH4 0xE1C1DD6F EQ PUSH2 0x96C JUMPI PUSH2 0x315 JUMP JUMPDEST DUP1 PUSH4 0xB652DC2F EQ PUSH2 0x85B JUMPI DUP1 PUSH4 0xC6BC88BE EQ PUSH2 0x87A JUMPI DUP1 PUSH4 0xC6D3107F EQ PUSH2 0x8AA JUMPI DUP1 PUSH4 0xC8BDBFB6 EQ PUSH2 0x8C0 JUMPI DUP1 PUSH4 0xD21A74FF EQ PUSH2 0x8D5 JUMPI DUP1 PUSH4 0xD547741F EQ PUSH2 0x917 JUMPI PUSH2 0x315 JUMP JUMPDEST DUP1 PUSH4 0x91D14854 GT PUSH2 0x12E JUMPI DUP1 PUSH4 0x91D14854 EQ PUSH2 0x7B6 JUMPI DUP1 PUSH4 0x94D95F8F EQ PUSH2 0x7D6 JUMPI DUP1 PUSH4 0x9B9ECC99 EQ PUSH2 0x7F4 JUMPI DUP1 PUSH4 0xA217FDDF EQ PUSH2 0x811 JUMPI DUP1 PUSH4 0xA52DBA3C EQ PUSH2 0x826 JUMPI DUP1 PUSH4 0xB5545A3C EQ PUSH2 0x846 JUMPI PUSH2 0x315 JUMP JUMPDEST DUP1 PUSH4 0x7DC0D1D0 EQ PUSH2 0x6E8 JUMPI DUP1 PUSH4 0x7F649783 EQ PUSH2 0x71C JUMPI DUP1 PUSH4 0x8456CB59 EQ PUSH2 0x73C JUMPI DUP1 PUSH4 0x865EB74A EQ PUSH2 0x751 JUMPI DUP1 PUSH4 0x8B9A71CF EQ PUSH2 0x781 JUMPI DUP1 PUSH4 0x8C52DC41 EQ PUSH2 0x7A1 JUMPI PUSH2 0x315 JUMP JUMPDEST DUP1 PUSH4 0x3AF32ABF GT PUSH2 0x234 JUMPI DUP1 PUSH4 0x599D56E0 GT PUSH2 0x1ED JUMPI DUP1 PUSH4 0x603F4D52 GT PUSH2 0x1C7 JUMPI DUP1 PUSH4 0x603F4D52 EQ PUSH2 0x622 JUMPI DUP1 PUSH4 0x61D027B3 EQ PUSH2 0x64E JUMPI DUP1 PUSH4 0x63B20117 EQ PUSH2 0x69A JUMPI DUP1 PUSH4 0x6620CBE2 EQ PUSH2 0x6B0 JUMPI PUSH2 0x315 JUMP JUMPDEST DUP1 PUSH4 0x599D56E0 EQ PUSH2 0x5D6 JUMPI DUP1 PUSH4 0x5C975ABB EQ PUSH2 0x5EC JUMPI DUP1 PUSH4 0x5FC2D283 EQ PUSH2 0x604 JUMPI PUSH2 0x315 JUMP JUMPDEST DUP1 PUSH4 0x3AF32ABF EQ PUSH2 0x51F JUMPI DUP1 PUSH4 0x3F4BA83A EQ PUSH2 0x54F JUMPI DUP1 PUSH4 0x40650C91 EQ PUSH2 0x564 JUMPI DUP1 PUSH4 0x48EB38FB EQ PUSH2 0x581 JUMPI DUP1 PUSH4 0x548DB174 EQ PUSH2 0x5A1 JUMPI DUP1 PUSH4 0x58A687EC EQ PUSH2 0x5C1 JUMPI PUSH2 0x315 JUMP JUMPDEST DUP1 PUSH4 0x2F2FF15D GT PUSH2 0x286 JUMPI DUP1 PUSH4 0x2F2FF15D EQ PUSH2 0x46C JUMPI DUP1 PUSH4 0x30E9D37B EQ PUSH2 0x48E JUMPI DUP1 PUSH4 0x31AD36AB EQ PUSH2 0x4AD JUMPI DUP1 PUSH4 0x32855ED2 EQ PUSH2 0x4C0 JUMPI DUP1 PUSH4 0x36568ABE EQ PUSH2 0x4E0 JUMPI DUP1 PUSH4 0x3A03171C EQ PUSH2 0x500 JUMPI PUSH2 0x315 JUMP JUMPDEST DUP1 PUSH4 0x1FFC9A7 EQ PUSH2 0x353 JUMPI DUP1 PUSH4 0x55AD42E EQ PUSH2 0x388 JUMPI DUP1 PUSH4 0x1252AF75 EQ PUSH2 0x3AC JUMPI DUP1 PUSH4 0x248A9CA3 EQ PUSH2 0x3C2 JUMPI DUP1 PUSH4 0x25915FF2 EQ PUSH2 0x3F2 JUMPI DUP1 PUSH4 0x2E37EEF6 EQ PUSH2 0x42A JUMPI PUSH2 0x315 JUMP JUMPDEST CALLDATASIZE PUSH2 0x315 JUMPI PUSH1 0x40 MLOAD PUSH3 0x461BCD PUSH1 0xE5 SHL DUP2 MSTORE PUSH1 0x20 PUSH1 0x4 DUP3 ADD MSTORE PUSH1 0x13 PUSH1 0x24 DUP3 ADD MSTORE PUSH19 0x55736520627579576974684E61746976652829 PUSH1 0x68 SHL PUSH1 0x44 DUP3 ADD MSTORE PUSH1 0x64 ADD JUMPDEST PUSH1 0x40 MLOAD DUP1 SWAP2 SUB SWAP1 REVERT JUMPDEST PUSH1 0x40 MLOAD PUSH3 0x461BCD PUSH1 0xE5 SHL DUP2 MSTORE PUSH1 0x20 PUSH1 0x4 DUP3 ADD MSTORE PUSH1 0x13 PUSH1 0x24 DUP3 ADD MSTORE PUSH19 0x55736520627579576974684E61746976652829 PUSH1 0x68 SHL PUSH1 0x44 DUP3 ADD MSTORE PUSH1 0x64 ADD PUSH2 0x30C JUMP JUMPDEST CALLVALUE DUP1 ISZERO PUSH2 0x35F JUMPI PUSH1 0x0 DUP1 REVERT JUMPDEST POP PUSH2 0x373 PUSH2 0x36E CALLDATASIZE PUSH1 0x4 PUSH2 0x2522 JUMP JUMPDEST PUSH2 0xA3C JUMP JUMPDEST PUSH1 0x40 MLOAD SWAP1 ISZERO ISZERO DUP2 MSTORE PUSH1 0x20 ADD JUMPDEST PUSH1 0x40 MLOAD DUP1 SWAP2 SUB SWAP1 RETURN JUMPDEST CALLVALUE DUP1 ISZERO PUSH2 0x394 JUMPI PUSH1 0x0 DUP1 REVERT JUMPDEST POP PUSH2 0x39E PUSH1 0x4 SLOAD DUP2 JUMP JUMPDEST PUSH1 0x40 MLOAD SWAP1 DUP2 MSTORE PUSH1 0x20 ADD PUSH2 0x37F JUMP JUMPDEST CALLVALUE DUP1 ISZERO PUSH2 0x3B8 JUMPI PUSH1 0x0 DUP1 REVERT JUMPDEST POP PUSH2 0x39E PUSH1 0x5 SLOAD DUP2 JUMP JUMPDEST CALLVALUE DUP1 ISZERO PUSH2 0x3CE JUMPI PUSH1 0x0 DUP1 REVERT JUMPDEST POP PUSH2 0x39E PUSH2 0x3DD CALLDATASIZE PUSH1 0x4 PUSH2 0x2553 JUMP JUMPDEST PUSH1 0x0 SWAP1 DUP2 MSTORE PUSH1 0x20 DUP2 SWAP1 MSTORE PUSH1 0x40 SWAP1 KECCAK256 PUSH1 0x1 ADD SLOAD SWAP1 JUMP JUMPDEST CALLVALUE DUP1 ISZERO PUSH2 0x3FE JUMPI PUSH1 0x0 DUP1 REVERT JUMPDEST POP PUSH2 0x39E PUSH2 0x40D CALLDATASIZE PUSH1 0x4 PUSH2 0x2588 JUMP JUMPDEST PUSH1 0xD PUSH1 0x20 SWAP1 DUP2 MSTORE PUSH1 0x0 SWAP3 DUP4 MSTORE PUSH1 0x40 DUP1 DUP5 KECCAK256 SWAP1 SWAP2 MSTORE SWAP1 DUP3 MSTORE SWAP1 KECCAK256 SLOAD DUP2 JUMP JUMPDEST CALLVALUE DUP1 ISZERO PUSH2 0x436 JUMPI PUSH1 0x0 DUP1 REVERT JUMPDEST POP PUSH2 0x44A PUSH2 0x445 CALLDATASIZE PUSH1 0x4 PUSH2 0x2553 JUMP JUMPDEST PUSH2 0xA73 JUMP JUMPDEST PUSH1 0x40 DUP1 MLOAD SWAP5 DUP6 MSTORE PUSH1 0x20 DUP6 ADD SWAP4 SWAP1 SWAP4 MSTORE SWAP2 DUP4 ADD MSTORE ISZERO ISZERO PUSH1 0x60 DUP3 ADD MSTORE PUSH1 0x80 ADD PUSH2 0x37F JUMP JUMPDEST CALLVALUE DUP1 ISZERO PUSH2 0x478 JUMPI PUSH1 0x0 DUP1 REVERT JUMPDEST POP PUSH2 0x48C PUSH2 0x487 CALLDATASIZE PUSH1 0x4 PUSH2 0x25BB JUMP JUMPDEST PUSH2 0xAB0 JUMP JUMPDEST STOP JUMPDEST CALLVALUE DUP1 ISZERO PUSH2 0x49A JUMPI PUSH1 0x0 DUP1 REVERT JUMPDEST POP PUSH2 0x39E PUSH11 0x422CA8B0A00A425000000 DUP2 JUMP JUMPDEST PUSH2 0x48C PUSH2 0x4BB CALLDATASIZE PUSH1 0x4 PUSH2 0x2553 JUMP JUMPDEST PUSH2 0xADB JUMP JUMPDEST CALLVALUE DUP1 ISZERO PUSH2 0x4CC JUMPI PUSH1 0x0 DUP1 REVERT JUMPDEST POP PUSH2 0x48C PUSH2 0x4DB CALLDATASIZE PUSH1 0x4 PUSH2 0x2553 JUMP JUMPDEST PUSH2 0xBDE JUMP JUMPDEST CALLVALUE DUP1 ISZERO PUSH2 0x4EC JUMPI PUSH1 0x0 DUP1 REVERT JUMPDEST POP PUSH2 0x48C PUSH2 0x4FB CALLDATASIZE PUSH1 0x4 PUSH2 0x25BB JUMP JUMPDEST PUSH2 0xCC0 JUMP JUMPDEST CALLVALUE DUP1 ISZERO PUSH2 0x50C JUMPI PUSH1 0x0 DUP1 REVERT JUMPDEST POP PUSH2 0x39E PUSH11 0x52B7D2DCC80CD2E4000000 DUP2 JUMP JUMPDEST CALLVALUE DUP1 ISZERO PUSH2 0x52B JUMPI PUSH1 0x0 DUP1 REVERT JUMPDEST POP PUSH2 0x373 PUSH2 0x53A CALLDATASIZE PUSH1 0x4 PUSH2 0x25DE JUMP JUMPDEST PUSH1 0x8 PUSH1 0x20 MSTORE PUSH1 0x0 SWAP1 DUP2 MSTORE PUSH1 0x40 SWAP1 KECCAK256 SLOAD PUSH1 0xFF AND DUP2 JUMP JUMPDEST CALLVALUE DUP1 ISZERO PUSH2 0x55B JUMPI PUSH1 0x0 DUP1 REVERT JUMPDEST POP PUSH2 0x48C PUSH2 0xCF8 JUMP JUMPDEST CALLVALUE DUP1 ISZERO PUSH2 0x570 JUMPI PUSH1 0x0 DUP1 REVERT JUMPDEST POP PUSH2 0x39E PUSH9 0x56BC75E2D63100000 DUP2 JUMP JUMPDEST CALLVALUE DUP1 ISZERO PUSH2 0x58D JUMPI PUSH1 0x0 DUP1 REVERT JUMPDEST POP PUSH2 0x48C PUSH2 0x59C CALLDATASIZE PUSH1 0x4 PUSH2 0x2553 JUMP JUMPDEST PUSH2 0xD0B JUMP JUMPDEST CALLVALUE DUP1 ISZERO PUSH2 0x5AD JUMPI PUSH1 0x0 DUP1 REVERT JUMPDEST POP PUSH2 0x48C PUSH2 0x5BC CALLDATASIZE PUSH1 0x4 PUSH2 0x25F9 JUMP JUMPDEST PUSH2 0xD9A JUMP JUMPDEST CALLVALUE DUP1 ISZERO PUSH2 0x5CD JUMPI PUSH1 0x0 DUP1 REVERT JUMPDEST POP PUSH2 0x48C PUSH2 0xEA0 JUMP JUMPDEST CALLVALUE DUP1 ISZERO PUSH2 0x5E2 JUMPI PUSH1 0x0 DUP1 REVERT JUMPDEST POP PUSH2 0x39E PUSH1 0x6 SLOAD DUP2 JUMP JUMPDEST CALLVALUE DUP1 ISZERO PUSH2 0x5F8 JUMPI PUSH1 0x0 DUP1 REVERT JUMPDEST POP PUSH1 0x2 SLOAD PUSH1 0xFF AND PUSH2 0x373 JUMP JUMPDEST CALLVALUE DUP1 ISZERO PUSH2 0x610 JUMPI PUSH1 0x0 DUP1 REVERT JUMPDEST POP PUSH2 0x39E PUSH10 0x43C33C1937564800000 DUP2 JUMP JUMPDEST CALLVALUE DUP1 ISZERO PUSH2 0x62E JUMPI PUSH1 0x0 DUP1 REVERT JUMPDEST POP PUSH1 0x2 SLOAD PUSH2 0x641 SWAP1 PUSH2 0x100 SWAP1 DIV PUSH1 0xFF AND DUP2 JUMP JUMPDEST PUSH1 0x40 MLOAD PUSH2 0x37F SWAP2 SWAP1 PUSH2 0x2684 JUMP JUMPDEST CALLVALUE DUP1 ISZERO PUSH2 0x65A JUMPI PUSH1 0x0 DUP1 REVERT JUMPDEST POP PUSH2 0x682 PUSH32 0x0 DUP2 JUMP JUMPDEST PUSH1 0x40 MLOAD PUSH1 0x1 PUSH1 0x1 PUSH1 0xA0 SHL SUB SWAP1 SWAP2 AND DUP2 MSTORE PUSH1 0x20 ADD PUSH2 0x37F JUMP JUMPDEST CALLVALUE DUP1 ISZERO PUSH2 0x6A6 JUMPI PUSH1 0x0 DUP1 REVERT JUMPDEST POP PUSH2 0x39E PUSH1 0x7 SLOAD DUP2 JUMP JUMPDEST CALLVALUE DUP1 ISZERO PUSH2 0x6BC JUMPI PUSH1 0x0 DUP1 REVERT JUMPDEST POP PUSH2 0x39E PUSH2 0x6CB CALLDATASIZE PUSH1 0x4 PUSH2 0x25BB JUMP JUMPDEST PUSH1 0xA PUSH1 0x20 SWAP1 DUP2 MSTORE PUSH1 0x0 SWAP3 DUP4 MSTORE PUSH1 0x40 DUP1 DUP5 KECCAK256 SWAP1 SWAP2 MSTORE SWAP1 DUP3 MSTORE SWAP1 KECCAK256 SLOAD DUP2 JUMP JUMPDEST CALLVALUE DUP1 ISZERO PUSH2 0x6F4 JUMPI PUSH1 0x0 DUP1 REVERT JUMPDEST POP PUSH2 0x682 PUSH32 0x0 DUP2 JUMP JUMPDEST CALLVALUE DUP1 ISZERO PUSH2 0x728 JUMPI PUSH1 0x0 DUP1 REVERT JUMPDEST POP PUSH2 0x48C PUSH2 0x737 CALLDATASIZE PUSH1 0x4 PUSH2 0x25F9 JUMP JUMPDEST PUSH2 0xF0E JUMP JUMPDEST CALLVALUE DUP1 ISZERO PUSH2 0x748 JUMPI PUSH1 0x0 DUP1 REVERT JUMPDEST POP PUSH2 0x48C PUSH2 0x1014 JUMP JUMPDEST CALLVALUE DUP1 ISZERO PUSH2 0x75D JUMPI PUSH1 0x0 DUP1 REVERT JUMPDEST POP PUSH2 0x373 PUSH2 0x76C CALLDATASIZE PUSH1 0x4 PUSH2 0x25DE JUMP JUMPDEST PUSH1 0xE PUSH1 0x20 MSTORE PUSH1 0x0 SWAP1 DUP2 MSTORE PUSH1 0x40 SWAP1 KECCAK256 SLOAD PUSH1 0xFF AND DUP2 JUMP JUMPDEST CALLVALUE DUP1 ISZERO PUSH2 0x78D JUMPI PUSH1 0x0 DUP1 REVERT JUMPDEST POP PUSH2 0x48C PUSH2 0x79C CALLDATASIZE PUSH1 0x4 PUSH2 0x26AC JUMP JUMPDEST PUSH2 0x1027 JUMP JUMPDEST CALLVALUE DUP1 ISZERO PUSH2 0x7AD JUMPI PUSH1 0x0 DUP1 REVERT JUMPDEST POP PUSH2 0x48C PUSH2 0x118A JUMP JUMPDEST CALLVALUE DUP1 ISZERO PUSH2 0x7C2 JUMPI PUSH1 0x0 DUP1 REVERT JUMPDEST POP PUSH2 0x373 PUSH2 0x7D1 CALLDATASIZE PUSH1 0x4 PUSH2 0x25BB JUMP JUMPDEST PUSH2 0x11C0 JUMP JUMPDEST CALLVALUE DUP1 ISZERO PUSH2 0x7E2 JUMPI PUSH1 0x0 DUP1 REVERT JUMPDEST POP PUSH2 0x39E PUSH10 0xA968163F0A57B400000 DUP2 JUMP JUMPDEST CALLVALUE DUP1 ISZERO PUSH2 0x800 JUMPI PUSH1 0x0 DUP1 REVERT JUMPDEST POP PUSH2 0x39E PUSH9 0x3635C9ADC5DEA00000 DUP2 JUMP JUMPDEST CALLVALUE DUP1 ISZERO PUSH2 0x81D JUMPI PUSH1 0x0 DUP1 REVERT JUMPDEST POP PUSH2 0x39E PUSH1 0x0 DUP2 JUMP JUMPDEST CALLVALUE DUP1 ISZERO PUSH2 0x832 JUMPI PUSH1 0x0 DUP1 REVERT JUMPDEST POP PUSH2 0x48C PUSH2 0x841 CALLDATASIZE PUSH1 0x4 PUSH2 0x26EE JUMP JUMPDEST PUSH2 0x11E9 JUMP JUMPDEST CALLVALUE DUP1 ISZERO PUSH2 0x852 JUMPI PUSH1 0x0 DUP1 REVERT JUMPDEST POP PUSH2 0x48C PUSH2 0x12B2 JUMP JUMPDEST CALLVALUE DUP1 ISZERO PUSH2 0x867 JUMPI PUSH1 0x0 DUP1 REVERT JUMPDEST POP PUSH2 0x39E PUSH11 0xC685FA11E01EC6F000000 DUP2 JUMP JUMPDEST CALLVALUE DUP1 ISZERO PUSH2 0x886 JUMPI PUSH1 0x0 DUP1 REVERT JUMPDEST POP PUSH2 0x373 PUSH2 0x895 CALLDATASIZE PUSH1 0x4 PUSH2 0x2553 JUMP JUMPDEST PUSH1 0xB PUSH1 0x20 MSTORE PUSH1 0x0 SWAP1 DUP2 MSTORE PUSH1 0x40 SWAP1 KECCAK256 SLOAD PUSH1 0xFF AND DUP2 JUMP JUMPDEST CALLVALUE DUP1 ISZERO PUSH2 0x8B6 JUMPI PUSH1 0x0 DUP1 REVERT JUMPDEST POP PUSH2 0x39E PUSH2 0x384 DUP2 JUMP JUMPDEST CALLVALUE DUP1 ISZERO PUSH2 0x8CC JUMPI PUSH1 0x0 DUP1 REVERT JUMPDEST POP PUSH2 0x48C PUSH2 0x14A3 JUMP JUMPDEST CALLVALUE DUP1 ISZERO PUSH2 0x8E1 JUMPI PUSH1 0x0 DUP1 REVERT JUMPDEST POP PUSH2 0x905 PUSH2 0x8F0 CALLDATASIZE PUSH1 0x4 PUSH2 0x25DE JUMP JUMPDEST PUSH1 0xF PUSH1 0x20 MSTORE PUSH1 0x0 SWAP1 DUP2 MSTORE PUSH1 0x40 SWAP1 KECCAK256 SLOAD PUSH1 0xFF AND DUP2 JUMP JUMPDEST PUSH1 0x40 MLOAD PUSH1 0xFF SWAP1 SWAP2 AND DUP2 MSTORE PUSH1 0x20 ADD PUSH2 0x37F JUMP JUMPDEST CALLVALUE DUP1 ISZERO PUSH2 0x923 JUMPI PUSH1 0x0 DUP1 REVERT JUMPDEST POP PUSH2 0x48C PUSH2 0x932 CALLDATASIZE PUSH1 0x4 PUSH2 0x25BB JUMP JUMPDEST PUSH2 0x160A JUMP JUMPDEST CALLVALUE DUP1 ISZERO PUSH2 0x943 JUMPI PUSH1 0x0 DUP1 REVERT JUMPDEST POP PUSH2 0x48C PUSH2 0x952 CALLDATASIZE PUSH1 0x4 PUSH2 0x2725 JUMP JUMPDEST PUSH2 0x162F JUMP JUMPDEST CALLVALUE DUP1 ISZERO PUSH2 0x963 JUMPI PUSH1 0x0 DUP1 REVERT JUMPDEST POP PUSH1 0x3 SLOAD PUSH2 0x39E JUMP JUMPDEST CALLVALUE DUP1 ISZERO PUSH2 0x978 JUMPI PUSH1 0x0 DUP1 REVERT JUMPDEST POP PUSH2 0x39E PUSH2 0x987 CALLDATASIZE PUSH1 0x4 PUSH2 0x25DE JUMP JUMPDEST PUSH1 0x9 PUSH1 0x20 MSTORE PUSH1 0x0 SWAP1 DUP2 MSTORE PUSH1 0x40 SWAP1 KECCAK256 SLOAD DUP2 JUMP JUMPDEST CALLVALUE DUP1 ISZERO PUSH2 0x9A5 JUMPI PUSH1 0x0 DUP1 REVERT JUMPDEST POP PUSH2 0x682 PUSH2 0x9B4 CALLDATASIZE PUSH1 0x4 PUSH2 0x2553 JUMP JUMPDEST PUSH2 0x1816 JUMP JUMPDEST CALLVALUE DUP1 ISZERO PUSH2 0x9C5 JUMPI PUSH1 0x0 DUP1 REVERT JUMPDEST POP PUSH2 0x39E PUSH1 0x0 DUP1 MLOAD PUSH1 0x20 PUSH2 0x2998 DUP4 CODECOPY DUP2 MLOAD SWAP2 MSTORE DUP2 JUMP JUMPDEST CALLVALUE DUP1 ISZERO PUSH2 0x9E7 JUMPI PUSH1 0x0 DUP1 REVERT JUMPDEST POP PUSH2 0x39E PUSH2 0x9F6 CALLDATASIZE PUSH1 0x4 PUSH2 0x25DE JUMP JUMPDEST PUSH1 0xC PUSH1 0x20 MSTORE PUSH1 0x0 SWAP1 DUP2 MSTORE PUSH1 0x40 SWAP1 KECCAK256 SLOAD DUP2 JUMP JUMPDEST CALLVALUE DUP1 ISZERO PUSH2 0xA14 JUMPI PUSH1 0x0 DUP1 REVERT JUMPDEST POP PUSH2 0x682 PUSH32 0x0 DUP2 JUMP JUMPDEST PUSH1 0x0 PUSH1 0x1 PUSH1 0x1 PUSH1 0xE0 SHL SUB NOT DUP3 AND PUSH4 0x7965DB0B PUSH1 0xE0 SHL EQ DUP1 PUSH2 0xA6D JUMPI POP PUSH4 0x1FFC9A7 PUSH1 0xE0 SHL PUSH1 0x1 PUSH1 0x1 PUSH1 0xE0 SHL SUB NOT DUP4 AND EQ JUMPDEST SWAP3 SWAP2 POP POP JUMP JUMPDEST PUSH1 0x3 DUP2 DUP2 SLOAD DUP2 LT PUSH2 0xA83 JUMPI PUSH1 0x0 DUP1 REVERT JUMPDEST PUSH1 0x0 SWAP2 DUP3 MSTORE PUSH1 0x20 SWAP1 SWAP2 KECCAK256 PUSH1 0x4 SWAP1 SWAP2 MUL ADD DUP1 SLOAD PUSH1 0x1 DUP3 ADD SLOAD PUSH1 0x2 DUP4 ADD SLOAD PUSH1 0x3 SWAP1 SWAP4 ADD SLOAD SWAP2 SWAP4 POP SWAP2 SWAP1 PUSH1 0xFF AND DUP5 JUMP JUMPDEST PUSH1 0x0 DUP3 DUP2 MSTORE PUSH1 0x20 DUP2 SWAP1 MSTORE PUSH1 0x40 SWAP1 KECCAK256 PUSH1 0x1 ADD SLOAD PUSH2 0xACB DUP2 PUSH2 0x1840 JUMP JUMPDEST PUSH2 0xAD5 DUP4 DUP4 PUSH2 0x184A JUMP JUMPDEST POP POP POP POP JUMP JUMPDEST PUSH2 0xAE3 PUSH2 0x18DC JUMP JUMPDEST PUSH2 0xAEB PUSH2 0x1906 JUMP JUMPDEST CALLER PUSH1 0x0 SWAP1 DUP2 MSTORE PUSH1 0x8 PUSH1 0x20 MSTORE PUSH1 0x40 SWAP1 KECCAK256 SLOAD PUSH1 0xFF AND PUSH2 0xB3C JUMPI PUSH1 0x40 MLOAD PUSH3 0x461BCD PUSH1 0xE5 SHL DUP2 MSTORE PUSH1 0x20 PUSH1 0x4 DUP3 ADD MSTORE PUSH1 0xF PUSH1 0x24 DUP3 ADD MSTORE PUSH15 0x139BDD081DDA1A5D195B1A5CDD1959 PUSH1 0x8A SHL PUSH1 0x44 DUP3 ADD MSTORE PUSH1 0x64 ADD PUSH2 0x30C JUMP JUMPDEST PUSH1 0x0 PUSH1 0x2 SLOAD PUSH2 0x100 SWAP1 DIV PUSH1 0xFF AND PUSH1 0x3 DUP2 GT ISZERO PUSH2 0xB5A JUMPI PUSH2 0xB5A PUSH2 0x266E JUMP JUMPDEST EQ PUSH2 0xB64 JUMPI PUSH1 0x0 DUP1 REVERT JUMPDEST PUSH1 0x3 SLOAD PUSH1 0x4 SLOAD LT PUSH2 0xB74 JUMPI PUSH1 0x0 DUP1 REVERT JUMPDEST PUSH1 0x0 PUSH2 0xB7E PUSH2 0x192A JUMP JUMPDEST SWAP1 POP PUSH1 0x0 PUSH8 0xDE0B6B3A7640000 PUSH2 0xB95 DUP4 CALLVALUE PUSH2 0x275D JUMP JUMPDEST PUSH2 0xB9F SWAP2 SWAP1 PUSH2 0x2774 JUMP JUMPDEST SWAP1 POP PUSH2 0xBAB DUP2 DUP5 PUSH2 0x1B9C JUMP JUMPDEST CALLER PUSH1 0x0 SWAP1 DUP2 MSTORE PUSH1 0xC PUSH1 0x20 MSTORE PUSH1 0x40 DUP2 KECCAK256 DUP1 SLOAD CALLVALUE SWAP3 SWAP1 PUSH2 0xBCA SWAP1 DUP5 SWAP1 PUSH2 0x2796 JUMP JUMPDEST SWAP1 SWAP2 SSTORE POP POP PUSH1 0x1 DUP1 SSTORE POP PUSH2 0xBDB SWAP1 POP JUMP JUMPDEST POP JUMP JUMPDEST PUSH2 0xBE6 PUSH2 0x18DC JUMP JUMPDEST PUSH2 0xBEE PUSH2 0x1906 JUMP JUMPDEST PUSH1 0x0 DUP2 DUP2 MSTORE PUSH1 0xB PUSH1 0x20 MSTORE PUSH1 0x40 SWAP1 KECCAK256 SLOAD PUSH1 0xFF AND PUSH2 0xC09 JUMPI PUSH1 0x0 DUP1 REVERT JUMPDEST PUSH1 0x0 DUP2 DUP2 MSTORE PUSH1 0xA PUSH1 0x20 SWAP1 DUP2 MSTORE PUSH1 0x40 DUP1 DUP4 KECCAK256 CALLER DUP5 MSTORE SWAP1 SWAP2 MSTORE SWAP1 KECCAK256 SLOAD DUP1 PUSH2 0xC2D JUMPI PUSH1 0x0 DUP1 REVERT JUMPDEST PUSH1 0x0 DUP3 DUP2 MSTORE PUSH1 0xA PUSH1 0x20 SWAP1 DUP2 MSTORE PUSH1 0x40 DUP1 DUP4 KECCAK256 CALLER DUP1 DUP6 MSTORE SWAP3 MSTORE DUP3 KECCAK256 SWAP2 SWAP1 SWAP2 SSTORE PUSH2 0xC7F SWAP1 PUSH32 0x0 PUSH1 0x1 PUSH1 0x1 PUSH1 0xA0 SHL SUB AND SWAP1 DUP4 PUSH2 0x20AD JUMP JUMPDEST PUSH1 0x40 MLOAD DUP2 DUP2 MSTORE DUP3 SWAP1 CALLER SWAP1 PUSH32 0x9923B4306C6C030F2BDFBF156517D5983B87E15B96176DA122CD4F2EFFA4BA7B SWAP1 PUSH1 0x20 ADD PUSH1 0x40 MLOAD DUP1 SWAP2 SUB SWAP1 LOG3 POP PUSH2 0xBDB PUSH1 0x1 DUP1 SSTORE JUMP JUMPDEST PUSH1 0x1 PUSH1 0x1 PUSH1 0xA0 SHL SUB DUP2 AND CALLER EQ PUSH2 0xCE9 JUMPI PUSH1 0x40 MLOAD PUSH4 0x334BD919 PUSH1 0xE1 SHL DUP2 MSTORE PUSH1 0x4 ADD PUSH1 0x40 MLOAD DUP1 SWAP2 SUB SWAP1 REVERT JUMPDEST PUSH2 0xCF3 DUP3 DUP3 PUSH2 0x210C JUMP JUMPDEST POP POP POP JUMP JUMPDEST PUSH1 0x0 PUSH2 0xD03 DUP2 PUSH2 0x1840 JUMP JUMPDEST PUSH2 0xBDB PUSH2 0x2177 JUMP JUMPDEST PUSH1 0x0 DUP1 MLOAD PUSH1 0x20 PUSH2 0x2998 DUP4 CODECOPY DUP2 MLOAD SWAP2 MSTORE PUSH2 0xD23 DUP2 PUSH2 0x1840 JUMP JUMPDEST PUSH1 0x3 DUP3 DUP2 SLOAD DUP2 LT PUSH2 0xD36 JUMPI PUSH2 0xD36 PUSH2 0x27A9 JUMP JUMPDEST PUSH1 0x0 SWAP2 DUP3 MSTORE PUSH1 0x20 SWAP1 SWAP2 KECCAK256 PUSH1 0x3 PUSH1 0x4 SWAP1 SWAP3 MUL ADD ADD SLOAD PUSH1 0xFF AND PUSH2 0xD56 JUMPI PUSH1 0x0 DUP1 REVERT JUMPDEST PUSH1 0x0 DUP3 DUP2 MSTORE PUSH1 0xB PUSH1 0x20 MSTORE PUSH1 0x40 DUP1 DUP3 KECCAK256 DUP1 SLOAD PUSH1 0xFF NOT AND PUSH1 0x1 OR SWAP1 SSTORE MLOAD DUP4 SWAP2 PUSH32 0xD5F2E48A1B20537D5D9999BF63EAD088CC70AFD46EF059D6982CE1F68AC73DCA SWAP2 LOG2 POP POP JUMP JUMPDEST PUSH1 0x0 DUP1 MLOAD PUSH1 0x20 PUSH2 0x2998 DUP4 CODECOPY DUP2 MLOAD SWAP2 MSTORE PUSH2 0xDB2 DUP2 PUSH2 0x1840 JUMP JUMPDEST DUP2 ISZERO DUP1 ISZERO SWAP1 PUSH2 0xDC3 JUMPI POP PUSH2 0x1F4 DUP3 GT ISZERO JUMPDEST PUSH2 0xDCC JUMPI PUSH1 0x0 DUP1 REVERT JUMPDEST PUSH1 0x0 JUMPDEST DUP3 DUP2 LT ISZERO PUSH2 0xAD5 JUMPI PUSH1 0x0 PUSH1 0x8 PUSH1 0x0 DUP7 DUP7 DUP6 DUP2 DUP2 LT PUSH2 0xDEF JUMPI PUSH2 0xDEF PUSH2 0x27A9 JUMP JUMPDEST SWAP1 POP PUSH1 0x20 MUL ADD PUSH1 0x20 DUP2 ADD SWAP1 PUSH2 0xE04 SWAP2 SWAP1 PUSH2 0x25DE JUMP JUMPDEST PUSH1 0x1 PUSH1 0x1 PUSH1 0xA0 SHL SUB AND DUP2 MSTORE PUSH1 0x20 DUP2 ADD SWAP2 SWAP1 SWAP2 MSTORE PUSH1 0x40 ADD PUSH1 0x0 KECCAK256 DUP1 SLOAD PUSH1 0xFF NOT AND SWAP2 ISZERO ISZERO SWAP2 SWAP1 SWAP2 OR SWAP1 SSTORE DUP4 DUP4 DUP3 DUP2 DUP2 LT PUSH2 0xE3E JUMPI PUSH2 0xE3E PUSH2 0x27A9 JUMP JUMPDEST SWAP1 POP PUSH1 0x20 MUL ADD PUSH1 0x20 DUP2 ADD SWAP1 PUSH2 0xE53 SWAP2 SWAP1 PUSH2 0x25DE JUMP JUMPDEST PUSH1 0x1 PUSH1 0x1 PUSH1 0xA0 SHL SUB AND PUSH32 0xF93F9A76C1BF3444D22400A00CB9FE990E6ABE9DBB333FDA48859CFEE864543D PUSH1 0x0 PUSH1 0x40 MLOAD PUSH2 0xE90 SWAP2 ISZERO ISZERO DUP2 MSTORE PUSH1 0x20 ADD SWAP1 JUMP JUMPDEST PUSH1 0x40 MLOAD DUP1 SWAP2 SUB SWAP1 LOG2 PUSH1 0x1 ADD PUSH2 0xDCF JUMP JUMPDEST PUSH1 0x0 PUSH2 0xEAB DUP2 PUSH2 0x1840 JUMP JUMPDEST PUSH1 0x3 PUSH1 0x2 SLOAD PUSH2 0x100 SWAP1 DIV PUSH1 0xFF AND PUSH1 0x3 DUP2 GT ISZERO PUSH2 0xEC9 JUMPI PUSH2 0xEC9 PUSH2 0x266E JUMP JUMPDEST SUB PUSH2 0xED3 JUMPI PUSH1 0x0 DUP1 REVERT JUMPDEST PUSH1 0x2 DUP1 SLOAD PUSH2 0xFF00 NOT AND PUSH2 0x200 OR SWAP1 SSTORE PUSH1 0x40 MLOAD PUSH32 0xF33FD39DDC653E5F9033D50B852A4E85DC19AB2E3553927CE281AA99F9718C5D SWAP1 PUSH1 0x0 SWAP1 LOG1 POP JUMP JUMPDEST PUSH1 0x0 DUP1 MLOAD PUSH1 0x20 PUSH2 0x2998 DUP4 CODECOPY DUP2 MLOAD SWAP2 MSTORE PUSH2 0xF26 DUP2 PUSH2 0x1840 JUMP JUMPDEST DUP2 ISZERO DUP1 ISZERO SWAP1 PUSH2 0xF37 JUMPI POP PUSH2 0x1F4 DUP3 GT ISZERO JUMPDEST PUSH2 0xF40 JUMPI PUSH1 0x0 DUP1 REVERT JUMPDEST PUSH1 0x0 JUMPDEST DUP3 DUP2 LT ISZERO PUSH2 0xAD5 JUMPI PUSH1 0x1 PUSH1 0x8 PUSH1 0x0 DUP7 DUP7 DUP6 DUP2 DUP2 LT PUSH2 0xF63 JUMPI PUSH2 0xF63 PUSH2 0x27A9 JUMP JUMPDEST SWAP1 POP PUSH1 0x20 MUL ADD PUSH1 0x20 DUP2 ADD SWAP1 PUSH2 0xF78 SWAP2 SWAP1 PUSH2 0x25DE JUMP JUMPDEST PUSH1 0x1 PUSH1 0x1 PUSH1 0xA0 SHL SUB AND DUP2 MSTORE PUSH1 0x20 DUP2 ADD SWAP2 SWAP1 SWAP2 MSTORE PUSH1 0x40 ADD PUSH1 0x0 KECCAK256 DUP1 SLOAD PUSH1 0xFF NOT AND SWAP2 ISZERO ISZERO SWAP2 SWAP1 SWAP2 OR SWAP1 SSTORE DUP4 DUP4 DUP3 DUP2 DUP2 LT PUSH2 0xFB2 JUMPI PUSH2 0xFB2 PUSH2 0x27A9 JUMP JUMPDEST SWAP1 POP PUSH1 0x20 MUL ADD PUSH1 0x20 DUP2 ADD SWAP1 PUSH2 0xFC7 SWAP2 SWAP1 PUSH2 0x25DE JUMP JUMPDEST PUSH1 0x1 PUSH1 0x1 PUSH1 0xA0 SHL SUB AND PUSH32 0xF93F9A76C1BF3444D22400A00CB9FE990E6ABE9DBB333FDA48859CFEE864543D PUSH1 0x1 PUSH1 0x40 MLOAD PUSH2 0x1004 SWAP2 ISZERO ISZERO DUP2 MSTORE PUSH1 0x20 ADD SWAP1 JUMP JUMPDEST PUSH1 0x40 MLOAD DUP1 SWAP2 SUB SWAP1 LOG2 PUSH1 0x1 ADD PUSH2 0xF43 JUMP JUMPDEST PUSH1 0x0 PUSH2 0x101F DUP2 PUSH2 0x1840 JUMP JUMPDEST PUSH2 0xBDB PUSH2 0x21C9 JUMP JUMPDEST PUSH2 0x102F PUSH2 0x18DC JUMP JUMPDEST PUSH2 0x1037 PUSH2 0x1906 JUMP JUMPDEST CALLER PUSH1 0x0 SWAP1 DUP2 MSTORE PUSH1 0x8 PUSH1 0x20 MSTORE PUSH1 0x40 SWAP1 KECCAK256 SLOAD PUSH1 0xFF AND PUSH2 0x1088 JUMPI PUSH1 0x40 MLOAD PUSH3 0x461BCD PUSH1 0xE5 SHL DUP2 MSTORE PUSH1 0x20 PUSH1 0x4 DUP3 ADD MSTORE PUSH1 0xF PUSH1 0x24 DUP3 ADD MSTORE PUSH15 0x139BDD081DDA1A5D195B1A5CDD1959 PUSH1 0x8A SHL PUSH1 0x44 DUP3 ADD MSTORE PUSH1 0x64 ADD PUSH2 0x30C JUMP JUMPDEST PUSH1 0x1 PUSH1 0x1 PUSH1 0xA0 SHL SUB DUP4 AND PUSH1 0x0 SWAP1 DUP2 MSTORE PUSH1 0xE PUSH1 0x20 MSTORE PUSH1 0x40 SWAP1 KECCAK256 SLOAD PUSH1 0xFF AND PUSH2 0x10AD JUMPI PUSH1 0x0 DUP1 REVERT JUMPDEST PUSH1 0x0 PUSH1 0x2 SLOAD PUSH2 0x100 SWAP1 DIV PUSH1 0xFF AND PUSH1 0x3 DUP2 GT ISZERO PUSH2 0x10CB JUMPI PUSH2 0x10CB PUSH2 0x266E JUMP JUMPDEST EQ PUSH2 0x10D5 JUMPI PUSH1 0x0 DUP1 REVERT JUMPDEST PUSH1 0x3 SLOAD PUSH1 0x4 SLOAD LT PUSH2 0x10E5 JUMPI PUSH1 0x0 DUP1 REVERT JUMPDEST PUSH2 0x10FA PUSH1 0x1 PUSH1 0x1 PUSH1 0xA0 SHL SUB DUP5 AND CALLER ADDRESS DUP6 PUSH2 0x2206 JUMP JUMPDEST PUSH1 0x1 PUSH1 0x1 PUSH1 0xA0 SHL SUB DUP4 AND PUSH1 0x0 SWAP1 DUP2 MSTORE PUSH1 0xF PUSH1 0x20 MSTORE PUSH1 0x40 DUP2 KECCAK256 SLOAD PUSH1 0xFF AND SWAP1 PUSH2 0x1122 DUP3 PUSH1 0x12 PUSH2 0x27BF JUMP JUMPDEST PUSH2 0x112D SWAP1 PUSH1 0xA PUSH2 0x28BC JUMP JUMPDEST PUSH2 0x1137 SWAP1 DUP6 PUSH2 0x275D JUMP JUMPDEST CALLER PUSH1 0x0 SWAP1 DUP2 MSTORE PUSH1 0xD PUSH1 0x20 SWAP1 DUP2 MSTORE PUSH1 0x40 DUP1 DUP4 KECCAK256 PUSH1 0x1 PUSH1 0x1 PUSH1 0xA0 SHL SUB DUP11 AND DUP5 MSTORE SWAP1 SWAP2 MSTORE DUP2 KECCAK256 DUP1 SLOAD SWAP3 SWAP4 POP DUP7 SWAP3 SWAP1 SWAP2 SWAP1 PUSH2 0x116F SWAP1 DUP5 SWAP1 PUSH2 0x2796 JUMP JUMPDEST SWAP1 SWAP2 SSTORE POP PUSH2 0x117F SWAP1 POP DUP2 DUP5 PUSH2 0x1B9C JUMP JUMPDEST POP POP PUSH2 0xCF3 PUSH1 0x1 DUP1 SSTORE JUMP JUMPDEST PUSH1 0x0 PUSH2 0x1195 DUP2 PUSH2 0x1840 JUMP JUMPDEST PUSH11 0xC685FA11E01EC6F000000 PUSH1 0x5 SLOAD LT PUSH2 0x11AE JUMPI PUSH1 0x0 DUP1 REVERT JUMPDEST POP PUSH1 0x2 DUP1 SLOAD PUSH2 0xFF00 NOT AND PUSH2 0x300 OR SWAP1 SSTORE JUMP JUMPDEST PUSH1 0x0 SWAP2 DUP3 MSTORE PUSH1 0x20 DUP3 DUP2 MSTORE PUSH1 0x40 DUP1 DUP5 KECCAK256 PUSH1 0x1 PUSH1 0x1 PUSH1 0xA0 SHL SUB SWAP4 SWAP1 SWAP4 AND DUP5 MSTORE SWAP2 SWAP1 MSTORE SWAP1 KECCAK256 SLOAD PUSH1 0xFF AND SWAP1 JUMP JUMPDEST PUSH1 0x0 PUSH2 0x11F4 DUP2 PUSH2 0x1840 JUMP JUMPDEST PUSH1 0x1 PUSH1 0x1 PUSH1 0xA0 SHL SUB DUP4 AND PUSH1 0x0 SWAP1 DUP2 MSTORE PUSH1 0xE PUSH1 0x20 MSTORE PUSH1 0x40 SWAP1 KECCAK256 SLOAD PUSH1 0xFF AND ISZERO PUSH2 0x121A JUMPI PUSH1 0x0 DUP1 REVERT JUMPDEST PUSH1 0x12 DUP3 PUSH1 0xFF AND GT ISZERO PUSH2 0x122B JUMPI PUSH1 0x0 DUP1 REVERT JUMPDEST POP PUSH1 0x1 PUSH1 0x1 PUSH1 0xA0 SHL SUB SWAP2 SWAP1 SWAP2 AND PUSH1 0x0 DUP2 DUP2 MSTORE PUSH1 0xE PUSH1 0x20 SWAP1 DUP2 MSTORE PUSH1 0x40 DUP1 DUP4 KECCAK256 DUP1 SLOAD PUSH1 0x1 PUSH1 0xFF NOT SWAP2 DUP3 AND DUP2 OR SWAP1 SWAP3 SSTORE PUSH1 0xF SWAP1 SWAP4 MSTORE SWAP1 DUP4 KECCAK256 DUP1 SLOAD SWAP1 SWAP3 AND PUSH1 0xFF SWAP1 SWAP6 AND SWAP5 SWAP1 SWAP5 OR SWAP1 SSTORE PUSH1 0x10 DUP1 SLOAD SWAP4 DUP5 ADD DUP2 SSTORE SWAP1 MSTORE PUSH32 0x1B6847DC741A1B0CD08D278845F9D819D87B734759AFB55FE2DE5CB82A9AE672 SWAP1 SWAP2 ADD DUP1 SLOAD PUSH1 0x1 PUSH1 0x1 PUSH1 0xA0 SHL SUB NOT AND SWAP1 SWAP2 OR SWAP1 SSTORE JUMP JUMPDEST PUSH2 0x12BA PUSH2 0x18DC JUMP JUMPDEST PUSH1 0x3 PUSH1 0x2 SLOAD PUSH2 0x100 SWAP1 DIV PUSH1 0xFF AND PUSH1 0x3 DUP2 GT ISZERO PUSH2 0x12D8 JUMPI PUSH2 0x12D8 PUSH2 0x266E JUMP JUMPDEST EQ PUSH2 0x12E2 JUMPI PUSH1 0x0 DUP1 REVERT JUMPDEST CALLER PUSH1 0x0 SWAP1 DUP2 MSTORE PUSH1 0xC PUSH1 0x20 MSTORE PUSH1 0x40 SWAP1 KECCAK256 SLOAD DUP1 ISZERO PUSH2 0x1391 JUMPI CALLER PUSH1 0x0 DUP2 DUP2 MSTORE PUSH1 0xC PUSH1 0x20 MSTORE PUSH1 0x40 DUP1 DUP3 KECCAK256 DUP3 SWAP1 SSTORE MLOAD SWAP1 SWAP2 SWAP1 DUP4 SWAP1 DUP4 DUP2 DUP2 DUP2 DUP6 DUP8 GAS CALL SWAP3 POP POP POP RETURNDATASIZE DUP1 PUSH1 0x0 DUP2 EQ PUSH2 0x1349 JUMPI PUSH1 0x40 MLOAD SWAP2 POP PUSH1 0x1F NOT PUSH1 0x3F RETURNDATASIZE ADD AND DUP3 ADD PUSH1 0x40 MSTORE RETURNDATASIZE DUP3 MSTORE RETURNDATASIZE PUSH1 0x0 PUSH1 0x20 DUP5 ADD RETURNDATACOPY PUSH2 0x134E JUMP JUMPDEST PUSH1 0x60 SWAP2 POP JUMPDEST POP POP SWAP1 POP DUP1 PUSH2 0x138F JUMPI PUSH1 0x40 MLOAD PUSH3 0x461BCD PUSH1 0xE5 SHL DUP2 MSTORE PUSH1 0x20 PUSH1 0x4 DUP3 ADD MSTORE PUSH1 0xD PUSH1 0x24 DUP3 ADD MSTORE PUSH13 0x1499599D5B990819985A5B1959 PUSH1 0x9A SHL PUSH1 0x44 DUP3 ADD MSTORE PUSH1 0x64 ADD PUSH2 0x30C JUMP JUMPDEST POP JUMPDEST PUSH1 0x10 SLOAD PUSH1 0x0 JUMPDEST DUP2 DUP2 LT ISZERO PUSH2 0x1427 JUMPI PUSH1 0x0 PUSH1 0x10 DUP3 DUP2 SLOAD DUP2 LT PUSH2 0x13B4 JUMPI PUSH2 0x13B4 PUSH2 0x27A9 JUMP JUMPDEST PUSH1 0x0 SWAP2 DUP3 MSTORE PUSH1 0x20 DUP1 DUP4 KECCAK256 SWAP1 SWAP2 ADD SLOAD CALLER DUP4 MSTORE PUSH1 0xD DUP3 MSTORE PUSH1 0x40 DUP1 DUP5 KECCAK256 PUSH1 0x1 PUSH1 0x1 PUSH1 0xA0 SHL SUB SWAP1 SWAP3 AND DUP1 DUP6 MSTORE SWAP2 SWAP1 SWAP3 MSTORE SWAP2 KECCAK256 SLOAD SWAP1 SWAP2 POP DUP1 ISZERO PUSH2 0x141D JUMPI CALLER PUSH1 0x0 DUP2 DUP2 MSTORE PUSH1 0xD PUSH1 0x20 SWAP1 DUP2 MSTORE PUSH1 0x40 DUP1 DUP4 KECCAK256 PUSH1 0x1 PUSH1 0x1 PUSH1 0xA0 SHL SUB DUP8 AND DUP1 DUP6 MSTORE SWAP3 MSTORE DUP3 KECCAK256 SWAP2 SWAP1 SWAP2 SSTORE PUSH2 0x141D SWAP2 DUP4 PUSH2 0x20AD JUMP JUMPDEST POP POP PUSH1 0x1 ADD PUSH2 0x1397 JUMP JUMPDEST POP CALLER PUSH1 0x0 SWAP1 DUP2 MSTORE PUSH1 0x9 PUSH1 0x20 MSTORE PUSH1 0x40 DUP2 KECCAK256 DUP2 SWAP1 SSTORE PUSH1 0x3 SLOAD SWAP1 JUMPDEST DUP2 DUP2 LT ISZERO PUSH2 0x1469 JUMPI PUSH1 0x0 DUP2 DUP2 MSTORE PUSH1 0xA PUSH1 0x20 SWAP1 DUP2 MSTORE PUSH1 0x40 DUP1 DUP4 KECCAK256 CALLER DUP5 MSTORE SWAP1 SWAP2 MSTORE DUP2 KECCAK256 SSTORE PUSH1 0x1 ADD PUSH2 0x143F JUMP JUMPDEST POP PUSH1 0x40 MLOAD CALLER SWAP1 PUSH32 0xE85B62FE517BF695CE7FED961F0244F59BE2C256525A5A904FB90C32F42CFD3E SWAP1 PUSH1 0x0 SWAP1 LOG2 POP POP POP PUSH2 0x14A1 PUSH1 0x1 DUP1 SSTORE JUMP JUMPDEST JUMP JUMPDEST PUSH1 0x0 PUSH2 0x14AE DUP2 PUSH2 0x1840 JUMP JUMPDEST PUSH1 0x2 DUP1 SLOAD PUSH2 0x100 SWAP1 DIV PUSH1 0xFF AND PUSH1 0x3 DUP2 GT ISZERO PUSH2 0x14CB JUMPI PUSH2 0x14CB PUSH2 0x266E JUMP JUMPDEST EQ DUP1 PUSH2 0x14F2 JUMPI POP PUSH1 0x3 PUSH1 0x2 SLOAD PUSH2 0x100 SWAP1 DIV PUSH1 0xFF AND PUSH1 0x3 DUP2 GT ISZERO PUSH2 0x14F0 JUMPI PUSH2 0x14F0 PUSH2 0x266E JUMP JUMPDEST EQ JUMPDEST PUSH2 0x14FB JUMPI PUSH1 0x0 DUP1 REVERT JUMPDEST PUSH1 0x40 MLOAD PUSH4 0x70A08231 PUSH1 0xE0 SHL DUP2 MSTORE ADDRESS PUSH1 0x4 DUP3 ADD MSTORE PUSH1 0x0 SWAP1 PUSH32 0x0 PUSH1 0x1 PUSH1 0x1 PUSH1 0xA0 SHL SUB AND SWAP1 PUSH4 0x70A08231 SWAP1 PUSH1 0x24 ADD PUSH1 0x20 PUSH1 0x40 MLOAD DUP1 DUP4 SUB DUP2 DUP7 GAS STATICCALL ISZERO DUP1 ISZERO PUSH2 0x1562 JUMPI RETURNDATASIZE PUSH1 0x0 DUP1 RETURNDATACOPY RETURNDATASIZE PUSH1 0x0 REVERT JUMPDEST POP POP POP POP PUSH1 0x40 MLOAD RETURNDATASIZE PUSH1 0x1F NOT PUSH1 0x1F DUP3 ADD AND DUP3 ADD DUP1 PUSH1 0x40 MSTORE POP DUP2 ADD SWAP1 PUSH2 0x1586 SWAP2 SWAP1 PUSH2 0x28CB JUMP JUMPDEST SWAP1 POP PUSH1 0x0 PUSH1 0x7 SLOAD DUP3 GT PUSH2 0x159A JUMPI PUSH1 0x0 PUSH2 0x15A7 JUMP JUMPDEST PUSH1 0x7 SLOAD PUSH2 0x15A7 SWAP1 DUP4 PUSH2 0x28E4 JUMP JUMPDEST SWAP1 POP PUSH1 0x0 DUP2 GT PUSH2 0x15B6 JUMPI PUSH1 0x0 DUP1 REVERT JUMPDEST PUSH2 0xCF3 PUSH1 0x1 PUSH1 0x1 PUSH1 0xA0 SHL SUB PUSH32 0x0 AND PUSH32 0x0 DUP4 PUSH2 0x20AD JUMP JUMPDEST PUSH1 0x0 DUP3 DUP2 MSTORE PUSH1 0x20 DUP2 SWAP1 MSTORE PUSH1 0x40 SWAP1 KECCAK256 PUSH1 0x1 ADD SLOAD PUSH2 0x1625 DUP2 PUSH2 0x1840 JUMP JUMPDEST PUSH2 0xAD5 DUP4 DUP4 PUSH2 0x210C JUMP JUMPDEST PUSH1 0x0 PUSH2 0x163A DUP2 PUSH2 0x1840 JUMP JUMPDEST PUSH1 0x0 PUSH1 0x2 SLOAD PUSH2 0x100 SWAP1 DIV PUSH1 0xFF AND PUSH1 0x3 DUP2 GT ISZERO PUSH2 0x1658 JUMPI PUSH2 0x1658 PUSH2 0x266E JUMP JUMPDEST EQ PUSH2 0x1662 JUMPI PUSH1 0x0 DUP1 REVERT JUMPDEST PUSH1 0x0 DUP4 GT PUSH2 0x16A9 JUMPI PUSH1 0x40 MLOAD PUSH3 0x461BCD PUSH1 0xE5 SHL DUP2 MSTORE PUSH1 0x20 PUSH1 0x4 DUP3 ADD MSTORE PUSH1 0x14 PUSH1 0x24 DUP3 ADD MSTORE PUSH20 0x125B9D985B1A59081C1A185CD9481D185C99D95D PUSH1 0x62 SHL PUSH1 0x44 DUP3 ADD MSTORE PUSH1 0x64 ADD PUSH2 0x30C JUMP JUMPDEST PUSH1 0x0 DUP3 GT PUSH2 0x16EF JUMPI PUSH1 0x40 MLOAD PUSH3 0x461BCD PUSH1 0xE5 SHL DUP2 MSTORE PUSH1 0x20 PUSH1 0x4 DUP3 ADD MSTORE PUSH1 0x13 PUSH1 0x24 DUP3 ADD MSTORE PUSH19 0x496E76616C6964207068617365207072696365 PUSH1 0x68 SHL PUSH1 0x44 DUP3 ADD MSTORE PUSH1 0x64 ADD PUSH2 0x30C JUMP JUMPDEST PUSH1 0x40 DUP1 MLOAD PUSH1 0x80 DUP2 ADD DUP3 MSTORE DUP5 DUP2 MSTORE PUSH1 0x20 DUP2 ADD DUP5 DUP2 MSTORE PUSH1 0x0 SWAP3 DUP3 ADD DUP4 DUP2 MSTORE PUSH1 0x60 DUP4 ADD DUP5 DUP2 MSTORE PUSH1 0x3 DUP1 SLOAD PUSH1 0x1 DUP1 DUP3 ADD DUP4 SSTORE SWAP7 DUP3 SWAP1 MSTORE SWAP5 MLOAD PUSH32 0xC2575A0E9E593C00F959F8C92F12DB2869C3395A3B0502D05E2516446F71F85B PUSH1 0x4 SWAP1 SWAP7 MUL SWAP6 DUP7 ADD SSTORE SWAP3 MLOAD PUSH32 0xC2575A0E9E593C00F959F8C92F12DB2869C3395A3B0502D05E2516446F71F85C DUP6 ADD SSTORE SWAP1 MLOAD PUSH32 0xC2575A0E9E593C00F959F8C92F12DB2869C3395A3B0502D05E2516446F71F85D DUP5 ADD SSTORE MLOAD PUSH32 0xC2575A0E9E593C00F959F8C92F12DB2869C3395A3B0502D05E2516446F71F85E SWAP1 SWAP3 ADD DUP1 SLOAD PUSH1 0xFF NOT AND SWAP3 ISZERO ISZERO SWAP3 SWAP1 SWAP3 OR SWAP1 SWAP2 SSTORE SLOAD PUSH2 0x17D9 SWAP2 SWAP1 PUSH2 0x28E4 JUMP JUMPDEST PUSH1 0x40 DUP1 MLOAD DUP6 DUP2 MSTORE PUSH1 0x20 DUP2 ADD DUP6 SWAP1 MSTORE PUSH31 0x3A614D69232D07CE423DF77598AA26A786BEC214178A4F4C288FB03E930FBA SWAP2 ADD PUSH1 0x40 MLOAD DUP1 SWAP2 SUB SWAP1 LOG2 POP POP POP JUMP JUMPDEST PUSH1 0x10 DUP2 DUP2 SLOAD DUP2 LT PUSH2 0x1826 JUMPI PUSH1 0x0 DUP1 REVERT JUMPDEST PUSH1 0x0 SWAP2 DUP3 MSTORE PUSH1 0x20 SWAP1 SWAP2 KECCAK256 ADD SLOAD PUSH1 0x1 PUSH1 0x1 PUSH1 0xA0 SHL SUB AND SWAP1 POP DUP2 JUMP JUMPDEST PUSH2 0xBDB DUP2 CALLER PUSH2 0x223F JUMP JUMPDEST PUSH1 0x0 PUSH2 0x1856 DUP4 DUP4 PUSH2 0x11C0 JUMP JUMPDEST PUSH2 0x18D4 JUMPI PUSH1 0x0 DUP4 DUP2 MSTORE PUSH1 0x20 DUP2 DUP2 MSTORE PUSH1 0x40 DUP1 DUP4 KECCAK256 PUSH1 0x1 PUSH1 0x1 PUSH1 0xA0 SHL SUB DUP7 AND DUP5 MSTORE SWAP1 SWAP2 MSTORE SWAP1 KECCAK256 DUP1 SLOAD PUSH1 0xFF NOT AND PUSH1 0x1 OR SWAP1 SSTORE PUSH2 0x188C CALLER SWAP1 JUMP JUMPDEST PUSH1 0x1 PUSH1 0x1 PUSH1 0xA0 SHL SUB AND DUP3 PUSH1 0x1 PUSH1 0x1 PUSH1 0xA0 SHL SUB AND DUP5 PUSH32 0x2F8788117E7EFF1D82E926EC794901D17C78024A50270940304540A733656F0D PUSH1 0x40 MLOAD PUSH1 0x40 MLOAD DUP1 SWAP2 SUB SWAP1 LOG4 POP PUSH1 0x1 PUSH2 0xA6D JUMP JUMPDEST POP PUSH1 0x0 PUSH2 0xA6D JUMP JUMPDEST PUSH1 0x2 PUSH1 0x1 SLOAD SUB PUSH2 0x18FF JUMPI PUSH1 0x40 MLOAD PUSH4 0x3EE5AEB5 PUSH1 0xE0 SHL DUP2 MSTORE PUSH1 0x4 ADD PUSH1 0x40 MLOAD DUP1 SWAP2 SUB SWAP1 REVERT JUMPDEST PUSH1 0x2 PUSH1 0x1 SSTORE JUMP JUMPDEST PUSH1 0x2 SLOAD PUSH1 0xFF AND ISZERO PUSH2 0x14A1 JUMPI PUSH1 0x40 MLOAD PUSH4 0xD93C0665 PUSH1 0xE0 SHL DUP2 MSTORE PUSH1 0x4 ADD PUSH1 0x40 MLOAD DUP1 SWAP2 SUB SWAP1 REVERT JUMPDEST PUSH1 0x0 DUP1 PUSH1 0x0 DUP1 PUSH1 0x0 PUSH32 0x0 PUSH1 0x1 PUSH1 0x1 PUSH1 0xA0 SHL SUB AND PUSH4 0xFEAF968C PUSH1 0x40 MLOAD DUP2 PUSH4 0xFFFFFFFF AND PUSH1 0xE0 SHL DUP2 MSTORE PUSH1 0x4 ADD PUSH1 0xA0 PUSH1 0x40 MLOAD DUP1 DUP4 SUB DUP2 DUP7 GAS STATICCALL ISZERO DUP1 ISZERO PUSH2 0x1990 JUMPI RETURNDATASIZE PUSH1 0x0 DUP1 RETURNDATACOPY RETURNDATASIZE PUSH1 0x0 REVERT JUMPDEST POP POP POP POP PUSH1 0x40 MLOAD RETURNDATASIZE PUSH1 0x1F NOT PUSH1 0x1F DUP3 ADD AND DUP3 ADD DUP1 PUSH1 0x40 MSTORE POP DUP2 ADD SWAP1 PUSH2 0x19B4 SWAP2 SWAP1 PUSH2 0x2911 JUMP JUMPDEST SWAP5 POP SWAP5 POP POP SWAP4 POP SWAP4 POP PUSH1 0x0 DUP4 SGT PUSH2 0x1A04 JUMPI PUSH1 0x40 MLOAD PUSH3 0x461BCD PUSH1 0xE5 SHL DUP2 MSTORE PUSH1 0x20 PUSH1 0x4 DUP3 ADD MSTORE PUSH1 0x14 PUSH1 0x24 DUP3 ADD MSTORE PUSH20 0x496E76616C6964206F7261636C65207072696365 PUSH1 0x60 SHL PUSH1 0x44 DUP3 ADD MSTORE PUSH1 0x64 ADD PUSH2 0x30C JUMP JUMPDEST PUSH2 0x384 PUSH2 0x1A11 DUP4 TIMESTAMP PUSH2 0x28E4 JUMP JUMPDEST GT ISZERO PUSH2 0x1A54 JUMPI PUSH1 0x40 MLOAD PUSH3 0x461BCD PUSH1 0xE5 SHL DUP2 MSTORE PUSH1 0x20 PUSH1 0x4 DUP3 ADD MSTORE PUSH1 0x12 PUSH1 0x24 DUP3 ADD MSTORE PUSH18 0x4F7261636C65207072696365207374616C65 PUSH1 0x70 SHL PUSH1 0x44 DUP3 ADD MSTORE PUSH1 0x64 ADD PUSH2 0x30C JUMP JUMPDEST DUP4 PUSH10 0xFFFFFFFFFFFFFFFFFFFF AND DUP2 PUSH10 0xFFFFFFFFFFFFFFFFFFFF AND LT ISZERO PUSH2 0x1ABC JUMPI PUSH1 0x40 MLOAD PUSH3 0x461BCD PUSH1 0xE5 SHL DUP2 MSTORE PUSH1 0x20 PUSH1 0x4 DUP3 ADD MSTORE PUSH1 0x17 PUSH1 0x24 DUP3 ADD MSTORE PUSH32 0x496E636F6D706C657465206F7261636C6520726F756E64000000000000000000 PUSH1 0x44 DUP3 ADD MSTORE PUSH1 0x64 ADD PUSH2 0x30C JUMP JUMPDEST PUSH1 0x0 PUSH32 0x0 PUSH1 0x1 PUSH1 0x1 PUSH1 0xA0 SHL SUB AND PUSH4 0x313CE567 PUSH1 0x40 MLOAD DUP2 PUSH4 0xFFFFFFFF AND PUSH1 0xE0 SHL DUP2 MSTORE PUSH1 0x4 ADD PUSH1 0x20 PUSH1 0x40 MLOAD DUP1 DUP4 SUB DUP2 DUP7 GAS STATICCALL ISZERO DUP1 ISZERO PUSH2 0x1B1C JUMPI RETURNDATASIZE PUSH1 0x0 DUP1 RETURNDATACOPY RETURNDATASIZE PUSH1 0x0 REVERT JUMPDEST POP POP POP POP PUSH1 0x40 MLOAD RETURNDATASIZE PUSH1 0x1F NOT PUSH1 0x1F DUP3 ADD AND DUP3 ADD DUP1 PUSH1 0x40 MSTORE POP DUP2 ADD SWAP1 PUSH2 0x1B40 SWAP2 SWAP1 PUSH2 0x2961 JUMP JUMPDEST SWAP1 POP PUSH1 0x0 PUSH2 0x1B4F DUP3 PUSH1 0x12 PUSH2 0x27BF JUMP JUMPDEST PUSH2 0x1B5A SWAP1 PUSH1 0xA PUSH2 0x28BC JUMP JUMPDEST PUSH2 0x1B64 SWAP1 DUP7 PUSH2 0x275D JUMP JUMPDEST SWAP1 POP PUSH9 0x3635C9ADC5DEA00000 DUP2 LT ISZERO DUP1 ISZERO PUSH2 0x1B89 JUMPI POP PUSH10 0x43C33C1937564800000 DUP2 GT ISZERO JUMPDEST PUSH2 0x1B92 JUMPI PUSH1 0x0 DUP1 REVERT JUMPDEST SWAP7 SWAP6 POP POP POP POP POP POP JUMP JUMPDEST PUSH1 0x0 DUP3 GT PUSH2 0x1BDC JUMPI PUSH1 0x40 MLOAD PUSH3 0x461BCD PUSH1 0xE5 SHL DUP2 MSTORE PUSH1 0x20 PUSH1 0x4 DUP3 ADD MSTORE PUSH1 0xD PUSH1 0x24 DUP3 ADD MSTORE PUSH13 0x5A65726F207075726368617365 PUSH1 0x98 SHL PUSH1 0x44 DUP3 ADD MSTORE PUSH1 0x64 ADD PUSH2 0x30C JUMP JUMPDEST PUSH9 0x56BC75E2D63100000 DUP3 LT ISZERO PUSH2 0x1C35 JUMPI PUSH1 0x40 MLOAD PUSH3 0x461BCD PUSH1 0xE5 SHL DUP2 MSTORE PUSH1 0x20 PUSH1 0x4 DUP3 ADD MSTORE PUSH1 0x1A PUSH1 0x24 DUP3 ADD MSTORE PUSH32 0x42656C6F77206D696E696D756D20636F6E747269627574696F6E000000000000 PUSH1 0x44 DUP3 ADD MSTORE PUSH1 0x64 ADD PUSH2 0x30C JUMP JUMPDEST CALLER PUSH1 0x0 SWAP1 DUP2 MSTORE PUSH1 0x9 PUSH1 0x20 MSTORE PUSH1 0x40 SWAP1 KECCAK256 SLOAD PUSH10 0xA968163F0A57B400000 SWAP1 PUSH2 0x1C5C SWAP1 DUP5 SWAP1 PUSH2 0x2796 JUMP JUMPDEST GT ISZERO PUSH2 0x1C9E JUMPI PUSH1 0x40 MLOAD PUSH3 0x461BCD PUSH1 0xE5 SHL DUP2 MSTORE PUSH1 0x20 PUSH1 0x4 DUP3 ADD MSTORE PUSH1 0x11 PUSH1 0x24 DUP3 ADD MSTORE PUSH17 0x155CD95C8818D85C08195E18D959591959 PUSH1 0x7A SHL PUSH1 0x44 DUP3 ADD MSTORE PUSH1 0x64 ADD PUSH2 0x30C JUMP JUMPDEST PUSH11 0x52B7D2DCC80CD2E4000000 DUP3 PUSH1 0x5 SLOAD PUSH2 0x1CB8 SWAP2 SWAP1 PUSH2 0x2796 JUMP JUMPDEST GT ISZERO PUSH2 0x1CFA JUMPI PUSH1 0x40 MLOAD PUSH3 0x461BCD PUSH1 0xE5 SHL DUP2 MSTORE PUSH1 0x20 PUSH1 0x4 DUP3 ADD MSTORE PUSH1 0x11 PUSH1 0x24 DUP3 ADD MSTORE PUSH17 0x12185C990818D85C08195E18D959591959 PUSH1 0x7A SHL PUSH1 0x44 DUP3 ADD MSTORE PUSH1 0x64 ADD PUSH2 0x30C JUMP JUMPDEST PUSH1 0x0 PUSH1 0x4 SLOAD SWAP1 POP PUSH1 0x0 PUSH1 0x3 DUP3 DUP2 SLOAD DUP2 LT PUSH2 0x1D16 JUMPI PUSH2 0x1D16 PUSH2 0x27A9 JUMP JUMPDEST PUSH1 0x0 SWAP2 DUP3 MSTORE PUSH1 0x20 SWAP1 SWAP2 KECCAK256 PUSH1 0x4 SWAP1 SWAP2 MUL ADD PUSH1 0x3 DUP2 ADD SLOAD SWAP1 SWAP2 POP PUSH1 0xFF AND ISZERO PUSH2 0x1D6F JUMPI PUSH1 0x40 MLOAD PUSH3 0x461BCD PUSH1 0xE5 SHL DUP2 MSTORE PUSH1 0x20 PUSH1 0x4 DUP3 ADD MSTORE PUSH1 0xE PUSH1 0x24 DUP3 ADD MSTORE PUSH14 0x506861736520636F6D706C657465 PUSH1 0x90 SHL PUSH1 0x44 DUP3 ADD MSTORE PUSH1 0x64 ADD PUSH2 0x30C JUMP JUMPDEST DUP1 SLOAD PUSH1 0x2 DUP3 ADD SLOAD PUSH2 0x1D81 SWAP1 DUP7 SWAP1 PUSH2 0x2796 JUMP JUMPDEST GT ISZERO PUSH2 0x1DC4 JUMPI PUSH1 0x40 MLOAD PUSH3 0x461BCD PUSH1 0xE5 SHL DUP2 MSTORE PUSH1 0x20 PUSH1 0x4 DUP3 ADD MSTORE PUSH1 0x12 PUSH1 0x24 DUP3 ADD MSTORE PUSH18 0x141A185CD94818D85C08195E18D959591959 PUSH1 0x72 SHL PUSH1 0x44 DUP3 ADD MSTORE PUSH1 0x64 ADD PUSH2 0x30C JUMP JUMPDEST PUSH1 0x1 DUP2 ADD SLOAD PUSH1 0x0 SWAP1 PUSH2 0x1DDE DUP7 PUSH8 0xDE0B6B3A7640000 PUSH2 0x275D JUMP JUMPDEST PUSH2 0x1DE8 SWAP2 SWAP1 PUSH2 0x2774 JUMP JUMPDEST SWAP1 POP DUP4 DUP2 LT ISZERO PUSH2 0x1E2E JUMPI PUSH1 0x40 MLOAD PUSH3 0x461BCD PUSH1 0xE5 SHL DUP2 MSTORE PUSH1 0x20 PUSH1 0x4 DUP3 ADD MSTORE PUSH1 0x11 PUSH1 0x24 DUP3 ADD MSTORE PUSH17 0x14DB1A5C1C1859D948195E18D959591959 PUSH1 0x7A SHL PUSH1 0x44 DUP3 ADD MSTORE PUSH1 0x64 ADD PUSH2 0x30C JUMP JUMPDEST PUSH1 0x40 MLOAD PUSH4 0x70A08231 PUSH1 0xE0 SHL DUP2 MSTORE ADDRESS PUSH1 0x4 DUP3 ADD MSTORE PUSH1 0x0 SWAP1 PUSH32 0x0 PUSH1 0x1 PUSH1 0x1 PUSH1 0xA0 SHL SUB AND SWAP1 PUSH4 0x70A08231 SWAP1 PUSH1 0x24 ADD PUSH1 0x20 PUSH1 0x40 MLOAD DUP1 DUP4 SUB DUP2 DUP7 GAS STATICCALL ISZERO DUP1 ISZERO PUSH2 0x1E95 JUMPI RETURNDATASIZE PUSH1 0x0 DUP1 RETURNDATACOPY RETURNDATASIZE PUSH1 0x0 REVERT JUMPDEST POP POP POP POP PUSH1 0x40 MLOAD RETURNDATASIZE PUSH1 0x1F NOT PUSH1 0x1F DUP3 ADD AND DUP3 ADD DUP1 PUSH1 0x40 MSTORE POP DUP2 ADD SWAP1 PUSH2 0x1EB9 SWAP2 SWAP1 PUSH2 0x28CB JUMP JUMPDEST SWAP1 POP DUP2 PUSH1 0x7 SLOAD DUP3 PUSH2 0x1ECA SWAP2 SWAP1 PUSH2 0x28E4 JUMP JUMPDEST LT ISZERO PUSH2 0x1F18 JUMPI PUSH1 0x40 MLOAD PUSH3 0x461BCD PUSH1 0xE5 SHL DUP2 MSTORE PUSH1 0x20 PUSH1 0x4 DUP3 ADD MSTORE PUSH1 0x1C PUSH1 0x24 DUP3 ADD MSTORE PUSH32 0x496E73756666696369656E7420746F6B656E20696E76656E746F727900000000 PUSH1 0x44 DUP3 ADD MSTORE PUSH1 0x64 ADD PUSH2 0x30C JUMP JUMPDEST CALLER PUSH1 0x0 SWAP1 DUP2 MSTORE PUSH1 0x9 PUSH1 0x20 MSTORE PUSH1 0x40 DUP2 KECCAK256 DUP1 SLOAD DUP9 SWAP3 SWAP1 PUSH2 0x1F37 SWAP1 DUP5 SWAP1 PUSH2 0x2796 JUMP JUMPDEST SWAP3 POP POP DUP2 SWAP1 SSTORE POP DUP6 DUP4 PUSH1 0x2 ADD PUSH1 0x0 DUP3 DUP3 SLOAD PUSH2 0x1F52 SWAP2 SWAP1 PUSH2 0x2796 JUMP JUMPDEST SWAP3 POP POP DUP2 SWAP1 SSTORE POP DUP6 PUSH1 0x5 PUSH1 0x0 DUP3 DUP3 SLOAD PUSH2 0x1F6B SWAP2 SWAP1 PUSH2 0x2796 JUMP JUMPDEST SWAP1 SWAP2 SSTORE POP POP PUSH1 0x0 DUP5 DUP2 MSTORE PUSH1 0xA PUSH1 0x20 SWAP1 DUP2 MSTORE PUSH1 0x40 DUP1 DUP4 KECCAK256 CALLER DUP5 MSTORE SWAP1 SWAP2 MSTORE DUP2 KECCAK256 DUP1 SLOAD DUP5 SWAP3 SWAP1 PUSH2 0x1F99 SWAP1 DUP5 SWAP1 PUSH2 0x2796 JUMP JUMPDEST SWAP3 POP POP DUP2 SWAP1 SSTORE POP DUP2 PUSH1 0x7 PUSH1 0x0 DUP3 DUP3 SLOAD PUSH2 0x1FB2 SWAP2 SWAP1 PUSH2 0x2796 JUMP JUMPDEST SWAP1 SWAP2 SSTORE POP POP PUSH1 0x40 DUP1 MLOAD DUP8 DUP2 MSTORE PUSH1 0x20 DUP2 ADD DUP5 SWAP1 MSTORE DUP6 SWAP2 CALLER SWAP2 PUSH32 0xD1A0D5E3D583A0E92588799DD06E50FD78C07DAF05F0CC06D7B848B1CA445F1 SWAP2 ADD PUSH1 0x40 MLOAD DUP1 SWAP2 SUB SWAP1 LOG3 DUP3 SLOAD PUSH1 0x2 DUP5 ADD SLOAD LT PUSH2 0x209D JUMPI PUSH1 0x3 DUP4 ADD DUP1 SLOAD PUSH1 0xFF NOT AND PUSH1 0x1 OR SWAP1 SSTORE PUSH1 0x40 MLOAD DUP5 SWAP1 PUSH32 0xD4259E19938B793359DFC6C726DF41A4CCE156DEFFD8C4A4ED4A681A61670774 SWAP1 PUSH1 0x0 SWAP1 LOG2 PUSH11 0xC685FA11E01EC6F000000 PUSH1 0x5 SLOAD LT ISZERO DUP1 ISZERO PUSH2 0x2072 JUMPI POP PUSH1 0x0 PUSH1 0x2 SLOAD PUSH2 0x100 SWAP1 DIV PUSH1 0xFF AND PUSH1 0x3 DUP2 GT ISZERO PUSH2 0x2070 JUMPI PUSH2 0x2070 PUSH2 0x266E JUMP JUMPDEST EQ JUMPDEST ISZERO PUSH2 0x2087 JUMPI PUSH1 0x2 DUP1 SLOAD PUSH2 0xFF00 NOT AND PUSH2 0x100 OR SWAP1 SSTORE JUMPDEST PUSH1 0x4 DUP1 SLOAD SWAP1 PUSH1 0x0 PUSH2 0x2097 DUP4 PUSH2 0x297E JUMP JUMPDEST SWAP2 SWAP1 POP SSTORE POP JUMPDEST PUSH2 0x20A5 PUSH2 0x227C JUMP JUMPDEST POP POP POP POP POP POP JUMP JUMPDEST PUSH1 0x40 MLOAD PUSH1 0x1 PUSH1 0x1 PUSH1 0xA0 SHL SUB DUP4 DUP2 AND PUSH1 0x24 DUP4 ADD MSTORE PUSH1 0x44 DUP3 ADD DUP4 SWAP1 MSTORE PUSH2 0xCF3 SWAP2 DUP6 SWAP2 DUP3 AND SWAP1 PUSH4 0xA9059CBB SWAP1 PUSH1 0x64 ADD JUMPDEST PUSH1 0x40 MLOAD PUSH1 0x20 DUP2 DUP4 SUB SUB DUP2 MSTORE SWAP1 PUSH1 0x40 MSTORE SWAP2 POP PUSH1 0xE0 SHL PUSH1 0x20 DUP3 ADD DUP1 MLOAD PUSH1 0x1 PUSH1 0x1 PUSH1 0xE0 SHL SUB DUP4 DUP2 DUP4 AND OR DUP4 MSTORE POP POP POP POP PUSH2 0x230B JUMP JUMPDEST PUSH1 0x0 PUSH2 0x2118 DUP4 DUP4 PUSH2 0x11C0 JUMP JUMPDEST ISZERO PUSH2 0x18D4 JUMPI PUSH1 0x0 DUP4 DUP2 MSTORE PUSH1 0x20 DUP2 DUP2 MSTORE PUSH1 0x40 DUP1 DUP4 KECCAK256 PUSH1 0x1 PUSH1 0x1 PUSH1 0xA0 SHL SUB DUP7 AND DUP1 DUP6 MSTORE SWAP3 MSTORE DUP1 DUP4 KECCAK256 DUP1 SLOAD PUSH1 0xFF NOT AND SWAP1 SSTORE MLOAD CALLER SWAP3 DUP7 SWAP2 PUSH32 0xF6391F5C32D9C69D2A47EA670B442974B53935D1EDC7FD64EB21E047A839171B SWAP2 SWAP1 LOG4 POP PUSH1 0x1 PUSH2 0xA6D JUMP JUMPDEST PUSH2 0x217F PUSH2 0x237C JUMP JUMPDEST PUSH1 0x2 DUP1 SLOAD PUSH1 0xFF NOT AND SWAP1 SSTORE PUSH32 0x5DB9EE0A495BF2E6FF9C91A7834C1BA4FDD244A5E8AA4E537BD38AEAE4B073AA CALLER JUMPDEST PUSH1 0x40 MLOAD PUSH1 0x1 PUSH1 0x1 PUSH1 0xA0 SHL SUB SWAP1 SWAP2 AND DUP2 MSTORE PUSH1 0x20 ADD PUSH1 0x40 MLOAD DUP1 SWAP2 SUB SWAP1 LOG1 JUMP JUMPDEST PUSH2 0x21D1 PUSH2 0x1906 JUMP JUMPDEST PUSH1 0x2 DUP1 SLOAD PUSH1 0xFF NOT AND PUSH1 0x1 OR SWAP1 SSTORE PUSH32 0x62E78CEA01BEE320CD4E420270B5EA74000D11B0C9F74754EBDBFC544B05A258 PUSH2 0x21AC CALLER SWAP1 JUMP JUMPDEST PUSH1 0x40 MLOAD PUSH1 0x1 PUSH1 0x1 PUSH1 0xA0 SHL SUB DUP5 DUP2 AND PUSH1 0x24 DUP4 ADD MSTORE DUP4 DUP2 AND PUSH1 0x44 DUP4 ADD MSTORE PUSH1 0x64 DUP3 ADD DUP4 SWAP1 MSTORE PUSH2 0xAD5 SWAP2 DUP7 SWAP2 DUP3 AND SWAP1 PUSH4 0x23B872DD SWAP1 PUSH1 0x84 ADD PUSH2 0x20DA JUMP JUMPDEST PUSH2 0x2249 DUP3 DUP3 PUSH2 0x11C0 JUMP JUMPDEST PUSH2 0x2278 JUMPI PUSH1 0x40 MLOAD PUSH4 0xE2517D3F PUSH1 0xE0 SHL DUP2 MSTORE PUSH1 0x1 PUSH1 0x1 PUSH1 0xA0 SHL SUB DUP3 AND PUSH1 0x4 DUP3 ADD MSTORE PUSH1 0x24 DUP2 ADD DUP4 SWAP1 MSTORE PUSH1 0x44 ADD PUSH2 0x30C JUMP JUMPDEST POP POP JUMP JUMPDEST PUSH11 0x422CA8B0A00A425000000 PUSH1 0x6 SLOAD PUSH2 0x2295 SWAP2 SWAP1 PUSH2 0x2796 JUMP JUMPDEST PUSH1 0x5 SLOAD LT PUSH2 0x14A1 JUMPI PUSH11 0x422CA8B0A00A425000000 PUSH1 0x6 PUSH1 0x0 DUP3 DUP3 SLOAD PUSH2 0x22BA SWAP2 SWAP1 PUSH2 0x2796 JUMP JUMPDEST SWAP1 SWAP2 SSTORE POP PUSH2 0x22C8 SWAP1 POP PUSH2 0x239F JUMP JUMPDEST PUSH1 0x40 MLOAD PUSH11 0x422CA8B0A00A425000000 DUP2 MSTORE PUSH32 0x952B264C8E0A06CDDB4BBAA6D6AF1D565145329FD95BBE72CB2B53942B2DC966 SWAP1 PUSH1 0x20 ADD PUSH1 0x40 MLOAD DUP1 SWAP2 SUB SWAP1 LOG1 PUSH2 0x227C JUMP JUMPDEST PUSH1 0x0 DUP1 PUSH1 0x20 PUSH1 0x0 DUP5 MLOAD PUSH1 0x20 DUP7 ADD PUSH1 0x0 DUP9 GAS CALL DUP1 PUSH2 0x232E JUMPI PUSH1 0x40 MLOAD RETURNDATASIZE PUSH1 0x0 DUP3 RETURNDATACOPY RETURNDATASIZE DUP2 REVERT JUMPDEST POP POP PUSH1 0x0 MLOAD RETURNDATASIZE SWAP2 POP DUP2 ISZERO PUSH2 0x2346 JUMPI DUP1 PUSH1 0x1 EQ ISZERO PUSH2 0x2353 JUMP JUMPDEST PUSH1 0x1 PUSH1 0x1 PUSH1 0xA0 SHL SUB DUP5 AND EXTCODESIZE ISZERO JUMPDEST ISZERO PUSH2 0xAD5 JUMPI PUSH1 0x40 MLOAD PUSH4 0x5274AFE7 PUSH1 0xE0 SHL DUP2 MSTORE PUSH1 0x1 PUSH1 0x1 PUSH1 0xA0 SHL SUB DUP6 AND PUSH1 0x4 DUP3 ADD MSTORE PUSH1 0x24 ADD PUSH2 0x30C JUMP JUMPDEST PUSH1 0x2 SLOAD PUSH1 0xFF AND PUSH2 0x14A1 JUMPI PUSH1 0x40 MLOAD PUSH4 0x8DFC202B PUSH1 0xE0 SHL DUP2 MSTORE PUSH1 0x4 ADD PUSH1 0x40 MLOAD DUP1 SWAP2 SUB SWAP1 REVERT JUMPDEST PUSH32 0x0 SELFBALANCE DUP1 ISZERO PUSH2 0x2462 JUMPI PUSH1 0x0 DUP3 PUSH1 0x1 PUSH1 0x1 PUSH1 0xA0 SHL SUB AND DUP3 PUSH1 0x40 MLOAD PUSH1 0x0 PUSH1 0x40 MLOAD DUP1 DUP4 SUB DUP2 DUP6 DUP8 GAS CALL SWAP3 POP POP POP RETURNDATASIZE DUP1 PUSH1 0x0 DUP2 EQ PUSH2 0x2414 JUMPI PUSH1 0x40 MLOAD SWAP2 POP PUSH1 0x1F NOT PUSH1 0x3F RETURNDATASIZE ADD AND DUP3 ADD PUSH1 0x40 MSTORE RETURNDATASIZE DUP3 MSTORE RETURNDATASIZE PUSH1 0x0 PUSH1 0x20 DUP5 ADD RETURNDATACOPY PUSH2 0x2419 JUMP JUMPDEST PUSH1 0x60 SWAP2 POP JUMPDEST POP POP SWAP1 POP DUP1 PUSH2 0x2460 JUMPI PUSH1 0x40 MLOAD PUSH3 0x461BCD PUSH1 0xE5 SHL DUP2 MSTORE PUSH1 0x20 PUSH1 0x4 DUP3 ADD MSTORE PUSH1 0x13 PUSH1 0x24 DUP3 ADD MSTORE PUSH19 0x115512081D1C985B9CD9995C8819985A5B1959 PUSH1 0x6A SHL PUSH1 0x44 DUP3 ADD MSTORE PUSH1 0x64 ADD PUSH2 0x30C JUMP JUMPDEST POP JUMPDEST PUSH1 0x10 SLOAD PUSH1 0x0 JUMPDEST DUP2 DUP2 LT ISZERO PUSH2 0xAD5 JUMPI PUSH1 0x0 PUSH1 0x10 DUP3 DUP2 SLOAD DUP2 LT PUSH2 0x2485 JUMPI PUSH2 0x2485 PUSH2 0x27A9 JUMP JUMPDEST PUSH1 0x0 SWAP2 DUP3 MSTORE PUSH1 0x20 DUP3 KECCAK256 ADD SLOAD PUSH1 0x40 MLOAD PUSH4 0x70A08231 PUSH1 0xE0 SHL DUP2 MSTORE ADDRESS PUSH1 0x4 DUP3 ADD MSTORE PUSH1 0x1 PUSH1 0x1 PUSH1 0xA0 SHL SUB SWAP1 SWAP2 AND SWAP3 POP DUP3 SWAP1 PUSH4 0x70A08231 SWAP1 PUSH1 0x24 ADD PUSH1 0x20 PUSH1 0x40 MLOAD DUP1 DUP4 SUB DUP2 DUP7 GAS STATICCALL ISZERO DUP1 ISZERO PUSH2 0x24D8 JUMPI RETURNDATASIZE PUSH1 0x0 DUP1 RETURNDATACOPY RETURNDATASIZE PUSH1 0x0 REVERT JUMPDEST POP POP POP POP PUSH1 0x40 MLOAD RETURNDATASIZE PUSH1 0x1F NOT PUSH1 0x1F DUP3 ADD AND DUP3 ADD DUP1 PUSH1 0x40 MSTORE POP DUP2 ADD SWAP1 PUSH2 0x24FC SWAP2 SWAP1 PUSH2 0x28CB JUMP JUMPDEST SWAP1 POP DUP1 ISZERO PUSH2 0x2518 JUMPI PUSH2 0x2518 PUSH1 0x1 PUSH1 0x1 PUSH1 0xA0 SHL SUB DUP4 AND DUP8 DUP4 PUSH2 0x20AD JUMP JUMPDEST POP POP PUSH1 0x1 ADD PUSH2 0x2468 JUMP JUMPDEST PUSH1 0x0 PUSH1 0x20 DUP3 DUP5 SUB SLT ISZERO PUSH2 0x2534 JUMPI PUSH1 0x0 DUP1 REVERT JUMPDEST DUP2 CALLDATALOAD PUSH1 0x1 PUSH1 0x1 PUSH1 0xE0 SHL SUB NOT DUP2 AND DUP2 EQ PUSH2 0x254C JUMPI PUSH1 0x0 DUP1 REVERT JUMPDEST SWAP4 SWAP3 POP POP POP JUMP JUMPDEST PUSH1 0x0 PUSH1 0x20 DUP3 DUP5 SUB SLT ISZERO PUSH2 0x2565 JUMPI PUSH1 0x0 DUP1 REVERT JUMPDEST POP CALLDATALOAD SWAP2 SWAP1 POP JUMP JUMPDEST DUP1 CALLDATALOAD PUSH1 0x1 PUSH1 0x1 PUSH1 0xA0 SHL SUB DUP2 AND DUP2 EQ PUSH2 0x2583 JUMPI PUSH1 0x0 DUP1 REVERT JUMPDEST SWAP2 SWAP1 POP JUMP JUMPDEST PUSH1 0x0 DUP1 PUSH1 0x40 DUP4 DUP6 SUB SLT ISZERO PUSH2 0x259B JUMPI PUSH1 0x0 DUP1 REVERT JUMPDEST PUSH2 0x25A4 DUP4 PUSH2 0x256C JUMP JUMPDEST SWAP2 POP PUSH2 0x25B2 PUSH1 0x20 DUP5 ADD PUSH2 0x256C JUMP JUMPDEST SWAP1 POP SWAP3 POP SWAP3 SWAP1 POP JUMP JUMPDEST PUSH1 0x0 DUP1 PUSH1 0x40 DUP4 DUP6 SUB SLT ISZERO PUSH2 0x25CE JUMPI PUSH1 0x0 DUP1 REVERT JUMPDEST DUP3 CALLDATALOAD SWAP2 POP PUSH2 0x25B2 PUSH1 0x20 DUP5 ADD PUSH2 0x256C JUMP JUMPDEST PUSH1 0x0 PUSH1 0x20 DUP3 DUP5 SUB SLT ISZERO PUSH2 0x25F0 JUMPI PUSH1 0x0 DUP1 REVERT JUMPDEST PUSH2 0x254C DUP3 PUSH2 0x256C JUMP JUMPDEST PUSH1 0x0 DUP1 PUSH1 0x20 DUP4 DUP6 SUB SLT ISZERO PUSH2 0x260C JUMPI PUSH1 0x0 DUP1 REVERT JUMPDEST DUP3 CALLDATALOAD PUSH8 0xFFFFFFFFFFFFFFFF DUP1 DUP3 GT ISZERO PUSH2 0x2624 JUMPI PUSH1 0x0 DUP1 REVERT JUMPDEST DUP2 DUP6 ADD SWAP2 POP DUP6 PUSH1 0x1F DUP4 ADD SLT PUSH2 0x2638 JUMPI PUSH1 0x0 DUP1 REVERT JUMPDEST DUP2 CALLDATALOAD DUP2 DUP2 GT ISZERO PUSH2 0x2647 JUMPI PUSH1 0x0 DUP1 REVERT JUMPDEST DUP7 PUSH1 0x20 DUP3 PUSH1 0x5 SHL DUP6 ADD ADD GT ISZERO PUSH2 0x265C JUMPI PUSH1 0x0 DUP1 REVERT JUMPDEST PUSH1 0x20 SWAP3 SWAP1 SWAP3 ADD SWAP7 SWAP2 SWAP6 POP SWAP1 SWAP4 POP POP POP POP JUMP JUMPDEST PUSH4 0x4E487B71 PUSH1 0xE0 SHL PUSH1 0x0 MSTORE PUSH1 0x21 PUSH1 0x4 MSTORE PUSH1 0x24 PUSH1 0x0 REVERT JUMPDEST PUSH1 0x20 DUP2 ADD PUSH1 0x4 DUP4 LT PUSH2 0x26A6 JUMPI PUSH4 0x4E487B71 PUSH1 0xE0 SHL PUSH1 0x0 MSTORE PUSH1 0x21 PUSH1 0x4 MSTORE PUSH1 0x24 PUSH1 0x0 REVERT JUMPDEST SWAP2 SWAP1 MSTORE SWAP1 JUMP JUMPDEST PUSH1 0x0 DUP1 PUSH1 0x0 PUSH1 0x60 DUP5 DUP7 SUB SLT ISZERO PUSH2 0x26C1 JUMPI PUSH1 0x0 DUP1 REVERT JUMPDEST PUSH2 0x26CA DUP5 PUSH2 0x256C JUMP JUMPDEST SWAP6 PUSH1 0x20 DUP6 ADD CALLDATALOAD SWAP6 POP PUSH1 0x40 SWAP1 SWAP5 ADD CALLDATALOAD SWAP4 SWAP3 POP POP POP JUMP JUMPDEST PUSH1 0xFF DUP2 AND DUP2 EQ PUSH2 0xBDB JUMPI PUSH1 0x0 DUP1 REVERT JUMPDEST PUSH1 0x0 DUP1 PUSH1 0x40 DUP4 DUP6 SUB SLT ISZERO PUSH2 0x2701 JUMPI PUSH1 0x0 DUP1 REVERT JUMPDEST PUSH2 0x270A DUP4 PUSH2 0x256C JUMP JUMPDEST SWAP2 POP PUSH1 0x20 DUP4 ADD CALLDATALOAD PUSH2 0x271A DUP2 PUSH2 0x26DF JUMP JUMPDEST DUP1 SWAP2 POP POP SWAP3 POP SWAP3 SWAP1 POP JUMP JUMPDEST PUSH1 0x0 DUP1 PUSH1 0x40 DUP4 DUP6 SUB SLT ISZERO PUSH2 0x2738 JUMPI PUSH1 0x0 DUP1 REVERT JUMPDEST POP POP DUP1 CALLDATALOAD SWAP3 PUSH1 0x20 SWAP1 SWAP2 ADD CALLDATALOAD SWAP2 POP JUMP JUMPDEST PUSH4 0x4E487B71 PUSH1 0xE0 SHL PUSH1 0x0 MSTORE PUSH1 0x11 PUSH1 0x4 MSTORE PUSH1 0x24 PUSH1 0x0 REVERT JUMPDEST DUP1 DUP3 MUL DUP2 ISZERO DUP3 DUP3 DIV DUP5 EQ OR PUSH2 0xA6D JUMPI PUSH2 0xA6D PUSH2 0x2747 JUMP JUMPDEST PUSH1 0x0 DUP3 PUSH2 0x2791 JUMPI PUSH4 0x4E487B71 PUSH1 0xE0 SHL PUSH1 0x0 MSTORE PUSH1 0x12 PUSH1 0x4 MSTORE PUSH1 0x24 PUSH1 0x0 REVERT JUMPDEST POP DIV SWAP1 JUMP JUMPDEST DUP1 DUP3 ADD DUP1 DUP3 GT ISZERO PUSH2 0xA6D JUMPI PUSH2 0xA6D PUSH2 0x2747 JUMP JUMPDEST PUSH4 0x4E487B71 PUSH1 0xE0 SHL PUSH1 0x0 MSTORE PUSH1 0x32 PUSH1 0x4 MSTORE PUSH1 0x24 PUSH1 0x0 REVERT JUMPDEST PUSH1 0xFF DUP3 DUP2 AND DUP3 DUP3 AND SUB SWAP1 DUP2 GT ISZERO PUSH2 0xA6D JUMPI PUSH2 0xA6D PUSH2 0x2747 JUMP JUMPDEST PUSH1 0x1 DUP2 DUP2 JUMPDEST DUP1 DUP6 GT ISZERO PUSH2 0x2813 JUMPI DUP2 PUSH1 0x0 NOT DIV DUP3 GT ISZERO PUSH2 0x27F9 JUMPI PUSH2 0x27F9 PUSH2 0x2747 JUMP JUMPDEST DUP1 DUP6 AND ISZERO PUSH2 0x2806 JUMPI SWAP2 DUP2 MUL SWAP2 JUMPDEST SWAP4 DUP5 SHR SWAP4 SWAP1 DUP1 MUL SWAP1 PUSH2 0x27DD JUMP JUMPDEST POP SWAP3 POP SWAP3 SWAP1 POP JUMP JUMPDEST PUSH1 0x0 DUP3 PUSH2 0x282A JUMPI POP PUSH1 0x1 PUSH2 0xA6D JUMP JUMPDEST DUP2 PUSH2 0x2837 JUMPI POP PUSH1 0x0 PUSH2 0xA6D JUMP JUMPDEST DUP2 PUSH1 0x1 DUP2 EQ PUSH2 0x284D JUMPI PUSH1 0x2 DUP2 EQ PUSH2 0x2857 JUMPI PUSH2 0x2873 JUMP JUMPDEST PUSH1 0x1 SWAP2 POP POP PUSH2 0xA6D JUMP JUMPDEST PUSH1 0xFF DUP5 GT ISZERO PUSH2 0x2868 JUMPI PUSH2 0x2868 PUSH2 0x2747 JUMP JUMPDEST POP POP PUSH1 0x1 DUP3 SHL PUSH2 0xA6D JUMP JUMPDEST POP PUSH1 0x20 DUP4 LT PUSH2 0x133 DUP4 LT AND PUSH1 0x4E DUP5 LT PUSH1 0xB DUP5 LT AND OR ISZERO PUSH2 0x2896 JUMPI POP DUP2 DUP2 EXP PUSH2 0xA6D JUMP JUMPDEST PUSH2 0x28A0 DUP4 DUP4 PUSH2 0x27D8 JUMP JUMPDEST DUP1 PUSH1 0x0 NOT DIV DUP3 GT ISZERO PUSH2 0x28B4 JUMPI PUSH2 0x28B4 PUSH2 0x2747 JUMP JUMPDEST MUL SWAP4 SWAP3 POP POP POP JUMP JUMPDEST PUSH1 0x0 PUSH2 0x254C PUSH1 0xFF DUP5 AND DUP4 PUSH2 0x281B JUMP JUMPDEST PUSH1 0x0 PUSH1 0x20 DUP3 DUP5 SUB SLT ISZERO PUSH2 0x28DD JUMPI PUSH1 0x0 DUP1 REVERT JUMPDEST POP MLOAD SWAP2 SWAP1 POP JUMP JUMPDEST DUP2 DUP2 SUB DUP2 DUP2 GT ISZERO PUSH2 0xA6D JUMPI PUSH2 0xA6D PUSH2 0x2747 JUMP JUMPDEST DUP1 MLOAD PUSH10 0xFFFFFFFFFFFFFFFFFFFF DUP2 AND DUP2 EQ PUSH2 0x2583 JUMPI PUSH1 0x0 DUP1 REVERT JUMPDEST PUSH1 0x0 DUP1 PUSH1 0x0 DUP1 PUSH1 0x0 PUSH1 0xA0 DUP7 DUP9 SUB SLT ISZERO PUSH2 0x2929 JUMPI PUSH1 0x0 DUP1 REVERT JUMPDEST PUSH2 0x2932 DUP7 PUSH2 0x28F7 JUMP JUMPDEST SWAP5 POP PUSH1 0x20 DUP7 ADD MLOAD SWAP4 POP PUSH1 0x40 DUP7 ADD MLOAD SWAP3 POP PUSH1 0x60 DUP7 ADD MLOAD SWAP2 POP PUSH2 0x2955 PUSH1 0x80 DUP8 ADD PUSH2 0x28F7 JUMP JUMPDEST SWAP1 POP SWAP3 SWAP6 POP SWAP3 SWAP6 SWAP1 SWAP4 POP JUMP JUMPDEST PUSH1 0x0 PUSH1 0x20 DUP3 DUP5 SUB SLT ISZERO PUSH2 0x2973 JUMPI PUSH1 0x0 DUP1 REVERT JUMPDEST DUP2 MLOAD PUSH2 0x254C DUP2 PUSH2 0x26DF JUMP JUMPDEST PUSH1 0x0 PUSH1 0x1 DUP3 ADD PUSH2 0x2990 JUMPI PUSH2 0x2990 PUSH2 0x2747 JUMP JUMPDEST POP PUSH1 0x1 ADD SWAP1 JUMP INVALID SWAP8 PUSH7 0x7070C54EF182B0 CREATE2 DUP6 DUP12 SUB 0x4B 0xEA 0xC1 0xB6 RETURN ADDMOD SWAP11 LOG2 0xD3 XOR DUP12 0xB1 0xE8 SWAP3 SWAP16 0x4F 0xA9 0xB9 0x29 LOG2 PUSH5 0x6970667358 0x22 SLT KECCAK256 TIMESTAMP 0xCE CODESIZE 0x2F BALANCE 0xFC CREATE SHL 0xF9 DUP2 0xE 0x22 0xBE MUL PUSH11 0x83C39303266E313989D351 0xF7 0xD5 0xB5 0xD1 0xEE 0xDF PUSH5 0x736F6C6343 STOP ADDMOD EQ STOP CALLER "},"methodIdentifiers":{"echidna_hardcap_not_exceeded()":"2d8e3132","echidna_tokens_sold_valid()":"57b8633d","fuzzBuy(uint256)":"2a5960f1","sale()":"6ad1fe02"}}}}}