{
  "_format": "hh-sol-artifact-1",
  "contractName": "EITVestingVault",
  "sourceName": "contracts/EITVestingVault.sol",
  "abi": [
    {
      "inputs": [
        {
          "internalType": "address",
          "name": "_token",
          "type": "address"
        }
      ],
      "stateMutability": "nonpayable",
      "type": "constructor"
    },
    {
      "inputs": [
        {
          "internalType": "address",
          "name": "owner",
          "type": "address"
        }
      ],
      "name": "OwnableInvalidOwner",
      "type": "error"
    },
    {
      "inputs": [
        {
          "internalType": "address",
          "name": "account",
          "type": "address"
        }
      ],
      "name": "OwnableUnauthorizedAccount",
      "type": "error"
    },
    {
      "inputs": [],
      "name": "ReentrancyGuardReentrantCall",
      "type": "error"
    },
    {
      "inputs": [
        {
          "internalType": "address",
          "name": "token",
          "type": "address"
        }
      ],
      "name": "SafeERC20FailedOperation",
      "type": "error"
    },
    {
      "anonymous": false,
      "inputs": [
        {
          "indexed": true,
          "internalType": "address",
          "name": "oldBeneficiary",
          "type": "address"
        },
        {
          "indexed": true,
          "internalType": "address",
          "name": "newBeneficiary",
          "type": "address"
        }
      ],
      "name": "BeneficiaryTransferred",
      "type": "event"
    },
    {
      "anonymous": false,
      "inputs": [
        {
          "indexed": true,
          "internalType": "address",
          "name": "previousOwner",
          "type": "address"
        },
        {
          "indexed": true,
          "internalType": "address",
          "name": "newOwner",
          "type": "address"
        }
      ],
      "name": "OwnershipTransferred",
      "type": "event"
    },
    {
      "anonymous": false,
      "inputs": [
        {
          "indexed": true,
          "internalType": "address",
          "name": "beneficiary",
          "type": "address"
        },
        {
          "indexed": false,
          "internalType": "uint256",
          "name": "amount",
          "type": "uint256"
        }
      ],
      "name": "ScheduleCreated",
      "type": "event"
    },
    {
      "anonymous": false,
      "inputs": [
        {
          "indexed": true,
          "internalType": "address",
          "name": "beneficiary",
          "type": "address"
        },
        {
          "indexed": false,
          "internalType": "uint256",
          "name": "amountReturned",
          "type": "uint256"
        }
      ],
      "name": "ScheduleRevoked",
      "type": "event"
    },
    {
      "anonymous": false,
      "inputs": [
        {
          "indexed": true,
          "internalType": "address",
          "name": "beneficiary",
          "type": "address"
        },
        {
          "indexed": false,
          "internalType": "uint256",
          "name": "amount",
          "type": "uint256"
        }
      ],
      "name": "TokensClaimed",
      "type": "event"
    },
    {
      "inputs": [
        {
          "internalType": "address",
          "name": "_old",
          "type": "address"
        },
        {
          "internalType": "address",
          "name": "_new",
          "type": "address"
        }
      ],
      "name": "changeBeneficiary",
      "outputs": [],
      "stateMutability": "nonpayable",
      "type": "function"
    },
    {
      "inputs": [],
      "name": "claim",
      "outputs": [],
      "stateMutability": "nonpayable",
      "type": "function"
    },
    {
      "inputs": [
        {
          "internalType": "address",
          "name": "_beneficiary",
          "type": "address"
        },
        {
          "internalType": "uint256",
          "name": "_amount",
          "type": "uint256"
        },
        {
          "internalType": "uint256",
          "name": "_startTime",
          "type": "uint256"
        },
        {
          "internalType": "uint256",
          "name": "_cliffDuration",
          "type": "uint256"
        },
        {
          "internalType": "uint256",
          "name": "_vestingDuration",
          "type": "uint256"
        },
        {
          "internalType": "bool",
          "name": "_isRevocable",
          "type": "bool"
        }
      ],
      "name": "createVestingSchedule",
      "outputs": [],
      "stateMutability": "nonpayable",
      "type": "function"
    },
    {
      "inputs": [],
      "name": "owner",
      "outputs": [
        {
          "internalType": "address",
          "name": "",
          "type": "address"
        }
      ],
      "stateMutability": "view",
      "type": "function"
    },
    {
      "inputs": [],
      "name": "renounceOwnership",
      "outputs": [],
      "stateMutability": "nonpayable",
      "type": "function"
    },
    {
      "inputs": [
        {
          "internalType": "address",
          "name": "_beneficiary",
          "type": "address"
        }
      ],
      "name": "revoke",
      "outputs": [],
      "stateMutability": "nonpayable",
      "type": "function"
    },
    {
      "inputs": [],
      "name": "token",
      "outputs": [
        {
          "internalType": "contract IERC20",
          "name": "",
          "type": "address"
        }
      ],
      "stateMutability": "view",
      "type": "function"
    },
    {
      "inputs": [
        {
          "internalType": "address",
          "name": "_new",
          "type": "address"
        }
      ],
      "name": "transferMySchedule",
      "outputs": [],
      "stateMutability": "nonpayable",
      "type": "function"
    },
    {
      "inputs": [
        {
          "internalType": "address",
          "name": "newOwner",
          "type": "address"
        }
      ],
      "name": "transferOwnership",
      "outputs": [],
      "stateMutability": "nonpayable",
      "type": "function"
    },
    {
      "inputs": [
        {
          "internalType": "address",
          "name": "",
          "type": "address"
        }
      ],
      "name": "vestingSchedules",
      "outputs": [
        {
          "internalType": "bool",
          "name": "isRevocable",
          "type": "bool"
        },
        {
          "internalType": "bool",
          "name": "isRevoked",
          "type": "bool"
        },
        {
          "internalType": "uint256",
          "name": "totalAmount",
          "type": "uint256"
        },
        {
          "internalType": "uint256",
          "name": "amountClaimed",
          "type": "uint256"
        },
        {
          "internalType": "uint256",
          "name": "startTime",
          "type": "uint256"
        },
        {
          "internalType": "uint256",
          "name": "cliffDuration",
          "type": "uint256"
        },
        {
          "internalType": "uint256",
          "name": "vestingDuration",
          "type": "uint256"
        }
      ],
      "stateMutability": "view",
      "type": "function"
    }
  ],
  "bytecode": "0x60a060405234801561001057600080fd5b5060405161109f38038061109f83398101604081905261002f916100c4565b338061005557604051631e4fbdf760e01b81526000600482015260240160405180910390fd5b61005e81610074565b50600180556001600160a01b03166080526100f4565b600080546001600160a01b038381166001600160a01b0319831681178455604051919092169283917f8be0079c531659141344cd1fd0a4f28419497f9722a3daafe3b4186f6b6457e09190a35050565b6000602082840312156100d657600080fd5b81516001600160a01b03811681146100ed57600080fd5b9392505050565b608051610f7b61012460003960008181610130015281816102e50152818161040901526107720152610f7b6000f3fe608060405234801561001057600080fd5b506004361061009e5760003560e01c8063aaad932111610066578063aaad932114610105578063f2fde38b14610118578063fc0c546a1461012b578063fdb20ccb14610152578063fff3b1b5146101d557600080fd5b80634e71d92d146100a3578063715018a6146100ad57806374a8f103146100b55780638da5cb5b146100c8578063a697c354146100f2575b600080fd5b6100ab6101e8565b005b6100ab61034f565b6100ab6100c3366004610e02565b610361565b6000546001600160a01b03165b6040516001600160a01b0390911681526020015b60405180910390f35b6100ab610100366004610e1d565b61049e565b6100ab610113366004610e50565b6106f8565b6100ab610126366004610e02565b610951565b6100d57f000000000000000000000000000000000000000000000000000000000000000081565b61019e610160366004610e02565b600260208190526000918252604090912080546001820154928201546003830154600484015460059094015460ff8085169661010090950416949087565b6040805197151588529515156020880152948601939093526060850191909152608084015260a083015260c082015260e0016100e9565b6100ab6101e3366004610e02565b61098f565b6101f0610b7a565b33600090815260026020526040902060018101541580159061021957508054610100900460ff16155b61025a5760405162461bcd60e51b815260206004820152600d60248201526c496e76616c696420436c61696d60981b60448201526064015b60405180910390fd5b600061026533610ba4565b905060008260020154826102799190610ec7565b9050600081116102be5760405162461bcd60e51b815260206004820152601060248201526f4e6f7468696e6720746f20636c61696d60801b6044820152606401610251565b808360020160008282546102d29190610ee0565b9091555061030c90506001600160a01b037f0000000000000000000000000000000000000000000000000000000000000000163383610c9b565b60405181815233907f896e034966eaaf1adc54acc0f257056febbd300c9e47182cf761982cf1f5e4309060200160405180910390a250505061034d60018055565b565b610357610cf2565b61034d6000610d1f565b610369610cf2565b6001600160a01b0381166000908152600260205260409020805460ff16801561039957508054610100900460ff16155b6103d55760405162461bcd60e51b815260206004820152600d60248201526c43616e6e6f74207265766f6b6560981b6044820152606401610251565b60006103e083610ba4565b905060008260020154826103f49190610ec7565b90508015610430576104306001600160a01b037f0000000000000000000000000000000000000000000000000000000000000000168583610c9b565b60008284600101546104429190610ec7565b845461ff0019166101001785556040519091506001600160a01b038616907f89b2530687b0817986a10f8e5dde78d853db395ac15d1ea677f49015dcb230009061048f9084815260200190565b60405180910390a25050505050565b6104a6610cf2565b6001600160a01b0381166104f25760405162461bcd60e51b8152602060048201526013602482015272496e76616c6964204e6577204164647265737360681b6044820152606401610251565b6001600160a01b0382166000908152600260205260409020600101546105485760405162461bcd60e51b815260206004820152600b60248201526a4e6f207363686564756c6560a81b6044820152606401610251565b6001600160a01b038116600090815260026020526040902060010154156105a75760405162461bcd60e51b815260206004820152601360248201527254617267657420686173207363686564756c6560681b6044820152606401610251565b6001600160a01b03821660009081526002602052604090205460ff1661060f5760405162461bcd60e51b815260206004820181905260248201527f43616e6e6f74206d6f76652049727265766f6361626c65205363686564756c656044820152606401610251565b6001600160a01b0380831660008181526002602081905260408083209486168084528184208654815460ff918216151560ff19821681178455895461010090819004909316151590920261ff001990921661ffff199182161791909117825560018089018054918401919091558886018054968401969096556003808a018054918501919091556004808b018054918601919091556005808c01805491909601558989528a549093169099558690559385905595849055918390559382905592517f57005c5083fa0952870a7906715a2f6f9ef2d01b4a423e4b3ce59c6129b1a7639190a35050565b610700610cf2565b6001600160a01b0386166000908152600260205260409020600101541561075b5760405162461bcd60e51b815260206004820152600f60248201526e5363686564756c652065786973747360881b6044820152606401610251565b6040516370a0823160e01b815230600482015285907f00000000000000000000000000000000000000000000000000000000000000006001600160a01b0316906370a0823190602401602060405180830381865afa1580156107c1573d6000803e3d6000fd5b505050506040513d601f19601f820116820180604052508101906107e59190610ef3565b10156108335760405162461bcd60e51b815260206004820152601a60248201527f496e73756666696369656e74205661756c742042616c616e63650000000000006044820152606401610251565b6040518060e001604052808215158152602001600015158152602001868152602001600081526020018581526020018481526020018381525060026000886001600160a01b03166001600160a01b0316815260200190815260200160002060008201518160000160006101000a81548160ff02191690831515021790555060208201518160000160016101000a81548160ff02191690831515021790555060408201518160010155606082015181600201556080820151816003015560a0820151816004015560c08201518160050155905050856001600160a01b03167f9c52cb9bbb9b7fa6ddb26d1e82afc4e62c9ec50c0f3488c10bb8ad22d4edc4c38660405161094191815260200190565b60405180910390a2505050505050565b610959610cf2565b6001600160a01b03811661098357604051631e4fbdf760e01b815260006004820152602401610251565b61098c81610d1f565b50565b610997610b7a565b6001600160a01b0381166109e35760405162461bcd60e51b8152602060048201526013602482015272496e76616c6964204e6577204164647265737360681b6044820152606401610251565b33600090815260026020526040902060010154610a305760405162461bcd60e51b815260206004820152600b60248201526a4e6f207363686564756c6560a81b6044820152606401610251565b6001600160a01b03811660009081526002602052604090206001015415610a8f5760405162461bcd60e51b815260206004820152601360248201527254617267657420686173207363686564756c6560681b6044820152606401610251565b3360008181526002602081905260408083206001600160a01b0386168085528285208254815460ff918216151560ff19821681178455855461010090819004909316151590920261ff001990921661ffff19918216179190911782556001808501805491840191909155848701805497840197909755600380860180549185019190915560048087018054918601919091556005808801805491909601558a8a528654909316909555879055948690559185905592849055839055519092917f57005c5083fa0952870a7906715a2f6f9ef2d01b4a423e4b3ce59c6129b1a76391a361098c60018055565b600260015403610b9d57604051633ee5aeb560e01b815260040160405180910390fd5b6002600155565b6001600160a01b0381166000908152600260208181526040808420815160e081018352815460ff8082161515835261010090910416151593810193909352600181015491830191909152918201546060820152600382015460808201819052600483015460a0830181905260059093015460c08301529091610c2591610ee0565b421015610c355750600092915050565b8060c001518160800151610c499190610ee0565b42101580610c58575080602001515b15610c67576040015192915050565b60c08101516080820151610c7b9042610ec7565b8260400151610c8a9190610f0c565b610c949190610f23565b9392505050565b604080516001600160a01b038416602482015260448082018490528251808303909101815260649091019091526020810180516001600160e01b031663a9059cbb60e01b179052610ced908490610d6f565b505050565b6000546001600160a01b0316331461034d5760405163118cdaa760e01b8152336004820152602401610251565b600080546001600160a01b038381166001600160a01b0319831681178455604051919092169283917f8be0079c531659141344cd1fd0a4f28419497f9722a3daafe3b4186f6b6457e09190a35050565b600080602060008451602086016000885af180610d92576040513d6000823e3d81fd5b50506000513d91508115610daa578060011415610db7565b6001600160a01b0384163b155b15610de057604051635274afe760e01b81526001600160a01b0385166004820152602401610251565b50505050565b80356001600160a01b0381168114610dfd57600080fd5b919050565b600060208284031215610e1457600080fd5b610c9482610de6565b60008060408385031215610e3057600080fd5b610e3983610de6565b9150610e4760208401610de6565b90509250929050565b60008060008060008060c08789031215610e6957600080fd5b610e7287610de6565b95506020870135945060408701359350606087013592506080870135915060a08701358015158114610ea357600080fd5b809150509295509295509295565b634e487b7160e01b600052601160045260246000fd5b81810381811115610eda57610eda610eb1565b92915050565b80820180821115610eda57610eda610eb1565b600060208284031215610f0557600080fd5b5051919050565b8082028115828204841417610eda57610eda610eb1565b600082610f4057634e487b7160e01b600052601260045260246000fd5b50049056fea2646970667358221220d1067a08913f2872b1380c06aae9bb3d4a9a50ea6e13bec2c355e9e1ee357f5564736f6c63430008140033",
  "linkReferences": {},
  "deployedLinkReferences": {}
}