{
  "_format": "hh-sol-artifact-1",
  "contractName": "EITCrowdsale",
  "sourceName": "contracts/EITCrowdsale.sol",
  "abi": [
    {
      "inputs": [
        {
          "internalType": "address",
          "name": "_token",
          "type": "address"
        },
        {
          "internalType": "address",
          "name": "_oracle",
          "type": "address"
        },
        {
          "internalType": "address",
          "name": "_treasury",
          "type": "address"
        },
        {
          "internalType": "address",
          "name": "admin",
          "type": "address"
        }
      ],
      "stateMutability": "nonpayable",
      "type": "constructor"
    },
    {
      "inputs": [],
      "name": "AccessControlBadConfirmation",
      "type": "error"
    },
    {
      "inputs": [
        {
          "internalType": "address",
          "name": "account",
          "type": "address"
        },
        {
          "internalType": "bytes32",
          "name": "neededRole",
          "type": "bytes32"
        }
      ],
      "name": "AccessControlUnauthorizedAccount",
      "type": "error"
    },
    {
      "inputs": [],
      "name": "EnforcedPause",
      "type": "error"
    },
    {
      "inputs": [],
      "name": "ExpectedPause",
      "type": "error"
    },
    {
      "inputs": [],
      "name": "ReentrancyGuardReentrantCall",
      "type": "error"
    },
    {
      "inputs": [
        {
          "internalType": "address",
          "name": "token",
          "type": "address"
        }
      ],
      "name": "SafeERC20FailedOperation",
      "type": "error"
    },
    {
      "anonymous": false,
      "inputs": [
        {
          "indexed": false,
          "internalType": "uint256",
          "name": "amountUSD",
          "type": "uint256"
        }
      ],
      "name": "FundsReleased",
      "type": "event"
    },
    {
      "anonymous": false,
      "inputs": [
        {
          "indexed": false,
          "internalType": "address",
          "name": "account",
          "type": "address"
        }
      ],
      "name": "Paused",
      "type": "event"
    },
    {
      "anonymous": false,
      "inputs": [
        {
          "indexed": true,
          "internalType": "uint256",
          "name": "phaseId",
          "type": "uint256"
        },
        {
          "indexed": false,
          "internalType": "uint256",
          "name": "targetUSD",
          "type": "uint256"
        },
        {
          "indexed": false,
          "internalType": "uint256",
          "name": "priceUSD",
          "type": "uint256"
        }
      ],
      "name": "PhaseAdded",
      "type": "event"
    },
    {
      "anonymous": false,
      "inputs": [
        {
          "indexed": true,
          "internalType": "uint256",
          "name": "phaseId",
          "type": "uint256"
        }
      ],
      "name": "PhaseClaimEnabled",
      "type": "event"
    },
    {
      "anonymous": false,
      "inputs": [
        {
          "indexed": true,
          "internalType": "uint256",
          "name": "phaseId",
          "type": "uint256"
        }
      ],
      "name": "PhaseCompleted",
      "type": "event"
    },
    {
      "anonymous": false,
      "inputs": [
        {
          "indexed": true,
          "internalType": "address",
          "name": "user",
          "type": "address"
        }
      ],
      "name": "RefundClaimed",
      "type": "event"
    },
    {
      "anonymous": false,
      "inputs": [
        {
          "indexed": true,
          "internalType": "bytes32",
          "name": "role",
          "type": "bytes32"
        },
        {
          "indexed": true,
          "internalType": "bytes32",
          "name": "previousAdminRole",
          "type": "bytes32"
        },
        {
          "indexed": true,
          "internalType": "bytes32",
          "name": "newAdminRole",
          "type": "bytes32"
        }
      ],
      "name": "RoleAdminChanged",
      "type": "event"
    },
    {
      "anonymous": false,
      "inputs": [
        {
          "indexed": true,
          "internalType": "bytes32",
          "name": "role",
          "type": "bytes32"
        },
        {
          "indexed": true,
          "internalType": "address",
          "name": "account",
          "type": "address"
        },
        {
          "indexed": true,
          "internalType": "address",
          "name": "sender",
          "type": "address"
        }
      ],
      "name": "RoleGranted",
      "type": "event"
    },
    {
      "anonymous": false,
      "inputs": [
        {
          "indexed": true,
          "internalType": "bytes32",
          "name": "role",
          "type": "bytes32"
        },
        {
          "indexed": true,
          "internalType": "address",
          "name": "account",
          "type": "address"
        },
        {
          "indexed": true,
          "internalType": "address",
          "name": "sender",
          "type": "address"
        }
      ],
      "name": "RoleRevoked",
      "type": "event"
    },
    {
      "anonymous": false,
      "inputs": [],
      "name": "SaleFinalized",
      "type": "event"
    },
    {
      "anonymous": false,
      "inputs": [
        {
          "indexed": true,
          "internalType": "address",
          "name": "user",
          "type": "address"
        },
        {
          "indexed": true,
          "internalType": "uint256",
          "name": "phaseId",
          "type": "uint256"
        },
        {
          "indexed": false,
          "internalType": "uint256",
          "name": "amount",
          "type": "uint256"
        }
      ],
      "name": "TokensClaimed",
      "type": "event"
    },
    {
      "anonymous": false,
      "inputs": [
        {
          "indexed": true,
          "internalType": "address",
          "name": "buyer",
          "type": "address"
        },
        {
          "indexed": true,
          "internalType": "uint256",
          "name": "phaseId",
          "type": "uint256"
        },
        {
          "indexed": false,
          "internalType": "uint256",
          "name": "usdAmount",
          "type": "uint256"
        },
        {
          "indexed": false,
          "internalType": "uint256",
          "name": "tokenAmount",
          "type": "uint256"
        }
      ],
      "name": "TokensPurchased",
      "type": "event"
    },
    {
      "anonymous": false,
      "inputs": [
        {
          "indexed": false,
          "internalType": "address",
          "name": "account",
          "type": "address"
        }
      ],
      "name": "Unpaused",
      "type": "event"
    },
    {
      "anonymous": false,
      "inputs": [
        {
          "indexed": false,
          "internalType": "bool",
          "name": "enabled",
          "type": "bool"
        }
      ],
      "name": "WhitelistStatusChanged",
      "type": "event"
    },
    {
      "anonymous": false,
      "inputs": [
        {
          "indexed": true,
          "internalType": "address",
          "name": "user",
          "type": "address"
        },
        {
          "indexed": false,
          "internalType": "bool",
          "name": "status",
          "type": "bool"
        }
      ],
      "name": "WhitelistUpdated",
      "type": "event"
    },
    {
      "stateMutability": "payable",
      "type": "fallback"
    },
    {
      "inputs": [],
      "name": "DEFAULT_ADMIN_ROLE",
      "outputs": [
        {
          "internalType": "bytes32",
          "name": "",
          "type": "bytes32"
        }
      ],
      "stateMutability": "view",
      "type": "function"
    },
    {
      "inputs": [],
      "name": "HARD_CAP",
      "outputs": [
        {
          "internalType": "uint256",
          "name": "",
          "type": "uint256"
        }
      ],
      "stateMutability": "view",
      "type": "function"
    },
    {
      "inputs": [],
      "name": "MAX_CONTRIBUTION",
      "outputs": [
        {
          "internalType": "uint256",
          "name": "",
          "type": "uint256"
        }
      ],
      "stateMutability": "view",
      "type": "function"
    },
    {
      "inputs": [],
      "name": "MAX_ETH_PRICE",
      "outputs": [
        {
          "internalType": "uint256",
          "name": "",
          "type": "uint256"
        }
      ],
      "stateMutability": "view",
      "type": "function"
    },
    {
      "inputs": [],
      "name": "MAX_ORACLE_DELAY",
      "outputs": [
        {
          "internalType": "uint256",
          "name": "",
          "type": "uint256"
        }
      ],
      "stateMutability": "view",
      "type": "function"
    },
    {
      "inputs": [],
      "name": "MILESTONE_SIZE_USD",
      "outputs": [
        {
          "internalType": "uint256",
          "name": "",
          "type": "uint256"
        }
      ],
      "stateMutability": "view",
      "type": "function"
    },
    {
      "inputs": [],
      "name": "MIN_CONTRIBUTION",
      "outputs": [
        {
          "internalType": "uint256",
          "name": "",
          "type": "uint256"
        }
      ],
      "stateMutability": "view",
      "type": "function"
    },
    {
      "inputs": [],
      "name": "MIN_ETH_PRICE",
      "outputs": [
        {
          "internalType": "uint256",
          "name": "",
          "type": "uint256"
        }
      ],
      "stateMutability": "view",
      "type": "function"
    },
    {
      "inputs": [],
      "name": "OPERATOR_ROLE",
      "outputs": [
        {
          "internalType": "bytes32",
          "name": "",
          "type": "bytes32"
        }
      ],
      "stateMutability": "view",
      "type": "function"
    },
    {
      "inputs": [],
      "name": "SOFT_CAP",
      "outputs": [
        {
          "internalType": "uint256",
          "name": "",
          "type": "uint256"
        }
      ],
      "stateMutability": "view",
      "type": "function"
    },
    {
      "inputs": [
        {
          "internalType": "uint256",
          "name": "targetUSD",
          "type": "uint256"
        },
        {
          "internalType": "uint256",
          "name": "priceUSD",
          "type": "uint256"
        }
      ],
      "name": "addPhase",
      "outputs": [],
      "stateMutability": "nonpayable",
      "type": "function"
    },
    {
      "inputs": [
        {
          "internalType": "uint256[]",
          "name": "targetsUSD",
          "type": "uint256[]"
        },
        {
          "internalType": "uint256[]",
          "name": "pricesUSD",
          "type": "uint256[]"
        }
      ],
      "name": "addPhasesBatch",
      "outputs": [],
      "stateMutability": "nonpayable",
      "type": "function"
    },
    {
      "inputs": [
        {
          "internalType": "address",
          "name": "tokenAddr",
          "type": "address"
        },
        {
          "internalType": "uint8",
          "name": "decimals",
          "type": "uint8"
        }
      ],
      "name": "addStablecoin",
      "outputs": [],
      "stateMutability": "nonpayable",
      "type": "function"
    },
    {
      "inputs": [
        {
          "internalType": "address[]",
          "name": "users",
          "type": "address[]"
        }
      ],
      "name": "addToWhitelist",
      "outputs": [],
      "stateMutability": "nonpayable",
      "type": "function"
    },
    {
      "inputs": [
        {
          "internalType": "uint256",
          "name": "minTokensOut",
          "type": "uint256"
        }
      ],
      "name": "buyWithNative",
      "outputs": [],
      "stateMutability": "payable",
      "type": "function"
    },
    {
      "inputs": [
        {
          "internalType": "address",
          "name": "stableToken",
          "type": "address"
        },
        {
          "internalType": "uint256",
          "name": "amount",
          "type": "uint256"
        },
        {
          "internalType": "uint256",
          "name": "minTokensOut",
          "type": "uint256"
        }
      ],
      "name": "buyWithStablecoin",
      "outputs": [],
      "stateMutability": "nonpayable",
      "type": "function"
    },
    {
      "inputs": [
        {
          "internalType": "uint256",
          "name": "phaseId",
          "type": "uint256"
        }
      ],
      "name": "claimPhase",
      "outputs": [],
      "stateMutability": "nonpayable",
      "type": "function"
    },
    {
      "inputs": [],
      "name": "claimRefund",
      "outputs": [],
      "stateMutability": "nonpayable",
      "type": "function"
    },
    {
      "inputs": [],
      "name": "currentPhase",
      "outputs": [
        {
          "internalType": "uint256",
          "name": "",
          "type": "uint256"
        }
      ],
      "stateMutability": "view",
      "type": "function"
    },
    {
      "inputs": [
        {
          "internalType": "uint256",
          "name": "phaseId",
          "type": "uint256"
        }
      ],
      "name": "enablePhaseClaim",
      "outputs": [],
      "stateMutability": "nonpayable",
      "type": "function"
    },
    {
      "inputs": [],
      "name": "enableRefunds",
      "outputs": [],
      "stateMutability": "nonpayable",
      "type": "function"
    },
    {
      "inputs": [
        {
          "internalType": "address",
          "name": "",
          "type": "address"
        }
      ],
      "name": "ethContributed",
      "outputs": [
        {
          "internalType": "uint256",
          "name": "",
          "type": "uint256"
        }
      ],
      "stateMutability": "view",
      "type": "function"
    },
    {
      "inputs": [],
      "name": "finalizeSale",
      "outputs": [],
      "stateMutability": "nonpayable",
      "type": "function"
    },
    {
      "inputs": [],
      "name": "getPhaseCount",
      "outputs": [
        {
          "internalType": "uint256",
          "name": "",
          "type": "uint256"
        }
      ],
      "stateMutability": "view",
      "type": "function"
    },
    {
      "inputs": [
        {
          "internalType": "bytes32",
          "name": "role",
          "type": "bytes32"
        }
      ],
      "name": "getRoleAdmin",
      "outputs": [
        {
          "internalType": "bytes32",
          "name": "",
          "type": "bytes32"
        }
      ],
      "stateMutability": "view",
      "type": "function"
    },
    {
      "inputs": [
        {
          "internalType": "bytes32",
          "name": "role",
          "type": "bytes32"
        },
        {
          "internalType": "address",
          "name": "account",
          "type": "address"
        }
      ],
      "name": "grantRole",
      "outputs": [],
      "stateMutability": "nonpayable",
      "type": "function"
    },
    {
      "inputs": [
        {
          "internalType": "bytes32",
          "name": "role",
          "type": "bytes32"
        },
        {
          "internalType": "address",
          "name": "account",
          "type": "address"
        }
      ],
      "name": "hasRole",
      "outputs": [
        {
          "internalType": "bool",
          "name": "",
          "type": "bool"
        }
      ],
      "stateMutability": "view",
      "type": "function"
    },
    {
      "inputs": [
        {
          "internalType": "address",
          "name": "",
          "type": "address"
        }
      ],
      "name": "isWhitelisted",
      "outputs": [
        {
          "internalType": "bool",
          "name": "",
          "type": "bool"
        }
      ],
      "stateMutability": "view",
      "type": "function"
    },
    {
      "inputs": [],
      "name": "oracle",
      "outputs": [
        {
          "internalType": "contract AggregatorV3Interface",
          "name": "",
          "type": "address"
        }
      ],
      "stateMutability": "view",
      "type": "function"
    },
    {
      "inputs": [],
      "name": "pause",
      "outputs": [],
      "stateMutability": "nonpayable",
      "type": "function"
    },
    {
      "inputs": [],
      "name": "paused",
      "outputs": [
        {
          "internalType": "bool",
          "name": "",
          "type": "bool"
        }
      ],
      "stateMutability": "view",
      "type": "function"
    },
    {
      "inputs": [
        {
          "internalType": "uint256",
          "name": "",
          "type": "uint256"
        }
      ],
      "name": "phaseClaimEnabled",
      "outputs": [
        {
          "internalType": "bool",
          "name": "",
          "type": "bool"
        }
      ],
      "stateMutability": "view",
      "type": "function"
    },
    {
      "inputs": [
        {
          "internalType": "uint256",
          "name": "",
          "type": "uint256"
        },
        {
          "internalType": "address",
          "name": "",
          "type": "address"
        }
      ],
      "name": "phasePurchased",
      "outputs": [
        {
          "internalType": "uint256",
          "name": "",
          "type": "uint256"
        }
      ],
      "stateMutability": "view",
      "type": "function"
    },
    {
      "inputs": [
        {
          "internalType": "uint256",
          "name": "",
          "type": "uint256"
        }
      ],
      "name": "phases",
      "outputs": [
        {
          "internalType": "uint256",
          "name": "targetUSD",
          "type": "uint256"
        },
        {
          "internalType": "uint256",
          "name": "priceUSD",
          "type": "uint256"
        },
        {
          "internalType": "uint256",
          "name": "raisedUSD",
          "type": "uint256"
        },
        {
          "internalType": "bool",
          "name": "isComplete",
          "type": "bool"
        }
      ],
      "stateMutability": "view",
      "type": "function"
    },
    {
      "inputs": [
        {
          "internalType": "address[]",
          "name": "users",
          "type": "address[]"
        }
      ],
      "name": "removeFromWhitelist",
      "outputs": [],
      "stateMutability": "nonpayable",
      "type": "function"
    },
    {
      "inputs": [
        {
          "internalType": "bytes32",
          "name": "role",
          "type": "bytes32"
        },
        {
          "internalType": "address",
          "name": "callerConfirmation",
          "type": "address"
        }
      ],
      "name": "renounceRole",
      "outputs": [],
      "stateMutability": "nonpayable",
      "type": "function"
    },
    {
      "inputs": [
        {
          "internalType": "bytes32",
          "name": "role",
          "type": "bytes32"
        },
        {
          "internalType": "address",
          "name": "account",
          "type": "address"
        }
      ],
      "name": "revokeRole",
      "outputs": [],
      "stateMutability": "nonpayable",
      "type": "function"
    },
    {
      "inputs": [],
      "name": "saleState",
      "outputs": [
        {
          "internalType": "enum EITCrowdsale.SaleState",
          "name": "",
          "type": "uint8"
        }
      ],
      "stateMutability": "view",
      "type": "function"
    },
    {
      "inputs": [
        {
          "internalType": "bool",
          "name": "enabled",
          "type": "bool"
        }
      ],
      "name": "setWhitelistEnabled",
      "outputs": [],
      "stateMutability": "nonpayable",
      "type": "function"
    },
    {
      "inputs": [
        {
          "internalType": "address",
          "name": "",
          "type": "address"
        },
        {
          "internalType": "address",
          "name": "",
          "type": "address"
        }
      ],
      "name": "stableContributed",
      "outputs": [
        {
          "internalType": "uint256",
          "name": "",
          "type": "uint256"
        }
      ],
      "stateMutability": "view",
      "type": "function"
    },
    {
      "inputs": [
        {
          "internalType": "uint256",
          "name": "",
          "type": "uint256"
        }
      ],
      "name": "stableList",
      "outputs": [
        {
          "internalType": "address",
          "name": "",
          "type": "address"
        }
      ],
      "stateMutability": "view",
      "type": "function"
    },
    {
      "inputs": [
        {
          "internalType": "address",
          "name": "",
          "type": "address"
        }
      ],
      "name": "stablecoinDecimals",
      "outputs": [
        {
          "internalType": "uint8",
          "name": "",
          "type": "uint8"
        }
      ],
      "stateMutability": "view",
      "type": "function"
    },
    {
      "inputs": [
        {
          "internalType": "address",
          "name": "",
          "type": "address"
        }
      ],
      "name": "supportedStable",
      "outputs": [
        {
          "internalType": "bool",
          "name": "",
          "type": "bool"
        }
      ],
      "stateMutability": "view",
      "type": "function"
    },
    {
      "inputs": [
        {
          "internalType": "bytes4",
          "name": "interfaceId",
          "type": "bytes4"
        }
      ],
      "name": "supportsInterface",
      "outputs": [
        {
          "internalType": "bool",
          "name": "",
          "type": "bool"
        }
      ],
      "stateMutability": "view",
      "type": "function"
    },
    {
      "inputs": [],
      "name": "token",
      "outputs": [
        {
          "internalType": "contract IERC20",
          "name": "",
          "type": "address"
        }
      ],
      "stateMutability": "view",
      "type": "function"
    },
    {
      "inputs": [],
      "name": "totalRaisedUSD",
      "outputs": [
        {
          "internalType": "uint256",
          "name": "",
          "type": "uint256"
        }
      ],
      "stateMutability": "view",
      "type": "function"
    },
    {
      "inputs": [],
      "name": "totalReleasedUSD",
      "outputs": [
        {
          "internalType": "uint256",
          "name": "",
          "type": "uint256"
        }
      ],
      "stateMutability": "view",
      "type": "function"
    },
    {
      "inputs": [],
      "name": "totalTokensSold",
      "outputs": [
        {
          "internalType": "uint256",
          "name": "",
          "type": "uint256"
        }
      ],
      "stateMutability": "view",
      "type": "function"
    },
    {
      "inputs": [],
      "name": "treasury",
      "outputs": [
        {
          "internalType": "address",
          "name": "",
          "type": "address"
        }
      ],
      "stateMutability": "view",
      "type": "function"
    },
    {
      "inputs": [],
      "name": "unpause",
      "outputs": [],
      "stateMutability": "nonpayable",
      "type": "function"
    },
    {
      "inputs": [
        {
          "internalType": "address",
          "name": "",
          "type": "address"
        }
      ],
      "name": "userTotalUSD",
      "outputs": [
        {
          "internalType": "uint256",
          "name": "",
          "type": "uint256"
        }
      ],
      "stateMutability": "view",
      "type": "function"
    },
    {
      "inputs": [],
      "name": "whitelistEnabled",
      "outputs": [
        {
          "internalType": "bool",
          "name": "",
          "type": "bool"
        }
      ],
      "stateMutability": "view",
      "type": "function"
    },
    {
      "inputs": [],
      "name": "withdrawUnsoldTokens",
      "outputs": [],
      "stateMutability": "nonpayable",
      "type": "function"
    },
    {
      "stateMutability": "payable",
      "type": "receive"
    }
  ],
  "bytecode": "0x60e06040526009805460ff1916600117905534801561001c575f80fd5b5060405161334b38038061334b83398101604081905261003b916101ce565b60017f9b779b17422d0df92223018b32b4d1fa46e071723d6817e2486d003becc55f00556001600160a01b038416610071575f80fd5b6001600160a01b038316610083575f80fd5b6001600160a01b038216610095575f80fd5b6001600160a01b0381166100a7575f80fd5b6001600160a01b0384811660805283811660a052821660c0526001805461ff00191690556100d55f8261010a565b506101007f97667070c54ef182b0f5858b034beac1b6f3089aa2d3188bb1e8929f4fa9b9298261010a565b505050505061021f565b5f828152602081815260408083206001600160a01b038516845290915281205460ff166101aa575f838152602081815260408083206001600160a01b03861684529091529020805460ff191660011790556101623390565b6001600160a01b0316826001600160a01b0316847f2f8788117e7eff1d82e926ec794901d17c78024a50270940304540a733656f0d60405160405180910390a45060016101ad565b505f5b92915050565b80516001600160a01b03811681146101c9575f80fd5b919050565b5f805f80608085870312156101e1575f80fd5b6101ea856101b3565b93506101f8602086016101b3565b9250610206604086016101b3565b9150610214606086016101b3565b905092959194509250565b60805160a05160c0516130ca6102815f395f81816106ed01528181611beb01526129d401525f818161078301528181611f3001526120b801525f8181610a8401528181610e1f01528181611b1f01528181611bc9015261243301526130ca5ff3fe60806040526004361061031d575f3560e01c806363b20117116101aa578063b5545a3c116100f6578063d5f8cf0d11610094578063e746a1d21161006e578063e746a1d214610a09578063f5b541a614610a28578063f96f5b3514610a48578063fc0c546a14610a7357610365565b8063d5f8cf0d146109ab578063db5e0063146109ca578063e1c1dd6f146109de57610365565b8063c6d3107f116100d0578063c6d3107f14610923578063c8bdbfb614610938578063d21a74ff1461094c578063d547741f1461098c57610365565b8063b5545a3c146108c3578063b652dc2f146108d7578063c6bc88be146108f557610365565b80638b9a71cf1161016357806394d95f8f1161013d57806394d95f8f146108585780639b9ecc9914610875578063a217fddf14610891578063a52dba3c146108a457610365565b80638b9a71cf146108065780638c52dc411461082557806391d148541461083957610365565b806363b20117146107275780636620cbe21461073c5780637dc0d1d0146107725780637f649783146107a55780638456cb59146107c4578063865eb74a146107d857610365565b80633af32abf1161026957806358a687ec116102225780635c975abb116101fc5780635c975abb1461067d5780635fc2d28314610694578063603f4d52146106b157806361d027b3146106dc57610365565b806358a687ec14610635578063599d56e0146106495780635c79e7171461065e57610365565b80633af32abf146105805780633f4ba83a146105ae57806340650c91146105c257806348eb38fb146105de57806351fb012d146105fd578063548db1741461061657610365565b80632e37eef6116102d657806331ad36ab116102b057806331ad36ab1461051157806332855ed21461052457806336568abe146105435780633a03171c1461056257610365565b80632e37eef6146104945780632f2ff15d146104d557806330e9d37b146104f457610365565b806301ffc9a7146103a3578063052d9e7e146103d7578063055ad42e146103f85780631252af751461041b578063248a9ca31461043057806325915ff21461045e57610365565b366103655760405162461bcd60e51b815260206004820152601360248201527255736520627579576974684e6174697665282960681b60448201526064015b60405180910390fd5b60405162461bcd60e51b815260206004820152601360248201527255736520627579576974684e6174697665282960681b604482015260640161035c565b3480156103ae575f80fd5b506103c26103bd366004612b4c565b610aa6565b60405190151581526020015b60405180910390f35b3480156103e2575f80fd5b506103f66103f1366004612b7a565b610adc565b005b348015610403575f80fd5b5061040d60035481565b6040519081526020016103ce565b348015610426575f80fd5b5061040d60045481565b34801561043b575f80fd5b5061040d61044a366004612b99565b5f9081526020819052604090206001015490565b348015610469575f80fd5b5061040d610478366004612bcb565b600d60209081525f928352604080842090915290825290205481565b34801561049f575f80fd5b506104b36104ae366004612b99565b610b3b565b60408051948552602085019390935291830152151560608201526080016103ce565b3480156104e0575f80fd5b506103f66104ef366004612bfc565b610b76565b3480156104ff575f80fd5b5061040d69d3c21bcecceda100000081565b6103f661051f366004612b99565b610ba0565b34801561052f575f80fd5b506103f661053e366004612b99565b610ced565b34801561054e575f80fd5b506103f661055d366004612bfc565b610e9c565b34801561056d575f80fd5b5061040d6a52b7d2dcc80cd2e400000081565b34801561058b575f80fd5b506103c261059a366004612c1d565b60076020525f908152604090205460ff1681565b3480156105b9575f80fd5b506103f6610ed4565b3480156105cd575f80fd5b5061040d68056bc75e2d6310000081565b3480156105e9575f80fd5b506103f66105f8366004612b99565b610ee6565b348015610608575f80fd5b506009546103c29060ff1681565b348015610621575f80fd5b506103f6610630366004612c7e565b610f71565b348015610640575f80fd5b506103f6611070565b348015610654575f80fd5b5061040d60055481565b348015610669575f80fd5b506103f6610678366004612cbd565b6110db565b348015610688575f80fd5b5060015460ff166103c2565b34801561069f575f80fd5b5061040d69043c33c193756480000081565b3480156106bc575f80fd5b506001546106cf90610100900460ff1681565b6040516103ce9190612d38565b3480156106e7575f80fd5b5061070f7f000000000000000000000000000000000000000000000000000000000000000081565b6040516001600160a01b0390911681526020016103ce565b348015610732575f80fd5b5061040d60065481565b348015610747575f80fd5b5061040d610756366004612bfc565b600a60209081525f928352604080842090915290825290205481565b34801561077d575f80fd5b5061070f7f000000000000000000000000000000000000000000000000000000000000000081565b3480156107b0575f80fd5b506103f66107bf366004612c7e565b611396565b3480156107cf575f80fd5b506103f6611497565b3480156107e3575f80fd5b506103c26107f2366004612c1d565b600e6020525f908152604090205460ff1681565b348015610811575f80fd5b506103f6610820366004612d5e565b6114a9565b348015610830575f80fd5b506103f66116c6565b348015610844575f80fd5b506103c2610853366004612bfc565b611758565b348015610863575f80fd5b5061040d690a968163f0a57b40000081565b348015610880575f80fd5b5061040d683635c9adc5dea0000081565b34801561089c575f80fd5b5061040d5f81565b3480156108af575f80fd5b506103f66108be366004612d9c565b611780565b3480156108ce575f80fd5b506103f66118bf565b3480156108e2575f80fd5b5061040d6a0c685fa11e01ec6f00000081565b348015610900575f80fd5b506103c261090f366004612b99565b600b6020525f908152604090205460ff1681565b34801561092e575f80fd5b5061040d61038481565b348015610943575f80fd5b506103f6611ab1565b348015610957575f80fd5b5061097a610966366004612c1d565b600f6020525f908152604090205460ff1681565b60405160ff90911681526020016103ce565b348015610997575f80fd5b506103f66109a6366004612bfc565b611c10565b3480156109b6575f80fd5b506103f66109c5366004612dd1565b611c34565b3480156109d5575f80fd5b5060025461040d565b3480156109e9575f80fd5b5061040d6109f8366004612c1d565b60086020525f908152604090205481565b348015610a14575f80fd5b5061070f610a23366004612b99565b611e29565b348015610a33575f80fd5b5061040d5f8051602061305583398151915281565b348015610a53575f80fd5b5061040d610a62366004612c1d565b600c6020525f908152604090205481565b348015610a7e575f80fd5b5061070f7f000000000000000000000000000000000000000000000000000000000000000081565b5f6001600160e01b03198216637965db0b60e01b1480610ad657506301ffc9a760e01b6001600160e01b03198316145b92915050565b5f80516020613055833981519152610af381611e51565b6009805460ff19168315159081179091556040519081527f1cf28b997975c7be355bcef74f2f5019aa48253bc1e54b3c8b002471865fdba89060200160405180910390a15050565b60028181548110610b4a575f80fd5b5f9182526020909120600490910201805460018201546002830154600390930154919350919060ff1684565b5f82815260208190526040902060010154610b9081611e51565b610b9a8383611e5b565b50505050565b610ba8611eea565b610bb0611f05565b60095460ff1615610c0b57335f9081526007602052604090205460ff16610c0b5760405162461bcd60e51b815260206004820152600f60248201526e139bdd081dda1a5d195b1a5cdd1959608a1b604482015260640161035c565b5f600154610100900460ff166003811115610c2857610c28612d24565b1480610c4e575060018054610100900460ff166003811115610c4c57610c4c612d24565b145b610c6a5760405162461bcd60e51b815260040161035c90612df1565b60025460035410610c79575f80fd5b5f610c82611f29565b90505f670de0b6b3a7640000610c988334612e2e565b610ca29190612e45565b9050610cae8184612190565b335f908152600c602052604081208054349290610ccc908490612e64565b909155505060015f805160206130758339815191525550610cea9050565b50565b610cf5611eea565b610cfd611f05565b6003600154610100900460ff166003811115610d1b57610d1b612d24565b03610d565760405162461bcd60e51b815260206004820152600b60248201526a526566756e64206d6f646560a81b604482015260640161035c565b5f818152600b602052604090205460ff16610da45760405162461bcd60e51b815260206004820152600e60248201526d10db185a5b48191a5cd8589b195960921b604482015260640161035c565b5f818152600a6020908152604080832033845290915290205480610dfd5760405162461bcd60e51b815260206004820152601060248201526f4e6f7468696e6720746f20636c61696d60801b604482015260640161035c565b5f828152600a60209081526040808320338085529252822091909155610e4e907f00000000000000000000000000000000000000000000000000000000000000006001600160a01b03169083612688565b604051818152829033907f9923b4306c6c030f2bdfbf156517d5983b87e15b96176da122cd4f2effa4ba7b9060200160405180910390a350610cea60015f8051602061307583398151915255565b6001600160a01b0381163314610ec55760405163334bd91960e11b815260040160405180910390fd5b610ecf82826126bd565b505050565b5f610ede81611e51565b610cea612726565b5f80516020613055833981519152610efd81611e51565b60028281548110610f1057610f10612e77565b5f91825260209091206003600490920201015460ff16610f2e575f80fd5b5f828152600b6020526040808220805460ff191660011790555183917fd5f2e48a1b20537d5d9999bf63ead088cc70afd46ef059d6982ce1f68ac73dca91a25050565b5f80516020613055833981519152610f8881611e51565b8115801590610f9957506101f48211155b610fa1575f80fd5b5f5b82811015610b9a575f60075f868685818110610fc157610fc1612e77565b9050602002016020810190610fd69190612c1d565b6001600160a01b0316815260208101919091526040015f20805460ff191691151591909117905583838281811061100f5761100f612e77565b90506020020160208101906110249190612c1d565b6001600160a01b03167ff93f9a76c1bf3444d22400a00cb9fe990e6abe9dbb333fda48859cfee864543d5f604051611060911515815260200190565b60405180910390a2600101610fa3565b5f61107a81611e51565b6003600154610100900460ff16600381111561109857611098612d24565b036110a1575f80fd5b6001805461ff0019166102001790556040517ff33fd39ddc653e5f9033d50b852a4e85dc19ab2e3553927ce281aa99f9718c5d905f90a150565b5f6110e581611e51565b5f600154610100900460ff16600381111561110257611102612d24565b1461111f5760405162461bcd60e51b815260040161035c90612df1565b8382146111665760405162461bcd60e51b8152602060048201526015602482015274082e4e4c2f240d8cadccee8d040dad2e6dac2e8c6d605b1b604482015260640161035c565b836111a25760405162461bcd60e51b815260206004820152600c60248201526b456d7074792061727261797360a01b604482015260640161035c565b5f5b8481101561138e575f8686838181106111bf576111bf612e77565b905060200201351161120a5760405162461bcd60e51b8152602060048201526014602482015273125b9d985b1a59081c1a185cd9481d185c99d95d60621b604482015260640161035c565b5f84848381811061121d5761121d612e77565b90506020020135116112675760405162461bcd60e51b8152602060048201526013602482015272496e76616c696420706861736520707269636560681b604482015260640161035c565b6002604051806080016040528088888581811061128657611286612e77565b9050602002013581526020018686858181106112a4576112a4612e77565b602090810292909201358352505f82820181905260409283018190528454600180820187559582529082902084516004909202019081559083015181850155908201516002808301919091556060909201516003909101805460ff1916911515919091179055546113159190612e8b565b7e3a614d69232d07ce423df77598aa26a786bec214178a4f4c288fb03e930fba87878481811061134757611347612e77565b9050602002013586868581811061136057611360612e77565b9050602002013560405161137e929190918252602082015260400190565b60405180910390a26001016111a4565b505050505050565b5f805160206130558339815191526113ad81611e51565b81158015906113be57506101f48211155b6113c6575f80fd5b5f5b82811015610b9a57600160075f8686858181106113e7576113e7612e77565b90506020020160208101906113fc9190612c1d565b6001600160a01b0316815260208101919091526040015f20805460ff191691151591909117905583838281811061143557611435612e77565b905060200201602081019061144a9190612c1d565b6001600160a01b03167ff93f9a76c1bf3444d22400a00cb9fe990e6abe9dbb333fda48859cfee864543d6001604051611487911515815260200190565b60405180910390a26001016113c8565b5f6114a181611e51565b610cea612778565b6114b1611eea565b6114b9611f05565b60095460ff161561151457335f9081526007602052604090205460ff166115145760405162461bcd60e51b815260206004820152600f60248201526e139bdd081dda1a5d195b1a5cdd1959608a1b604482015260640161035c565b6001600160a01b0383165f908152600e602052604090205460ff166115745760405162461bcd60e51b81526020600482015260166024820152752ab739bab83837b93a32b21039ba30b13632b1b7b4b760511b604482015260640161035c565b5f600154610100900460ff16600381111561159157611591612d24565b14806115b7575060018054610100900460ff1660038111156115b5576115b5612d24565b145b6115d35760405162461bcd60e51b815260040161035c90612df1565b600254600354106116165760405162461bcd60e51b815260206004820152600d60248201526c496e76616c696420706861736560981b604482015260640161035c565b61162b6001600160a01b0384163330856127b3565b6001600160a01b0383165f908152600f602052604081205460ff1690611652826012612e9e565b61165d90600a612f97565b6116679085612e2e565b335f908152600d602090815260408083206001600160a01b038a16845290915281208054929350869290919061169e908490612e64565b909155506116ae90508184612190565b5050610ecf60015f8051602061307583398151915255565b5f6116d081611e51565b5f600154610100900460ff1660038111156116ed576116ed612d24565b0361172e5760405162461bcd60e51b815260206004820152601160248201527053616c65207374696c6c2061637469766560781b604482015260640161035c565b6a0c685fa11e01ec6f00000060045410611746575f80fd5b506001805461ff001916610300179055565b5f918252602082815260408084206001600160a01b0393909316845291905290205460ff1690565b5f61178a81611e51565b6001600160a01b0383165f908152600e602052604090205460ff16156117f25760405162461bcd60e51b815260206004820152601c60248201527f537461626c65636f696e20616c726561647920737570706f7274656400000000604482015260640161035c565b60128260ff1611156118395760405162461bcd60e51b815260206004820152601060248201526f496e76616c696420646563696d616c7360801b604482015260640161035c565b506001600160a01b03919091165f818152600e602090815260408083208054600160ff199182168117909255600f909352908320805490921660ff90951694909417905560108054938401815590527f1b6847dc741a1b0cd08d278845f9d819d87b734759afb55fe2de5cb82a9ae67290910180546001600160a01b0319169091179055565b6118c7611eea565b6003600154610100900460ff1660038111156118e5576118e5612d24565b146118ee575f80fd5b335f908152600c6020526040902054801561199957335f818152600c60205260408082208290555190919083908381818185875af1925050503d805f8114611951576040519150601f19603f3d011682016040523d82523d5f602084013e611956565b606091505b50509050806119975760405162461bcd60e51b815260206004820152600d60248201526c1499599d5b990819985a5b1959609a1b604482015260640161035c565b505b6010545f5b81811015611a2b575f601082815481106119ba576119ba612e77565b5f918252602080832090910154338352600d825260408084206001600160a01b03909216808552919092529120549091508015611a2157335f818152600d602090815260408083206001600160a01b0387168085529252822091909155611a219183612688565b505060010161199e565b50335f908152600860205260408120819055600254905b81811015611a6b575f818152600a60209081526040808320338452909152812055600101611a42565b5060405133907fe85b62fe517bf695ce7fed961f0244f59be2c256525a5a904fb90c32f42cfd3e905f90a2505050611aaf60015f8051602061307583398151915255565b565b5f611abb81611e51565b6002600154610100900460ff166003811115611ad957611ad9612d24565b1480611b0057506003600154610100900460ff166003811115611afe57611afe612d24565b145b611b08575f80fd5b6040516370a0823160e01b81523060048201525f907f00000000000000000000000000000000000000000000000000000000000000006001600160a01b0316906370a0823190602401602060405180830381865afa158015611b6c573d5f803e3d5ffd5b505050506040513d601f19601f82011682018060405250810190611b909190612fa5565b90505f6006548211611ba2575f611baf565b600654611baf9083612e8b565b90505f8111611bbc575f80fd5b610ecf6001600160a01b037f0000000000000000000000000000000000000000000000000000000000000000167f000000000000000000000000000000000000000000000000000000000000000083612688565b5f82815260208190526040902060010154611c2a81611e51565b610b9a83836126bd565b5f611c3e81611e51565b5f600154610100900460ff166003811115611c5b57611c5b612d24565b14611c785760405162461bcd60e51b815260040161035c90612df1565b5f8311611cbe5760405162461bcd60e51b8152602060048201526014602482015273125b9d985b1a59081c1a185cd9481d185c99d95d60621b604482015260640161035c565b5f8211611d035760405162461bcd60e51b8152602060048201526013602482015272496e76616c696420706861736520707269636560681b604482015260640161035c565b60408051608081018252848152602081018481525f9282018381526060830184815260028054600180820183559682905294517f405787fa12a823e0f2b7631cc41b3ba8828b3321ca811111fa75cd3aa3bb5ace60049096029586015592517f405787fa12a823e0f2b7631cc41b3ba8828b3321ca811111fa75cd3aa3bb5acf85015590517f405787fa12a823e0f2b7631cc41b3ba8828b3321ca811111fa75cd3aa3bb5ad0840155517f405787fa12a823e0f2b7631cc41b3ba8828b3321ca811111fa75cd3aa3bb5ad1909201805460ff19169215159290921790915554611dec9190612e8b565b60408051858152602081018590527e3a614d69232d07ce423df77598aa26a786bec214178a4f4c288fb03e930fba910160405180910390a2505050565b60108181548110611e38575f80fd5b5f918252602090912001546001600160a01b0316905081565b610cea81336127e9565b5f611e668383611758565b611ee3575f838152602081815260408083206001600160a01b03861684529091529020805460ff19166001179055611e9b3390565b6001600160a01b0316826001600160a01b0316847f2f8788117e7eff1d82e926ec794901d17c78024a50270940304540a733656f0d60405160405180910390a4506001610ad6565b505f610ad6565b611ef2612826565b60025f8051602061307583398151915255565b60015460ff1615611aaf5760405163d93c066560e01b815260040160405180910390fd5b5f805f805f7f00000000000000000000000000000000000000000000000000000000000000006001600160a01b031663feaf968c6040518163ffffffff1660e01b815260040160a060405180830381865afa158015611f8a573d5f803e3d5ffd5b505050506040513d601f19601f82011682018060405250810190611fae9190612fd5565b9450945050935093505f8313611ffd5760405162461bcd60e51b8152602060048201526014602482015273496e76616c6964206f7261636c6520707269636560601b604482015260640161035c565b61038461200a8342612e8b565b111561204d5760405162461bcd60e51b81526020600482015260126024820152714f7261636c65207072696365207374616c6560701b604482015260640161035c565b8369ffffffffffffffffffff168169ffffffffffffffffffff1610156120b55760405162461bcd60e51b815260206004820152601760248201527f496e636f6d706c657465206f7261636c6520726f756e64000000000000000000604482015260640161035c565b5f7f00000000000000000000000000000000000000000000000000000000000000006001600160a01b031663313ce5676040518163ffffffff1660e01b8152600401602060405180830381865afa158015612112573d5f803e3d5ffd5b505050506040513d601f19601f820116820180604052508101906121369190613021565b90505f612144826012612e9e565b61214f90600a612f97565b6121599086612e2e565b9050683635c9adc5dea00000811015801561217e575069043c33c19375648000008111155b612186575f80fd5b9695505050505050565b5f82116121cf5760405162461bcd60e51b815260206004820152600d60248201526c5a65726f20707572636861736560981b604482015260640161035c565b68056bc75e2d631000008210156122285760405162461bcd60e51b815260206004820152601a60248201527f42656c6f77206d696e696d756d20636f6e747269627574696f6e000000000000604482015260640161035c565b335f90815260086020526040902054690a968163f0a57b4000009061224e908490612e64565b11156122905760405162461bcd60e51b8152602060048201526011602482015270155cd95c8818d85c08195e18d959591959607a1b604482015260640161035c565b6a52b7d2dcc80cd2e4000000826004546122aa9190612e64565b11156122ec5760405162461bcd60e51b815260206004820152601160248201527012185c990818d85c08195e18d959591959607a1b604482015260640161035c565b5f60035490505f6002828154811061230657612306612e77565b5f9182526020909120600490910201600381015490915060ff161561235e5760405162461bcd60e51b815260206004820152600e60248201526d506861736520636f6d706c65746560901b604482015260640161035c565b80546002820154612370908690612e64565b11156123b35760405162461bcd60e51b8152602060048201526012602482015271141a185cd94818d85c08195e18d95959195960721b604482015260640161035c565b60018101545f906123cc86670de0b6b3a7640000612e2e565b6123d69190612e45565b90508381101561241c5760405162461bcd60e51b815260206004820152601160248201527014db1a5c1c1859d948195e18d959591959607a1b604482015260640161035c565b6040516370a0823160e01b81523060048201525f907f00000000000000000000000000000000000000000000000000000000000000006001600160a01b0316906370a0823190602401602060405180830381865afa158015612480573d5f803e3d5ffd5b505050506040513d601f19601f820116820180604052508101906124a49190612fa5565b905081600654826124b59190612e8b565b10156125035760405162461bcd60e51b815260206004820152601c60248201527f496e73756666696369656e7420746f6b656e20696e76656e746f727900000000604482015260640161035c565b335f9081526008602052604081208054889290612521908490612e64565b9250508190555085836002015f82825461253b9190612e64565b925050819055508560045f8282546125539190612e64565b90915550505f848152600a6020908152604080832033845290915281208054849290612580908490612e64565b925050819055508160065f8282546125989190612e64565b90915550506040805187815260208101849052859133917f0d1a0d5e3d583a0e92588799dd06e50fd78c07daf05f0cc06d7b848b1ca445f1910160405180910390a382546002840154106126805760038301805460ff1916600117905560405184907fd4259e19938b793359dfc6c726df41a4cce156deffd8c4a4ed4a681a61670774905f90a26a0c685fa11e01ec6f0000006004541015801561265657505f600154610100900460ff16600381111561265457612654612d24565b145b1561266b576001805461ff0019166101001790555b60038054905f61267a8361303c565b91905055505b61138e612855565b61269583838360016128e0565b610ecf57604051635274afe760e01b81526001600160a01b038416600482015260240161035c565b5f6126c88383611758565b15611ee3575f838152602081815260408083206001600160a01b0386168085529252808320805460ff1916905551339286917ff6391f5c32d9c69d2a47ea670b442974b53935d1edc7fd64eb21e047a839171b9190a4506001610ad6565b61272e612942565b6001805460ff191690557f5db9ee0a495bf2e6ff9c91a7834c1ba4fdd244a5e8aa4e537bd38aeae4b073aa335b6040516001600160a01b03909116815260200160405180910390a1565b612780611f05565b6001805460ff1916811790557f62e78cea01bee320cd4e420270b5ea74000d11b0c9f74754ebdbfc544b05a2583361275b565b6127c1848484846001612965565b610b9a57604051635274afe760e01b81526001600160a01b038516600482015260240161035c565b6127f38282611758565b6128225760405163e2517d3f60e01b81526001600160a01b03821660048201526024810183905260440161035c565b5050565b5f8051602061307583398151915254600203611aaf57604051633ee5aeb560e01b815260040160405180910390fd5b69d3c21bcecceda100000060055461286d9190612e64565b60045410611aaf5769d3c21bcecceda100000060055f8282546128909190612e64565b9091555061289e90506129d2565b60405169d3c21bcecceda100000081527f952b264c8e0a06cddb4bbaa6d6af1d565145329fd95bbe72cb2b53942b2dc9669060200160405180910390a1612855565b60405163a9059cbb60e01b5f8181526001600160a01b038616600452602485905291602083604481808b5af1925060015f5114831661293657838315161561292a573d5f823e3d81fd5b5f873b113d1516831692505b60405250949350505050565b60015460ff16611aaf57604051638dfc202b60e01b815260040160405180910390fd5b6040516323b872dd60e01b5f8181526001600160a01b038781166004528616602452604485905291602083606481808c5af1925060015f511483166129c15783831516156129b5573d5f823e3d81fd5b5f883b113d1516831692505b604052505f60605295945050505050565b7f0000000000000000000000000000000000000000000000000000000000000000478015612a91575f826001600160a01b0316826040515f6040518083038185875af1925050503d805f8114612a43576040519150601f19603f3d011682016040523d82523d5f602084013e612a48565b606091505b5050905080612a8f5760405162461bcd60e51b8152602060048201526013602482015272115512081d1c985b9cd9995c8819985a5b1959606a1b604482015260640161035c565b505b6010545f5b81811015610b9a575f60108281548110612ab257612ab2612e77565b5f9182526020822001546040516370a0823160e01b81523060048201526001600160a01b03909116925082906370a0823190602401602060405180830381865afa158015612b02573d5f803e3d5ffd5b505050506040513d601f19601f82011682018060405250810190612b269190612fa5565b90508015612b4257612b426001600160a01b0383168783612688565b5050600101612a96565b5f60208284031215612b5c575f80fd5b81356001600160e01b031981168114612b73575f80fd5b9392505050565b5f60208284031215612b8a575f80fd5b81358015158114612b73575f80fd5b5f60208284031215612ba9575f80fd5b5035919050565b80356001600160a01b0381168114612bc6575f80fd5b919050565b5f8060408385031215612bdc575f80fd5b612be583612bb0565b9150612bf360208401612bb0565b90509250929050565b5f8060408385031215612c0d575f80fd5b82359150612bf360208401612bb0565b5f60208284031215612c2d575f80fd5b612b7382612bb0565b5f8083601f840112612c46575f80fd5b50813567ffffffffffffffff811115612c5d575f80fd5b6020830191508360208260051b8501011115612c77575f80fd5b9250929050565b5f8060208385031215612c8f575f80fd5b823567ffffffffffffffff811115612ca5575f80fd5b612cb185828601612c36565b90969095509350505050565b5f805f8060408587031215612cd0575f80fd5b843567ffffffffffffffff80821115612ce7575f80fd5b612cf388838901612c36565b90965094506020870135915080821115612d0b575f80fd5b50612d1887828801612c36565b95989497509550505050565b634e487b7160e01b5f52602160045260245ffd5b6020810160048310612d5857634e487b7160e01b5f52602160045260245ffd5b91905290565b5f805f60608486031215612d70575f80fd5b612d7984612bb0565b95602085013595506040909401359392505050565b60ff81168114610cea575f80fd5b5f8060408385031215612dad575f80fd5b612db683612bb0565b91506020830135612dc681612d8e565b809150509250929050565b5f8060408385031215612de2575f80fd5b50508035926020909101359150565b6020808252600f908201526e53616c65206e6f742061637469766560881b604082015260600190565b634e487b7160e01b5f52601160045260245ffd5b8082028115828204841417610ad657610ad6612e1a565b5f82612e5f57634e487b7160e01b5f52601260045260245ffd5b500490565b80820180821115610ad657610ad6612e1a565b634e487b7160e01b5f52603260045260245ffd5b81810381811115610ad657610ad6612e1a565b60ff8281168282160390811115610ad657610ad6612e1a565b600181815b80851115612ef157815f1904821115612ed757612ed7612e1a565b80851615612ee457918102915b93841c9390800290612ebc565b509250929050565b5f82612f0757506001610ad6565b81612f1357505f610ad6565b8160018114612f295760028114612f3357612f4f565b6001915050610ad6565b60ff841115612f4457612f44612e1a565b50506001821b610ad6565b5060208310610133831016604e8410600b8410161715612f72575081810a610ad6565b612f7c8383612eb7565b805f1904821115612f8f57612f8f612e1a565b029392505050565b5f612b7360ff841683612ef9565b5f60208284031215612fb5575f80fd5b5051919050565b805169ffffffffffffffffffff81168114612bc6575f80fd5b5f805f805f60a08688031215612fe9575f80fd5b612ff286612fbc565b945060208601519350604086015192506060860151915061301560808701612fbc565b90509295509295909350565b5f60208284031215613031575f80fd5b8151612b7381612d8e565b5f6001820161304d5761304d612e1a565b506001019056fe97667070c54ef182b0f5858b034beac1b6f3089aa2d3188bb1e8929f4fa9b9299b779b17422d0df92223018b32b4d1fa46e071723d6817e2486d003becc55f00a2646970667358221220ea950e75c61f44625e87646bf4fbc5d05a4ccdfdc9526b1abc486db2e278ef2f64736f6c63430008190033",
  "linkReferences": {},
  "deployedLinkReferences": {}
}