{
  "_format": "hh-sol-artifact-1",
  "contractName": "EITCrowdsale",
  "sourceName": "contracts/EITCrowdsale.sol",
  "abi": [
    {
      "inputs": [
        {
          "internalType": "address",
          "name": "_token",
          "type": "address"
        },
        {
          "internalType": "address",
          "name": "_oracle",
          "type": "address"
        },
        {
          "internalType": "address",
          "name": "_treasury",
          "type": "address"
        },
        {
          "internalType": "address",
          "name": "admin",
          "type": "address"
        }
      ],
      "stateMutability": "nonpayable",
      "type": "constructor"
    },
    {
      "inputs": [],
      "name": "AccessControlBadConfirmation",
      "type": "error"
    },
    {
      "inputs": [
        {
          "internalType": "address",
          "name": "account",
          "type": "address"
        },
        {
          "internalType": "bytes32",
          "name": "neededRole",
          "type": "bytes32"
        }
      ],
      "name": "AccessControlUnauthorizedAccount",
      "type": "error"
    },
    {
      "inputs": [],
      "name": "EnforcedPause",
      "type": "error"
    },
    {
      "inputs": [],
      "name": "ExpectedPause",
      "type": "error"
    },
    {
      "inputs": [],
      "name": "ReentrancyGuardReentrantCall",
      "type": "error"
    },
    {
      "inputs": [
        {
          "internalType": "address",
          "name": "token",
          "type": "address"
        }
      ],
      "name": "SafeERC20FailedOperation",
      "type": "error"
    },
    {
      "anonymous": false,
      "inputs": [
        {
          "indexed": false,
          "internalType": "uint256",
          "name": "amountUSD",
          "type": "uint256"
        }
      ],
      "name": "FundsReleased",
      "type": "event"
    },
    {
      "anonymous": false,
      "inputs": [
        {
          "indexed": false,
          "internalType": "address",
          "name": "account",
          "type": "address"
        }
      ],
      "name": "Paused",
      "type": "event"
    },
    {
      "anonymous": false,
      "inputs": [
        {
          "indexed": true,
          "internalType": "uint256",
          "name": "phaseId",
          "type": "uint256"
        },
        {
          "indexed": false,
          "internalType": "uint256",
          "name": "targetUSD",
          "type": "uint256"
        },
        {
          "indexed": false,
          "internalType": "uint256",
          "name": "priceUSD",
          "type": "uint256"
        }
      ],
      "name": "PhaseAdded",
      "type": "event"
    },
    {
      "anonymous": false,
      "inputs": [
        {
          "indexed": true,
          "internalType": "uint256",
          "name": "phaseId",
          "type": "uint256"
        }
      ],
      "name": "PhaseClaimEnabled",
      "type": "event"
    },
    {
      "anonymous": false,
      "inputs": [
        {
          "indexed": true,
          "internalType": "uint256",
          "name": "phaseId",
          "type": "uint256"
        }
      ],
      "name": "PhaseCompleted",
      "type": "event"
    },
    {
      "anonymous": false,
      "inputs": [
        {
          "indexed": true,
          "internalType": "address",
          "name": "user",
          "type": "address"
        }
      ],
      "name": "RefundClaimed",
      "type": "event"
    },
    {
      "anonymous": false,
      "inputs": [
        {
          "indexed": true,
          "internalType": "bytes32",
          "name": "role",
          "type": "bytes32"
        },
        {
          "indexed": true,
          "internalType": "bytes32",
          "name": "previousAdminRole",
          "type": "bytes32"
        },
        {
          "indexed": true,
          "internalType": "bytes32",
          "name": "newAdminRole",
          "type": "bytes32"
        }
      ],
      "name": "RoleAdminChanged",
      "type": "event"
    },
    {
      "anonymous": false,
      "inputs": [
        {
          "indexed": true,
          "internalType": "bytes32",
          "name": "role",
          "type": "bytes32"
        },
        {
          "indexed": true,
          "internalType": "address",
          "name": "account",
          "type": "address"
        },
        {
          "indexed": true,
          "internalType": "address",
          "name": "sender",
          "type": "address"
        }
      ],
      "name": "RoleGranted",
      "type": "event"
    },
    {
      "anonymous": false,
      "inputs": [
        {
          "indexed": true,
          "internalType": "bytes32",
          "name": "role",
          "type": "bytes32"
        },
        {
          "indexed": true,
          "internalType": "address",
          "name": "account",
          "type": "address"
        },
        {
          "indexed": true,
          "internalType": "address",
          "name": "sender",
          "type": "address"
        }
      ],
      "name": "RoleRevoked",
      "type": "event"
    },
    {
      "anonymous": false,
      "inputs": [],
      "name": "SaleFinalized",
      "type": "event"
    },
    {
      "anonymous": false,
      "inputs": [
        {
          "indexed": true,
          "internalType": "address",
          "name": "user",
          "type": "address"
        },
        {
          "indexed": true,
          "internalType": "uint256",
          "name": "phaseId",
          "type": "uint256"
        },
        {
          "indexed": false,
          "internalType": "uint256",
          "name": "amount",
          "type": "uint256"
        }
      ],
      "name": "TokensClaimed",
      "type": "event"
    },
    {
      "anonymous": false,
      "inputs": [
        {
          "indexed": true,
          "internalType": "address",
          "name": "buyer",
          "type": "address"
        },
        {
          "indexed": true,
          "internalType": "uint256",
          "name": "phaseId",
          "type": "uint256"
        },
        {
          "indexed": false,
          "internalType": "uint256",
          "name": "usdAmount",
          "type": "uint256"
        },
        {
          "indexed": false,
          "internalType": "uint256",
          "name": "tokenAmount",
          "type": "uint256"
        }
      ],
      "name": "TokensPurchased",
      "type": "event"
    },
    {
      "anonymous": false,
      "inputs": [
        {
          "indexed": false,
          "internalType": "address",
          "name": "account",
          "type": "address"
        }
      ],
      "name": "Unpaused",
      "type": "event"
    },
    {
      "anonymous": false,
      "inputs": [
        {
          "indexed": true,
          "internalType": "address",
          "name": "user",
          "type": "address"
        },
        {
          "indexed": false,
          "internalType": "bool",
          "name": "status",
          "type": "bool"
        }
      ],
      "name": "WhitelistUpdated",
      "type": "event"
    },
    {
      "stateMutability": "payable",
      "type": "fallback"
    },
    {
      "inputs": [],
      "name": "DEFAULT_ADMIN_ROLE",
      "outputs": [
        {
          "internalType": "bytes32",
          "name": "",
          "type": "bytes32"
        }
      ],
      "stateMutability": "view",
      "type": "function"
    },
    {
      "inputs": [],
      "name": "HARD_CAP",
      "outputs": [
        {
          "internalType": "uint256",
          "name": "",
          "type": "uint256"
        }
      ],
      "stateMutability": "view",
      "type": "function"
    },
    {
      "inputs": [],
      "name": "MAX_CONTRIBUTION",
      "outputs": [
        {
          "internalType": "uint256",
          "name": "",
          "type": "uint256"
        }
      ],
      "stateMutability": "view",
      "type": "function"
    },
    {
      "inputs": [],
      "name": "MAX_ETH_PRICE",
      "outputs": [
        {
          "internalType": "uint256",
          "name": "",
          "type": "uint256"
        }
      ],
      "stateMutability": "view",
      "type": "function"
    },
    {
      "inputs": [],
      "name": "MAX_ORACLE_DELAY",
      "outputs": [
        {
          "internalType": "uint256",
          "name": "",
          "type": "uint256"
        }
      ],
      "stateMutability": "view",
      "type": "function"
    },
    {
      "inputs": [],
      "name": "MILESTONE_SIZE_USD",
      "outputs": [
        {
          "internalType": "uint256",
          "name": "",
          "type": "uint256"
        }
      ],
      "stateMutability": "view",
      "type": "function"
    },
    {
      "inputs": [],
      "name": "MIN_CONTRIBUTION",
      "outputs": [
        {
          "internalType": "uint256",
          "name": "",
          "type": "uint256"
        }
      ],
      "stateMutability": "view",
      "type": "function"
    },
    {
      "inputs": [],
      "name": "MIN_ETH_PRICE",
      "outputs": [
        {
          "internalType": "uint256",
          "name": "",
          "type": "uint256"
        }
      ],
      "stateMutability": "view",
      "type": "function"
    },
    {
      "inputs": [],
      "name": "OPERATOR_ROLE",
      "outputs": [
        {
          "internalType": "bytes32",
          "name": "",
          "type": "bytes32"
        }
      ],
      "stateMutability": "view",
      "type": "function"
    },
    {
      "inputs": [],
      "name": "SOFT_CAP",
      "outputs": [
        {
          "internalType": "uint256",
          "name": "",
          "type": "uint256"
        }
      ],
      "stateMutability": "view",
      "type": "function"
    },
    {
      "inputs": [
        {
          "internalType": "uint256",
          "name": "targetUSD",
          "type": "uint256"
        },
        {
          "internalType": "uint256",
          "name": "priceUSD",
          "type": "uint256"
        }
      ],
      "name": "addPhase",
      "outputs": [],
      "stateMutability": "nonpayable",
      "type": "function"
    },
    {
      "inputs": [
        {
          "internalType": "address",
          "name": "tokenAddr",
          "type": "address"
        },
        {
          "internalType": "uint8",
          "name": "decimals",
          "type": "uint8"
        }
      ],
      "name": "addStablecoin",
      "outputs": [],
      "stateMutability": "nonpayable",
      "type": "function"
    },
    {
      "inputs": [
        {
          "internalType": "address[]",
          "name": "users",
          "type": "address[]"
        }
      ],
      "name": "addToWhitelist",
      "outputs": [],
      "stateMutability": "nonpayable",
      "type": "function"
    },
    {
      "inputs": [
        {
          "internalType": "uint256",
          "name": "minTokensOut",
          "type": "uint256"
        }
      ],
      "name": "buyWithNative",
      "outputs": [],
      "stateMutability": "payable",
      "type": "function"
    },
    {
      "inputs": [
        {
          "internalType": "address",
          "name": "stableToken",
          "type": "address"
        },
        {
          "internalType": "uint256",
          "name": "amount",
          "type": "uint256"
        },
        {
          "internalType": "uint256",
          "name": "minTokensOut",
          "type": "uint256"
        }
      ],
      "name": "buyWithStablecoin",
      "outputs": [],
      "stateMutability": "nonpayable",
      "type": "function"
    },
    {
      "inputs": [
        {
          "internalType": "uint256",
          "name": "phaseId",
          "type": "uint256"
        }
      ],
      "name": "claimPhase",
      "outputs": [],
      "stateMutability": "nonpayable",
      "type": "function"
    },
    {
      "inputs": [],
      "name": "claimRefund",
      "outputs": [],
      "stateMutability": "nonpayable",
      "type": "function"
    },
    {
      "inputs": [],
      "name": "currentPhase",
      "outputs": [
        {
          "internalType": "uint256",
          "name": "",
          "type": "uint256"
        }
      ],
      "stateMutability": "view",
      "type": "function"
    },
    {
      "inputs": [
        {
          "internalType": "uint256",
          "name": "phaseId",
          "type": "uint256"
        }
      ],
      "name": "enablePhaseClaim",
      "outputs": [],
      "stateMutability": "nonpayable",
      "type": "function"
    },
    {
      "inputs": [],
      "name": "enableRefunds",
      "outputs": [],
      "stateMutability": "nonpayable",
      "type": "function"
    },
    {
      "inputs": [
        {
          "internalType": "address",
          "name": "",
          "type": "address"
        }
      ],
      "name": "ethContributed",
      "outputs": [
        {
          "internalType": "uint256",
          "name": "",
          "type": "uint256"
        }
      ],
      "stateMutability": "view",
      "type": "function"
    },
    {
      "inputs": [],
      "name": "finalizeSale",
      "outputs": [],
      "stateMutability": "nonpayable",
      "type": "function"
    },
    {
      "inputs": [],
      "name": "getPhaseCount",
      "outputs": [
        {
          "internalType": "uint256",
          "name": "",
          "type": "uint256"
        }
      ],
      "stateMutability": "view",
      "type": "function"
    },
    {
      "inputs": [
        {
          "internalType": "bytes32",
          "name": "role",
          "type": "bytes32"
        }
      ],
      "name": "getRoleAdmin",
      "outputs": [
        {
          "internalType": "bytes32",
          "name": "",
          "type": "bytes32"
        }
      ],
      "stateMutability": "view",
      "type": "function"
    },
    {
      "inputs": [
        {
          "internalType": "bytes32",
          "name": "role",
          "type": "bytes32"
        },
        {
          "internalType": "address",
          "name": "account",
          "type": "address"
        }
      ],
      "name": "grantRole",
      "outputs": [],
      "stateMutability": "nonpayable",
      "type": "function"
    },
    {
      "inputs": [
        {
          "internalType": "bytes32",
          "name": "role",
          "type": "bytes32"
        },
        {
          "internalType": "address",
          "name": "account",
          "type": "address"
        }
      ],
      "name": "hasRole",
      "outputs": [
        {
          "internalType": "bool",
          "name": "",
          "type": "bool"
        }
      ],
      "stateMutability": "view",
      "type": "function"
    },
    {
      "inputs": [
        {
          "internalType": "address",
          "name": "",
          "type": "address"
        }
      ],
      "name": "isWhitelisted",
      "outputs": [
        {
          "internalType": "bool",
          "name": "",
          "type": "bool"
        }
      ],
      "stateMutability": "view",
      "type": "function"
    },
    {
      "inputs": [],
      "name": "oracle",
      "outputs": [
        {
          "internalType": "contract AggregatorV3Interface",
          "name": "",
          "type": "address"
        }
      ],
      "stateMutability": "view",
      "type": "function"
    },
    {
      "inputs": [],
      "name": "pause",
      "outputs": [],
      "stateMutability": "nonpayable",
      "type": "function"
    },
    {
      "inputs": [],
      "name": "paused",
      "outputs": [
        {
          "internalType": "bool",
          "name": "",
          "type": "bool"
        }
      ],
      "stateMutability": "view",
      "type": "function"
    },
    {
      "inputs": [
        {
          "internalType": "uint256",
          "name": "",
          "type": "uint256"
        }
      ],
      "name": "phaseClaimEnabled",
      "outputs": [
        {
          "internalType": "bool",
          "name": "",
          "type": "bool"
        }
      ],
      "stateMutability": "view",
      "type": "function"
    },
    {
      "inputs": [
        {
          "internalType": "uint256",
          "name": "",
          "type": "uint256"
        },
        {
          "internalType": "address",
          "name": "",
          "type": "address"
        }
      ],
      "name": "phasePurchased",
      "outputs": [
        {
          "internalType": "uint256",
          "name": "",
          "type": "uint256"
        }
      ],
      "stateMutability": "view",
      "type": "function"
    },
    {
      "inputs": [
        {
          "internalType": "uint256",
          "name": "",
          "type": "uint256"
        }
      ],
      "name": "phases",
      "outputs": [
        {
          "internalType": "uint256",
          "name": "targetUSD",
          "type": "uint256"
        },
        {
          "internalType": "uint256",
          "name": "priceUSD",
          "type": "uint256"
        },
        {
          "internalType": "uint256",
          "name": "raisedUSD",
          "type": "uint256"
        },
        {
          "internalType": "bool",
          "name": "isComplete",
          "type": "bool"
        }
      ],
      "stateMutability": "view",
      "type": "function"
    },
    {
      "inputs": [
        {
          "internalType": "address[]",
          "name": "users",
          "type": "address[]"
        }
      ],
      "name": "removeFromWhitelist",
      "outputs": [],
      "stateMutability": "nonpayable",
      "type": "function"
    },
    {
      "inputs": [
        {
          "internalType": "bytes32",
          "name": "role",
          "type": "bytes32"
        },
        {
          "internalType": "address",
          "name": "callerConfirmation",
          "type": "address"
        }
      ],
      "name": "renounceRole",
      "outputs": [],
      "stateMutability": "nonpayable",
      "type": "function"
    },
    {
      "inputs": [
        {
          "internalType": "bytes32",
          "name": "role",
          "type": "bytes32"
        },
        {
          "internalType": "address",
          "name": "account",
          "type": "address"
        }
      ],
      "name": "revokeRole",
      "outputs": [],
      "stateMutability": "nonpayable",
      "type": "function"
    },
    {
      "inputs": [],
      "name": "saleState",
      "outputs": [
        {
          "internalType": "enum EITCrowdsale.SaleState",
          "name": "",
          "type": "uint8"
        }
      ],
      "stateMutability": "view",
      "type": "function"
    },
    {
      "inputs": [
        {
          "internalType": "address",
          "name": "",
          "type": "address"
        },
        {
          "internalType": "address",
          "name": "",
          "type": "address"
        }
      ],
      "name": "stableContributed",
      "outputs": [
        {
          "internalType": "uint256",
          "name": "",
          "type": "uint256"
        }
      ],
      "stateMutability": "view",
      "type": "function"
    },
    {
      "inputs": [
        {
          "internalType": "uint256",
          "name": "",
          "type": "uint256"
        }
      ],
      "name": "stableList",
      "outputs": [
        {
          "internalType": "address",
          "name": "",
          "type": "address"
        }
      ],
      "stateMutability": "view",
      "type": "function"
    },
    {
      "inputs": [
        {
          "internalType": "address",
          "name": "",
          "type": "address"
        }
      ],
      "name": "stablecoinDecimals",
      "outputs": [
        {
          "internalType": "uint8",
          "name": "",
          "type": "uint8"
        }
      ],
      "stateMutability": "view",
      "type": "function"
    },
    {
      "inputs": [
        {
          "internalType": "address",
          "name": "",
          "type": "address"
        }
      ],
      "name": "supportedStable",
      "outputs": [
        {
          "internalType": "bool",
          "name": "",
          "type": "bool"
        }
      ],
      "stateMutability": "view",
      "type": "function"
    },
    {
      "inputs": [
        {
          "internalType": "bytes4",
          "name": "interfaceId",
          "type": "bytes4"
        }
      ],
      "name": "supportsInterface",
      "outputs": [
        {
          "internalType": "bool",
          "name": "",
          "type": "bool"
        }
      ],
      "stateMutability": "view",
      "type": "function"
    },
    {
      "inputs": [],
      "name": "token",
      "outputs": [
        {
          "internalType": "contract IERC20",
          "name": "",
          "type": "address"
        }
      ],
      "stateMutability": "view",
      "type": "function"
    },
    {
      "inputs": [],
      "name": "totalRaisedUSD",
      "outputs": [
        {
          "internalType": "uint256",
          "name": "",
          "type": "uint256"
        }
      ],
      "stateMutability": "view",
      "type": "function"
    },
    {
      "inputs": [],
      "name": "totalReleasedUSD",
      "outputs": [
        {
          "internalType": "uint256",
          "name": "",
          "type": "uint256"
        }
      ],
      "stateMutability": "view",
      "type": "function"
    },
    {
      "inputs": [],
      "name": "totalTokensSold",
      "outputs": [
        {
          "internalType": "uint256",
          "name": "",
          "type": "uint256"
        }
      ],
      "stateMutability": "view",
      "type": "function"
    },
    {
      "inputs": [],
      "name": "treasury",
      "outputs": [
        {
          "internalType": "address",
          "name": "",
          "type": "address"
        }
      ],
      "stateMutability": "view",
      "type": "function"
    },
    {
      "inputs": [],
      "name": "unpause",
      "outputs": [],
      "stateMutability": "nonpayable",
      "type": "function"
    },
    {
      "inputs": [
        {
          "internalType": "address",
          "name": "",
          "type": "address"
        }
      ],
      "name": "userTotalUSD",
      "outputs": [
        {
          "internalType": "uint256",
          "name": "",
          "type": "uint256"
        }
      ],
      "stateMutability": "view",
      "type": "function"
    },
    {
      "inputs": [],
      "name": "withdrawUnsoldTokens",
      "outputs": [],
      "stateMutability": "nonpayable",
      "type": "function"
    },
    {
      "stateMutability": "payable",
      "type": "receive"
    }
  ],
  "bytecode": "0x60e060405234801561000f575f80fd5b50604051612cdb380380612cdb83398101604081905261002e916101c1565b60017f9b779b17422d0df92223018b32b4d1fa46e071723d6817e2486d003becc55f00556001600160a01b038416610064575f80fd5b6001600160a01b038316610076575f80fd5b6001600160a01b038216610088575f80fd5b6001600160a01b03811661009a575f80fd5b6001600160a01b0384811660805283811660a052821660c0526001805461ff00191690556100c85f826100fd565b506100f37f97667070c54ef182b0f5858b034beac1b6f3089aa2d3188bb1e8929f4fa9b929826100fd565b5050505050610212565b5f828152602081815260408083206001600160a01b038516845290915281205460ff1661019d575f838152602081815260408083206001600160a01b03861684529091529020805460ff191660011790556101553390565b6001600160a01b0316826001600160a01b0316847f2f8788117e7eff1d82e926ec794901d17c78024a50270940304540a733656f0d60405160405180910390a45060016101a0565b505f5b92915050565b80516001600160a01b03811681146101bc575f80fd5b919050565b5f805f80608085870312156101d4575f80fd5b6101dd856101a6565b93506101eb602086016101a6565b92506101f9604086016101a6565b9150610207606086016101a6565b905092959194509250565b60805160a05160c051612a676102745f395f818161064601528181611658015261243801525f81816106dc015281816119890152611b1101525f81816109dd01528181610cd50152818161158c015281816116360152611e8c0152612a675ff3fe6080604052600436106102cc575f3560e01c80637dc0d1d011610174578063b652dc2f116100db578063d5f8cf0d11610094578063e746a1d21161006e578063e746a1d214610962578063f5b541a614610981578063f96f5b35146109a1578063fc0c546a146109cc57610314565b8063d5f8cf0d14610904578063db5e006314610923578063e1c1dd6f1461093757610314565b8063b652dc2f14610830578063c6bc88be1461084e578063c6d3107f1461087c578063c8bdbfb614610891578063d21a74ff146108a5578063d547741f146108e557610314565b806391d148541161012d57806391d148541461079257806394d95f8f146107b15780639b9ecc99146107ce578063a217fddf146107ea578063a52dba3c146107fd578063b5545a3c1461081c57610314565b80637dc0d1d0146106cb5780637f649783146106fe5780638456cb591461071d578063865eb74a146107315780638b9a71cf1461075f5780638c52dc411461077e57610314565b80633af32abf11610233578063599d56e0116101ec578063603f4d52116101c6578063603f4d521461060a57806361d027b31461063557806363b20117146106805780636620cbe21461069557610314565b8063599d56e0146105c15780635c975abb146105d65780635fc2d283146105ed57610314565b80633af32abf146105115780633f4ba83a1461053f57806340650c911461055357806348eb38fb1461056f578063548db1741461058e57806358a687ec146105ad57610314565b80632f2ff15d116102855780632f2ff15d1461046357806330e9d37b1461048457806331ad36ab146104a257806332855ed2146104b557806336568abe146104d45780633a03171c146104f357610314565b806301ffc9a714610352578063055ad42e146103865780631252af75146103a9578063248a9ca3146103be57806325915ff2146103ec5780632e37eef61461042257610314565b366103145760405162461bcd60e51b815260206004820152601360248201527255736520627579576974684e6174697665282960681b60448201526064015b60405180910390fd5b60405162461bcd60e51b815260206004820152601360248201527255736520627579576974684e6174697665282960681b604482015260640161030b565b34801561035d575f80fd5b5061037161036c3660046125b0565b6109ff565b60405190151581526020015b60405180910390f35b348015610391575f80fd5b5061039b60035481565b60405190815260200161037d565b3480156103b4575f80fd5b5061039b60045481565b3480156103c9575f80fd5b5061039b6103d83660046125de565b5f9081526020819052604090206001015490565b3480156103f7575f80fd5b5061039b610406366004612610565b600c60209081525f928352604080842090915290825290205481565b34801561042d575f80fd5b5061044161043c3660046125de565b610a35565b604080519485526020850193909352918301521515606082015260800161037d565b34801561046e575f80fd5b5061048261047d366004612641565b610a70565b005b34801561048f575f80fd5b5061039b6a0422ca8b0a00a42500000081565b6104826104b03660046125de565b610a9a565b3480156104c0575f80fd5b506104826104cf3660046125de565b610ba3565b3480156104df575f80fd5b506104826104ee366004612641565b610d52565b3480156104fe575f80fd5b5061039b6a52b7d2dcc80cd2e400000081565b34801561051c575f80fd5b5061037161052b366004612662565b60076020525f908152604090205460ff1681565b34801561054a575f80fd5b50610482610d8a565b34801561055e575f80fd5b5061039b68056bc75e2d6310000081565b34801561057a575f80fd5b506104826105893660046125de565b610d9c565b348015610599575f80fd5b506104826105a836600461267b565b610e27565b3480156105b8575f80fd5b50610482610f26565b3480156105cc575f80fd5b5061039b60055481565b3480156105e1575f80fd5b5060015460ff16610371565b3480156105f8575f80fd5b5061039b69043c33c193756480000081565b348015610615575f80fd5b5060015461062890610100900460ff1681565b60405161037d91906126fe565b348015610640575f80fd5b506106687f000000000000000000000000000000000000000000000000000000000000000081565b6040516001600160a01b03909116815260200161037d565b34801561068b575f80fd5b5061039b60065481565b3480156106a0575f80fd5b5061039b6106af366004612641565b600960209081525f928352604080842090915290825290205481565b3480156106d6575f80fd5b506106687f000000000000000000000000000000000000000000000000000000000000000081565b348015610709575f80fd5b5061048261071836600461267b565b610f91565b348015610728575f80fd5b50610482611092565b34801561073c575f80fd5b5061037161074b366004612662565b600d6020525f908152604090205460ff1681565b34801561076a575f80fd5b50610482610779366004612724565b6110a4565b348015610789575f80fd5b5061048261120c565b34801561079d575f80fd5b506103716107ac366004612641565b611240565b3480156107bc575f80fd5b5061039b690a968163f0a57b40000081565b3480156107d9575f80fd5b5061039b683635c9adc5dea0000081565b3480156107f5575f80fd5b5061039b5f81565b348015610808575f80fd5b50610482610817366004612762565b611268565b348015610827575f80fd5b5061048261132c565b34801561083b575f80fd5b5061039b6a0c685fa11e01ec6f00000081565b348015610859575f80fd5b506103716108683660046125de565b600a6020525f908152604090205460ff1681565b348015610887575f80fd5b5061039b61038481565b34801561089c575f80fd5b5061048261151e565b3480156108b0575f80fd5b506108d36108bf366004612662565b600e6020525f908152604090205460ff1681565b60405160ff909116815260200161037d565b3480156108f0575f80fd5b506104826108ff366004612641565b61167d565b34801561090f575f80fd5b5061048261091e366004612797565b6116a1565b34801561092e575f80fd5b5060025461039b565b348015610942575f80fd5b5061039b610951366004612662565b60086020525f908152604090205481565b34801561096d575f80fd5b5061066861097c3660046125de565b611882565b34801561098c575f80fd5b5061039b5f805160206129f283398151915281565b3480156109ac575f80fd5b5061039b6109bb366004612662565b600b6020525f908152604090205481565b3480156109d7575f80fd5b506106687f000000000000000000000000000000000000000000000000000000000000000081565b5f6001600160e01b03198216637965db0b60e01b1480610a2f57506301ffc9a760e01b6001600160e01b03198316145b92915050565b60028181548110610a44575f80fd5b5f9182526020909120600490910201805460018201546002830154600390930154919350919060ff1684565b5f82815260208190526040902060010154610a8a816118aa565b610a9483836118b4565b50505050565b610aa2611943565b610aaa61195e565b335f9081526007602052604090205460ff16610afa5760405162461bcd60e51b815260206004820152600f60248201526e139bdd081dda1a5d195b1a5cdd1959608a1b604482015260640161030b565b5f600154610100900460ff166003811115610b1757610b176126ea565b14610b20575f80fd5b60025460035410610b2f575f80fd5b5f610b38611982565b90505f670de0b6b3a7640000610b4e83346127cb565b610b5891906127e2565b9050610b648184611be9565b335f908152600b602052604081208054349290610b82908490612801565b909155505060015f80516020612a128339815191525550610ba09050565b50565b610bab611943565b610bb361195e565b6003600154610100900460ff166003811115610bd157610bd16126ea565b03610c0c5760405162461bcd60e51b815260206004820152600b60248201526a526566756e64206d6f646560a81b604482015260640161030b565b5f818152600a602052604090205460ff16610c5a5760405162461bcd60e51b815260206004820152600e60248201526d10db185a5b48191a5cd8589b195960921b604482015260640161030b565b5f81815260096020908152604080832033845290915290205480610cb35760405162461bcd60e51b815260206004820152601060248201526f4e6f7468696e6720746f20636c61696d60801b604482015260640161030b565b5f828152600960209081526040808320338085529252822091909155610d04907f00000000000000000000000000000000000000000000000000000000000000006001600160a01b031690836120e9565b604051818152829033907f9923b4306c6c030f2bdfbf156517d5983b87e15b96176da122cd4f2effa4ba7b9060200160405180910390a350610ba060015f80516020612a1283398151915255565b6001600160a01b0381163314610d7b5760405163334bd91960e11b815260040160405180910390fd5b610d85828261211e565b505050565b5f610d94816118aa565b610ba0612187565b5f805160206129f2833981519152610db3816118aa565b60028281548110610dc657610dc6612814565b5f91825260209091206003600490920201015460ff16610de4575f80fd5b5f828152600a6020526040808220805460ff191660011790555183917fd5f2e48a1b20537d5d9999bf63ead088cc70afd46ef059d6982ce1f68ac73dca91a25050565b5f805160206129f2833981519152610e3e816118aa565b8115801590610e4f57506101f48211155b610e57575f80fd5b5f5b82811015610a94575f60075f868685818110610e7757610e77612814565b9050602002016020810190610e8c9190612662565b6001600160a01b0316815260208101919091526040015f20805460ff1916911515919091179055838382818110610ec557610ec5612814565b9050602002016020810190610eda9190612662565b6001600160a01b03167ff93f9a76c1bf3444d22400a00cb9fe990e6abe9dbb333fda48859cfee864543d5f604051610f16911515815260200190565b60405180910390a2600101610e59565b5f610f30816118aa565b6003600154610100900460ff166003811115610f4e57610f4e6126ea565b03610f57575f80fd5b6001805461ff0019166102001790556040517ff33fd39ddc653e5f9033d50b852a4e85dc19ab2e3553927ce281aa99f9718c5d905f90a150565b5f805160206129f2833981519152610fa8816118aa565b8115801590610fb957506101f48211155b610fc1575f80fd5b5f5b82811015610a9457600160075f868685818110610fe257610fe2612814565b9050602002016020810190610ff79190612662565b6001600160a01b0316815260208101919091526040015f20805460ff191691151591909117905583838281811061103057611030612814565b90506020020160208101906110459190612662565b6001600160a01b03167ff93f9a76c1bf3444d22400a00cb9fe990e6abe9dbb333fda48859cfee864543d6001604051611082911515815260200190565b60405180910390a2600101610fc3565b5f61109c816118aa565b610ba06121d9565b6110ac611943565b6110b461195e565b335f9081526007602052604090205460ff166111045760405162461bcd60e51b815260206004820152600f60248201526e139bdd081dda1a5d195b1a5cdd1959608a1b604482015260640161030b565b6001600160a01b0383165f908152600d602052604090205460ff16611127575f80fd5b5f600154610100900460ff166003811115611144576111446126ea565b1461114d575f80fd5b6002546003541061115c575f80fd5b6111716001600160a01b038416333085612214565b6001600160a01b0383165f908152600e602052604081205460ff1690611198826012612828565b6111a390600a612921565b6111ad90856127cb565b335f908152600c602090815260408083206001600160a01b038a1684529091528120805492935086929091906111e4908490612801565b909155506111f490508184611be9565b5050610d8560015f80516020612a1283398151915255565b5f611216816118aa565b6a0c685fa11e01ec6f0000006004541061122e575f80fd5b506001805461ff001916610300179055565b5f918252602082815260408084206001600160a01b0393909316845291905290205460ff1690565b5f611272816118aa565b6001600160a01b0383165f908152600d602052604090205460ff1615611296575f80fd5b60128260ff1611156112a6575f80fd5b506001600160a01b03919091165f818152600d602090815260408083208054600160ff199182168117909255600e909352908320805490921660ff909516949094179055600f8054938401815590527f8d1108e10bcb7c27dddfc02ed9d693a074039d026cf4ea4240b40f7d581ac80290910180546001600160a01b0319169091179055565b611334611943565b6003600154610100900460ff166003811115611352576113526126ea565b1461135b575f80fd5b335f908152600b6020526040902054801561140657335f818152600b60205260408082208290555190919083908381818185875af1925050503d805f81146113be576040519150601f19603f3d011682016040523d82523d5f602084013e6113c3565b606091505b50509050806114045760405162461bcd60e51b815260206004820152600d60248201526c1499599d5b990819985a5b1959609a1b604482015260640161030b565b505b600f545f5b81811015611498575f600f828154811061142757611427612814565b5f918252602080832090910154338352600c825260408084206001600160a01b0390921680855291909252912054909150801561148e57335f818152600c602090815260408083206001600160a01b038716808552925282209190915561148e91836120e9565b505060010161140b565b50335f908152600860205260408120819055600254905b818110156114d8575f8181526009602090815260408083203384529091528120556001016114af565b5060405133907fe85b62fe517bf695ce7fed961f0244f59be2c256525a5a904fb90c32f42cfd3e905f90a250505061151c60015f80516020612a1283398151915255565b565b5f611528816118aa565b6002600154610100900460ff166003811115611546576115466126ea565b148061156d57506003600154610100900460ff16600381111561156b5761156b6126ea565b145b611575575f80fd5b6040516370a0823160e01b81523060048201525f907f00000000000000000000000000000000000000000000000000000000000000006001600160a01b0316906370a0823190602401602060405180830381865afa1580156115d9573d5f803e3d5ffd5b505050506040513d601f19601f820116820180604052508101906115fd919061292f565b90505f600654821161160f575f61161c565b60065461161c9083612946565b90505f8111611629575f80fd5b610d856001600160a01b037f0000000000000000000000000000000000000000000000000000000000000000167f0000000000000000000000000000000000000000000000000000000000000000836120e9565b5f82815260208190526040902060010154611697816118aa565b610a94838361211e565b5f6116ab816118aa565b5f600154610100900460ff1660038111156116c8576116c86126ea565b146116d1575f80fd5b5f83116117175760405162461bcd60e51b8152602060048201526014602482015273125b9d985b1a59081c1a185cd9481d185c99d95d60621b604482015260640161030b565b5f821161175c5760405162461bcd60e51b8152602060048201526013602482015272496e76616c696420706861736520707269636560681b604482015260640161030b565b60408051608081018252848152602081018481525f9282018381526060830184815260028054600180820183559682905294517f405787fa12a823e0f2b7631cc41b3ba8828b3321ca811111fa75cd3aa3bb5ace60049096029586015592517f405787fa12a823e0f2b7631cc41b3ba8828b3321ca811111fa75cd3aa3bb5acf85015590517f405787fa12a823e0f2b7631cc41b3ba8828b3321ca811111fa75cd3aa3bb5ad0840155517f405787fa12a823e0f2b7631cc41b3ba8828b3321ca811111fa75cd3aa3bb5ad1909201805460ff191692151592909217909155546118459190612946565b60408051858152602081018590527e3a614d69232d07ce423df77598aa26a786bec214178a4f4c288fb03e930fba910160405180910390a2505050565b600f8181548110611891575f80fd5b5f918252602090912001546001600160a01b0316905081565b610ba0813361224a565b5f6118bf8383611240565b61193c575f838152602081815260408083206001600160a01b03861684529091529020805460ff191660011790556118f43390565b6001600160a01b0316826001600160a01b0316847f2f8788117e7eff1d82e926ec794901d17c78024a50270940304540a733656f0d60405160405180910390a4506001610a2f565b505f610a2f565b61194b612287565b60025f80516020612a1283398151915255565b60015460ff161561151c5760405163d93c066560e01b815260040160405180910390fd5b5f805f805f7f00000000000000000000000000000000000000000000000000000000000000006001600160a01b031663feaf968c6040518163ffffffff1660e01b815260040160a060405180830381865afa1580156119e3573d5f803e3d5ffd5b505050506040513d601f19601f82011682018060405250810190611a079190612972565b9450945050935093505f8313611a565760405162461bcd60e51b8152602060048201526014602482015273496e76616c6964206f7261636c6520707269636560601b604482015260640161030b565b610384611a638342612946565b1115611aa65760405162461bcd60e51b81526020600482015260126024820152714f7261636c65207072696365207374616c6560701b604482015260640161030b565b8369ffffffffffffffffffff168169ffffffffffffffffffff161015611b0e5760405162461bcd60e51b815260206004820152601760248201527f496e636f6d706c657465206f7261636c6520726f756e64000000000000000000604482015260640161030b565b5f7f00000000000000000000000000000000000000000000000000000000000000006001600160a01b031663313ce5676040518163ffffffff1660e01b8152600401602060405180830381865afa158015611b6b573d5f803e3d5ffd5b505050506040513d601f19601f82011682018060405250810190611b8f91906129be565b90505f611b9d826012612828565b611ba890600a612921565b611bb290866127cb565b9050683635c9adc5dea000008110158015611bd7575069043c33c19375648000008111155b611bdf575f80fd5b9695505050505050565b5f8211611c285760405162461bcd60e51b815260206004820152600d60248201526c5a65726f20707572636861736560981b604482015260640161030b565b68056bc75e2d63100000821015611c815760405162461bcd60e51b815260206004820152601a60248201527f42656c6f77206d696e696d756d20636f6e747269627574696f6e000000000000604482015260640161030b565b335f90815260086020526040902054690a968163f0a57b40000090611ca7908490612801565b1115611ce95760405162461bcd60e51b8152602060048201526011602482015270155cd95c8818d85c08195e18d959591959607a1b604482015260640161030b565b6a52b7d2dcc80cd2e400000082600454611d039190612801565b1115611d455760405162461bcd60e51b815260206004820152601160248201527012185c990818d85c08195e18d959591959607a1b604482015260640161030b565b5f60035490505f60028281548110611d5f57611d5f612814565b5f9182526020909120600490910201600381015490915060ff1615611db75760405162461bcd60e51b815260206004820152600e60248201526d506861736520636f6d706c65746560901b604482015260640161030b565b80546002820154611dc9908690612801565b1115611e0c5760405162461bcd60e51b8152602060048201526012602482015271141a185cd94818d85c08195e18d95959195960721b604482015260640161030b565b60018101545f90611e2586670de0b6b3a76400006127cb565b611e2f91906127e2565b905083811015611e755760405162461bcd60e51b815260206004820152601160248201527014db1a5c1c1859d948195e18d959591959607a1b604482015260640161030b565b6040516370a0823160e01b81523060048201525f907f00000000000000000000000000000000000000000000000000000000000000006001600160a01b0316906370a0823190602401602060405180830381865afa158015611ed9573d5f803e3d5ffd5b505050506040513d601f19601f82011682018060405250810190611efd919061292f565b90508160065482611f0e9190612946565b1015611f5c5760405162461bcd60e51b815260206004820152601c60248201527f496e73756666696369656e7420746f6b656e20696e76656e746f727900000000604482015260640161030b565b335f9081526008602052604081208054889290611f7a908490612801565b9250508190555085836002015f828254611f949190612801565b925050819055508560045f828254611fac9190612801565b90915550505f84815260096020908152604080832033845290915281208054849290611fd9908490612801565b925050819055508160065f828254611ff19190612801565b90915550506040805187815260208101849052859133917f0d1a0d5e3d583a0e92588799dd06e50fd78c07daf05f0cc06d7b848b1ca445f1910160405180910390a382546002840154106120d95760038301805460ff1916600117905560405184907fd4259e19938b793359dfc6c726df41a4cce156deffd8c4a4ed4a681a61670774905f90a26a0c685fa11e01ec6f000000600454101580156120af57505f600154610100900460ff1660038111156120ad576120ad6126ea565b145b156120c4576001805461ff0019166101001790555b60038054905f6120d3836129d9565b91905055505b6120e16122b6565b505050505050565b6120f68383836001612344565b610d8557604051635274afe760e01b81526001600160a01b038416600482015260240161030b565b5f6121298383611240565b1561193c575f838152602081815260408083206001600160a01b0386168085529252808320805460ff1916905551339286917ff6391f5c32d9c69d2a47ea670b442974b53935d1edc7fd64eb21e047a839171b9190a4506001610a2f565b61218f6123a6565b6001805460ff191690557f5db9ee0a495bf2e6ff9c91a7834c1ba4fdd244a5e8aa4e537bd38aeae4b073aa335b6040516001600160a01b03909116815260200160405180910390a1565b6121e161195e565b6001805460ff1916811790557f62e78cea01bee320cd4e420270b5ea74000d11b0c9f74754ebdbfc544b05a258336121bc565b6122228484848460016123c9565b610a9457604051635274afe760e01b81526001600160a01b038516600482015260240161030b565b6122548282611240565b6122835760405163e2517d3f60e01b81526001600160a01b03821660048201526024810183905260440161030b565b5050565b5f80516020612a128339815191525460020361151c57604051633ee5aeb560e01b815260040160405180910390fd5b6a0422ca8b0a00a4250000006005546122cf9190612801565b6004541061151c576a0422ca8b0a00a42500000060055f8282546122f39190612801565b909155506123019050612436565b6040516a0422ca8b0a00a42500000081527f952b264c8e0a06cddb4bbaa6d6af1d565145329fd95bbe72cb2b53942b2dc9669060200160405180910390a16122b6565b60405163a9059cbb60e01b5f8181526001600160a01b038616600452602485905291602083604481808b5af1925060015f5114831661239a57838315161561238e573d5f823e3d81fd5b5f873b113d1516831692505b60405250949350505050565b60015460ff1661151c57604051638dfc202b60e01b815260040160405180910390fd5b6040516323b872dd60e01b5f8181526001600160a01b038781166004528616602452604485905291602083606481808c5af1925060015f51148316612425578383151615612419573d5f823e3d81fd5b5f883b113d1516831692505b604052505f60605295945050505050565b7f00000000000000000000000000000000000000000000000000000000000000004780156124f5575f826001600160a01b0316826040515f6040518083038185875af1925050503d805f81146124a7576040519150601f19603f3d011682016040523d82523d5f602084013e6124ac565b606091505b50509050806124f35760405162461bcd60e51b8152602060048201526013602482015272115512081d1c985b9cd9995c8819985a5b1959606a1b604482015260640161030b565b505b600f545f5b81811015610a94575f600f828154811061251657612516612814565b5f9182526020822001546040516370a0823160e01b81523060048201526001600160a01b03909116925082906370a0823190602401602060405180830381865afa158015612566573d5f803e3d5ffd5b505050506040513d601f19601f8201168201806040525081019061258a919061292f565b905080156125a6576125a66001600160a01b03831687836120e9565b50506001016124fa565b5f602082840312156125c0575f80fd5b81356001600160e01b0319811681146125d7575f80fd5b9392505050565b5f602082840312156125ee575f80fd5b5035919050565b80356001600160a01b038116811461260b575f80fd5b919050565b5f8060408385031215612621575f80fd5b61262a836125f5565b9150612638602084016125f5565b90509250929050565b5f8060408385031215612652575f80fd5b82359150612638602084016125f5565b5f60208284031215612672575f80fd5b6125d7826125f5565b5f806020838503121561268c575f80fd5b823567ffffffffffffffff808211156126a3575f80fd5b818501915085601f8301126126b6575f80fd5b8135818111156126c4575f80fd5b8660208260051b85010111156126d8575f80fd5b60209290920196919550909350505050565b634e487b7160e01b5f52602160045260245ffd5b602081016004831061271e57634e487b7160e01b5f52602160045260245ffd5b91905290565b5f805f60608486031215612736575f80fd5b61273f846125f5565b95602085013595506040909401359392505050565b60ff81168114610ba0575f80fd5b5f8060408385031215612773575f80fd5b61277c836125f5565b9150602083013561278c81612754565b809150509250929050565b5f80604083850312156127a8575f80fd5b50508035926020909101359150565b634e487b7160e01b5f52601160045260245ffd5b8082028115828204841417610a2f57610a2f6127b7565b5f826127fc57634e487b7160e01b5f52601260045260245ffd5b500490565b80820180821115610a2f57610a2f6127b7565b634e487b7160e01b5f52603260045260245ffd5b60ff8281168282160390811115610a2f57610a2f6127b7565b600181815b8085111561287b57815f1904821115612861576128616127b7565b8085161561286e57918102915b93841c9390800290612846565b509250929050565b5f8261289157506001610a2f565b8161289d57505f610a2f565b81600181146128b357600281146128bd576128d9565b6001915050610a2f565b60ff8411156128ce576128ce6127b7565b50506001821b610a2f565b5060208310610133831016604e8410600b84101617156128fc575081810a610a2f565b6129068383612841565b805f1904821115612919576129196127b7565b029392505050565b5f6125d760ff841683612883565b5f6020828403121561293f575f80fd5b5051919050565b81810381811115610a2f57610a2f6127b7565b805169ffffffffffffffffffff8116811461260b575f80fd5b5f805f805f60a08688031215612986575f80fd5b61298f86612959565b94506020860151935060408601519250606086015191506129b260808701612959565b90509295509295909350565b5f602082840312156129ce575f80fd5b81516125d781612754565b5f600182016129ea576129ea6127b7565b506001019056fe97667070c54ef182b0f5858b034beac1b6f3089aa2d3188bb1e8929f4fa9b9299b779b17422d0df92223018b32b4d1fa46e071723d6817e2486d003becc55f00a2646970667358221220fc88eed7a775e86e72eaceac2c6e1cf37ab888f8384d55129271eebdd355660d64736f6c63430008190033",
  "linkReferences": {},
  "deployedLinkReferences": {}
}