{
  "_format": "hh-sol-artifact-1",
  "contractName": "EITCrowdsale",
  "sourceName": "contracts/EITCrowdsale.sol",
  "abi": [
    {
      "inputs": [
        {
          "internalType": "address",
          "name": "_token",
          "type": "address"
        },
        {
          "internalType": "address",
          "name": "_oracle",
          "type": "address"
        },
        {
          "internalType": "address",
          "name": "_treasury",
          "type": "address"
        },
        {
          "internalType": "address",
          "name": "admin",
          "type": "address"
        }
      ],
      "stateMutability": "nonpayable",
      "type": "constructor"
    },
    {
      "inputs": [],
      "name": "AccessControlBadConfirmation",
      "type": "error"
    },
    {
      "inputs": [
        {
          "internalType": "address",
          "name": "account",
          "type": "address"
        },
        {
          "internalType": "bytes32",
          "name": "neededRole",
          "type": "bytes32"
        }
      ],
      "name": "AccessControlUnauthorizedAccount",
      "type": "error"
    },
    {
      "inputs": [],
      "name": "EnforcedPause",
      "type": "error"
    },
    {
      "inputs": [],
      "name": "ExpectedPause",
      "type": "error"
    },
    {
      "inputs": [],
      "name": "ReentrancyGuardReentrantCall",
      "type": "error"
    },
    {
      "inputs": [
        {
          "internalType": "address",
          "name": "token",
          "type": "address"
        }
      ],
      "name": "SafeERC20FailedOperation",
      "type": "error"
    },
    {
      "anonymous": false,
      "inputs": [
        {
          "indexed": false,
          "internalType": "uint256",
          "name": "amountUSD",
          "type": "uint256"
        }
      ],
      "name": "FundsReleased",
      "type": "event"
    },
    {
      "anonymous": false,
      "inputs": [
        {
          "indexed": false,
          "internalType": "address",
          "name": "account",
          "type": "address"
        }
      ],
      "name": "Paused",
      "type": "event"
    },
    {
      "anonymous": false,
      "inputs": [
        {
          "indexed": true,
          "internalType": "uint256",
          "name": "phaseId",
          "type": "uint256"
        },
        {
          "indexed": false,
          "internalType": "uint256",
          "name": "targetUSD",
          "type": "uint256"
        },
        {
          "indexed": false,
          "internalType": "uint256",
          "name": "priceUSD",
          "type": "uint256"
        }
      ],
      "name": "PhaseAdded",
      "type": "event"
    },
    {
      "anonymous": false,
      "inputs": [
        {
          "indexed": true,
          "internalType": "uint256",
          "name": "phaseId",
          "type": "uint256"
        }
      ],
      "name": "PhaseClaimEnabled",
      "type": "event"
    },
    {
      "anonymous": false,
      "inputs": [
        {
          "indexed": true,
          "internalType": "uint256",
          "name": "phaseId",
          "type": "uint256"
        }
      ],
      "name": "PhaseCompleted",
      "type": "event"
    },
    {
      "anonymous": false,
      "inputs": [
        {
          "indexed": true,
          "internalType": "address",
          "name": "user",
          "type": "address"
        }
      ],
      "name": "RefundClaimed",
      "type": "event"
    },
    {
      "anonymous": false,
      "inputs": [
        {
          "indexed": true,
          "internalType": "bytes32",
          "name": "role",
          "type": "bytes32"
        },
        {
          "indexed": true,
          "internalType": "bytes32",
          "name": "previousAdminRole",
          "type": "bytes32"
        },
        {
          "indexed": true,
          "internalType": "bytes32",
          "name": "newAdminRole",
          "type": "bytes32"
        }
      ],
      "name": "RoleAdminChanged",
      "type": "event"
    },
    {
      "anonymous": false,
      "inputs": [
        {
          "indexed": true,
          "internalType": "bytes32",
          "name": "role",
          "type": "bytes32"
        },
        {
          "indexed": true,
          "internalType": "address",
          "name": "account",
          "type": "address"
        },
        {
          "indexed": true,
          "internalType": "address",
          "name": "sender",
          "type": "address"
        }
      ],
      "name": "RoleGranted",
      "type": "event"
    },
    {
      "anonymous": false,
      "inputs": [
        {
          "indexed": true,
          "internalType": "bytes32",
          "name": "role",
          "type": "bytes32"
        },
        {
          "indexed": true,
          "internalType": "address",
          "name": "account",
          "type": "address"
        },
        {
          "indexed": true,
          "internalType": "address",
          "name": "sender",
          "type": "address"
        }
      ],
      "name": "RoleRevoked",
      "type": "event"
    },
    {
      "anonymous": false,
      "inputs": [],
      "name": "SaleFinalized",
      "type": "event"
    },
    {
      "anonymous": false,
      "inputs": [
        {
          "indexed": true,
          "internalType": "address",
          "name": "user",
          "type": "address"
        },
        {
          "indexed": true,
          "internalType": "uint256",
          "name": "phaseId",
          "type": "uint256"
        },
        {
          "indexed": false,
          "internalType": "uint256",
          "name": "amount",
          "type": "uint256"
        }
      ],
      "name": "TokensClaimed",
      "type": "event"
    },
    {
      "anonymous": false,
      "inputs": [
        {
          "indexed": true,
          "internalType": "address",
          "name": "buyer",
          "type": "address"
        },
        {
          "indexed": true,
          "internalType": "uint256",
          "name": "phaseId",
          "type": "uint256"
        },
        {
          "indexed": false,
          "internalType": "uint256",
          "name": "usdAmount",
          "type": "uint256"
        },
        {
          "indexed": false,
          "internalType": "uint256",
          "name": "tokenAmount",
          "type": "uint256"
        }
      ],
      "name": "TokensPurchased",
      "type": "event"
    },
    {
      "anonymous": false,
      "inputs": [
        {
          "indexed": false,
          "internalType": "address",
          "name": "account",
          "type": "address"
        }
      ],
      "name": "Unpaused",
      "type": "event"
    },
    {
      "anonymous": false,
      "inputs": [
        {
          "indexed": false,
          "internalType": "bool",
          "name": "enabled",
          "type": "bool"
        }
      ],
      "name": "WhitelistStatusChanged",
      "type": "event"
    },
    {
      "anonymous": false,
      "inputs": [
        {
          "indexed": true,
          "internalType": "address",
          "name": "user",
          "type": "address"
        },
        {
          "indexed": false,
          "internalType": "bool",
          "name": "status",
          "type": "bool"
        }
      ],
      "name": "WhitelistUpdated",
      "type": "event"
    },
    {
      "stateMutability": "payable",
      "type": "fallback"
    },
    {
      "inputs": [],
      "name": "DEFAULT_ADMIN_ROLE",
      "outputs": [
        {
          "internalType": "bytes32",
          "name": "",
          "type": "bytes32"
        }
      ],
      "stateMutability": "view",
      "type": "function"
    },
    {
      "inputs": [],
      "name": "HARD_CAP",
      "outputs": [
        {
          "internalType": "uint256",
          "name": "",
          "type": "uint256"
        }
      ],
      "stateMutability": "view",
      "type": "function"
    },
    {
      "inputs": [],
      "name": "MAX_CONTRIBUTION",
      "outputs": [
        {
          "internalType": "uint256",
          "name": "",
          "type": "uint256"
        }
      ],
      "stateMutability": "view",
      "type": "function"
    },
    {
      "inputs": [],
      "name": "MAX_ETH_PRICE",
      "outputs": [
        {
          "internalType": "uint256",
          "name": "",
          "type": "uint256"
        }
      ],
      "stateMutability": "view",
      "type": "function"
    },
    {
      "inputs": [],
      "name": "MAX_ORACLE_DELAY",
      "outputs": [
        {
          "internalType": "uint256",
          "name": "",
          "type": "uint256"
        }
      ],
      "stateMutability": "view",
      "type": "function"
    },
    {
      "inputs": [],
      "name": "MILESTONE_SIZE_USD",
      "outputs": [
        {
          "internalType": "uint256",
          "name": "",
          "type": "uint256"
        }
      ],
      "stateMutability": "view",
      "type": "function"
    },
    {
      "inputs": [],
      "name": "MIN_CONTRIBUTION",
      "outputs": [
        {
          "internalType": "uint256",
          "name": "",
          "type": "uint256"
        }
      ],
      "stateMutability": "view",
      "type": "function"
    },
    {
      "inputs": [],
      "name": "MIN_ETH_PRICE",
      "outputs": [
        {
          "internalType": "uint256",
          "name": "",
          "type": "uint256"
        }
      ],
      "stateMutability": "view",
      "type": "function"
    },
    {
      "inputs": [],
      "name": "OPERATOR_ROLE",
      "outputs": [
        {
          "internalType": "bytes32",
          "name": "",
          "type": "bytes32"
        }
      ],
      "stateMutability": "view",
      "type": "function"
    },
    {
      "inputs": [],
      "name": "SOFT_CAP",
      "outputs": [
        {
          "internalType": "uint256",
          "name": "",
          "type": "uint256"
        }
      ],
      "stateMutability": "view",
      "type": "function"
    },
    {
      "inputs": [
        {
          "internalType": "uint256",
          "name": "targetUSD",
          "type": "uint256"
        },
        {
          "internalType": "uint256",
          "name": "priceUSD",
          "type": "uint256"
        }
      ],
      "name": "addPhase",
      "outputs": [],
      "stateMutability": "nonpayable",
      "type": "function"
    },
    {
      "inputs": [
        {
          "internalType": "uint256[]",
          "name": "targetsUSD",
          "type": "uint256[]"
        },
        {
          "internalType": "uint256[]",
          "name": "pricesUSD",
          "type": "uint256[]"
        }
      ],
      "name": "addPhasesBatch",
      "outputs": [],
      "stateMutability": "nonpayable",
      "type": "function"
    },
    {
      "inputs": [
        {
          "internalType": "address",
          "name": "tokenAddr",
          "type": "address"
        },
        {
          "internalType": "uint8",
          "name": "decimals",
          "type": "uint8"
        }
      ],
      "name": "addStablecoin",
      "outputs": [],
      "stateMutability": "nonpayable",
      "type": "function"
    },
    {
      "inputs": [
        {
          "internalType": "address[]",
          "name": "users",
          "type": "address[]"
        }
      ],
      "name": "addToWhitelist",
      "outputs": [],
      "stateMutability": "nonpayable",
      "type": "function"
    },
    {
      "inputs": [
        {
          "internalType": "uint256",
          "name": "minTokensOut",
          "type": "uint256"
        }
      ],
      "name": "buyWithNative",
      "outputs": [],
      "stateMutability": "payable",
      "type": "function"
    },
    {
      "inputs": [
        {
          "internalType": "address",
          "name": "stableToken",
          "type": "address"
        },
        {
          "internalType": "uint256",
          "name": "amount",
          "type": "uint256"
        },
        {
          "internalType": "uint256",
          "name": "minTokensOut",
          "type": "uint256"
        }
      ],
      "name": "buyWithStablecoin",
      "outputs": [],
      "stateMutability": "nonpayable",
      "type": "function"
    },
    {
      "inputs": [
        {
          "internalType": "uint256",
          "name": "phaseId",
          "type": "uint256"
        }
      ],
      "name": "claimPhase",
      "outputs": [],
      "stateMutability": "nonpayable",
      "type": "function"
    },
    {
      "inputs": [],
      "name": "claimRefund",
      "outputs": [],
      "stateMutability": "nonpayable",
      "type": "function"
    },
    {
      "inputs": [],
      "name": "currentPhase",
      "outputs": [
        {
          "internalType": "uint256",
          "name": "",
          "type": "uint256"
        }
      ],
      "stateMutability": "view",
      "type": "function"
    },
    {
      "inputs": [
        {
          "internalType": "uint256",
          "name": "phaseId",
          "type": "uint256"
        }
      ],
      "name": "enablePhaseClaim",
      "outputs": [],
      "stateMutability": "nonpayable",
      "type": "function"
    },
    {
      "inputs": [],
      "name": "enableRefunds",
      "outputs": [],
      "stateMutability": "nonpayable",
      "type": "function"
    },
    {
      "inputs": [
        {
          "internalType": "address",
          "name": "",
          "type": "address"
        }
      ],
      "name": "ethContributed",
      "outputs": [
        {
          "internalType": "uint256",
          "name": "",
          "type": "uint256"
        }
      ],
      "stateMutability": "view",
      "type": "function"
    },
    {
      "inputs": [],
      "name": "finalizeSale",
      "outputs": [],
      "stateMutability": "nonpayable",
      "type": "function"
    },
    {
      "inputs": [],
      "name": "getPhaseCount",
      "outputs": [
        {
          "internalType": "uint256",
          "name": "",
          "type": "uint256"
        }
      ],
      "stateMutability": "view",
      "type": "function"
    },
    {
      "inputs": [
        {
          "internalType": "bytes32",
          "name": "role",
          "type": "bytes32"
        }
      ],
      "name": "getRoleAdmin",
      "outputs": [
        {
          "internalType": "bytes32",
          "name": "",
          "type": "bytes32"
        }
      ],
      "stateMutability": "view",
      "type": "function"
    },
    {
      "inputs": [
        {
          "internalType": "bytes32",
          "name": "role",
          "type": "bytes32"
        },
        {
          "internalType": "address",
          "name": "account",
          "type": "address"
        }
      ],
      "name": "grantRole",
      "outputs": [],
      "stateMutability": "nonpayable",
      "type": "function"
    },
    {
      "inputs": [
        {
          "internalType": "bytes32",
          "name": "role",
          "type": "bytes32"
        },
        {
          "internalType": "address",
          "name": "account",
          "type": "address"
        }
      ],
      "name": "hasRole",
      "outputs": [
        {
          "internalType": "bool",
          "name": "",
          "type": "bool"
        }
      ],
      "stateMutability": "view",
      "type": "function"
    },
    {
      "inputs": [
        {
          "internalType": "address",
          "name": "",
          "type": "address"
        }
      ],
      "name": "isWhitelisted",
      "outputs": [
        {
          "internalType": "bool",
          "name": "",
          "type": "bool"
        }
      ],
      "stateMutability": "view",
      "type": "function"
    },
    {
      "inputs": [],
      "name": "oracle",
      "outputs": [
        {
          "internalType": "contract AggregatorV3Interface",
          "name": "",
          "type": "address"
        }
      ],
      "stateMutability": "view",
      "type": "function"
    },
    {
      "inputs": [],
      "name": "pause",
      "outputs": [],
      "stateMutability": "nonpayable",
      "type": "function"
    },
    {
      "inputs": [],
      "name": "paused",
      "outputs": [
        {
          "internalType": "bool",
          "name": "",
          "type": "bool"
        }
      ],
      "stateMutability": "view",
      "type": "function"
    },
    {
      "inputs": [
        {
          "internalType": "uint256",
          "name": "",
          "type": "uint256"
        }
      ],
      "name": "phaseClaimEnabled",
      "outputs": [
        {
          "internalType": "bool",
          "name": "",
          "type": "bool"
        }
      ],
      "stateMutability": "view",
      "type": "function"
    },
    {
      "inputs": [
        {
          "internalType": "uint256",
          "name": "",
          "type": "uint256"
        },
        {
          "internalType": "address",
          "name": "",
          "type": "address"
        }
      ],
      "name": "phasePurchased",
      "outputs": [
        {
          "internalType": "uint256",
          "name": "",
          "type": "uint256"
        }
      ],
      "stateMutability": "view",
      "type": "function"
    },
    {
      "inputs": [
        {
          "internalType": "uint256",
          "name": "",
          "type": "uint256"
        }
      ],
      "name": "phases",
      "outputs": [
        {
          "internalType": "uint256",
          "name": "targetUSD",
          "type": "uint256"
        },
        {
          "internalType": "uint256",
          "name": "priceUSD",
          "type": "uint256"
        },
        {
          "internalType": "uint256",
          "name": "raisedUSD",
          "type": "uint256"
        },
        {
          "internalType": "bool",
          "name": "isComplete",
          "type": "bool"
        }
      ],
      "stateMutability": "view",
      "type": "function"
    },
    {
      "inputs": [
        {
          "internalType": "address[]",
          "name": "users",
          "type": "address[]"
        }
      ],
      "name": "removeFromWhitelist",
      "outputs": [],
      "stateMutability": "nonpayable",
      "type": "function"
    },
    {
      "inputs": [
        {
          "internalType": "bytes32",
          "name": "role",
          "type": "bytes32"
        },
        {
          "internalType": "address",
          "name": "callerConfirmation",
          "type": "address"
        }
      ],
      "name": "renounceRole",
      "outputs": [],
      "stateMutability": "nonpayable",
      "type": "function"
    },
    {
      "inputs": [
        {
          "internalType": "bytes32",
          "name": "role",
          "type": "bytes32"
        },
        {
          "internalType": "address",
          "name": "account",
          "type": "address"
        }
      ],
      "name": "revokeRole",
      "outputs": [],
      "stateMutability": "nonpayable",
      "type": "function"
    },
    {
      "inputs": [],
      "name": "saleState",
      "outputs": [
        {
          "internalType": "enum EITCrowdsale.SaleState",
          "name": "",
          "type": "uint8"
        }
      ],
      "stateMutability": "view",
      "type": "function"
    },
    {
      "inputs": [
        {
          "internalType": "bool",
          "name": "enabled",
          "type": "bool"
        }
      ],
      "name": "setWhitelistEnabled",
      "outputs": [],
      "stateMutability": "nonpayable",
      "type": "function"
    },
    {
      "inputs": [
        {
          "internalType": "address",
          "name": "",
          "type": "address"
        },
        {
          "internalType": "address",
          "name": "",
          "type": "address"
        }
      ],
      "name": "stableContributed",
      "outputs": [
        {
          "internalType": "uint256",
          "name": "",
          "type": "uint256"
        }
      ],
      "stateMutability": "view",
      "type": "function"
    },
    {
      "inputs": [
        {
          "internalType": "uint256",
          "name": "",
          "type": "uint256"
        }
      ],
      "name": "stableList",
      "outputs": [
        {
          "internalType": "address",
          "name": "",
          "type": "address"
        }
      ],
      "stateMutability": "view",
      "type": "function"
    },
    {
      "inputs": [
        {
          "internalType": "address",
          "name": "",
          "type": "address"
        }
      ],
      "name": "stablecoinDecimals",
      "outputs": [
        {
          "internalType": "uint8",
          "name": "",
          "type": "uint8"
        }
      ],
      "stateMutability": "view",
      "type": "function"
    },
    {
      "inputs": [
        {
          "internalType": "address",
          "name": "",
          "type": "address"
        }
      ],
      "name": "supportedStable",
      "outputs": [
        {
          "internalType": "bool",
          "name": "",
          "type": "bool"
        }
      ],
      "stateMutability": "view",
      "type": "function"
    },
    {
      "inputs": [
        {
          "internalType": "bytes4",
          "name": "interfaceId",
          "type": "bytes4"
        }
      ],
      "name": "supportsInterface",
      "outputs": [
        {
          "internalType": "bool",
          "name": "",
          "type": "bool"
        }
      ],
      "stateMutability": "view",
      "type": "function"
    },
    {
      "inputs": [],
      "name": "token",
      "outputs": [
        {
          "internalType": "contract IERC20",
          "name": "",
          "type": "address"
        }
      ],
      "stateMutability": "view",
      "type": "function"
    },
    {
      "inputs": [],
      "name": "totalRaisedUSD",
      "outputs": [
        {
          "internalType": "uint256",
          "name": "",
          "type": "uint256"
        }
      ],
      "stateMutability": "view",
      "type": "function"
    },
    {
      "inputs": [],
      "name": "totalReleasedUSD",
      "outputs": [
        {
          "internalType": "uint256",
          "name": "",
          "type": "uint256"
        }
      ],
      "stateMutability": "view",
      "type": "function"
    },
    {
      "inputs": [],
      "name": "totalTokensSold",
      "outputs": [
        {
          "internalType": "uint256",
          "name": "",
          "type": "uint256"
        }
      ],
      "stateMutability": "view",
      "type": "function"
    },
    {
      "inputs": [],
      "name": "treasury",
      "outputs": [
        {
          "internalType": "address",
          "name": "",
          "type": "address"
        }
      ],
      "stateMutability": "view",
      "type": "function"
    },
    {
      "inputs": [],
      "name": "unpause",
      "outputs": [],
      "stateMutability": "nonpayable",
      "type": "function"
    },
    {
      "inputs": [
        {
          "internalType": "address",
          "name": "",
          "type": "address"
        }
      ],
      "name": "userTotalUSD",
      "outputs": [
        {
          "internalType": "uint256",
          "name": "",
          "type": "uint256"
        }
      ],
      "stateMutability": "view",
      "type": "function"
    },
    {
      "inputs": [],
      "name": "whitelistEnabled",
      "outputs": [
        {
          "internalType": "bool",
          "name": "",
          "type": "bool"
        }
      ],
      "stateMutability": "view",
      "type": "function"
    },
    {
      "inputs": [],
      "name": "withdrawUnsoldTokens",
      "outputs": [],
      "stateMutability": "nonpayable",
      "type": "function"
    },
    {
      "stateMutability": "payable",
      "type": "receive"
    }
  ],
  "bytecode": "0x60e06040526009805460ff1916600117905534801561001c575f80fd5b506040516131d23803806131d283398101604081905261003b916101ce565b60017f9b779b17422d0df92223018b32b4d1fa46e071723d6817e2486d003becc55f00556001600160a01b038416610071575f80fd5b6001600160a01b038316610083575f80fd5b6001600160a01b038216610095575f80fd5b6001600160a01b0381166100a7575f80fd5b6001600160a01b0384811660805283811660a052821660c0526001805461ff00191690556100d55f8261010a565b506101007f97667070c54ef182b0f5858b034beac1b6f3089aa2d3188bb1e8929f4fa9b9298261010a565b505050505061021f565b5f828152602081815260408083206001600160a01b038516845290915281205460ff166101aa575f838152602081815260408083206001600160a01b03861684529091529020805460ff191660011790556101623390565b6001600160a01b0316826001600160a01b0316847f2f8788117e7eff1d82e926ec794901d17c78024a50270940304540a733656f0d60405160405180910390a45060016101ad565b505f5b92915050565b80516001600160a01b03811681146101c9575f80fd5b919050565b5f805f80608085870312156101e1575f80fd5b6101ea856101b3565b93506101f8602086016101b3565b9250610206604086016101b3565b9150610214606086016101b3565b905092959194509250565b60805160a05160c051612f516102815f395f81816106ed01528181611aaf015261288401525f818161078301528181611de00152611f6801525f8181610a8401528181610de6015281816119e301528181611a8d01526122e30152612f515ff3fe60806040526004361061031d575f3560e01c806363b20117116101aa578063b5545a3c116100f6578063d5f8cf0d11610094578063e746a1d21161006e578063e746a1d214610a09578063f5b541a614610a28578063f96f5b3514610a48578063fc0c546a14610a7357610365565b8063d5f8cf0d146109ab578063db5e0063146109ca578063e1c1dd6f146109de57610365565b8063c6d3107f116100d0578063c6d3107f14610923578063c8bdbfb614610938578063d21a74ff1461094c578063d547741f1461098c57610365565b8063b5545a3c146108c3578063b652dc2f146108d7578063c6bc88be146108f557610365565b80638b9a71cf1161016357806394d95f8f1161013d57806394d95f8f146108585780639b9ecc9914610875578063a217fddf14610891578063a52dba3c146108a457610365565b80638b9a71cf146108065780638c52dc411461082557806391d148541461083957610365565b806363b20117146107275780636620cbe21461073c5780637dc0d1d0146107725780637f649783146107a55780638456cb59146107c4578063865eb74a146107d857610365565b80633af32abf1161026957806358a687ec116102225780635c975abb116101fc5780635c975abb1461067d5780635fc2d28314610694578063603f4d52146106b157806361d027b3146106dc57610365565b806358a687ec14610635578063599d56e0146106495780635c79e7171461065e57610365565b80633af32abf146105805780633f4ba83a146105ae57806340650c91146105c257806348eb38fb146105de57806351fb012d146105fd578063548db1741461061657610365565b80632e37eef6116102d657806331ad36ab116102b057806331ad36ab1461051157806332855ed21461052457806336568abe146105435780633a03171c1461056257610365565b80632e37eef6146104945780632f2ff15d146104d557806330e9d37b146104f457610365565b806301ffc9a7146103a3578063052d9e7e146103d7578063055ad42e146103f85780631252af751461041b578063248a9ca31461043057806325915ff21461045e57610365565b366103655760405162461bcd60e51b815260206004820152601360248201527255736520627579576974684e6174697665282960681b60448201526064015b60405180910390fd5b60405162461bcd60e51b815260206004820152601360248201527255736520627579576974684e6174697665282960681b604482015260640161035c565b3480156103ae575f80fd5b506103c26103bd3660046129fc565b610aa6565b60405190151581526020015b60405180910390f35b3480156103e2575f80fd5b506103f66103f1366004612a2a565b610adc565b005b348015610403575f80fd5b5061040d60035481565b6040519081526020016103ce565b348015610426575f80fd5b5061040d60045481565b34801561043b575f80fd5b5061040d61044a366004612a49565b5f9081526020819052604090206001015490565b348015610469575f80fd5b5061040d610478366004612a7b565b600d60209081525f928352604080842090915290825290205481565b34801561049f575f80fd5b506104b36104ae366004612a49565b610b3b565b60408051948552602085019390935291830152151560608201526080016103ce565b3480156104e0575f80fd5b506103f66104ef366004612aac565b610b76565b3480156104ff575f80fd5b5061040d69d3c21bcecceda100000081565b6103f661051f366004612a49565b610ba0565b34801561052f575f80fd5b506103f661053e366004612a49565b610cb4565b34801561054e575f80fd5b506103f661055d366004612aac565b610e63565b34801561056d575f80fd5b5061040d6a52b7d2dcc80cd2e400000081565b34801561058b575f80fd5b506103c261059a366004612acd565b60076020525f908152604090205460ff1681565b3480156105b9575f80fd5b506103f6610e9b565b3480156105cd575f80fd5b5061040d68056bc75e2d6310000081565b3480156105e9575f80fd5b506103f66105f8366004612a49565b610ead565b348015610608575f80fd5b506009546103c29060ff1681565b348015610621575f80fd5b506103f6610630366004612b2e565b610f38565b348015610640575f80fd5b506103f6611037565b348015610654575f80fd5b5061040d60055481565b348015610669575f80fd5b506103f6610678366004612b6d565b6110a2565b348015610688575f80fd5b5060015460ff166103c2565b34801561069f575f80fd5b5061040d69043c33c193756480000081565b3480156106bc575f80fd5b506001546106cf90610100900460ff1681565b6040516103ce9190612be8565b3480156106e7575f80fd5b5061070f7f000000000000000000000000000000000000000000000000000000000000000081565b6040516001600160a01b0390911681526020016103ce565b348015610732575f80fd5b5061040d60065481565b348015610747575f80fd5b5061040d610756366004612aac565b600a60209081525f928352604080842090915290825290205481565b34801561077d575f80fd5b5061070f7f000000000000000000000000000000000000000000000000000000000000000081565b3480156107b0575f80fd5b506103f66107bf366004612b2e565b61137f565b3480156107cf575f80fd5b506103f6611480565b3480156107e3575f80fd5b506103c26107f2366004612acd565b600e6020525f908152604090205460ff1681565b348015610811575f80fd5b506103f6610820366004612c0e565b611492565b348015610830575f80fd5b506103f6611605565b348015610844575f80fd5b506103c2610853366004612aac565b611697565b348015610863575f80fd5b5061040d690a968163f0a57b40000081565b348015610880575f80fd5b5061040d683635c9adc5dea0000081565b34801561089c575f80fd5b5061040d5f81565b3480156108af575f80fd5b506103f66108be366004612c4c565b6116bf565b3480156108ce575f80fd5b506103f6611783565b3480156108e2575f80fd5b5061040d6a0c685fa11e01ec6f00000081565b348015610900575f80fd5b506103c261090f366004612a49565b600b6020525f908152604090205460ff1681565b34801561092e575f80fd5b5061040d61038481565b348015610943575f80fd5b506103f6611975565b348015610957575f80fd5b5061097a610966366004612acd565b600f6020525f908152604090205460ff1681565b60405160ff90911681526020016103ce565b348015610997575f80fd5b506103f66109a6366004612aac565b611ad4565b3480156109b6575f80fd5b506103f66109c5366004612c81565b611af8565b3480156109d5575f80fd5b5060025461040d565b3480156109e9575f80fd5b5061040d6109f8366004612acd565b60086020525f908152604090205481565b348015610a14575f80fd5b5061070f610a23366004612a49565b611cd9565b348015610a33575f80fd5b5061040d5f80516020612edc83398151915281565b348015610a53575f80fd5b5061040d610a62366004612acd565b600c6020525f908152604090205481565b348015610a7e575f80fd5b5061070f7f000000000000000000000000000000000000000000000000000000000000000081565b5f6001600160e01b03198216637965db0b60e01b1480610ad657506301ffc9a760e01b6001600160e01b03198316145b92915050565b5f80516020612edc833981519152610af381611d01565b6009805460ff19168315159081179091556040519081527f1cf28b997975c7be355bcef74f2f5019aa48253bc1e54b3c8b002471865fdba89060200160405180910390a15050565b60028181548110610b4a575f80fd5b5f9182526020909120600490910201805460018201546002830154600390930154919350919060ff1684565b5f82815260208190526040902060010154610b9081611d01565b610b9a8383611d0b565b50505050565b610ba8611d9a565b610bb0611db5565b60095460ff1615610c0b57335f9081526007602052604090205460ff16610c0b5760405162461bcd60e51b815260206004820152600f60248201526e139bdd081dda1a5d195b1a5cdd1959608a1b604482015260640161035c565b5f600154610100900460ff166003811115610c2857610c28612bd4565b14610c31575f80fd5b60025460035410610c40575f80fd5b5f610c49611dd9565b90505f670de0b6b3a7640000610c5f8334612cb5565b610c699190612ccc565b9050610c758184612040565b335f908152600c602052604081208054349290610c93908490612ceb565b909155505060015f80516020612efc8339815191525550610cb19050565b50565b610cbc611d9a565b610cc4611db5565b6003600154610100900460ff166003811115610ce257610ce2612bd4565b03610d1d5760405162461bcd60e51b815260206004820152600b60248201526a526566756e64206d6f646560a81b604482015260640161035c565b5f818152600b602052604090205460ff16610d6b5760405162461bcd60e51b815260206004820152600e60248201526d10db185a5b48191a5cd8589b195960921b604482015260640161035c565b5f818152600a6020908152604080832033845290915290205480610dc45760405162461bcd60e51b815260206004820152601060248201526f4e6f7468696e6720746f20636c61696d60801b604482015260640161035c565b5f828152600a60209081526040808320338085529252822091909155610e15907f00000000000000000000000000000000000000000000000000000000000000006001600160a01b03169083612538565b604051818152829033907f9923b4306c6c030f2bdfbf156517d5983b87e15b96176da122cd4f2effa4ba7b9060200160405180910390a350610cb160015f80516020612efc83398151915255565b6001600160a01b0381163314610e8c5760405163334bd91960e11b815260040160405180910390fd5b610e96828261256d565b505050565b5f610ea581611d01565b610cb16125d6565b5f80516020612edc833981519152610ec481611d01565b60028281548110610ed757610ed7612cfe565b5f91825260209091206003600490920201015460ff16610ef5575f80fd5b5f828152600b6020526040808220805460ff191660011790555183917fd5f2e48a1b20537d5d9999bf63ead088cc70afd46ef059d6982ce1f68ac73dca91a25050565b5f80516020612edc833981519152610f4f81611d01565b8115801590610f6057506101f48211155b610f68575f80fd5b5f5b82811015610b9a575f60075f868685818110610f8857610f88612cfe565b9050602002016020810190610f9d9190612acd565b6001600160a01b0316815260208101919091526040015f20805460ff1916911515919091179055838382818110610fd657610fd6612cfe565b9050602002016020810190610feb9190612acd565b6001600160a01b03167ff93f9a76c1bf3444d22400a00cb9fe990e6abe9dbb333fda48859cfee864543d5f604051611027911515815260200190565b60405180910390a2600101610f6a565b5f61104181611d01565b6003600154610100900460ff16600381111561105f5761105f612bd4565b03611068575f80fd5b6001805461ff0019166102001790556040517ff33fd39ddc653e5f9033d50b852a4e85dc19ab2e3553927ce281aa99f9718c5d905f90a150565b5f6110ac81611d01565b5f600154610100900460ff1660038111156110c9576110c9612bd4565b146111085760405162461bcd60e51b815260206004820152600f60248201526e53616c65206e6f742061637469766560881b604482015260640161035c565b83821461114f5760405162461bcd60e51b8152602060048201526015602482015274082e4e4c2f240d8cadccee8d040dad2e6dac2e8c6d605b1b604482015260640161035c565b8361118b5760405162461bcd60e51b815260206004820152600c60248201526b456d7074792061727261797360a01b604482015260640161035c565b5f5b84811015611377575f8686838181106111a8576111a8612cfe565b90506020020135116111f35760405162461bcd60e51b8152602060048201526014602482015273125b9d985b1a59081c1a185cd9481d185c99d95d60621b604482015260640161035c565b5f84848381811061120657611206612cfe565b90506020020135116112505760405162461bcd60e51b8152602060048201526013602482015272496e76616c696420706861736520707269636560681b604482015260640161035c565b6002604051806080016040528088888581811061126f5761126f612cfe565b90506020020135815260200186868581811061128d5761128d612cfe565b602090810292909201358352505f82820181905260409283018190528454600180820187559582529082902084516004909202019081559083015181850155908201516002808301919091556060909201516003909101805460ff1916911515919091179055546112fe9190612d12565b7e3a614d69232d07ce423df77598aa26a786bec214178a4f4c288fb03e930fba87878481811061133057611330612cfe565b9050602002013586868581811061134957611349612cfe565b90506020020135604051611367929190918252602082015260400190565b60405180910390a260010161118d565b505050505050565b5f80516020612edc83398151915261139681611d01565b81158015906113a757506101f48211155b6113af575f80fd5b5f5b82811015610b9a57600160075f8686858181106113d0576113d0612cfe565b90506020020160208101906113e59190612acd565b6001600160a01b0316815260208101919091526040015f20805460ff191691151591909117905583838281811061141e5761141e612cfe565b90506020020160208101906114339190612acd565b6001600160a01b03167ff93f9a76c1bf3444d22400a00cb9fe990e6abe9dbb333fda48859cfee864543d6001604051611470911515815260200190565b60405180910390a26001016113b1565b5f61148a81611d01565b610cb1612628565b61149a611d9a565b6114a2611db5565b60095460ff16156114fd57335f9081526007602052604090205460ff166114fd5760405162461bcd60e51b815260206004820152600f60248201526e139bdd081dda1a5d195b1a5cdd1959608a1b604482015260640161035c565b6001600160a01b0383165f908152600e602052604090205460ff16611520575f80fd5b5f600154610100900460ff16600381111561153d5761153d612bd4565b14611546575f80fd5b60025460035410611555575f80fd5b61156a6001600160a01b038416333085612663565b6001600160a01b0383165f908152600f602052604081205460ff1690611591826012612d25565b61159c90600a612e1e565b6115a69085612cb5565b335f908152600d602090815260408083206001600160a01b038a1684529091528120805492935086929091906115dd908490612ceb565b909155506115ed90508184612040565b5050610e9660015f80516020612efc83398151915255565b5f61160f81611d01565b5f600154610100900460ff16600381111561162c5761162c612bd4565b0361166d5760405162461bcd60e51b815260206004820152601160248201527053616c65207374696c6c2061637469766560781b604482015260640161035c565b6a0c685fa11e01ec6f00000060045410611685575f80fd5b506001805461ff001916610300179055565b5f918252602082815260408084206001600160a01b0393909316845291905290205460ff1690565b5f6116c981611d01565b6001600160a01b0383165f908152600e602052604090205460ff16156116ed575f80fd5b60128260ff1611156116fd575f80fd5b506001600160a01b03919091165f818152600e602090815260408083208054600160ff199182168117909255600f909352908320805490921660ff90951694909417905560108054938401815590527f1b6847dc741a1b0cd08d278845f9d819d87b734759afb55fe2de5cb82a9ae67290910180546001600160a01b0319169091179055565b61178b611d9a565b6003600154610100900460ff1660038111156117a9576117a9612bd4565b146117b2575f80fd5b335f908152600c6020526040902054801561185d57335f818152600c60205260408082208290555190919083908381818185875af1925050503d805f8114611815576040519150601f19603f3d011682016040523d82523d5f602084013e61181a565b606091505b505090508061185b5760405162461bcd60e51b815260206004820152600d60248201526c1499599d5b990819985a5b1959609a1b604482015260640161035c565b505b6010545f5b818110156118ef575f6010828154811061187e5761187e612cfe565b5f918252602080832090910154338352600d825260408084206001600160a01b039092168085529190925291205490915080156118e557335f818152600d602090815260408083206001600160a01b03871680855292528220919091556118e59183612538565b5050600101611862565b50335f908152600860205260408120819055600254905b8181101561192f575f818152600a60209081526040808320338452909152812055600101611906565b5060405133907fe85b62fe517bf695ce7fed961f0244f59be2c256525a5a904fb90c32f42cfd3e905f90a250505061197360015f80516020612efc83398151915255565b565b5f61197f81611d01565b6002600154610100900460ff16600381111561199d5761199d612bd4565b14806119c457506003600154610100900460ff1660038111156119c2576119c2612bd4565b145b6119cc575f80fd5b6040516370a0823160e01b81523060048201525f907f00000000000000000000000000000000000000000000000000000000000000006001600160a01b0316906370a0823190602401602060405180830381865afa158015611a30573d5f803e3d5ffd5b505050506040513d601f19601f82011682018060405250810190611a549190612e2c565b90505f6006548211611a66575f611a73565b600654611a739083612d12565b90505f8111611a80575f80fd5b610e966001600160a01b037f0000000000000000000000000000000000000000000000000000000000000000167f000000000000000000000000000000000000000000000000000000000000000083612538565b5f82815260208190526040902060010154611aee81611d01565b610b9a838361256d565b5f611b0281611d01565b5f600154610100900460ff166003811115611b1f57611b1f612bd4565b14611b28575f80fd5b5f8311611b6e5760405162461bcd60e51b8152602060048201526014602482015273125b9d985b1a59081c1a185cd9481d185c99d95d60621b604482015260640161035c565b5f8211611bb35760405162461bcd60e51b8152602060048201526013602482015272496e76616c696420706861736520707269636560681b604482015260640161035c565b60408051608081018252848152602081018481525f9282018381526060830184815260028054600180820183559682905294517f405787fa12a823e0f2b7631cc41b3ba8828b3321ca811111fa75cd3aa3bb5ace60049096029586015592517f405787fa12a823e0f2b7631cc41b3ba8828b3321ca811111fa75cd3aa3bb5acf85015590517f405787fa12a823e0f2b7631cc41b3ba8828b3321ca811111fa75cd3aa3bb5ad0840155517f405787fa12a823e0f2b7631cc41b3ba8828b3321ca811111fa75cd3aa3bb5ad1909201805460ff19169215159290921790915554611c9c9190612d12565b60408051858152602081018590527e3a614d69232d07ce423df77598aa26a786bec214178a4f4c288fb03e930fba910160405180910390a2505050565b60108181548110611ce8575f80fd5b5f918252602090912001546001600160a01b0316905081565b610cb18133612699565b5f611d168383611697565b611d93575f838152602081815260408083206001600160a01b03861684529091529020805460ff19166001179055611d4b3390565b6001600160a01b0316826001600160a01b0316847f2f8788117e7eff1d82e926ec794901d17c78024a50270940304540a733656f0d60405160405180910390a4506001610ad6565b505f610ad6565b611da26126d6565b60025f80516020612efc83398151915255565b60015460ff16156119735760405163d93c066560e01b815260040160405180910390fd5b5f805f805f7f00000000000000000000000000000000000000000000000000000000000000006001600160a01b031663feaf968c6040518163ffffffff1660e01b815260040160a060405180830381865afa158015611e3a573d5f803e3d5ffd5b505050506040513d601f19601f82011682018060405250810190611e5e9190612e5c565b9450945050935093505f8313611ead5760405162461bcd60e51b8152602060048201526014602482015273496e76616c6964206f7261636c6520707269636560601b604482015260640161035c565b610384611eba8342612d12565b1115611efd5760405162461bcd60e51b81526020600482015260126024820152714f7261636c65207072696365207374616c6560701b604482015260640161035c565b8369ffffffffffffffffffff168169ffffffffffffffffffff161015611f655760405162461bcd60e51b815260206004820152601760248201527f496e636f6d706c657465206f7261636c6520726f756e64000000000000000000604482015260640161035c565b5f7f00000000000000000000000000000000000000000000000000000000000000006001600160a01b031663313ce5676040518163ffffffff1660e01b8152600401602060405180830381865afa158015611fc2573d5f803e3d5ffd5b505050506040513d601f19601f82011682018060405250810190611fe69190612ea8565b90505f611ff4826012612d25565b611fff90600a612e1e565b6120099086612cb5565b9050683635c9adc5dea00000811015801561202e575069043c33c19375648000008111155b612036575f80fd5b9695505050505050565b5f821161207f5760405162461bcd60e51b815260206004820152600d60248201526c5a65726f20707572636861736560981b604482015260640161035c565b68056bc75e2d631000008210156120d85760405162461bcd60e51b815260206004820152601a60248201527f42656c6f77206d696e696d756d20636f6e747269627574696f6e000000000000604482015260640161035c565b335f90815260086020526040902054690a968163f0a57b400000906120fe908490612ceb565b11156121405760405162461bcd60e51b8152602060048201526011602482015270155cd95c8818d85c08195e18d959591959607a1b604482015260640161035c565b6a52b7d2dcc80cd2e40000008260045461215a9190612ceb565b111561219c5760405162461bcd60e51b815260206004820152601160248201527012185c990818d85c08195e18d959591959607a1b604482015260640161035c565b5f60035490505f600282815481106121b6576121b6612cfe565b5f9182526020909120600490910201600381015490915060ff161561220e5760405162461bcd60e51b815260206004820152600e60248201526d506861736520636f6d706c65746560901b604482015260640161035c565b80546002820154612220908690612ceb565b11156122635760405162461bcd60e51b8152602060048201526012602482015271141a185cd94818d85c08195e18d95959195960721b604482015260640161035c565b60018101545f9061227c86670de0b6b3a7640000612cb5565b6122869190612ccc565b9050838110156122cc5760405162461bcd60e51b815260206004820152601160248201527014db1a5c1c1859d948195e18d959591959607a1b604482015260640161035c565b6040516370a0823160e01b81523060048201525f907f00000000000000000000000000000000000000000000000000000000000000006001600160a01b0316906370a0823190602401602060405180830381865afa158015612330573d5f803e3d5ffd5b505050506040513d601f19601f820116820180604052508101906123549190612e2c565b905081600654826123659190612d12565b10156123b35760405162461bcd60e51b815260206004820152601c60248201527f496e73756666696369656e7420746f6b656e20696e76656e746f727900000000604482015260640161035c565b335f90815260086020526040812080548892906123d1908490612ceb565b9250508190555085836002015f8282546123eb9190612ceb565b925050819055508560045f8282546124039190612ceb565b90915550505f848152600a6020908152604080832033845290915281208054849290612430908490612ceb565b925050819055508160065f8282546124489190612ceb565b90915550506040805187815260208101849052859133917f0d1a0d5e3d583a0e92588799dd06e50fd78c07daf05f0cc06d7b848b1ca445f1910160405180910390a382546002840154106125305760038301805460ff1916600117905560405184907fd4259e19938b793359dfc6c726df41a4cce156deffd8c4a4ed4a681a61670774905f90a26a0c685fa11e01ec6f0000006004541015801561250657505f600154610100900460ff16600381111561250457612504612bd4565b145b1561251b576001805461ff0019166101001790555b60038054905f61252a83612ec3565b91905055505b611377612705565b6125458383836001612790565b610e9657604051635274afe760e01b81526001600160a01b038416600482015260240161035c565b5f6125788383611697565b15611d93575f838152602081815260408083206001600160a01b0386168085529252808320805460ff1916905551339286917ff6391f5c32d9c69d2a47ea670b442974b53935d1edc7fd64eb21e047a839171b9190a4506001610ad6565b6125de6127f2565b6001805460ff191690557f5db9ee0a495bf2e6ff9c91a7834c1ba4fdd244a5e8aa4e537bd38aeae4b073aa335b6040516001600160a01b03909116815260200160405180910390a1565b612630611db5565b6001805460ff1916811790557f62e78cea01bee320cd4e420270b5ea74000d11b0c9f74754ebdbfc544b05a2583361260b565b612671848484846001612815565b610b9a57604051635274afe760e01b81526001600160a01b038516600482015260240161035c565b6126a38282611697565b6126d25760405163e2517d3f60e01b81526001600160a01b03821660048201526024810183905260440161035c565b5050565b5f80516020612efc8339815191525460020361197357604051633ee5aeb560e01b815260040160405180910390fd5b69d3c21bcecceda100000060055461271d9190612ceb565b600454106119735769d3c21bcecceda100000060055f8282546127409190612ceb565b9091555061274e9050612882565b60405169d3c21bcecceda100000081527f952b264c8e0a06cddb4bbaa6d6af1d565145329fd95bbe72cb2b53942b2dc9669060200160405180910390a1612705565b60405163a9059cbb60e01b5f8181526001600160a01b038616600452602485905291602083604481808b5af1925060015f511483166127e65783831516156127da573d5f823e3d81fd5b5f873b113d1516831692505b60405250949350505050565b60015460ff1661197357604051638dfc202b60e01b815260040160405180910390fd5b6040516323b872dd60e01b5f8181526001600160a01b038781166004528616602452604485905291602083606481808c5af1925060015f51148316612871578383151615612865573d5f823e3d81fd5b5f883b113d1516831692505b604052505f60605295945050505050565b7f0000000000000000000000000000000000000000000000000000000000000000478015612941575f826001600160a01b0316826040515f6040518083038185875af1925050503d805f81146128f3576040519150601f19603f3d011682016040523d82523d5f602084013e6128f8565b606091505b505090508061293f5760405162461bcd60e51b8152602060048201526013602482015272115512081d1c985b9cd9995c8819985a5b1959606a1b604482015260640161035c565b505b6010545f5b81811015610b9a575f6010828154811061296257612962612cfe565b5f9182526020822001546040516370a0823160e01b81523060048201526001600160a01b03909116925082906370a0823190602401602060405180830381865afa1580156129b2573d5f803e3d5ffd5b505050506040513d601f19601f820116820180604052508101906129d69190612e2c565b905080156129f2576129f26001600160a01b0383168783612538565b5050600101612946565b5f60208284031215612a0c575f80fd5b81356001600160e01b031981168114612a23575f80fd5b9392505050565b5f60208284031215612a3a575f80fd5b81358015158114612a23575f80fd5b5f60208284031215612a59575f80fd5b5035919050565b80356001600160a01b0381168114612a76575f80fd5b919050565b5f8060408385031215612a8c575f80fd5b612a9583612a60565b9150612aa360208401612a60565b90509250929050565b5f8060408385031215612abd575f80fd5b82359150612aa360208401612a60565b5f60208284031215612add575f80fd5b612a2382612a60565b5f8083601f840112612af6575f80fd5b50813567ffffffffffffffff811115612b0d575f80fd5b6020830191508360208260051b8501011115612b27575f80fd5b9250929050565b5f8060208385031215612b3f575f80fd5b823567ffffffffffffffff811115612b55575f80fd5b612b6185828601612ae6565b90969095509350505050565b5f805f8060408587031215612b80575f80fd5b843567ffffffffffffffff80821115612b97575f80fd5b612ba388838901612ae6565b90965094506020870135915080821115612bbb575f80fd5b50612bc887828801612ae6565b95989497509550505050565b634e487b7160e01b5f52602160045260245ffd5b6020810160048310612c0857634e487b7160e01b5f52602160045260245ffd5b91905290565b5f805f60608486031215612c20575f80fd5b612c2984612a60565b95602085013595506040909401359392505050565b60ff81168114610cb1575f80fd5b5f8060408385031215612c5d575f80fd5b612c6683612a60565b91506020830135612c7681612c3e565b809150509250929050565b5f8060408385031215612c92575f80fd5b50508035926020909101359150565b634e487b7160e01b5f52601160045260245ffd5b8082028115828204841417610ad657610ad6612ca1565b5f82612ce657634e487b7160e01b5f52601260045260245ffd5b500490565b80820180821115610ad657610ad6612ca1565b634e487b7160e01b5f52603260045260245ffd5b81810381811115610ad657610ad6612ca1565b60ff8281168282160390811115610ad657610ad6612ca1565b600181815b80851115612d7857815f1904821115612d5e57612d5e612ca1565b80851615612d6b57918102915b93841c9390800290612d43565b509250929050565b5f82612d8e57506001610ad6565b81612d9a57505f610ad6565b8160018114612db05760028114612dba57612dd6565b6001915050610ad6565b60ff841115612dcb57612dcb612ca1565b50506001821b610ad6565b5060208310610133831016604e8410600b8410161715612df9575081810a610ad6565b612e038383612d3e565b805f1904821115612e1657612e16612ca1565b029392505050565b5f612a2360ff841683612d80565b5f60208284031215612e3c575f80fd5b5051919050565b805169ffffffffffffffffffff81168114612a76575f80fd5b5f805f805f60a08688031215612e70575f80fd5b612e7986612e43565b9450602086015193506040860151925060608601519150612e9c60808701612e43565b90509295509295909350565b5f60208284031215612eb8575f80fd5b8151612a2381612c3e565b5f60018201612ed457612ed4612ca1565b506001019056fe97667070c54ef182b0f5858b034beac1b6f3089aa2d3188bb1e8929f4fa9b9299b779b17422d0df92223018b32b4d1fa46e071723d6817e2486d003becc55f00a2646970667358221220c7965b42ba181b284e91d8d72176fc733ea0671f36441524c01793810701439764736f6c63430008190033",
  "linkReferences": {},
  "deployedLinkReferences": {}
}