{
  "_format": "hh-sol-artifact-1",
  "contractName": "EITDistributor",
  "sourceName": "contracts/EITDistributor.sol",
  "abi": [
    {
      "inputs": [],
      "stateMutability": "nonpayable",
      "type": "constructor"
    },
    {
      "inputs": [
        {
          "internalType": "address",
          "name": "owner",
          "type": "address"
        }
      ],
      "name": "OwnableInvalidOwner",
      "type": "error"
    },
    {
      "inputs": [
        {
          "internalType": "address",
          "name": "account",
          "type": "address"
        }
      ],
      "name": "OwnableUnauthorizedAccount",
      "type": "error"
    },
    {
      "inputs": [],
      "name": "ReentrancyGuardReentrantCall",
      "type": "error"
    },
    {
      "inputs": [
        {
          "internalType": "address",
          "name": "token",
          "type": "address"
        }
      ],
      "name": "SafeERC20FailedOperation",
      "type": "error"
    },
    {
      "anonymous": false,
      "inputs": [
        {
          "indexed": true,
          "internalType": "address",
          "name": "token",
          "type": "address"
        },
        {
          "indexed": false,
          "internalType": "uint256",
          "name": "amount",
          "type": "uint256"
        }
      ],
      "name": "EmergencyWithdrawal",
      "type": "event"
    },
    {
      "anonymous": false,
      "inputs": [
        {
          "indexed": true,
          "internalType": "address",
          "name": "previousOwner",
          "type": "address"
        },
        {
          "indexed": true,
          "internalType": "address",
          "name": "newOwner",
          "type": "address"
        }
      ],
      "name": "OwnershipTransferred",
      "type": "event"
    },
    {
      "anonymous": false,
      "inputs": [
        {
          "indexed": true,
          "internalType": "address",
          "name": "token",
          "type": "address"
        },
        {
          "indexed": false,
          "internalType": "uint256",
          "name": "totalAmount",
          "type": "uint256"
        },
        {
          "indexed": false,
          "internalType": "uint256",
          "name": "recipientCount",
          "type": "uint256"
        }
      ],
      "name": "RewardsDistributed",
      "type": "event"
    },
    {
      "inputs": [],
      "name": "MAX_BATCH_SIZE",
      "outputs": [
        {
          "internalType": "uint256",
          "name": "",
          "type": "uint256"
        }
      ],
      "stateMutability": "view",
      "type": "function"
    },
    {
      "inputs": [
        {
          "internalType": "address",
          "name": "tokenAddress",
          "type": "address"
        },
        {
          "internalType": "address[]",
          "name": "recipients",
          "type": "address[]"
        },
        {
          "internalType": "uint256[]",
          "name": "amounts",
          "type": "uint256[]"
        }
      ],
      "name": "distribute",
      "outputs": [],
      "stateMutability": "nonpayable",
      "type": "function"
    },
    {
      "inputs": [],
      "name": "owner",
      "outputs": [
        {
          "internalType": "address",
          "name": "",
          "type": "address"
        }
      ],
      "stateMutability": "view",
      "type": "function"
    },
    {
      "inputs": [],
      "name": "renounceOwnership",
      "outputs": [],
      "stateMutability": "nonpayable",
      "type": "function"
    },
    {
      "inputs": [
        {
          "internalType": "address",
          "name": "newOwner",
          "type": "address"
        }
      ],
      "name": "transferOwnership",
      "outputs": [],
      "stateMutability": "nonpayable",
      "type": "function"
    },
    {
      "inputs": [
        {
          "internalType": "address",
          "name": "tokenAddress",
          "type": "address"
        }
      ],
      "name": "withdrawEmergency",
      "outputs": [],
      "stateMutability": "nonpayable",
      "type": "function"
    }
  ],
  "bytecode": "0x6080604052348015600e575f80fd5b503380603357604051631e4fbdf760e01b81525f600482015260240160405180910390fd5b603a816063565b5060017f9b779b17422d0df92223018b32b4d1fa46e071723d6817e2486d003becc55f005560b2565b5f80546001600160a01b038381166001600160a01b0319831681178455604051919092169283917f8be0079c531659141344cd1fd0a4f28419497f9722a3daafe3b4186f6b6457e09190a35050565b610826806100bf5f395ff3fe608060405234801561000f575f80fd5b5060043610610060575f3560e01c806315270ace14610064578063715018a6146100795780638da5cb5b14610081578063a1c04f0e146100a0578063cfdbf254146100b3578063f2fde38b146100c9575b5f80fd5b610077610072366004610705565b6100dc565b005b6100776103b6565b5f546040516001600160a01b0390911681526020015b60405180910390f35b6100776100ae366004610780565b6103c9565b6100bb60c881565b604051908152602001610097565b6100776100d7366004610780565b6104de565b6100e461051b565b6100ec610549565b8281146101325760405162461bcd60e51b815260206004820152600f60248201526e098cadccee8d040dad2e6dac2e8c6d608b1b60448201526064015b60405180910390fd5b8261016f5760405162461bcd60e51b815260206004820152600d60248201526c4e6f20726563697069656e747360981b6044820152606401610129565b60c88311156101c05760405162461bcd60e51b815260206004820152601960248201527f426174636820746f6f206c6172676520284d61782032303029000000000000006044820152606401610129565b845f805b838110156101fa578484828181106101de576101de6107a0565b90506020020135826101f091906107b4565b91506001016101c4565b506040516370a0823160e01b815230600482015281906001600160a01b038416906370a0823190602401602060405180830381865afa15801561023f573d5f803e3d5ffd5b505050506040513d601f19601f8201168201806040525081019061026391906107d9565b10156102b15760405162461bcd60e51b815260206004820152601b60248201527f496e73756666696369656e74205265776172642042616c616e636500000000006044820152606401610129565b5f5b8581101561033f575f8585838181106102ce576102ce6107a0565b905060200201351115610337576103378787838181106102f0576102f06107a0565b90506020020160208101906103059190610780565b868684818110610317576103176107a0565b90506020020135856001600160a01b03166105759092919063ffffffff16565b6001016102b3565b5060408051828152602081018790526001600160a01b038916917fe4e801442ed461792c0bdfa7f5c25444d391d67d68422437bd9005796c67cb23910160405180910390a250506103af60017f9b779b17422d0df92223018b32b4d1fa46e071723d6817e2486d003becc55f0055565b5050505050565b6103be610549565b6103c75f6105af565b565b6103d1610549565b6040516370a0823160e01b815230600482015281905f906001600160a01b038316906370a0823190602401602060405180830381865afa158015610417573d5f803e3d5ffd5b505050506040513d601f19601f8201168201806040525081019061043b91906107d9565b90505f81116104825760405162461bcd60e51b81526020600482015260136024820152724e6f7468696e6720746f20776974686472617760681b6044820152606401610129565b6104966001600160a01b0383163383610575565b826001600160a01b03167f23d6711a1d031134a36921253c75aa59e967d38e369ac625992824315e204f20826040516104d191815260200190565b60405180910390a2505050565b6104e6610549565b6001600160a01b03811661050f57604051631e4fbdf760e01b81525f6004820152602401610129565b610518816105af565b50565b6105236105fe565b60027f9b779b17422d0df92223018b32b4d1fa46e071723d6817e2486d003becc55f0055565b5f546001600160a01b031633146103c75760405163118cdaa760e01b8152336004820152602401610129565b6105828383836001610640565b6105aa57604051635274afe760e01b81526001600160a01b0384166004820152602401610129565b505050565b5f80546001600160a01b038381166001600160a01b0319831681178455604051919092169283917f8be0079c531659141344cd1fd0a4f28419497f9722a3daafe3b4186f6b6457e09190a35050565b7f9b779b17422d0df92223018b32b4d1fa46e071723d6817e2486d003becc55f00546002036103c757604051633ee5aeb560e01b815260040160405180910390fd5b60405163a9059cbb60e01b5f8181526001600160a01b038616600452602485905291602083604481808b5af1925060015f5114831661069657838315161561068a573d5f823e3d81fd5b5f873b113d1516831692505b60405250949350505050565b80356001600160a01b03811681146106b8575f80fd5b919050565b5f8083601f8401126106cd575f80fd5b50813567ffffffffffffffff8111156106e4575f80fd5b6020830191508360208260051b85010111156106fe575f80fd5b9250929050565b5f805f805f60608688031215610719575f80fd5b610722866106a2565b9450602086013567ffffffffffffffff8082111561073e575f80fd5b61074a89838a016106bd565b90965094506040880135915080821115610762575f80fd5b5061076f888289016106bd565b969995985093965092949392505050565b5f60208284031215610790575f80fd5b610799826106a2565b9392505050565b634e487b7160e01b5f52603260045260245ffd5b808201808211156107d357634e487b7160e01b5f52601160045260245ffd5b92915050565b5f602082840312156107e9575f80fd5b505191905056fea26469706673582212208b84af41b5c8ddd5fd2eedbc7b81f02e72563e9ba26f1f534aad7d1ad13d693d64736f6c63430008190033",
  "linkReferences": {},
  "deployedLinkReferences": {}
}