{
  "_format": "hh-sol-artifact-1",
  "contractName": "EITPlatformManager",
  "sourceName": "contracts/EITPlatformManager.sol",
  "abi": [
    {
      "inputs": [
        {
          "internalType": "address",
          "name": "_token",
          "type": "address"
        },
        {
          "internalType": "address",
          "name": "_recycleTreasury",
          "type": "address"
        },
        {
          "internalType": "address",
          "name": "_admin",
          "type": "address"
        }
      ],
      "stateMutability": "nonpayable",
      "type": "constructor"
    },
    {
      "inputs": [],
      "name": "AccessControlBadConfirmation",
      "type": "error"
    },
    {
      "inputs": [
        {
          "internalType": "address",
          "name": "account",
          "type": "address"
        },
        {
          "internalType": "bytes32",
          "name": "neededRole",
          "type": "bytes32"
        }
      ],
      "name": "AccessControlUnauthorizedAccount",
      "type": "error"
    },
    {
      "inputs": [],
      "name": "EnforcedPause",
      "type": "error"
    },
    {
      "inputs": [],
      "name": "ExpectedPause",
      "type": "error"
    },
    {
      "anonymous": false,
      "inputs": [
        {
          "indexed": true,
          "internalType": "string",
          "name": "regionCode",
          "type": "string"
        },
        {
          "indexed": false,
          "internalType": "string",
          "name": "batchRef",
          "type": "string"
        },
        {
          "indexed": false,
          "internalType": "uint256",
          "name": "totalEITConsumed",
          "type": "uint256"
        },
        {
          "indexed": false,
          "internalType": "uint256",
          "name": "burnedAmount",
          "type": "uint256"
        },
        {
          "indexed": false,
          "internalType": "uint256",
          "name": "recycledAmount",
          "type": "uint256"
        }
      ],
      "name": "BatchProcessed",
      "type": "event"
    },
    {
      "anonymous": false,
      "inputs": [
        {
          "indexed": false,
          "internalType": "uint256",
          "name": "oldLimit",
          "type": "uint256"
        },
        {
          "indexed": false,
          "internalType": "uint256",
          "name": "newLimit",
          "type": "uint256"
        },
        {
          "indexed": true,
          "internalType": "address",
          "name": "admin",
          "type": "address"
        }
      ],
      "name": "DailyLimitUpdated",
      "type": "event"
    },
    {
      "anonymous": false,
      "inputs": [
        {
          "indexed": false,
          "internalType": "address",
          "name": "account",
          "type": "address"
        }
      ],
      "name": "Paused",
      "type": "event"
    },
    {
      "anonymous": false,
      "inputs": [
        {
          "indexed": true,
          "internalType": "bytes32",
          "name": "role",
          "type": "bytes32"
        },
        {
          "indexed": true,
          "internalType": "bytes32",
          "name": "previousAdminRole",
          "type": "bytes32"
        },
        {
          "indexed": true,
          "internalType": "bytes32",
          "name": "newAdminRole",
          "type": "bytes32"
        }
      ],
      "name": "RoleAdminChanged",
      "type": "event"
    },
    {
      "anonymous": false,
      "inputs": [
        {
          "indexed": true,
          "internalType": "bytes32",
          "name": "role",
          "type": "bytes32"
        },
        {
          "indexed": true,
          "internalType": "address",
          "name": "account",
          "type": "address"
        },
        {
          "indexed": true,
          "internalType": "address",
          "name": "sender",
          "type": "address"
        }
      ],
      "name": "RoleGranted",
      "type": "event"
    },
    {
      "anonymous": false,
      "inputs": [
        {
          "indexed": true,
          "internalType": "bytes32",
          "name": "role",
          "type": "bytes32"
        },
        {
          "indexed": true,
          "internalType": "address",
          "name": "account",
          "type": "address"
        },
        {
          "indexed": true,
          "internalType": "address",
          "name": "sender",
          "type": "address"
        }
      ],
      "name": "RoleRevoked",
      "type": "event"
    },
    {
      "anonymous": false,
      "inputs": [
        {
          "indexed": true,
          "internalType": "address",
          "name": "oldTreasury",
          "type": "address"
        },
        {
          "indexed": true,
          "internalType": "address",
          "name": "newTreasury",
          "type": "address"
        },
        {
          "indexed": true,
          "internalType": "address",
          "name": "admin",
          "type": "address"
        }
      ],
      "name": "TreasuryUpdated",
      "type": "event"
    },
    {
      "anonymous": false,
      "inputs": [
        {
          "indexed": false,
          "internalType": "address",
          "name": "account",
          "type": "address"
        }
      ],
      "name": "Unpaused",
      "type": "event"
    },
    {
      "inputs": [],
      "name": "DEFAULT_ADMIN_ROLE",
      "outputs": [
        {
          "internalType": "bytes32",
          "name": "",
          "type": "bytes32"
        }
      ],
      "stateMutability": "view",
      "type": "function"
    },
    {
      "inputs": [],
      "name": "OPERATOR_ROLE",
      "outputs": [
        {
          "internalType": "bytes32",
          "name": "",
          "type": "bytes32"
        }
      ],
      "stateMutability": "view",
      "type": "function"
    },
    {
      "inputs": [],
      "name": "currentDayProcessed",
      "outputs": [
        {
          "internalType": "uint256",
          "name": "",
          "type": "uint256"
        }
      ],
      "stateMutability": "view",
      "type": "function"
    },
    {
      "inputs": [],
      "name": "getRemainingDailyLimit",
      "outputs": [
        {
          "internalType": "uint256",
          "name": "",
          "type": "uint256"
        }
      ],
      "stateMutability": "view",
      "type": "function"
    },
    {
      "inputs": [
        {
          "internalType": "bytes32",
          "name": "role",
          "type": "bytes32"
        }
      ],
      "name": "getRoleAdmin",
      "outputs": [
        {
          "internalType": "bytes32",
          "name": "",
          "type": "bytes32"
        }
      ],
      "stateMutability": "view",
      "type": "function"
    },
    {
      "inputs": [
        {
          "internalType": "bytes32",
          "name": "role",
          "type": "bytes32"
        },
        {
          "internalType": "address",
          "name": "account",
          "type": "address"
        }
      ],
      "name": "grantRole",
      "outputs": [],
      "stateMutability": "nonpayable",
      "type": "function"
    },
    {
      "inputs": [
        {
          "internalType": "bytes32",
          "name": "role",
          "type": "bytes32"
        },
        {
          "internalType": "address",
          "name": "account",
          "type": "address"
        }
      ],
      "name": "hasRole",
      "outputs": [
        {
          "internalType": "bool",
          "name": "",
          "type": "bool"
        }
      ],
      "stateMutability": "view",
      "type": "function"
    },
    {
      "inputs": [],
      "name": "lastResetTime",
      "outputs": [
        {
          "internalType": "uint256",
          "name": "",
          "type": "uint256"
        }
      ],
      "stateMutability": "view",
      "type": "function"
    },
    {
      "inputs": [],
      "name": "maxDailyLimit",
      "outputs": [
        {
          "internalType": "uint256",
          "name": "",
          "type": "uint256"
        }
      ],
      "stateMutability": "view",
      "type": "function"
    },
    {
      "inputs": [],
      "name": "pause",
      "outputs": [],
      "stateMutability": "nonpayable",
      "type": "function"
    },
    {
      "inputs": [],
      "name": "paused",
      "outputs": [
        {
          "internalType": "bool",
          "name": "",
          "type": "bool"
        }
      ],
      "stateMutability": "view",
      "type": "function"
    },
    {
      "inputs": [
        {
          "internalType": "uint256",
          "name": "amount",
          "type": "uint256"
        },
        {
          "internalType": "string",
          "name": "regionCode",
          "type": "string"
        },
        {
          "internalType": "string",
          "name": "batchRef",
          "type": "string"
        }
      ],
      "name": "processRevenueBatch",
      "outputs": [],
      "stateMutability": "nonpayable",
      "type": "function"
    },
    {
      "inputs": [],
      "name": "recycleTreasury",
      "outputs": [
        {
          "internalType": "address",
          "name": "",
          "type": "address"
        }
      ],
      "stateMutability": "view",
      "type": "function"
    },
    {
      "inputs": [
        {
          "internalType": "bytes32",
          "name": "role",
          "type": "bytes32"
        },
        {
          "internalType": "address",
          "name": "callerConfirmation",
          "type": "address"
        }
      ],
      "name": "renounceRole",
      "outputs": [],
      "stateMutability": "nonpayable",
      "type": "function"
    },
    {
      "inputs": [
        {
          "internalType": "bytes32",
          "name": "role",
          "type": "bytes32"
        },
        {
          "internalType": "address",
          "name": "account",
          "type": "address"
        }
      ],
      "name": "revokeRole",
      "outputs": [],
      "stateMutability": "nonpayable",
      "type": "function"
    },
    {
      "inputs": [
        {
          "internalType": "uint256",
          "name": "_newLimit",
          "type": "uint256"
        }
      ],
      "name": "setDailyLimit",
      "outputs": [],
      "stateMutability": "nonpayable",
      "type": "function"
    },
    {
      "inputs": [
        {
          "internalType": "bytes4",
          "name": "interfaceId",
          "type": "bytes4"
        }
      ],
      "name": "supportsInterface",
      "outputs": [
        {
          "internalType": "bool",
          "name": "",
          "type": "bool"
        }
      ],
      "stateMutability": "view",
      "type": "function"
    },
    {
      "inputs": [],
      "name": "token",
      "outputs": [
        {
          "internalType": "contract IERC20",
          "name": "",
          "type": "address"
        }
      ],
      "stateMutability": "view",
      "type": "function"
    },
    {
      "inputs": [],
      "name": "unpause",
      "outputs": [],
      "stateMutability": "nonpayable",
      "type": "function"
    },
    {
      "inputs": [
        {
          "internalType": "address",
          "name": "_newTreasury",
          "type": "address"
        }
      ],
      "name": "updateTreasury",
      "outputs": [],
      "stateMutability": "nonpayable",
      "type": "function"
    }
  ],
  "bytecode": "0x60a06040523480156200001157600080fd5b5060405162000fd738038062000fd7833981016040819052620000349162000261565b6001600160a01b038316620000805760405162461bcd60e51b815260206004820152600d60248201526c24b73b30b634b2102a37b5b2b760991b60448201526064015b60405180910390fd5b6001600160a01b038216620000cb5760405162461bcd60e51b815260206004820152601060248201526f496e76616c696420547265617375727960801b604482015260640162000077565b6001600160a01b038116620001135760405162461bcd60e51b815260206004820152600d60248201526c24b73b30b634b21020b236b4b760991b604482015260640162000077565b6001600160a01b038084166080526001805491841661010002610100600160a81b031990921691909117905569d3c21bcecceda1000000600255426004556200015e60008262000195565b506200018b7f97667070c54ef182b0f5858b034beac1b6f3089aa2d3188bb1e8929f4fa9b9298262000195565b50505050620002ab565b6000828152602081815260408083206001600160a01b038516845290915281205460ff166200023a576000838152602081815260408083206001600160a01b03861684529091529020805460ff19166001179055620001f13390565b6001600160a01b0316826001600160a01b0316847f2f8788117e7eff1d82e926ec794901d17c78024a50270940304540a733656f0d60405160405180910390a45060016200023e565b5060005b92915050565b80516001600160a01b03811681146200025c57600080fd5b919050565b6000806000606084860312156200027757600080fd5b620002828462000244565b9250620002926020850162000244565b9150620002a26040850162000244565b90509250925092565b608051610d02620002d5600039600081816102b3015281816104d501526105770152610d026000f3fe608060405234801561001057600080fd5b506004361061012c5760003560e01c806391d14854116100ad578063bc55d9c511610071578063bc55d9c51461023b578063d547741f1461026b578063dd188cc11461027e578063f5b541a614610287578063fc0c546a146102ae57600080fd5b806391d14854146101fc578063a15f39e81461020f578063a217712414610217578063a217fddf14610220578063b20d30a91461022857600080fd5b806341eef91b116100f457806341eef91b146101ba5780635c975abb146101cd5780637801988e146101d85780637f51bb1f146101e15780638456cb59146101f457600080fd5b806301ffc9a714610131578063248a9ca3146101595780632f2ff15d1461018a57806336568abe1461019f5780633f4ba83a146101b2575b600080fd5b61014461013f366004610a6e565b6102d5565b60405190151581526020015b60405180910390f35b61017c610167366004610a9f565b60009081526020819052604090206001015490565b604051908152602001610150565b61019d610198366004610ad4565b61030c565b005b61019d6101ad366004610ad4565b610337565b61019d61036f565b61019d6101c8366004610b49565b610385565b60015460ff16610144565b61017c60035481565b61019d6101ef366004610bc3565b610647565b61019d610705565b61014461020a366004610ad4565b610718565b61017c610741565b61017c60045481565b61017c600081565b61019d610236366004610a9f565b610787565b6001546102539061010090046001600160a01b031681565b6040516001600160a01b039091168152602001610150565b61019d610279366004610ad4565b61082f565b61017c60025481565b61017c7f97667070c54ef182b0f5858b034beac1b6f3089aa2d3188bb1e8929f4fa9b92981565b6102537f000000000000000000000000000000000000000000000000000000000000000081565b60006001600160e01b03198216637965db0b60e01b148061030657506301ffc9a760e01b6001600160e01b03198316145b92915050565b60008281526020819052604090206001015461032781610854565b610331838361085e565b50505050565b6001600160a01b03811633146103605760405163334bd91960e11b815260040160405180910390fd5b61036a82826108f0565b505050565b600061037a81610854565b61038261095b565b50565b7f97667070c54ef182b0f5858b034beac1b6f3089aa2d3188bb1e8929f4fa9b9296103af81610854565b6103b76109ad565b600086116104015760405162461bcd60e51b81526020600482015260126024820152710416d6f756e74206d757374206265203e20360741b60448201526064015b60405180910390fd5b6004546104119062015180610bf4565b4210610421576000600355426004555b600254866003546104329190610bf4565b11156104775760405162461bcd60e51b815260206004820152601460248201527311185a5b1e48131a5b5a5d08115e18d95959195960621b60448201526064016103f8565b85600360008282546104899190610bf4565b9091555060009050606461049e886019610c07565b6104a89190610c1e565b905060006104b68289610c40565b60405163079cc67960e41b8152336004820152602481018490529091507f00000000000000000000000000000000000000000000000000000000000000006001600160a01b0316906379cc679090604401600060405180830381600087803b15801561052157600080fd5b505af1158015610535573d6000803e3d6000fd5b5050505060008111156105e6576001546040516323b872dd60e01b81523360048201526101009091046001600160a01b039081166024830152604482018390527f000000000000000000000000000000000000000000000000000000000000000016906323b872dd906064016020604051808303816000875af11580156105c0573d6000803e3d6000fd5b505050506040513d601f19601f820116820180604052508101906105e49190610c53565b505b86866040516105f6929190610c75565b60405180910390207f332f44f743a95c9a342acf7a72fcc2f23ae9724a7bb22a015f1d372d1e9cdf9486868b8686604051610635959493929190610c85565b60405180910390a25050505050505050565b600061065281610854565b6001600160a01b03821661069a5760405162461bcd60e51b815260206004820152600f60248201526e496e76616c6964204164647265737360881b60448201526064016103f8565b60015460405133916001600160a01b038581169261010090920416907f23c12d5579081c5f1077c04a6b1c114d0f3de239e81a436836d30ecb099ffa1390600090a450600180546001600160a01b0390921661010002610100600160a81b0319909216919091179055565b600061071081610854565b6103826109d3565b6000918252602082815260408084206001600160a01b0393909316845291905290205460ff1690565b6000600454620151806107549190610bf4565b4210610761575060025490565b600254600354106107725750600090565b6003546002546107829190610c40565b905090565b600061079281610854565b68056bc75e2d631000008210156107eb5760405162461bcd60e51b815260206004820152601b60248201527f4c696d697420746f6f206c6f7720284d696e203130302045495429000000000060448201526064016103f8565b600254604080519182526020820184905233917f9c1605b55d1eafe13062f1b47079c158f82feaf16266e90067771249bf97219f910160405180910390a250600255565b60008281526020819052604090206001015461084a81610854565b61033183836108f0565b6103828133610a0e565b600061086a8383610718565b6108e8576000838152602081815260408083206001600160a01b03861684529091529020805460ff191660011790556108a03390565b6001600160a01b0316826001600160a01b0316847f2f8788117e7eff1d82e926ec794901d17c78024a50270940304540a733656f0d60405160405180910390a4506001610306565b506000610306565b60006108fc8383610718565b156108e8576000838152602081815260408083206001600160a01b0386168085529252808320805460ff1916905551339286917ff6391f5c32d9c69d2a47ea670b442974b53935d1edc7fd64eb21e047a839171b9190a4506001610306565b610963610a4b565b6001805460ff191690557f5db9ee0a495bf2e6ff9c91a7834c1ba4fdd244a5e8aa4e537bd38aeae4b073aa335b6040516001600160a01b03909116815260200160405180910390a1565b60015460ff16156109d15760405163d93c066560e01b815260040160405180910390fd5b565b6109db6109ad565b6001805460ff1916811790557f62e78cea01bee320cd4e420270b5ea74000d11b0c9f74754ebdbfc544b05a25833610990565b610a188282610718565b610a475760405163e2517d3f60e01b81526001600160a01b0382166004820152602481018390526044016103f8565b5050565b60015460ff166109d157604051638dfc202b60e01b815260040160405180910390fd5b600060208284031215610a8057600080fd5b81356001600160e01b031981168114610a9857600080fd5b9392505050565b600060208284031215610ab157600080fd5b5035919050565b80356001600160a01b0381168114610acf57600080fd5b919050565b60008060408385031215610ae757600080fd5b82359150610af760208401610ab8565b90509250929050565b60008083601f840112610b1257600080fd5b50813567ffffffffffffffff811115610b2a57600080fd5b602083019150836020828501011115610b4257600080fd5b9250929050565b600080600080600060608688031215610b6157600080fd5b85359450602086013567ffffffffffffffff80821115610b8057600080fd5b610b8c89838a01610b00565b90965094506040880135915080821115610ba557600080fd5b50610bb288828901610b00565b969995985093965092949392505050565b600060208284031215610bd557600080fd5b610a9882610ab8565b634e487b7160e01b600052601160045260246000fd5b8082018082111561030657610306610bde565b808202811582820484141761030657610306610bde565b600082610c3b57634e487b7160e01b600052601260045260246000fd5b500490565b8181038181111561030657610306610bde565b600060208284031215610c6557600080fd5b81518015158114610a9857600080fd5b8183823760009101908152919050565b60808152846080820152848660a0830137600060a08683010152600060a0601f19601f8801168301019050846020830152836040830152826060830152969550505050505056fea2646970667358221220a19871d77b44436d901ecb452370978d969f97e4d1b7fe1dbe6d50c1879c15d764736f6c63430008140033",
  "linkReferences": {},
  "deployedLinkReferences": {}
}