{
  "_format": "hh-sol-artifact-1",
  "contractName": "EITVestingVault",
  "sourceName": "contracts/EITVestingVault.sol",
  "abi": [
    {
      "inputs": [
        {
          "internalType": "address",
          "name": "_token",
          "type": "address"
        }
      ],
      "stateMutability": "nonpayable",
      "type": "constructor"
    },
    {
      "inputs": [
        {
          "internalType": "address",
          "name": "owner",
          "type": "address"
        }
      ],
      "name": "OwnableInvalidOwner",
      "type": "error"
    },
    {
      "inputs": [
        {
          "internalType": "address",
          "name": "account",
          "type": "address"
        }
      ],
      "name": "OwnableUnauthorizedAccount",
      "type": "error"
    },
    {
      "inputs": [],
      "name": "ReentrancyGuardReentrantCall",
      "type": "error"
    },
    {
      "inputs": [
        {
          "internalType": "address",
          "name": "token",
          "type": "address"
        }
      ],
      "name": "SafeERC20FailedOperation",
      "type": "error"
    },
    {
      "anonymous": false,
      "inputs": [
        {
          "indexed": true,
          "internalType": "address",
          "name": "oldBeneficiary",
          "type": "address"
        },
        {
          "indexed": true,
          "internalType": "address",
          "name": "newBeneficiary",
          "type": "address"
        }
      ],
      "name": "BeneficiaryTransferred",
      "type": "event"
    },
    {
      "anonymous": false,
      "inputs": [
        {
          "indexed": true,
          "internalType": "address",
          "name": "previousOwner",
          "type": "address"
        },
        {
          "indexed": true,
          "internalType": "address",
          "name": "newOwner",
          "type": "address"
        }
      ],
      "name": "OwnershipTransferred",
      "type": "event"
    },
    {
      "anonymous": false,
      "inputs": [
        {
          "indexed": true,
          "internalType": "address",
          "name": "beneficiary",
          "type": "address"
        },
        {
          "indexed": false,
          "internalType": "uint256",
          "name": "amount",
          "type": "uint256"
        }
      ],
      "name": "ScheduleCreated",
      "type": "event"
    },
    {
      "anonymous": false,
      "inputs": [
        {
          "indexed": true,
          "internalType": "address",
          "name": "beneficiary",
          "type": "address"
        },
        {
          "indexed": false,
          "internalType": "uint256",
          "name": "amountReturned",
          "type": "uint256"
        }
      ],
      "name": "ScheduleRevoked",
      "type": "event"
    },
    {
      "anonymous": false,
      "inputs": [
        {
          "indexed": true,
          "internalType": "address",
          "name": "beneficiary",
          "type": "address"
        },
        {
          "indexed": false,
          "internalType": "uint256",
          "name": "amount",
          "type": "uint256"
        }
      ],
      "name": "TokensClaimed",
      "type": "event"
    },
    {
      "inputs": [
        {
          "internalType": "address",
          "name": "_old",
          "type": "address"
        },
        {
          "internalType": "address",
          "name": "_new",
          "type": "address"
        }
      ],
      "name": "changeBeneficiary",
      "outputs": [],
      "stateMutability": "nonpayable",
      "type": "function"
    },
    {
      "inputs": [],
      "name": "claim",
      "outputs": [],
      "stateMutability": "nonpayable",
      "type": "function"
    },
    {
      "inputs": [
        {
          "internalType": "address",
          "name": "_beneficiary",
          "type": "address"
        },
        {
          "internalType": "uint256",
          "name": "_amount",
          "type": "uint256"
        },
        {
          "internalType": "uint256",
          "name": "_startTime",
          "type": "uint256"
        },
        {
          "internalType": "uint256",
          "name": "_cliffDuration",
          "type": "uint256"
        },
        {
          "internalType": "uint256",
          "name": "_vestingDuration",
          "type": "uint256"
        },
        {
          "internalType": "bool",
          "name": "_isRevocable",
          "type": "bool"
        }
      ],
      "name": "createVestingSchedule",
      "outputs": [],
      "stateMutability": "nonpayable",
      "type": "function"
    },
    {
      "inputs": [],
      "name": "owner",
      "outputs": [
        {
          "internalType": "address",
          "name": "",
          "type": "address"
        }
      ],
      "stateMutability": "view",
      "type": "function"
    },
    {
      "inputs": [],
      "name": "renounceOwnership",
      "outputs": [],
      "stateMutability": "nonpayable",
      "type": "function"
    },
    {
      "inputs": [
        {
          "internalType": "address",
          "name": "_beneficiary",
          "type": "address"
        }
      ],
      "name": "revoke",
      "outputs": [],
      "stateMutability": "nonpayable",
      "type": "function"
    },
    {
      "inputs": [],
      "name": "token",
      "outputs": [
        {
          "internalType": "contract IERC20",
          "name": "",
          "type": "address"
        }
      ],
      "stateMutability": "view",
      "type": "function"
    },
    {
      "inputs": [
        {
          "internalType": "address",
          "name": "_new",
          "type": "address"
        }
      ],
      "name": "transferMySchedule",
      "outputs": [],
      "stateMutability": "nonpayable",
      "type": "function"
    },
    {
      "inputs": [
        {
          "internalType": "address",
          "name": "newOwner",
          "type": "address"
        }
      ],
      "name": "transferOwnership",
      "outputs": [],
      "stateMutability": "nonpayable",
      "type": "function"
    },
    {
      "inputs": [
        {
          "internalType": "address",
          "name": "",
          "type": "address"
        }
      ],
      "name": "vestingSchedules",
      "outputs": [
        {
          "internalType": "bool",
          "name": "isRevocable",
          "type": "bool"
        },
        {
          "internalType": "bool",
          "name": "isRevoked",
          "type": "bool"
        },
        {
          "internalType": "uint256",
          "name": "totalAmount",
          "type": "uint256"
        },
        {
          "internalType": "uint256",
          "name": "amountClaimed",
          "type": "uint256"
        },
        {
          "internalType": "uint256",
          "name": "startTime",
          "type": "uint256"
        },
        {
          "internalType": "uint256",
          "name": "cliffDuration",
          "type": "uint256"
        },
        {
          "internalType": "uint256",
          "name": "vestingDuration",
          "type": "uint256"
        }
      ],
      "stateMutability": "view",
      "type": "function"
    }
  ],
  "bytecode": "0x60a060405234801561000f575f80fd5b506040516110ab3803806110ab83398101604081905261002e916100e1565b338061005357604051631e4fbdf760e01b81525f600482015260240160405180910390fd5b61005c81610092565b5060017f9b779b17422d0df92223018b32b4d1fa46e071723d6817e2486d003becc55f00556001600160a01b031660805261010e565b5f80546001600160a01b038381166001600160a01b0319831681178455604051919092169283917f8be0079c531659141344cd1fd0a4f28419497f9722a3daafe3b4186f6b6457e09190a35050565b5f602082840312156100f1575f80fd5b81516001600160a01b0381168114610107575f80fd5b9392505050565b608051610f7061013b5f395f818161012b015281816102db01528181610408015261076f0152610f705ff3fe608060405234801561000f575f80fd5b506004361061009b575f3560e01c8063aaad932111610063578063aaad932114610100578063f2fde38b14610113578063fc0c546a14610126578063fdb20ccb1461014d578063fff3b1b5146101ce575f80fd5b80634e71d92d1461009f578063715018a6146100a957806374a8f103146100b15780638da5cb5b146100c4578063a697c354146100ed575b5f80fd5b6100a76101e1565b005b6100a7610352565b6100a76100bf366004610de7565b610363565b5f546001600160a01b03165b6040516001600160a01b0390911681526020015b60405180910390f35b6100a76100fb366004610e00565b61049c565b6100a761010e366004610e31565b6106f5565b6100a7610121366004610de7565b610944565b6100d07f000000000000000000000000000000000000000000000000000000000000000081565b61019761015b366004610de7565b600160208190525f918252604090912080549181015460028201546003830154600484015460059094015460ff80871696610100900416949087565b6040805197151588529515156020880152948601939093526060850191909152608084015260a083015260c082015260e0016100e4565b6100a76101dc366004610de7565b610981565b6101e9610b79565b335f908152600160208190526040909120908101541580159061021357508054610100900460ff16155b6102545760405162461bcd60e51b815260206004820152600d60248201526c496e76616c696420436c61696d60981b60448201526064015b60405180910390fd5b5f61025e33610b94565b90505f8260020154826102719190610ea1565b90505f81116102b55760405162461bcd60e51b815260206004820152601060248201526f4e6f7468696e6720746f20636c61696d60801b604482015260640161024b565b80836002015f8282546102c89190610eba565b9091555061030290506001600160a01b037f0000000000000000000000000000000000000000000000000000000000000000163383610c86565b60405181815233907f896e034966eaaf1adc54acc0f257056febbd300c9e47182cf761982cf1f5e4309060200160405180910390a250505061035060015f80516020610f1b83398151915255565b565b61035a610cc0565b6103505f610cec565b61036b610cc0565b6001600160a01b0381165f908152600160205260409020805460ff16801561039a57508054610100900460ff16155b6103d65760405162461bcd60e51b815260206004820152600d60248201526c43616e6e6f74207265766f6b6560981b604482015260640161024b565b5f6103e083610b94565b90505f8260020154826103f39190610ea1565b9050801561042f5761042f6001600160a01b037f0000000000000000000000000000000000000000000000000000000000000000168583610c86565b5f8284600101546104409190610ea1565b845461ff0019166101001785556040519091506001600160a01b038616907f89b2530687b0817986a10f8e5dde78d853db395ac15d1ea677f49015dcb230009061048d9084815260200190565b60405180910390a25050505050565b6104a4610cc0565b6001600160a01b0381166104f05760405162461bcd60e51b8152602060048201526013602482015272496e76616c6964204e6577204164647265737360681b604482015260640161024b565b6001600160a01b0382165f90815260016020819052604090912001546105465760405162461bcd60e51b815260206004820152600b60248201526a4e6f207363686564756c6560a81b604482015260640161024b565b6001600160a01b0381165f9081526001602081905260409091200154156105a55760405162461bcd60e51b815260206004820152601360248201527254617267657420686173207363686564756c6560681b604482015260640161024b565b6001600160a01b0382165f9081526001602052604090205460ff1661060c5760405162461bcd60e51b815260206004820181905260248201527f43616e6e6f74206d6f76652049727265766f6361626c65205363686564756c65604482015260640161024b565b6001600160a01b038083165f8181526001602081905260408083209486168084528184208654815460ff918216151560ff19821681178455895461010090819004909316151590920261ff001990921661ffff199182161791909117825587850180549583019590955560028089018054918401919091556003808a018054918501919091556004808b018054918601919091556005808c01805491909601558989528a54909316909955948690559385905595849055918390559382905592517f57005c5083fa0952870a7906715a2f6f9ef2d01b4a423e4b3ce59c6129b1a7639190a35050565b6106fd610cc0565b6001600160a01b0386165f9081526001602081905260409091200154156107585760405162461bcd60e51b815260206004820152600f60248201526e5363686564756c652065786973747360881b604482015260640161024b565b6040516370a0823160e01b815230600482015285907f00000000000000000000000000000000000000000000000000000000000000006001600160a01b0316906370a0823190602401602060405180830381865afa1580156107bc573d5f803e3d5ffd5b505050506040513d601f19601f820116820180604052508101906107e09190610ecd565b101561082e5760405162461bcd60e51b815260206004820152601a60248201527f496e73756666696369656e74205661756c742042616c616e6365000000000000604482015260640161024b565b6040518060e0016040528082151581526020015f151581526020018681526020015f81526020018581526020018481526020018381525060015f886001600160a01b03166001600160a01b031681526020019081526020015f205f820151815f015f6101000a81548160ff0219169083151502179055506020820151815f0160016101000a81548160ff02191690831515021790555060408201518160010155606082015181600201556080820151816003015560a0820151816004015560c08201518160050155905050856001600160a01b03167f9c52cb9bbb9b7fa6ddb26d1e82afc4e62c9ec50c0f3488c10bb8ad22d4edc4c38660405161093491815260200190565b60405180910390a2505050505050565b61094c610cc0565b6001600160a01b03811661097557604051631e4fbdf760e01b81525f600482015260240161024b565b61097e81610cec565b50565b610989610b79565b6001600160a01b0381166109d55760405162461bcd60e51b8152602060048201526013602482015272496e76616c6964204e6577204164647265737360681b604482015260640161024b565b335f9081526001602081905260409091200154610a225760405162461bcd60e51b815260206004820152600b60248201526a4e6f207363686564756c6560a81b604482015260640161024b565b6001600160a01b0381165f908152600160208190526040909120015415610a815760405162461bcd60e51b815260206004820152601360248201527254617267657420686173207363686564756c6560681b604482015260640161024b565b335f8181526001602081905260408083206001600160a01b0386168085528285208254815460ff918216151560ff19821681178455855461010090819004909316151590920261ff001990921661ffff19918216179190911782558386018054968301969096556002808501805491840191909155600380860180549185019190915560048087018054918601919091556005808801805491909601558a8a52865490931690955595879055948690559185905592849055839055519092917f57005c5083fa0952870a7906715a2f6f9ef2d01b4a423e4b3ce59c6129b1a76391a361097e60015f80516020610f1b83398151915255565b610b81610d3b565b60025f80516020610f1b83398151915255565b6001600160a01b0381165f908152600160208181526040808420815160e081018352815460ff8082161515835261010090910416151593810193909352928301549082015260028201546060820152600382015460808201819052600483015460a0830181905260059093015460c08301529091610c1191610eba565b421015610c2057505f92915050565b8060c001518160800151610c349190610eba565b42101580610c43575080602001515b15610c52576040015192915050565b60c08101516080820151610c669042610ea1565b8260400151610c759190610ee4565b610c7f9190610efb565b9392505050565b610c938383836001610d6a565b610cbb57604051635274afe760e01b81526001600160a01b038416600482015260240161024b565b505050565b5f546001600160a01b031633146103505760405163118cdaa760e01b815233600482015260240161024b565b5f80546001600160a01b038381166001600160a01b0319831681178455604051919092169283917f8be0079c531659141344cd1fd0a4f28419497f9722a3daafe3b4186f6b6457e09190a35050565b5f80516020610f1b8339815191525460020361035057604051633ee5aeb560e01b815260040160405180910390fd5b60405163a9059cbb60e01b5f8181526001600160a01b038616600452602485905291602083604481808b5af1925060015f51148316610dc0578383151615610db4573d5f823e3d81fd5b5f873b113d1516831692505b60405250949350505050565b80356001600160a01b0381168114610de2575f80fd5b919050565b5f60208284031215610df7575f80fd5b610c7f82610dcc565b5f8060408385031215610e11575f80fd5b610e1a83610dcc565b9150610e2860208401610dcc565b90509250929050565b5f805f805f8060c08789031215610e46575f80fd5b610e4f87610dcc565b95506020870135945060408701359350606087013592506080870135915060a08701358015158114610e7f575f80fd5b809150509295509295509295565b634e487b7160e01b5f52601160045260245ffd5b81810381811115610eb457610eb4610e8d565b92915050565b80820180821115610eb457610eb4610e8d565b5f60208284031215610edd575f80fd5b5051919050565b8082028115828204841417610eb457610eb4610e8d565b5f82610f1557634e487b7160e01b5f52601260045260245ffd5b50049056fe9b779b17422d0df92223018b32b4d1fa46e071723d6817e2486d003becc55f00a264697066735822122094f8d10f84bfb525ab3c8704171147d3b508a9e81e2651fe31dd30d4314d72dd64736f6c63430008190033",
  "linkReferences": {},
  "deployedLinkReferences": {}
}