{
  "_format": "hh-sol-artifact-1",
  "contractName": "EnsureInsuredToken",
  "sourceName": "contracts/EnsureInsuredToken.sol",
  "abi": [
    {
      "inputs": [
        {
          "internalType": "address",
          "name": "defaultAdmin",
          "type": "address"
        },
        {
          "internalType": "address",
          "name": "pauser",
          "type": "address"
        }
      ],
      "stateMutability": "nonpayable",
      "type": "constructor"
    },
    {
      "inputs": [],
      "name": "AccessControlBadConfirmation",
      "type": "error"
    },
    {
      "inputs": [
        {
          "internalType": "address",
          "name": "account",
          "type": "address"
        },
        {
          "internalType": "bytes32",
          "name": "neededRole",
          "type": "bytes32"
        }
      ],
      "name": "AccessControlUnauthorizedAccount",
      "type": "error"
    },
    {
      "inputs": [],
      "name": "ECDSAInvalidSignature",
      "type": "error"
    },
    {
      "inputs": [
        {
          "internalType": "uint256",
          "name": "length",
          "type": "uint256"
        }
      ],
      "name": "ECDSAInvalidSignatureLength",
      "type": "error"
    },
    {
      "inputs": [
        {
          "internalType": "bytes32",
          "name": "s",
          "type": "bytes32"
        }
      ],
      "name": "ECDSAInvalidSignatureS",
      "type": "error"
    },
    {
      "inputs": [
        {
          "internalType": "address",
          "name": "spender",
          "type": "address"
        },
        {
          "internalType": "uint256",
          "name": "allowance",
          "type": "uint256"
        },
        {
          "internalType": "uint256",
          "name": "needed",
          "type": "uint256"
        }
      ],
      "name": "ERC20InsufficientAllowance",
      "type": "error"
    },
    {
      "inputs": [
        {
          "internalType": "address",
          "name": "sender",
          "type": "address"
        },
        {
          "internalType": "uint256",
          "name": "balance",
          "type": "uint256"
        },
        {
          "internalType": "uint256",
          "name": "needed",
          "type": "uint256"
        }
      ],
      "name": "ERC20InsufficientBalance",
      "type": "error"
    },
    {
      "inputs": [
        {
          "internalType": "address",
          "name": "approver",
          "type": "address"
        }
      ],
      "name": "ERC20InvalidApprover",
      "type": "error"
    },
    {
      "inputs": [
        {
          "internalType": "address",
          "name": "receiver",
          "type": "address"
        }
      ],
      "name": "ERC20InvalidReceiver",
      "type": "error"
    },
    {
      "inputs": [
        {
          "internalType": "address",
          "name": "sender",
          "type": "address"
        }
      ],
      "name": "ERC20InvalidSender",
      "type": "error"
    },
    {
      "inputs": [
        {
          "internalType": "address",
          "name": "spender",
          "type": "address"
        }
      ],
      "name": "ERC20InvalidSpender",
      "type": "error"
    },
    {
      "inputs": [
        {
          "internalType": "uint256",
          "name": "deadline",
          "type": "uint256"
        }
      ],
      "name": "ERC2612ExpiredSignature",
      "type": "error"
    },
    {
      "inputs": [
        {
          "internalType": "address",
          "name": "signer",
          "type": "address"
        },
        {
          "internalType": "address",
          "name": "owner",
          "type": "address"
        }
      ],
      "name": "ERC2612InvalidSigner",
      "type": "error"
    },
    {
      "inputs": [],
      "name": "EnforcedPause",
      "type": "error"
    },
    {
      "inputs": [],
      "name": "ExpectedPause",
      "type": "error"
    },
    {
      "inputs": [
        {
          "internalType": "address",
          "name": "account",
          "type": "address"
        },
        {
          "internalType": "uint256",
          "name": "currentNonce",
          "type": "uint256"
        }
      ],
      "name": "InvalidAccountNonce",
      "type": "error"
    },
    {
      "inputs": [],
      "name": "InvalidShortString",
      "type": "error"
    },
    {
      "inputs": [
        {
          "internalType": "string",
          "name": "str",
          "type": "string"
        }
      ],
      "name": "StringTooLong",
      "type": "error"
    },
    {
      "anonymous": false,
      "inputs": [
        {
          "indexed": true,
          "internalType": "address",
          "name": "owner",
          "type": "address"
        },
        {
          "indexed": true,
          "internalType": "address",
          "name": "spender",
          "type": "address"
        },
        {
          "indexed": false,
          "internalType": "uint256",
          "name": "value",
          "type": "uint256"
        }
      ],
      "name": "Approval",
      "type": "event"
    },
    {
      "anonymous": false,
      "inputs": [],
      "name": "EIP712DomainChanged",
      "type": "event"
    },
    {
      "anonymous": false,
      "inputs": [
        {
          "indexed": false,
          "internalType": "address",
          "name": "account",
          "type": "address"
        }
      ],
      "name": "Paused",
      "type": "event"
    },
    {
      "anonymous": false,
      "inputs": [
        {
          "indexed": true,
          "internalType": "bytes32",
          "name": "role",
          "type": "bytes32"
        },
        {
          "indexed": true,
          "internalType": "bytes32",
          "name": "previousAdminRole",
          "type": "bytes32"
        },
        {
          "indexed": true,
          "internalType": "bytes32",
          "name": "newAdminRole",
          "type": "bytes32"
        }
      ],
      "name": "RoleAdminChanged",
      "type": "event"
    },
    {
      "anonymous": false,
      "inputs": [
        {
          "indexed": true,
          "internalType": "bytes32",
          "name": "role",
          "type": "bytes32"
        },
        {
          "indexed": true,
          "internalType": "address",
          "name": "account",
          "type": "address"
        },
        {
          "indexed": true,
          "internalType": "address",
          "name": "sender",
          "type": "address"
        }
      ],
      "name": "RoleGranted",
      "type": "event"
    },
    {
      "anonymous": false,
      "inputs": [
        {
          "indexed": true,
          "internalType": "bytes32",
          "name": "role",
          "type": "bytes32"
        },
        {
          "indexed": true,
          "internalType": "address",
          "name": "account",
          "type": "address"
        },
        {
          "indexed": true,
          "internalType": "address",
          "name": "sender",
          "type": "address"
        }
      ],
      "name": "RoleRevoked",
      "type": "event"
    },
    {
      "anonymous": false,
      "inputs": [
        {
          "indexed": true,
          "internalType": "address",
          "name": "from",
          "type": "address"
        },
        {
          "indexed": true,
          "internalType": "address",
          "name": "to",
          "type": "address"
        },
        {
          "indexed": false,
          "internalType": "uint256",
          "name": "value",
          "type": "uint256"
        }
      ],
      "name": "Transfer",
      "type": "event"
    },
    {
      "anonymous": false,
      "inputs": [
        {
          "indexed": false,
          "internalType": "address",
          "name": "account",
          "type": "address"
        }
      ],
      "name": "Unpaused",
      "type": "event"
    },
    {
      "inputs": [],
      "name": "DEFAULT_ADMIN_ROLE",
      "outputs": [
        {
          "internalType": "bytes32",
          "name": "",
          "type": "bytes32"
        }
      ],
      "stateMutability": "view",
      "type": "function"
    },
    {
      "inputs": [],
      "name": "DOMAIN_SEPARATOR",
      "outputs": [
        {
          "internalType": "bytes32",
          "name": "",
          "type": "bytes32"
        }
      ],
      "stateMutability": "view",
      "type": "function"
    },
    {
      "inputs": [],
      "name": "MAX_SUPPLY",
      "outputs": [
        {
          "internalType": "uint256",
          "name": "",
          "type": "uint256"
        }
      ],
      "stateMutability": "view",
      "type": "function"
    },
    {
      "inputs": [],
      "name": "PAUSER_ROLE",
      "outputs": [
        {
          "internalType": "bytes32",
          "name": "",
          "type": "bytes32"
        }
      ],
      "stateMutability": "view",
      "type": "function"
    },
    {
      "inputs": [
        {
          "internalType": "address",
          "name": "owner",
          "type": "address"
        },
        {
          "internalType": "address",
          "name": "spender",
          "type": "address"
        }
      ],
      "name": "allowance",
      "outputs": [
        {
          "internalType": "uint256",
          "name": "",
          "type": "uint256"
        }
      ],
      "stateMutability": "view",
      "type": "function"
    },
    {
      "inputs": [
        {
          "internalType": "address",
          "name": "spender",
          "type": "address"
        },
        {
          "internalType": "uint256",
          "name": "value",
          "type": "uint256"
        }
      ],
      "name": "approve",
      "outputs": [
        {
          "internalType": "bool",
          "name": "",
          "type": "bool"
        }
      ],
      "stateMutability": "nonpayable",
      "type": "function"
    },
    {
      "inputs": [
        {
          "internalType": "address",
          "name": "account",
          "type": "address"
        }
      ],
      "name": "balanceOf",
      "outputs": [
        {
          "internalType": "uint256",
          "name": "",
          "type": "uint256"
        }
      ],
      "stateMutability": "view",
      "type": "function"
    },
    {
      "inputs": [
        {
          "internalType": "uint256",
          "name": "value",
          "type": "uint256"
        }
      ],
      "name": "burn",
      "outputs": [],
      "stateMutability": "nonpayable",
      "type": "function"
    },
    {
      "inputs": [
        {
          "internalType": "address",
          "name": "account",
          "type": "address"
        },
        {
          "internalType": "uint256",
          "name": "value",
          "type": "uint256"
        }
      ],
      "name": "burnFrom",
      "outputs": [],
      "stateMutability": "nonpayable",
      "type": "function"
    },
    {
      "inputs": [],
      "name": "decimals",
      "outputs": [
        {
          "internalType": "uint8",
          "name": "",
          "type": "uint8"
        }
      ],
      "stateMutability": "view",
      "type": "function"
    },
    {
      "inputs": [],
      "name": "eip712Domain",
      "outputs": [
        {
          "internalType": "bytes1",
          "name": "fields",
          "type": "bytes1"
        },
        {
          "internalType": "string",
          "name": "name",
          "type": "string"
        },
        {
          "internalType": "string",
          "name": "version",
          "type": "string"
        },
        {
          "internalType": "uint256",
          "name": "chainId",
          "type": "uint256"
        },
        {
          "internalType": "address",
          "name": "verifyingContract",
          "type": "address"
        },
        {
          "internalType": "bytes32",
          "name": "salt",
          "type": "bytes32"
        },
        {
          "internalType": "uint256[]",
          "name": "extensions",
          "type": "uint256[]"
        }
      ],
      "stateMutability": "view",
      "type": "function"
    },
    {
      "inputs": [
        {
          "internalType": "bytes32",
          "name": "role",
          "type": "bytes32"
        }
      ],
      "name": "getRoleAdmin",
      "outputs": [
        {
          "internalType": "bytes32",
          "name": "",
          "type": "bytes32"
        }
      ],
      "stateMutability": "view",
      "type": "function"
    },
    {
      "inputs": [
        {
          "internalType": "bytes32",
          "name": "role",
          "type": "bytes32"
        },
        {
          "internalType": "address",
          "name": "account",
          "type": "address"
        }
      ],
      "name": "grantRole",
      "outputs": [],
      "stateMutability": "nonpayable",
      "type": "function"
    },
    {
      "inputs": [
        {
          "internalType": "bytes32",
          "name": "role",
          "type": "bytes32"
        },
        {
          "internalType": "address",
          "name": "account",
          "type": "address"
        }
      ],
      "name": "hasRole",
      "outputs": [
        {
          "internalType": "bool",
          "name": "",
          "type": "bool"
        }
      ],
      "stateMutability": "view",
      "type": "function"
    },
    {
      "inputs": [],
      "name": "name",
      "outputs": [
        {
          "internalType": "string",
          "name": "",
          "type": "string"
        }
      ],
      "stateMutability": "view",
      "type": "function"
    },
    {
      "inputs": [
        {
          "internalType": "address",
          "name": "owner",
          "type": "address"
        }
      ],
      "name": "nonces",
      "outputs": [
        {
          "internalType": "uint256",
          "name": "",
          "type": "uint256"
        }
      ],
      "stateMutability": "view",
      "type": "function"
    },
    {
      "inputs": [],
      "name": "pause",
      "outputs": [],
      "stateMutability": "nonpayable",
      "type": "function"
    },
    {
      "inputs": [],
      "name": "paused",
      "outputs": [
        {
          "internalType": "bool",
          "name": "",
          "type": "bool"
        }
      ],
      "stateMutability": "view",
      "type": "function"
    },
    {
      "inputs": [
        {
          "internalType": "address",
          "name": "owner",
          "type": "address"
        },
        {
          "internalType": "address",
          "name": "spender",
          "type": "address"
        },
        {
          "internalType": "uint256",
          "name": "value",
          "type": "uint256"
        },
        {
          "internalType": "uint256",
          "name": "deadline",
          "type": "uint256"
        },
        {
          "internalType": "uint8",
          "name": "v",
          "type": "uint8"
        },
        {
          "internalType": "bytes32",
          "name": "r",
          "type": "bytes32"
        },
        {
          "internalType": "bytes32",
          "name": "s",
          "type": "bytes32"
        }
      ],
      "name": "permit",
      "outputs": [],
      "stateMutability": "nonpayable",
      "type": "function"
    },
    {
      "inputs": [
        {
          "internalType": "bytes32",
          "name": "role",
          "type": "bytes32"
        },
        {
          "internalType": "address",
          "name": "callerConfirmation",
          "type": "address"
        }
      ],
      "name": "renounceRole",
      "outputs": [],
      "stateMutability": "nonpayable",
      "type": "function"
    },
    {
      "inputs": [
        {
          "internalType": "bytes32",
          "name": "role",
          "type": "bytes32"
        },
        {
          "internalType": "address",
          "name": "account",
          "type": "address"
        }
      ],
      "name": "revokeRole",
      "outputs": [],
      "stateMutability": "nonpayable",
      "type": "function"
    },
    {
      "inputs": [
        {
          "internalType": "bytes4",
          "name": "interfaceId",
          "type": "bytes4"
        }
      ],
      "name": "supportsInterface",
      "outputs": [
        {
          "internalType": "bool",
          "name": "",
          "type": "bool"
        }
      ],
      "stateMutability": "view",
      "type": "function"
    },
    {
      "inputs": [],
      "name": "symbol",
      "outputs": [
        {
          "internalType": "string",
          "name": "",
          "type": "string"
        }
      ],
      "stateMutability": "view",
      "type": "function"
    },
    {
      "inputs": [],
      "name": "totalSupply",
      "outputs": [
        {
          "internalType": "uint256",
          "name": "",
          "type": "uint256"
        }
      ],
      "stateMutability": "view",
      "type": "function"
    },
    {
      "inputs": [
        {
          "internalType": "address",
          "name": "to",
          "type": "address"
        },
        {
          "internalType": "uint256",
          "name": "value",
          "type": "uint256"
        }
      ],
      "name": "transfer",
      "outputs": [
        {
          "internalType": "bool",
          "name": "",
          "type": "bool"
        }
      ],
      "stateMutability": "nonpayable",
      "type": "function"
    },
    {
      "inputs": [
        {
          "internalType": "address",
          "name": "from",
          "type": "address"
        },
        {
          "internalType": "address",
          "name": "to",
          "type": "address"
        },
        {
          "internalType": "uint256",
          "name": "value",
          "type": "uint256"
        }
      ],
      "name": "transferFrom",
      "outputs": [
        {
          "internalType": "bool",
          "name": "",
          "type": "bool"
        }
      ],
      "stateMutability": "nonpayable",
      "type": "function"
    },
    {
      "inputs": [],
      "name": "unpause",
      "outputs": [],
      "stateMutability": "nonpayable",
      "type": "function"
    }
  ],
  "bytecode": "0x6101606040523480156200001257600080fd5b5060405162001cc938038062001cc983398101604081905262000035916200051e565b6040518060400160405280601481526020017f456e7375726520496e737572656420546f6b656e00000000000000000000000081525080604051806040016040528060018152602001603160f81b8152506040518060400160405280601481526020017f456e7375726520496e737572656420546f6b656e0000000000000000000000008152506040518060400160405280600381526020016211525560ea1b8152508160039081620000e99190620005fa565b506004620000f88282620005fa565b506200010a915083905060076200020e565b610120526200011b8160086200020e565b61014052815160208084019190912060e052815190820120610100524660a052620001a960e05161010051604080517f8b73c3c69bb8fe3d512ecc4cf759cc79239f7b179b0ffacaa9a75d522b39400f60208201529081019290925260608201524660808201523060a082015260009060c00160405160208183030381529060405280519060200120905090565b60805250503060c05250620001c060008362000247565b50620001ed7f65d7a28e3265b37a6474929f336521b332c1681b933f6cb9f3376673440d862a8262000247565b5062000206826ba18f07d736b90be550000000620002f9565b50506200075d565b60006020835110156200022e5762000226836200033b565b905062000241565b816200023b8482620005fa565b5060ff90505b92915050565b60008281526006602090815260408083206001600160a01b038516845290915281205460ff16620002f05760008381526006602090815260408083206001600160a01b03861684529091529020805460ff19166001179055620002a73390565b6001600160a01b0316826001600160a01b0316847f2f8788117e7eff1d82e926ec794901d17c78024a50270940304540a733656f0d60405160405180910390a450600162000241565b50600062000241565b6001600160a01b038216620003295760405163ec442f0560e01b8152600060048201526024015b60405180910390fd5b62000337600083836200037e565b5050565b600080829050601f8151111562000369578260405163305a27a960e01b8152600401620003209190620006c6565b8051620003768262000716565b179392505050565b6200038b83838362000390565b505050565b6200039a620003a7565b6200038b838383620003ce565b60055460ff1615620003cc5760405163d93c066560e01b815260040160405180910390fd5b565b6001600160a01b038316620003fd578060026000828254620003f191906200073b565b90915550620004719050565b6001600160a01b03831660009081526020819052604090205481811015620004525760405163391434e360e21b81526001600160a01b0385166004820152602481018290526044810183905260640162000320565b6001600160a01b03841660009081526020819052604090209082900390555b6001600160a01b0382166200048f57600280548290039055620004ae565b6001600160a01b03821660009081526020819052604090208054820190555b816001600160a01b0316836001600160a01b03167fddf252ad1be2c89b69c2b068fc378daa952ba7f163c4a11628f55a4df523b3ef83604051620004f491815260200190565b60405180910390a3505050565b80516001600160a01b03811681146200051957600080fd5b919050565b600080604083850312156200053257600080fd5b6200053d8362000501565b91506200054d6020840162000501565b90509250929050565b634e487b7160e01b600052604160045260246000fd5b600181811c908216806200058157607f821691505b602082108103620005a257634e487b7160e01b600052602260045260246000fd5b50919050565b601f8211156200038b57600081815260208120601f850160051c81016020861015620005d15750805b601f850160051c820191505b81811015620005f257828155600101620005dd565b505050505050565b81516001600160401b0381111562000616576200061662000556565b6200062e816200062784546200056c565b84620005a8565b602080601f8311600181146200066657600084156200064d5750858301515b600019600386901b1c1916600185901b178555620005f2565b600085815260208120601f198616915b82811015620006975788860151825594840194600190910190840162000676565b5085821015620006b65787850151600019600388901b60f8161c191681555b5050505050600190811b01905550565b600060208083528351808285015260005b81811015620006f557858101830151858201604001528201620006d7565b506000604082860101526040601f19601f8301168501019250505092915050565b80516020808301519190811015620005a25760001960209190910360031b1b16919050565b808201808211156200024157634e487b7160e01b600052601160045260246000fd5b60805160a05160c05160e051610100516101205161014051611511620007b86000396000610c1101526000610be401526000610a5a01526000610a320152600061098d015260006109b7015260006109e101526115116000f3fe608060405234801561001057600080fd5b50600436106101a95760003560e01c80635c975abb116100f957806395d89b4111610097578063d505accf11610071578063d505accf14610366578063d547741f14610379578063dd62ed3e1461038c578063e63ab1e9146103c557600080fd5b806395d89b4114610343578063a217fddf1461034b578063a9059cbb1461035357600080fd5b80637ecebe00116100d35780637ecebe00146102fa5780638456cb591461030d57806384b0196e1461031557806391d148541461033057600080fd5b80635c975abb146102b357806370a08231146102be57806379cc6790146102e757600080fd5b80632f2ff15d116101665780633644e515116101405780633644e5151461027d57806336568abe146102855780633f4ba83a1461029857806342966c68146102a057600080fd5b80632f2ff15d14610246578063313ce5671461025b57806332cb6b0c1461026a57600080fd5b806301ffc9a7146101ae57806306fdde03146101d6578063095ea7b3146101eb57806318160ddd146101fe57806323b872dd14610210578063248a9ca314610223575b600080fd5b6101c16101bc3660046111cb565b6103ec565b60405190151581526020015b60405180910390f35b6101de610423565b6040516101cd9190611242565b6101c16101f9366004611271565b6104b5565b6002545b6040519081526020016101cd565b6101c161021e36600461129b565b6104cd565b6102026102313660046112d7565b60009081526006602052604090206001015490565b6102596102543660046112f0565b6104f1565b005b604051601281526020016101cd565b6102026ba18f07d736b90be55000000081565b61020261051c565b6102596102933660046112f0565b61052b565b610259610563565b6102596102ae3660046112d7565b610598565b60055460ff166101c1565b6102026102cc36600461131c565b6001600160a01b031660009081526020819052604090205490565b6102596102f5366004611271565b6105a2565b61020261030836600461131c565b6105bb565b6102596105d9565b61031d61060b565b6040516101cd9796959493929190611337565b6101c161033e3660046112f0565b610651565b6101de61067c565b610202600081565b6101c1610361366004611271565b61068b565b6102596103743660046113cd565b610699565b6102596103873660046112f0565b6107d8565b61020261039a366004611440565b6001600160a01b03918216600090815260016020908152604080832093909416825291909152205490565b6102027f65d7a28e3265b37a6474929f336521b332c1681b933f6cb9f3376673440d862a81565b60006001600160e01b03198216637965db0b60e01b148061041d57506301ffc9a760e01b6001600160e01b03198316145b92915050565b6060600380546104329061146a565b80601f016020809104026020016040519081016040528092919081815260200182805461045e9061146a565b80156104ab5780601f10610480576101008083540402835291602001916104ab565b820191906000526020600020905b81548152906001019060200180831161048e57829003601f168201915b5050505050905090565b6000336104c38185856107fd565b5060019392505050565b6000336104db85828561080a565b6104e6858585610883565b506001949350505050565b60008281526006602052604090206001015461050c816108e2565b61051683836108ec565b50505050565b6000610526610980565b905090565b6001600160a01b03811633146105545760405163334bd91960e11b815260040160405180910390fd5b61055e8282610aab565b505050565b7f65d7a28e3265b37a6474929f336521b332c1681b933f6cb9f3376673440d862a61058d816108e2565b610595610b18565b50565b6105953382610b6a565b6105ad82338361080a565b6105b78282610b6a565b5050565b6001600160a01b03811660009081526009602052604081205461041d565b7f65d7a28e3265b37a6474929f336521b332c1681b933f6cb9f3376673440d862a610603816108e2565b610595610ba0565b60006060806000806000606061061f610bdd565b610627610c0a565b60408051600080825260208201909252600f60f81b9b939a50919850469750309650945092509050565b60009182526006602090815260408084206001600160a01b0393909316845291905290205460ff1690565b6060600480546104329061146a565b6000336104c3818585610883565b834211156106c25760405163313c898160e11b8152600481018590526024015b60405180910390fd5b60007f6e71edae12b1b97f4d1f60370fef10105fa2faae0126114a169c64845d6126c988888861070f8c6001600160a01b0316600090815260096020526040902080546001810190915590565b6040805160208101969096526001600160a01b0394851690860152929091166060840152608083015260a082015260c0810186905260e001604051602081830303815290604052805190602001209050600061076a82610c37565b9050600061077a82878787610c64565b9050896001600160a01b0316816001600160a01b0316146107c1576040516325c0072360e11b81526001600160a01b0380831660048301528b1660248201526044016106b9565b6107cc8a8a8a6107fd565b50505050505050505050565b6000828152600660205260409020600101546107f3816108e2565b6105168383610aab565b61055e8383836001610c92565b6001600160a01b03838116600090815260016020908152604080832093861683529290522054600019811015610516578181101561087457604051637dc7a0d960e11b81526001600160a01b038416600482015260248101829052604481018390526064016106b9565b61051684848484036000610c92565b6001600160a01b0383166108ad57604051634b637e8f60e11b8152600060048201526024016106b9565b6001600160a01b0382166108d75760405163ec442f0560e01b8152600060048201526024016106b9565b61055e838383610d67565b6105958133610d72565b60006108f88383610651565b6109785760008381526006602090815260408083206001600160a01b03861684529091529020805460ff191660011790556109303390565b6001600160a01b0316826001600160a01b0316847f2f8788117e7eff1d82e926ec794901d17c78024a50270940304540a733656f0d60405160405180910390a450600161041d565b50600061041d565b6000306001600160a01b037f0000000000000000000000000000000000000000000000000000000000000000161480156109d957507f000000000000000000000000000000000000000000000000000000000000000046145b15610a0357507f000000000000000000000000000000000000000000000000000000000000000090565b610526604080517f8b73c3c69bb8fe3d512ecc4cf759cc79239f7b179b0ffacaa9a75d522b39400f60208201527f0000000000000000000000000000000000000000000000000000000000000000918101919091527f000000000000000000000000000000000000000000000000000000000000000060608201524660808201523060a082015260009060c00160405160208183030381529060405280519060200120905090565b6000610ab78383610651565b156109785760008381526006602090815260408083206001600160a01b0386168085529252808320805460ff1916905551339286917ff6391f5c32d9c69d2a47ea670b442974b53935d1edc7fd64eb21e047a839171b9190a450600161041d565b610b20610dab565b6005805460ff191690557f5db9ee0a495bf2e6ff9c91a7834c1ba4fdd244a5e8aa4e537bd38aeae4b073aa335b6040516001600160a01b03909116815260200160405180910390a1565b6001600160a01b038216610b9457604051634b637e8f60e11b8152600060048201526024016106b9565b6105b782600083610d67565b610ba8610dd0565b6005805460ff191660011790557f62e78cea01bee320cd4e420270b5ea74000d11b0c9f74754ebdbfc544b05a258610b4d3390565b60606105267f00000000000000000000000000000000000000000000000000000000000000006007610df4565b60606105267f00000000000000000000000000000000000000000000000000000000000000006008610df4565b600061041d610c44610980565b8360405161190160f01b8152600281019290925260228201526042902090565b600080600080610c7688888888610e9f565b925092509250610c868282610f6e565b50909695505050505050565b6001600160a01b038416610cbc5760405163e602df0560e01b8152600060048201526024016106b9565b6001600160a01b038316610ce657604051634a1406b160e11b8152600060048201526024016106b9565b6001600160a01b038085166000908152600160209081526040808320938716835292905220829055801561051657826001600160a01b0316846001600160a01b03167f8c5be1e5ebec7d5bd14f71427d1e84f3dd0314c0f7b2291e5b200ac8c7c3b92584604051610d5991815260200190565b60405180910390a350505050565b61055e838383611027565b610d7c8282610651565b6105b75760405163e2517d3f60e01b81526001600160a01b0382166004820152602481018390526044016106b9565b60055460ff16610dce57604051638dfc202b60e01b815260040160405180910390fd5b565b60055460ff1615610dce5760405163d93c066560e01b815260040160405180910390fd5b606060ff8314610e0e57610e078361103a565b905061041d565b818054610e1a9061146a565b80601f0160208091040260200160405190810160405280929190818152602001828054610e469061146a565b8015610e935780601f10610e6857610100808354040283529160200191610e93565b820191906000526020600020905b815481529060010190602001808311610e7657829003601f168201915b5050505050905061041d565b600080807f7fffffffffffffffffffffffffffffff5d576e7357a4501ddfe92f46681b20a0841115610eda5750600091506003905082610f64565b604080516000808252602082018084528a905260ff891692820192909252606081018790526080810186905260019060a0016020604051602081039080840390855afa158015610f2e573d6000803e3d6000fd5b5050604051601f1901519150506001600160a01b038116610f5a57506000925060019150829050610f64565b9250600091508190505b9450945094915050565b6000826003811115610f8257610f826114a4565b03610f8b575050565b6001826003811115610f9f57610f9f6114a4565b03610fbd5760405163f645eedf60e01b815260040160405180910390fd5b6002826003811115610fd157610fd16114a4565b03610ff25760405163fce698f760e01b8152600481018290526024016106b9565b6003826003811115611006576110066114a4565b036105b7576040516335e2f38360e21b8152600481018290526024016106b9565b61102f610dd0565b61055e838383611079565b60606000611047836111a3565b604080516020808252818301909252919250600091906020820181803683375050509182525060208101929092525090565b6001600160a01b0383166110a457806002600082825461109991906114ba565b909155506111169050565b6001600160a01b038316600090815260208190526040902054818110156110f75760405163391434e360e21b81526001600160a01b038516600482015260248101829052604481018390526064016106b9565b6001600160a01b03841660009081526020819052604090209082900390555b6001600160a01b03821661113257600280548290039055611151565b6001600160a01b03821660009081526020819052604090208054820190555b816001600160a01b0316836001600160a01b03167fddf252ad1be2c89b69c2b068fc378daa952ba7f163c4a11628f55a4df523b3ef8360405161119691815260200190565b60405180910390a3505050565b600060ff8216601f81111561041d57604051632cd44ac360e21b815260040160405180910390fd5b6000602082840312156111dd57600080fd5b81356001600160e01b0319811681146111f557600080fd5b9392505050565b6000815180845260005b8181101561122257602081850181015186830182015201611206565b506000602082860101526020601f19601f83011685010191505092915050565b6020815260006111f560208301846111fc565b80356001600160a01b038116811461126c57600080fd5b919050565b6000806040838503121561128457600080fd5b61128d83611255565b946020939093013593505050565b6000806000606084860312156112b057600080fd5b6112b984611255565b92506112c760208501611255565b9150604084013590509250925092565b6000602082840312156112e957600080fd5b5035919050565b6000806040838503121561130357600080fd5b8235915061131360208401611255565b90509250929050565b60006020828403121561132e57600080fd5b6111f582611255565b60ff60f81b881681526000602060e08184015261135760e084018a6111fc565b8381036040850152611369818a6111fc565b606085018990526001600160a01b038816608086015260a0850187905284810360c0860152855180825283870192509083019060005b818110156113bb5783518352928401929184019160010161139f565b50909c9b505050505050505050505050565b600080600080600080600060e0888a0312156113e857600080fd5b6113f188611255565b96506113ff60208901611255565b95506040880135945060608801359350608088013560ff8116811461142357600080fd5b9699959850939692959460a0840135945060c09093013592915050565b6000806040838503121561145357600080fd5b61145c83611255565b915061131360208401611255565b600181811c9082168061147e57607f821691505b60208210810361149e57634e487b7160e01b600052602260045260246000fd5b50919050565b634e487b7160e01b600052602160045260246000fd5b8082018082111561041d57634e487b7160e01b600052601160045260246000fdfea2646970667358221220560ce54aa415f0c43d093f391aec3c94e93127db433864b61820d37da174778464736f6c63430008140033",
  "linkReferences": {},
  "deployedLinkReferences": {}
}