{
  "_format": "hh-sol-artifact-1",
  "contractName": "EnsureInsuredToken",
  "sourceName": "contracts/EnsureInsuredToken.sol",
  "abi": [
    {
      "inputs": [
        {
          "internalType": "address",
          "name": "defaultAdmin",
          "type": "address"
        },
        {
          "internalType": "address",
          "name": "pauser",
          "type": "address"
        }
      ],
      "stateMutability": "nonpayable",
      "type": "constructor"
    },
    {
      "inputs": [],
      "name": "AccessControlBadConfirmation",
      "type": "error"
    },
    {
      "inputs": [
        {
          "internalType": "address",
          "name": "account",
          "type": "address"
        },
        {
          "internalType": "bytes32",
          "name": "neededRole",
          "type": "bytes32"
        }
      ],
      "name": "AccessControlUnauthorizedAccount",
      "type": "error"
    },
    {
      "inputs": [],
      "name": "ECDSAInvalidSignature",
      "type": "error"
    },
    {
      "inputs": [
        {
          "internalType": "uint256",
          "name": "length",
          "type": "uint256"
        }
      ],
      "name": "ECDSAInvalidSignatureLength",
      "type": "error"
    },
    {
      "inputs": [
        {
          "internalType": "bytes32",
          "name": "s",
          "type": "bytes32"
        }
      ],
      "name": "ECDSAInvalidSignatureS",
      "type": "error"
    },
    {
      "inputs": [
        {
          "internalType": "address",
          "name": "spender",
          "type": "address"
        },
        {
          "internalType": "uint256",
          "name": "allowance",
          "type": "uint256"
        },
        {
          "internalType": "uint256",
          "name": "needed",
          "type": "uint256"
        }
      ],
      "name": "ERC20InsufficientAllowance",
      "type": "error"
    },
    {
      "inputs": [
        {
          "internalType": "address",
          "name": "sender",
          "type": "address"
        },
        {
          "internalType": "uint256",
          "name": "balance",
          "type": "uint256"
        },
        {
          "internalType": "uint256",
          "name": "needed",
          "type": "uint256"
        }
      ],
      "name": "ERC20InsufficientBalance",
      "type": "error"
    },
    {
      "inputs": [
        {
          "internalType": "address",
          "name": "approver",
          "type": "address"
        }
      ],
      "name": "ERC20InvalidApprover",
      "type": "error"
    },
    {
      "inputs": [
        {
          "internalType": "address",
          "name": "receiver",
          "type": "address"
        }
      ],
      "name": "ERC20InvalidReceiver",
      "type": "error"
    },
    {
      "inputs": [
        {
          "internalType": "address",
          "name": "sender",
          "type": "address"
        }
      ],
      "name": "ERC20InvalidSender",
      "type": "error"
    },
    {
      "inputs": [
        {
          "internalType": "address",
          "name": "spender",
          "type": "address"
        }
      ],
      "name": "ERC20InvalidSpender",
      "type": "error"
    },
    {
      "inputs": [
        {
          "internalType": "uint256",
          "name": "deadline",
          "type": "uint256"
        }
      ],
      "name": "ERC2612ExpiredSignature",
      "type": "error"
    },
    {
      "inputs": [
        {
          "internalType": "address",
          "name": "signer",
          "type": "address"
        },
        {
          "internalType": "address",
          "name": "owner",
          "type": "address"
        }
      ],
      "name": "ERC2612InvalidSigner",
      "type": "error"
    },
    {
      "inputs": [],
      "name": "EnforcedPause",
      "type": "error"
    },
    {
      "inputs": [],
      "name": "ExpectedPause",
      "type": "error"
    },
    {
      "inputs": [
        {
          "internalType": "address",
          "name": "account",
          "type": "address"
        },
        {
          "internalType": "uint256",
          "name": "currentNonce",
          "type": "uint256"
        }
      ],
      "name": "InvalidAccountNonce",
      "type": "error"
    },
    {
      "inputs": [],
      "name": "InvalidShortString",
      "type": "error"
    },
    {
      "inputs": [
        {
          "internalType": "string",
          "name": "str",
          "type": "string"
        }
      ],
      "name": "StringTooLong",
      "type": "error"
    },
    {
      "anonymous": false,
      "inputs": [
        {
          "indexed": true,
          "internalType": "address",
          "name": "owner",
          "type": "address"
        },
        {
          "indexed": true,
          "internalType": "address",
          "name": "spender",
          "type": "address"
        },
        {
          "indexed": false,
          "internalType": "uint256",
          "name": "value",
          "type": "uint256"
        }
      ],
      "name": "Approval",
      "type": "event"
    },
    {
      "anonymous": false,
      "inputs": [],
      "name": "EIP712DomainChanged",
      "type": "event"
    },
    {
      "anonymous": false,
      "inputs": [
        {
          "indexed": false,
          "internalType": "address",
          "name": "account",
          "type": "address"
        }
      ],
      "name": "Paused",
      "type": "event"
    },
    {
      "anonymous": false,
      "inputs": [
        {
          "indexed": true,
          "internalType": "bytes32",
          "name": "role",
          "type": "bytes32"
        },
        {
          "indexed": true,
          "internalType": "bytes32",
          "name": "previousAdminRole",
          "type": "bytes32"
        },
        {
          "indexed": true,
          "internalType": "bytes32",
          "name": "newAdminRole",
          "type": "bytes32"
        }
      ],
      "name": "RoleAdminChanged",
      "type": "event"
    },
    {
      "anonymous": false,
      "inputs": [
        {
          "indexed": true,
          "internalType": "bytes32",
          "name": "role",
          "type": "bytes32"
        },
        {
          "indexed": true,
          "internalType": "address",
          "name": "account",
          "type": "address"
        },
        {
          "indexed": true,
          "internalType": "address",
          "name": "sender",
          "type": "address"
        }
      ],
      "name": "RoleGranted",
      "type": "event"
    },
    {
      "anonymous": false,
      "inputs": [
        {
          "indexed": true,
          "internalType": "bytes32",
          "name": "role",
          "type": "bytes32"
        },
        {
          "indexed": true,
          "internalType": "address",
          "name": "account",
          "type": "address"
        },
        {
          "indexed": true,
          "internalType": "address",
          "name": "sender",
          "type": "address"
        }
      ],
      "name": "RoleRevoked",
      "type": "event"
    },
    {
      "anonymous": false,
      "inputs": [
        {
          "indexed": true,
          "internalType": "address",
          "name": "from",
          "type": "address"
        },
        {
          "indexed": true,
          "internalType": "address",
          "name": "to",
          "type": "address"
        },
        {
          "indexed": false,
          "internalType": "uint256",
          "name": "value",
          "type": "uint256"
        }
      ],
      "name": "Transfer",
      "type": "event"
    },
    {
      "anonymous": false,
      "inputs": [
        {
          "indexed": false,
          "internalType": "address",
          "name": "account",
          "type": "address"
        }
      ],
      "name": "Unpaused",
      "type": "event"
    },
    {
      "inputs": [],
      "name": "DEFAULT_ADMIN_ROLE",
      "outputs": [
        {
          "internalType": "bytes32",
          "name": "",
          "type": "bytes32"
        }
      ],
      "stateMutability": "view",
      "type": "function"
    },
    {
      "inputs": [],
      "name": "DOMAIN_SEPARATOR",
      "outputs": [
        {
          "internalType": "bytes32",
          "name": "",
          "type": "bytes32"
        }
      ],
      "stateMutability": "view",
      "type": "function"
    },
    {
      "inputs": [],
      "name": "MAX_SUPPLY",
      "outputs": [
        {
          "internalType": "uint256",
          "name": "",
          "type": "uint256"
        }
      ],
      "stateMutability": "view",
      "type": "function"
    },
    {
      "inputs": [],
      "name": "PAUSER_ROLE",
      "outputs": [
        {
          "internalType": "bytes32",
          "name": "",
          "type": "bytes32"
        }
      ],
      "stateMutability": "view",
      "type": "function"
    },
    {
      "inputs": [
        {
          "internalType": "address",
          "name": "owner",
          "type": "address"
        },
        {
          "internalType": "address",
          "name": "spender",
          "type": "address"
        }
      ],
      "name": "allowance",
      "outputs": [
        {
          "internalType": "uint256",
          "name": "",
          "type": "uint256"
        }
      ],
      "stateMutability": "view",
      "type": "function"
    },
    {
      "inputs": [
        {
          "internalType": "address",
          "name": "spender",
          "type": "address"
        },
        {
          "internalType": "uint256",
          "name": "value",
          "type": "uint256"
        }
      ],
      "name": "approve",
      "outputs": [
        {
          "internalType": "bool",
          "name": "",
          "type": "bool"
        }
      ],
      "stateMutability": "nonpayable",
      "type": "function"
    },
    {
      "inputs": [
        {
          "internalType": "address",
          "name": "account",
          "type": "address"
        }
      ],
      "name": "balanceOf",
      "outputs": [
        {
          "internalType": "uint256",
          "name": "",
          "type": "uint256"
        }
      ],
      "stateMutability": "view",
      "type": "function"
    },
    {
      "inputs": [
        {
          "internalType": "uint256",
          "name": "value",
          "type": "uint256"
        }
      ],
      "name": "burn",
      "outputs": [],
      "stateMutability": "nonpayable",
      "type": "function"
    },
    {
      "inputs": [
        {
          "internalType": "address",
          "name": "account",
          "type": "address"
        },
        {
          "internalType": "uint256",
          "name": "value",
          "type": "uint256"
        }
      ],
      "name": "burnFrom",
      "outputs": [],
      "stateMutability": "nonpayable",
      "type": "function"
    },
    {
      "inputs": [],
      "name": "decimals",
      "outputs": [
        {
          "internalType": "uint8",
          "name": "",
          "type": "uint8"
        }
      ],
      "stateMutability": "view",
      "type": "function"
    },
    {
      "inputs": [],
      "name": "eip712Domain",
      "outputs": [
        {
          "internalType": "bytes1",
          "name": "fields",
          "type": "bytes1"
        },
        {
          "internalType": "string",
          "name": "name",
          "type": "string"
        },
        {
          "internalType": "string",
          "name": "version",
          "type": "string"
        },
        {
          "internalType": "uint256",
          "name": "chainId",
          "type": "uint256"
        },
        {
          "internalType": "address",
          "name": "verifyingContract",
          "type": "address"
        },
        {
          "internalType": "bytes32",
          "name": "salt",
          "type": "bytes32"
        },
        {
          "internalType": "uint256[]",
          "name": "extensions",
          "type": "uint256[]"
        }
      ],
      "stateMutability": "view",
      "type": "function"
    },
    {
      "inputs": [
        {
          "internalType": "bytes32",
          "name": "role",
          "type": "bytes32"
        }
      ],
      "name": "getRoleAdmin",
      "outputs": [
        {
          "internalType": "bytes32",
          "name": "",
          "type": "bytes32"
        }
      ],
      "stateMutability": "view",
      "type": "function"
    },
    {
      "inputs": [
        {
          "internalType": "bytes32",
          "name": "role",
          "type": "bytes32"
        },
        {
          "internalType": "address",
          "name": "account",
          "type": "address"
        }
      ],
      "name": "grantRole",
      "outputs": [],
      "stateMutability": "nonpayable",
      "type": "function"
    },
    {
      "inputs": [
        {
          "internalType": "bytes32",
          "name": "role",
          "type": "bytes32"
        },
        {
          "internalType": "address",
          "name": "account",
          "type": "address"
        }
      ],
      "name": "hasRole",
      "outputs": [
        {
          "internalType": "bool",
          "name": "",
          "type": "bool"
        }
      ],
      "stateMutability": "view",
      "type": "function"
    },
    {
      "inputs": [],
      "name": "name",
      "outputs": [
        {
          "internalType": "string",
          "name": "",
          "type": "string"
        }
      ],
      "stateMutability": "view",
      "type": "function"
    },
    {
      "inputs": [
        {
          "internalType": "address",
          "name": "owner",
          "type": "address"
        }
      ],
      "name": "nonces",
      "outputs": [
        {
          "internalType": "uint256",
          "name": "",
          "type": "uint256"
        }
      ],
      "stateMutability": "view",
      "type": "function"
    },
    {
      "inputs": [],
      "name": "pause",
      "outputs": [],
      "stateMutability": "nonpayable",
      "type": "function"
    },
    {
      "inputs": [],
      "name": "paused",
      "outputs": [
        {
          "internalType": "bool",
          "name": "",
          "type": "bool"
        }
      ],
      "stateMutability": "view",
      "type": "function"
    },
    {
      "inputs": [
        {
          "internalType": "address",
          "name": "owner",
          "type": "address"
        },
        {
          "internalType": "address",
          "name": "spender",
          "type": "address"
        },
        {
          "internalType": "uint256",
          "name": "value",
          "type": "uint256"
        },
        {
          "internalType": "uint256",
          "name": "deadline",
          "type": "uint256"
        },
        {
          "internalType": "uint8",
          "name": "v",
          "type": "uint8"
        },
        {
          "internalType": "bytes32",
          "name": "r",
          "type": "bytes32"
        },
        {
          "internalType": "bytes32",
          "name": "s",
          "type": "bytes32"
        }
      ],
      "name": "permit",
      "outputs": [],
      "stateMutability": "nonpayable",
      "type": "function"
    },
    {
      "inputs": [
        {
          "internalType": "bytes32",
          "name": "role",
          "type": "bytes32"
        },
        {
          "internalType": "address",
          "name": "callerConfirmation",
          "type": "address"
        }
      ],
      "name": "renounceRole",
      "outputs": [],
      "stateMutability": "nonpayable",
      "type": "function"
    },
    {
      "inputs": [
        {
          "internalType": "bytes32",
          "name": "role",
          "type": "bytes32"
        },
        {
          "internalType": "address",
          "name": "account",
          "type": "address"
        }
      ],
      "name": "revokeRole",
      "outputs": [],
      "stateMutability": "nonpayable",
      "type": "function"
    },
    {
      "inputs": [
        {
          "internalType": "bytes4",
          "name": "interfaceId",
          "type": "bytes4"
        }
      ],
      "name": "supportsInterface",
      "outputs": [
        {
          "internalType": "bool",
          "name": "",
          "type": "bool"
        }
      ],
      "stateMutability": "view",
      "type": "function"
    },
    {
      "inputs": [],
      "name": "symbol",
      "outputs": [
        {
          "internalType": "string",
          "name": "",
          "type": "string"
        }
      ],
      "stateMutability": "view",
      "type": "function"
    },
    {
      "inputs": [],
      "name": "totalSupply",
      "outputs": [
        {
          "internalType": "uint256",
          "name": "",
          "type": "uint256"
        }
      ],
      "stateMutability": "view",
      "type": "function"
    },
    {
      "inputs": [
        {
          "internalType": "address",
          "name": "to",
          "type": "address"
        },
        {
          "internalType": "uint256",
          "name": "value",
          "type": "uint256"
        }
      ],
      "name": "transfer",
      "outputs": [
        {
          "internalType": "bool",
          "name": "",
          "type": "bool"
        }
      ],
      "stateMutability": "nonpayable",
      "type": "function"
    },
    {
      "inputs": [
        {
          "internalType": "address",
          "name": "from",
          "type": "address"
        },
        {
          "internalType": "address",
          "name": "to",
          "type": "address"
        },
        {
          "internalType": "uint256",
          "name": "value",
          "type": "uint256"
        }
      ],
      "name": "transferFrom",
      "outputs": [
        {
          "internalType": "bool",
          "name": "",
          "type": "bool"
        }
      ],
      "stateMutability": "nonpayable",
      "type": "function"
    },
    {
      "inputs": [],
      "name": "unpause",
      "outputs": [],
      "stateMutability": "nonpayable",
      "type": "function"
    }
  ],
  "bytecode": "0x610160604052348015610010575f80fd5b50604051611bbd380380611bbd83398101604081905261002f916104d7565b6040518060400160405280601481526020017f456e7375726520496e737572656420546f6b656e00000000000000000000000081525080604051806040016040528060018152602001603160f81b8152506040518060400160405280601481526020017f456e7375726520496e737572656420546f6b656e0000000000000000000000008152506040518060400160405280600381526020016211525560ea1b81525081600390816100e1919061059f565b5060046100ee828261059f565b506100fe915083905060076101f6565b6101205261010d8160086101f6565b61014052815160208084019190912060e052815190820120610100524660a05261019960e05161010051604080517f8b73c3c69bb8fe3d512ecc4cf759cc79239f7b179b0ffacaa9a75d522b39400f60208201529081019290925260608201524660808201523060a08201525f9060c00160405160208183030381529060405280519060200120905090565b60805250503060c052506101ad5f83610228565b506101d87f65d7a28e3265b37a6474929f336521b332c1681b933f6cb9f3376673440d862a82610228565b506101ef826ba18f07d736b90be5500000006102d3565b50506106d5565b5f6020835110156102115761020a83610310565b9050610222565b8161021c848261059f565b5060ff90505b92915050565b5f8281526006602090815260408083206001600160a01b038516845290915281205460ff166102cc575f8381526006602090815260408083206001600160a01b03861684529091529020805460ff191660011790556102843390565b6001600160a01b0316826001600160a01b0316847f2f8788117e7eff1d82e926ec794901d17c78024a50270940304540a733656f0d60405160405180910390a4506001610222565b505f610222565b6001600160a01b0382166103015760405163ec442f0560e01b81525f60048201526024015b60405180910390fd5b61030c5f838361034d565b5050565b5f80829050601f8151111561033a578260405163305a27a960e01b81526004016102f8919061065e565b805161034582610693565b179392505050565b61035883838361035d565b505050565b610365610370565b610358838383610396565b60055460ff16156103945760405163d93c066560e01b815260040160405180910390fd5b565b6001600160a01b0383166103c0578060025f8282546103b591906106b6565b909155506104309050565b6001600160a01b0383165f90815260208190526040902054818110156104125760405163391434e360e21b81526001600160a01b038516600482015260248101829052604481018390526064016102f8565b6001600160a01b0384165f9081526020819052604090209082900390555b6001600160a01b03821661044c5760028054829003905561046a565b6001600160a01b0382165f9081526020819052604090208054820190555b816001600160a01b0316836001600160a01b03167fddf252ad1be2c89b69c2b068fc378daa952ba7f163c4a11628f55a4df523b3ef836040516104af91815260200190565b60405180910390a3505050565b80516001600160a01b03811681146104d2575f80fd5b919050565b5f80604083850312156104e8575f80fd5b6104f1836104bc565b91506104ff602084016104bc565b90509250929050565b634e487b7160e01b5f52604160045260245ffd5b600181811c9082168061053057607f821691505b60208210810361054e57634e487b7160e01b5f52602260045260245ffd5b50919050565b601f82111561035857805f5260205f20601f840160051c810160208510156105795750805b601f840160051c820191505b81811015610598575f8155600101610585565b5050505050565b81516001600160401b038111156105b8576105b8610508565b6105cc816105c6845461051c565b84610554565b602080601f8311600181146105ff575f84156105e85750858301515b5f19600386901b1c1916600185901b178555610656565b5f85815260208120601f198616915b8281101561062d5788860151825594840194600190910190840161060e565b508582101561064a57878501515f19600388901b60f8161c191681555b505060018460011b0185555b505050505050565b602081525f82518060208401528060208501604085015e5f604082850101526040601f19601f83011684010191505092915050565b8051602080830151919081101561054e575f1960209190910360031b1b16919050565b8082018082111561022257634e487b7160e01b5f52601160045260245ffd5b60805160a05160c05160e0516101005161012051610140516114976107265f395f610be301525f610bb601525f610a3101525f610a0901525f61096401525f61098e01525f6109b801526114975ff3fe608060405234801561000f575f80fd5b50600436106101a1575f3560e01c80635c975abb116100f357806395d89b4111610093578063d505accf1161006e578063d505accf1461035a578063d547741f1461036d578063dd62ed3e14610380578063e63ab1e9146103b8575f80fd5b806395d89b4114610338578063a217fddf14610340578063a9059cbb14610347575f80fd5b80637ecebe00116100ce5780637ecebe00146102ef5780638456cb591461030257806384b0196e1461030a57806391d1485414610325575f80fd5b80635c975abb146102a957806370a08231146102b457806379cc6790146102dc575f80fd5b80632f2ff15d1161015e5780633644e515116101395780633644e5151461027357806336568abe1461027b5780633f4ba83a1461028e57806342966c6814610296575f80fd5b80632f2ff15d1461023c578063313ce5671461025157806332cb6b0c14610260575f80fd5b806301ffc9a7146101a557806306fdde03146101cd578063095ea7b3146101e257806318160ddd146101f557806323b872dd14610207578063248a9ca31461021a575b5f80fd5b6101b86101b3366004611186565b6103df565b60405190151581526020015b60405180910390f35b6101d5610415565b6040516101c491906111e2565b6101b86101f036600461120f565b6104a5565b6002545b6040519081526020016101c4565b6101b8610215366004611237565b6104bc565b6101f9610228366004611270565b5f9081526006602052604090206001015490565b61024f61024a366004611287565b6104df565b005b604051601281526020016101c4565b6101f96ba18f07d736b90be55000000081565b6101f9610509565b61024f610289366004611287565b610517565b61024f61054f565b61024f6102a4366004611270565b610584565b60055460ff166101b8565b6101f96102c23660046112b1565b6001600160a01b03165f9081526020819052604090205490565b61024f6102ea36600461120f565b61058e565b6101f96102fd3660046112b1565b6105a7565b61024f6105c4565b6103126105f6565b6040516101c497969594939291906112ca565b6101b8610333366004611287565b610638565b6101d5610662565b6101f95f81565b6101b861035536600461120f565b610671565b61024f610368366004611361565b61067e565b61024f61037b366004611287565b6107b9565b6101f961038e3660046113ce565b6001600160a01b039182165f90815260016020908152604080832093909416825291909152205490565b6101f97f65d7a28e3265b37a6474929f336521b332c1681b933f6cb9f3376673440d862a81565b5f6001600160e01b03198216637965db0b60e01b148061040f57506301ffc9a760e01b6001600160e01b03198316145b92915050565b606060038054610424906113f6565b80601f0160208091040260200160405190810160405280929190818152602001828054610450906113f6565b801561049b5780601f106104725761010080835404028352916020019161049b565b820191905f5260205f20905b81548152906001019060200180831161047e57829003601f168201915b5050505050905090565b5f336104b28185856107dd565b5060019392505050565b5f336104c98582856107ea565b6104d4858585610860565b506001949350505050565b5f828152600660205260409020600101546104f9816108bd565b61050383836108c7565b50505050565b5f610512610958565b905090565b6001600160a01b03811633146105405760405163334bd91960e11b815260040160405180910390fd5b61054a8282610a81565b505050565b7f65d7a28e3265b37a6474929f336521b332c1681b933f6cb9f3376673440d862a610579816108bd565b610581610aec565b50565b6105813382610b3e565b6105998233836107ea565b6105a38282610b3e565b5050565b6001600160a01b0381165f9081526009602052604081205461040f565b7f65d7a28e3265b37a6474929f336521b332c1681b933f6cb9f3376673440d862a6105ee816108bd565b610581610b72565b5f6060805f805f6060610607610baf565b61060f610bdc565b604080515f80825260208201909252600f60f81b9b939a50919850469750309650945092509050565b5f9182526006602090815260408084206001600160a01b0393909316845291905290205460ff1690565b606060048054610424906113f6565b5f336104b2818585610860565b834211156106a75760405163313c898160e11b8152600481018590526024015b60405180910390fd5b5f7f6e71edae12b1b97f4d1f60370fef10105fa2faae0126114a169c64845d6126c98888886106f28c6001600160a01b03165f90815260096020526040902080546001810190915590565b6040805160208101969096526001600160a01b0394851690860152929091166060840152608083015260a082015260c0810186905260e0016040516020818303038152906040528051906020012090505f61074c82610c09565b90505f61075b82878787610c35565b9050896001600160a01b0316816001600160a01b0316146107a2576040516325c0072360e11b81526001600160a01b0380831660048301528b16602482015260440161069e565b6107ad8a8a8a6107dd565b50505050505050505050565b5f828152600660205260409020600101546107d3816108bd565b6105038383610a81565b61054a8383836001610c61565b6001600160a01b038381165f908152600160209081526040808320938616835292905220545f19811015610503578181101561085257604051637dc7a0d960e11b81526001600160a01b0384166004820152602481018290526044810183905260640161069e565b61050384848484035f610c61565b6001600160a01b03831661088957604051634b637e8f60e11b81525f600482015260240161069e565b6001600160a01b0382166108b25760405163ec442f0560e01b81525f600482015260240161069e565b61054a838383610d33565b6105818133610d3e565b5f6108d28383610638565b610951575f8381526006602090815260408083206001600160a01b03861684529091529020805460ff191660011790556109093390565b6001600160a01b0316826001600160a01b0316847f2f8788117e7eff1d82e926ec794901d17c78024a50270940304540a733656f0d60405160405180910390a450600161040f565b505f61040f565b5f306001600160a01b037f0000000000000000000000000000000000000000000000000000000000000000161480156109b057507f000000000000000000000000000000000000000000000000000000000000000046145b156109da57507f000000000000000000000000000000000000000000000000000000000000000090565b610512604080517f8b73c3c69bb8fe3d512ecc4cf759cc79239f7b179b0ffacaa9a75d522b39400f60208201527f0000000000000000000000000000000000000000000000000000000000000000918101919091527f000000000000000000000000000000000000000000000000000000000000000060608201524660808201523060a08201525f9060c00160405160208183030381529060405280519060200120905090565b5f610a8c8383610638565b15610951575f8381526006602090815260408083206001600160a01b0386168085529252808320805460ff1916905551339286917ff6391f5c32d9c69d2a47ea670b442974b53935d1edc7fd64eb21e047a839171b9190a450600161040f565b610af4610d77565b6005805460ff191690557f5db9ee0a495bf2e6ff9c91a7834c1ba4fdd244a5e8aa4e537bd38aeae4b073aa335b6040516001600160a01b03909116815260200160405180910390a1565b6001600160a01b038216610b6757604051634b637e8f60e11b81525f600482015260240161069e565b6105a3825f83610d33565b610b7a610d9c565b6005805460ff191660011790557f62e78cea01bee320cd4e420270b5ea74000d11b0c9f74754ebdbfc544b05a258610b213390565b60606105127f00000000000000000000000000000000000000000000000000000000000000006007610dc0565b60606105127f00000000000000000000000000000000000000000000000000000000000000006008610dc0565b5f61040f610c15610958565b8360405161190160f01b8152600281019290925260228201526042902090565b5f805f80610c4588888888610e69565b925092509250610c558282610f31565b50909695505050505050565b6001600160a01b038416610c8a5760405163e602df0560e01b81525f600482015260240161069e565b6001600160a01b038316610cb357604051634a1406b160e11b81525f600482015260240161069e565b6001600160a01b038085165f908152600160209081526040808320938716835292905220829055801561050357826001600160a01b0316846001600160a01b03167f8c5be1e5ebec7d5bd14f71427d1e84f3dd0314c0f7b2291e5b200ac8c7c3b92584604051610d2591815260200190565b60405180910390a350505050565b61054a838383610fe9565b610d488282610638565b6105a35760405163e2517d3f60e01b81526001600160a01b03821660048201526024810183905260440161069e565b60055460ff16610d9a57604051638dfc202b60e01b815260040160405180910390fd5b565b60055460ff1615610d9a5760405163d93c066560e01b815260040160405180910390fd5b606060ff8314610dda57610dd383610ffc565b905061040f565b818054610de6906113f6565b80601f0160208091040260200160405190810160405280929190818152602001828054610e12906113f6565b8015610e5d5780601f10610e3457610100808354040283529160200191610e5d565b820191905f5260205f20905b815481529060010190602001808311610e4057829003601f168201915b5050505050905061040f565b5f80807f7fffffffffffffffffffffffffffffff5d576e7357a4501ddfe92f46681b20a0841115610ea257505f91506003905082610f27565b604080515f808252602082018084528a905260ff891692820192909252606081018790526080810186905260019060a0016020604051602081039080840390855afa158015610ef3573d5f803e3d5ffd5b5050604051601f1901519150506001600160a01b038116610f1e57505f925060019150829050610f27565b92505f91508190505b9450945094915050565b5f826003811115610f4457610f4461142e565b03610f4d575050565b6001826003811115610f6157610f6161142e565b03610f7f5760405163f645eedf60e01b815260040160405180910390fd5b6002826003811115610f9357610f9361142e565b03610fb45760405163fce698f760e01b81526004810182905260240161069e565b6003826003811115610fc857610fc861142e565b036105a3576040516335e2f38360e21b81526004810182905260240161069e565b610ff1610d9c565b61054a838383611039565b60605f6110088361115f565b6040805160208082528183019092529192505f91906020820181803683375050509182525060208101929092525090565b6001600160a01b038316611063578060025f8282546110589190611442565b909155506110d39050565b6001600160a01b0383165f90815260208190526040902054818110156110b55760405163391434e360e21b81526001600160a01b0385166004820152602481018290526044810183905260640161069e565b6001600160a01b0384165f9081526020819052604090209082900390555b6001600160a01b0382166110ef5760028054829003905561110d565b6001600160a01b0382165f9081526020819052604090208054820190555b816001600160a01b0316836001600160a01b03167fddf252ad1be2c89b69c2b068fc378daa952ba7f163c4a11628f55a4df523b3ef8360405161115291815260200190565b60405180910390a3505050565b5f60ff8216601f81111561040f57604051632cd44ac360e21b815260040160405180910390fd5b5f60208284031215611196575f80fd5b81356001600160e01b0319811681146111ad575f80fd5b9392505050565b5f81518084528060208401602086015e5f602082860101526020601f19601f83011685010191505092915050565b602081525f6111ad60208301846111b4565b80356001600160a01b038116811461120a575f80fd5b919050565b5f8060408385031215611220575f80fd5b611229836111f4565b946020939093013593505050565b5f805f60608486031215611249575f80fd5b611252846111f4565b9250611260602085016111f4565b9150604084013590509250925092565b5f60208284031215611280575f80fd5b5035919050565b5f8060408385031215611298575f80fd5b823591506112a8602084016111f4565b90509250929050565b5f602082840312156112c1575f80fd5b6111ad826111f4565b60ff60f81b881681525f602060e060208401526112ea60e084018a6111b4565b83810360408501526112fc818a6111b4565b606085018990526001600160a01b038816608086015260a0850187905284810360c0860152855180825260208088019350909101905f5b8181101561134f57835183529284019291840191600101611333565b50909c9b505050505050505050505050565b5f805f805f805f60e0888a031215611377575f80fd5b611380886111f4565b965061138e602089016111f4565b95506040880135945060608801359350608088013560ff811681146113b1575f80fd5b9699959850939692959460a0840135945060c09093013592915050565b5f80604083850312156113df575f80fd5b6113e8836111f4565b91506112a8602084016111f4565b600181811c9082168061140a57607f821691505b60208210810361142857634e487b7160e01b5f52602260045260245ffd5b50919050565b634e487b7160e01b5f52602160045260245ffd5b8082018082111561040f57634e487b7160e01b5f52601160045260245ffdfea2646970667358221220276bdb285cf7d89160155b1c16c4151426182e09511b9408e2df4b0bf9d95a4464736f6c63430008190033",
  "linkReferences": {},
  "deployedLinkReferences": {}
}