{
  "_format": "hh-sol-artifact-1",
  "contractName": "MockUSDT",
  "sourceName": "contracts/MockUSDT.sol",
  "abi": [
    {
      "inputs": [],
      "stateMutability": "nonpayable",
      "type": "constructor"
    },
    {
      "inputs": [
        {
          "internalType": "address",
          "name": "spender",
          "type": "address"
        },
        {
          "internalType": "uint256",
          "name": "allowance",
          "type": "uint256"
        },
        {
          "internalType": "uint256",
          "name": "needed",
          "type": "uint256"
        }
      ],
      "name": "ERC20InsufficientAllowance",
      "type": "error"
    },
    {
      "inputs": [
        {
          "internalType": "address",
          "name": "sender",
          "type": "address"
        },
        {
          "internalType": "uint256",
          "name": "balance",
          "type": "uint256"
        },
        {
          "internalType": "uint256",
          "name": "needed",
          "type": "uint256"
        }
      ],
      "name": "ERC20InsufficientBalance",
      "type": "error"
    },
    {
      "inputs": [
        {
          "internalType": "address",
          "name": "approver",
          "type": "address"
        }
      ],
      "name": "ERC20InvalidApprover",
      "type": "error"
    },
    {
      "inputs": [
        {
          "internalType": "address",
          "name": "receiver",
          "type": "address"
        }
      ],
      "name": "ERC20InvalidReceiver",
      "type": "error"
    },
    {
      "inputs": [
        {
          "internalType": "address",
          "name": "sender",
          "type": "address"
        }
      ],
      "name": "ERC20InvalidSender",
      "type": "error"
    },
    {
      "inputs": [
        {
          "internalType": "address",
          "name": "spender",
          "type": "address"
        }
      ],
      "name": "ERC20InvalidSpender",
      "type": "error"
    },
    {
      "anonymous": false,
      "inputs": [
        {
          "indexed": true,
          "internalType": "address",
          "name": "owner",
          "type": "address"
        },
        {
          "indexed": true,
          "internalType": "address",
          "name": "spender",
          "type": "address"
        },
        {
          "indexed": false,
          "internalType": "uint256",
          "name": "value",
          "type": "uint256"
        }
      ],
      "name": "Approval",
      "type": "event"
    },
    {
      "anonymous": false,
      "inputs": [
        {
          "indexed": true,
          "internalType": "address",
          "name": "from",
          "type": "address"
        },
        {
          "indexed": true,
          "internalType": "address",
          "name": "to",
          "type": "address"
        },
        {
          "indexed": false,
          "internalType": "uint256",
          "name": "value",
          "type": "uint256"
        }
      ],
      "name": "Transfer",
      "type": "event"
    },
    {
      "inputs": [
        {
          "internalType": "address",
          "name": "owner",
          "type": "address"
        },
        {
          "internalType": "address",
          "name": "spender",
          "type": "address"
        }
      ],
      "name": "allowance",
      "outputs": [
        {
          "internalType": "uint256",
          "name": "",
          "type": "uint256"
        }
      ],
      "stateMutability": "view",
      "type": "function"
    },
    {
      "inputs": [
        {
          "internalType": "address",
          "name": "spender",
          "type": "address"
        },
        {
          "internalType": "uint256",
          "name": "value",
          "type": "uint256"
        }
      ],
      "name": "approve",
      "outputs": [
        {
          "internalType": "bool",
          "name": "",
          "type": "bool"
        }
      ],
      "stateMutability": "nonpayable",
      "type": "function"
    },
    {
      "inputs": [
        {
          "internalType": "address",
          "name": "account",
          "type": "address"
        }
      ],
      "name": "balanceOf",
      "outputs": [
        {
          "internalType": "uint256",
          "name": "",
          "type": "uint256"
        }
      ],
      "stateMutability": "view",
      "type": "function"
    },
    {
      "inputs": [],
      "name": "decimals",
      "outputs": [
        {
          "internalType": "uint8",
          "name": "",
          "type": "uint8"
        }
      ],
      "stateMutability": "view",
      "type": "function"
    },
    {
      "inputs": [],
      "name": "faucet",
      "outputs": [],
      "stateMutability": "nonpayable",
      "type": "function"
    },
    {
      "inputs": [],
      "name": "name",
      "outputs": [
        {
          "internalType": "string",
          "name": "",
          "type": "string"
        }
      ],
      "stateMutability": "view",
      "type": "function"
    },
    {
      "inputs": [],
      "name": "symbol",
      "outputs": [
        {
          "internalType": "string",
          "name": "",
          "type": "string"
        }
      ],
      "stateMutability": "view",
      "type": "function"
    },
    {
      "inputs": [],
      "name": "totalSupply",
      "outputs": [
        {
          "internalType": "uint256",
          "name": "",
          "type": "uint256"
        }
      ],
      "stateMutability": "view",
      "type": "function"
    },
    {
      "inputs": [
        {
          "internalType": "address",
          "name": "to",
          "type": "address"
        },
        {
          "internalType": "uint256",
          "name": "value",
          "type": "uint256"
        }
      ],
      "name": "transfer",
      "outputs": [
        {
          "internalType": "bool",
          "name": "",
          "type": "bool"
        }
      ],
      "stateMutability": "nonpayable",
      "type": "function"
    },
    {
      "inputs": [
        {
          "internalType": "address",
          "name": "from",
          "type": "address"
        },
        {
          "internalType": "address",
          "name": "to",
          "type": "address"
        },
        {
          "internalType": "uint256",
          "name": "value",
          "type": "uint256"
        }
      ],
      "name": "transferFrom",
      "outputs": [
        {
          "internalType": "bool",
          "name": "",
          "type": "bool"
        }
      ],
      "stateMutability": "nonpayable",
      "type": "function"
    }
  ],
  "bytecode": "0x608060405234801561000f575f80fd5b5060405180604001604052806009815260200168135bd8dac81554d11560ba1b815250604051806040016040528060048152602001631554d11560e21b815250816003908161005e9190610306565b50600461006b8282610306565b5046915050617a6981148061008257508062aa36a7145b6100f95760405162461bcd60e51b815260206004820152603860248201527f53454355524954593a204d6f636b7320616c6c6f776564206f6e20546573746e60448201527f65747320284c6f63616c2f5365706f6c696129204f4e4c59000000000000000060648201526084015b60405180910390fd5b61010a3366038d7ea4c68000610110565b506103ea565b6001600160a01b0382166101395760405163ec442f0560e01b81525f60048201526024016100f0565b6101445f8383610148565b5050565b6001600160a01b038316610172578060025f82825461016791906103c5565b909155506101e29050565b6001600160a01b0383165f90815260208190526040902054818110156101c45760405163391434e360e21b81526001600160a01b038516600482015260248101829052604481018390526064016100f0565b6001600160a01b0384165f9081526020819052604090209082900390555b6001600160a01b0382166101fe5760028054829003905561021c565b6001600160a01b0382165f9081526020819052604090208054820190555b816001600160a01b0316836001600160a01b03167fddf252ad1be2c89b69c2b068fc378daa952ba7f163c4a11628f55a4df523b3ef8360405161026191815260200190565b60405180910390a3505050565b634e487b7160e01b5f52604160045260245ffd5b600181811c9082168061029657607f821691505b6020821081036102b457634e487b7160e01b5f52602260045260245ffd5b50919050565b601f82111561030157805f5260205f20601f840160051c810160208510156102df5750805b601f840160051c820191505b818110156102fe575f81556001016102eb565b50505b505050565b81516001600160401b0381111561031f5761031f61026e565b6103338161032d8454610282565b846102ba565b602080601f831160018114610366575f841561034f5750858301515b5f19600386901b1c1916600185901b1785556103bd565b5f85815260208120601f198616915b8281101561039457888601518255948401946001909101908401610375565b50858210156103b157878501515f19600388901b60f8161c191681555b505060018460011b0185555b505050505050565b808201808211156103e457634e487b7160e01b5f52601160045260245ffd5b92915050565b610740806103f75f395ff3fe608060405234801561000f575f80fd5b506004361061009b575f3560e01c806370a082311161006357806370a082311461011457806395d89b411461013c578063a9059cbb14610144578063dd62ed3e14610157578063de5f72fd1461018f575f80fd5b806306fdde031461009f578063095ea7b3146100bd57806318160ddd146100e057806323b872dd146100f2578063313ce56714610105575b5f80fd5b6100a7610199565b6040516100b491906105b1565b60405180910390f35b6100d06100cb366004610601565b610229565b60405190151581526020016100b4565b6002545b6040519081526020016100b4565b6100d0610100366004610629565b610242565b604051600681526020016100b4565b6100e4610122366004610662565b6001600160a01b03165f9081526020819052604090205490565b6100a7610265565b6100d0610152366004610601565b610274565b6100e4610165366004610682565b6001600160a01b039182165f90815260016020908152604080832093909416825291909152205490565b610197610281565b005b6060600380546101a8906106b3565b80601f01602080910402602001604051908101604052809291908181526020018280546101d4906106b3565b801561021f5780601f106101f65761010080835404028352916020019161021f565b820191905f5260205f20905b81548152906001019060200180831161020257829003601f168201915b5050505050905090565b5f33610236818585610291565b60019150505b92915050565b5f3361024f8582856102a3565b61025a858585610324565b506001949350505050565b6060600480546101a8906106b3565b5f33610236818585610324565b61028f33633b9aca00610381565b565b61029e83838360016103b9565b505050565b6001600160a01b038381165f908152600160209081526040808320938616835292905220545f1981101561031e578181101561031057604051637dc7a0d960e11b81526001600160a01b038416600482015260248101829052604481018390526064015b60405180910390fd5b61031e84848484035f6103b9565b50505050565b6001600160a01b03831661034d57604051634b637e8f60e11b81525f6004820152602401610307565b6001600160a01b0382166103765760405163ec442f0560e01b81525f6004820152602401610307565b61029e83838361048b565b6001600160a01b0382166103aa5760405163ec442f0560e01b81525f6004820152602401610307565b6103b55f838361048b565b5050565b6001600160a01b0384166103e25760405163e602df0560e01b81525f6004820152602401610307565b6001600160a01b03831661040b57604051634a1406b160e11b81525f6004820152602401610307565b6001600160a01b038085165f908152600160209081526040808320938716835292905220829055801561031e57826001600160a01b0316846001600160a01b03167f8c5be1e5ebec7d5bd14f71427d1e84f3dd0314c0f7b2291e5b200ac8c7c3b9258460405161047d91815260200190565b60405180910390a350505050565b6001600160a01b0383166104b5578060025f8282546104aa91906106eb565b909155506105259050565b6001600160a01b0383165f90815260208190526040902054818110156105075760405163391434e360e21b81526001600160a01b03851660048201526024810182905260448101839052606401610307565b6001600160a01b0384165f9081526020819052604090209082900390555b6001600160a01b0382166105415760028054829003905561055f565b6001600160a01b0382165f9081526020819052604090208054820190555b816001600160a01b0316836001600160a01b03167fddf252ad1be2c89b69c2b068fc378daa952ba7f163c4a11628f55a4df523b3ef836040516105a491815260200190565b60405180910390a3505050565b602081525f82518060208401528060208501604085015e5f604082850101526040601f19601f83011684010191505092915050565b80356001600160a01b03811681146105fc575f80fd5b919050565b5f8060408385031215610612575f80fd5b61061b836105e6565b946020939093013593505050565b5f805f6060848603121561063b575f80fd5b610644846105e6565b9250610652602085016105e6565b9150604084013590509250925092565b5f60208284031215610672575f80fd5b61067b826105e6565b9392505050565b5f8060408385031215610693575f80fd5b61069c836105e6565b91506106aa602084016105e6565b90509250929050565b600181811c908216806106c757607f821691505b6020821081036106e557634e487b7160e01b5f52602260045260245ffd5b50919050565b8082018082111561023c57634e487b7160e01b5f52601160045260245ffdfea2646970667358221220197f4fb28157e3b15cddfaf2ce870dfa3a635f859abda6de543aa38a55cd93d564736f6c63430008190033",
  "linkReferences": {},
  "deployedLinkReferences": {}
}