{
  "_format": "hh-sol-artifact-1",
  "contractName": "MockOracle",
  "sourceName": "contracts/MockOracle.sol",
  "abi": [
    {
      "inputs": [],
      "stateMutability": "nonpayable",
      "type": "constructor"
    },
    {
      "inputs": [],
      "name": "decimals",
      "outputs": [
        {
          "internalType": "uint8",
          "name": "",
          "type": "uint8"
        }
      ],
      "stateMutability": "pure",
      "type": "function"
    },
    {
      "inputs": [],
      "name": "description",
      "outputs": [
        {
          "internalType": "string",
          "name": "",
          "type": "string"
        }
      ],
      "stateMutability": "pure",
      "type": "function"
    },
    {
      "inputs": [
        {
          "internalType": "uint80",
          "name": "",
          "type": "uint80"
        }
      ],
      "name": "getRoundData",
      "outputs": [
        {
          "internalType": "uint80",
          "name": "",
          "type": "uint80"
        },
        {
          "internalType": "int256",
          "name": "",
          "type": "int256"
        },
        {
          "internalType": "uint256",
          "name": "",
          "type": "uint256"
        },
        {
          "internalType": "uint256",
          "name": "",
          "type": "uint256"
        },
        {
          "internalType": "uint80",
          "name": "",
          "type": "uint80"
        }
      ],
      "stateMutability": "view",
      "type": "function"
    },
    {
      "inputs": [],
      "name": "latestRoundData",
      "outputs": [
        {
          "internalType": "uint80",
          "name": "",
          "type": "uint80"
        },
        {
          "internalType": "int256",
          "name": "",
          "type": "int256"
        },
        {
          "internalType": "uint256",
          "name": "",
          "type": "uint256"
        },
        {
          "internalType": "uint256",
          "name": "",
          "type": "uint256"
        },
        {
          "internalType": "uint80",
          "name": "",
          "type": "uint80"
        }
      ],
      "stateMutability": "view",
      "type": "function"
    },
    {
      "inputs": [],
      "name": "version",
      "outputs": [
        {
          "internalType": "uint256",
          "name": "",
          "type": "uint256"
        }
      ],
      "stateMutability": "pure",
      "type": "function"
    }
  ],
  "bytecode": "0x6080604052348015600e575f80fd5b5046617a69811480602157508062aa36a7145b60965760405162461bcd60e51b815260206004820152603860248201527f53454355524954593a204d6f636b7320616c6c6f776564206f6e20546573746e60448201527f65747320284c6f63616c2f5365706f6c696129204f4e4c590000000000000000606482015260840160405180910390fd5b506101b0806100a45f395ff3fe608060405234801561000f575f80fd5b5060043610610055575f3560e01c8063313ce5671461005957806354fd4d501461006d5780637284e4161461007c5780639a6fc8f5146100ad578063feaf968c14610105575b5f80fd5b604051600881526020015b60405180910390f35b60405160018152602001610064565b604080518082018252600f81526e135bd8dac8141c9a58d94811995959608a1b602082015290516100649190610115565b6100ce6100bb36600461014a565b50600190642e90edd00090429081908490565b6040805169ffffffffffffffffffff968716815260208101959095528401929092526060830152909116608082015260a001610064565b6001642e90edd0004280836100ce565b602081525f82518060208401528060208501604085015e5f604082850101526040601f19601f83011684010191505092915050565b5f6020828403121561015a575f80fd5b813569ffffffffffffffffffff81168114610173575f80fd5b939250505056fea26469706673582212207d7611c04149e931d72b5cf18be2826197a02fb2f15298030496571e8253960e64736f6c63430008190033",
  "linkReferences": {},
  "deployedLinkReferences": {}
}