{
  "_format": "hh-sol-artifact-1",
  "contractName": "MockOracle",
  "sourceName": "contracts/MockOracle.sol",
  "abi": [
    {
      "inputs": [],
      "stateMutability": "nonpayable",
      "type": "constructor"
    },
    {
      "inputs": [],
      "name": "decimals",
      "outputs": [
        {
          "internalType": "uint8",
          "name": "",
          "type": "uint8"
        }
      ],
      "stateMutability": "pure",
      "type": "function"
    },
    {
      "inputs": [],
      "name": "description",
      "outputs": [
        {
          "internalType": "string",
          "name": "",
          "type": "string"
        }
      ],
      "stateMutability": "pure",
      "type": "function"
    },
    {
      "inputs": [
        {
          "internalType": "uint80",
          "name": "",
          "type": "uint80"
        }
      ],
      "name": "getRoundData",
      "outputs": [
        {
          "internalType": "uint80",
          "name": "",
          "type": "uint80"
        },
        {
          "internalType": "int256",
          "name": "",
          "type": "int256"
        },
        {
          "internalType": "uint256",
          "name": "",
          "type": "uint256"
        },
        {
          "internalType": "uint256",
          "name": "",
          "type": "uint256"
        },
        {
          "internalType": "uint80",
          "name": "",
          "type": "uint80"
        }
      ],
      "stateMutability": "view",
      "type": "function"
    },
    {
      "inputs": [],
      "name": "latestRoundData",
      "outputs": [
        {
          "internalType": "uint80",
          "name": "",
          "type": "uint80"
        },
        {
          "internalType": "int256",
          "name": "",
          "type": "int256"
        },
        {
          "internalType": "uint256",
          "name": "",
          "type": "uint256"
        },
        {
          "internalType": "uint256",
          "name": "",
          "type": "uint256"
        },
        {
          "internalType": "uint80",
          "name": "",
          "type": "uint80"
        }
      ],
      "stateMutability": "view",
      "type": "function"
    },
    {
      "inputs": [],
      "name": "version",
      "outputs": [
        {
          "internalType": "uint256",
          "name": "",
          "type": "uint256"
        }
      ],
      "stateMutability": "pure",
      "type": "function"
    }
  ],
  "bytecode": "0x608060405234801561001057600080fd5b5046617a6981148061002457508062aa36a7145b61009a5760405162461bcd60e51b815260206004820152603860248201527f53454355524954593a204d6f636b7320616c6c6f776564206f6e20546573746e60448201527f65747320284c6f63616c2f5365706f6c696129204f4e4c590000000000000000606482015260840160405180910390fd5b506101cf806100aa6000396000f3fe608060405234801561001057600080fd5b50600436106100575760003560e01c8063313ce5671461005c57806354fd4d50146100705780637284e4161461007f5780639a6fc8f5146100b0578063feaf968c14610108575b600080fd5b604051600881526020015b60405180910390f35b60405160018152602001610067565b604080518082018252600f81526e135bd8dac8141c9a58d94811995959608a1b602082015290516100679190610118565b6100d16100be366004610166565b50600190642e90edd00090429081908490565b6040805169ffffffffffffffffffff968716815260208101959095528401929092526060830152909116608082015260a001610067565b6001642e90edd0004280836100d1565b600060208083528351808285015260005b8181101561014557858101830151858201604001528201610129565b506000604082860101526040601f19601f8301168501019250505092915050565b60006020828403121561017857600080fd5b813569ffffffffffffffffffff8116811461019257600080fd5b939250505056fea26469706673582212209d4bec75c85f631f3271c00077d1dad077075ea4286c16a84af692fdc347372164736f6c63430008140033",
  "linkReferences": {},
  "deployedLinkReferences": {}
}