{
  "_format": "hh-sol-artifact-1",
  "contractName": "EchidnaCrowdsaleTest",
  "sourceName": "contracts/EchidnaCrowdsaleTest.sol",
  "abi": [
    {
      "inputs": [],
      "stateMutability": "payable",
      "type": "constructor"
    },
    {
      "inputs": [],
      "name": "echidna_hardcap_not_exceeded",
      "outputs": [
        {
          "internalType": "bool",
          "name": "",
          "type": "bool"
        }
      ],
      "stateMutability": "view",
      "type": "function"
    },
    {
      "inputs": [],
      "name": "echidna_tokens_sold_valid",
      "outputs": [
        {
          "internalType": "bool",
          "name": "",
          "type": "bool"
        }
      ],
      "stateMutability": "view",
      "type": "function"
    },
    {
      "inputs": [
        {
          "internalType": "uint256",
          "name": "amount",
          "type": "uint256"
        }
      ],
      "name": "fuzzBuy",
      "outputs": [],
      "stateMutability": "payable",
      "type": "function"
    },
    {
      "inputs": [],
      "name": "sale",
      "outputs": [
        {
          "internalType": "contract EITCrowdsale",
          "name": "",
          "type": "address"
        }
      ],
      "stateMutability": "view",
      "type": "function"
    }
  ],
  "bytecode": "0x6080604052600160026003600460405161001890610082565b6001600160a01b039485168152928416602084015290831660408301529091166060820152608001604051809103906000f08015801561005c573d6000803e3d6000fd5b50600080546001600160a01b0319166001600160a01b039290921691909117905561008f565b61300c806104ce83390190565b6104308061009e6000396000f3fe60806040526004361061003f5760003560e01c80632a5960f1146100445780632d8e31321461005957806357b8633d146100835780636ad1fe0214610098575b600080fd5b610057610052366004610376565b6100d0565b005b34801561006557600080fd5b5061006e61014c565b60405190151581526020015b60405180910390f35b34801561008f57600080fd5b5061006e610240565b3480156100a457600080fd5b506000546100b8906001600160a01b031681565b6040516001600160a01b03909116815260200161007a565b6100e2670de0b6b3a76400008261038f565b9050806000036100ef5750565b600080546040516331ad36ab60e01b815260048101929092526001600160a01b0316906331ad36ab9083906024016000604051808303818588803b15801561013657600080fd5b505af193505050508015610148575060015b5050565b60008060009054906101000a90046001600160a01b03166001600160a01b0316633a03171c6040518163ffffffff1660e01b8152600401602060405180830381865afa1580156101a0573d6000803e3d6000fd5b505050506040513d601f19601f820116820180604052508101906101c491906103b1565b60008054906101000a90046001600160a01b03166001600160a01b0316631252af756040518163ffffffff1660e01b8152600401602060405180830381865afa158015610215573d6000803e3d6000fd5b505050506040513d601f19601f8201168201806040525081019061023991906103b1565b1115905090565b60008060009054906101000a90046001600160a01b03166001600160a01b031663fc0c546a6040518163ffffffff1660e01b8152600401602060405180830381865afa158015610294573d6000803e3d6000fd5b505050506040513d601f19601f820116820180604052508101906102b891906103ca565b6000546040516370a0823160e01b81526001600160a01b0391821660048201529116906370a0823190602401602060405180830381865afa158015610301573d6000803e3d6000fd5b505050506040513d601f19601f8201168201806040525081019061032591906103b1565b60008054906101000a90046001600160a01b03166001600160a01b03166363b201176040518163ffffffff1660e01b8152600401602060405180830381865afa158015610215573d6000803e3d6000fd5b60006020828403121561038857600080fd5b5035919050565b6000826103ac57634e487b7160e01b600052601260045260246000fd5b500690565b6000602082840312156103c357600080fd5b5051919050565b6000602082840312156103dc57600080fd5b81516001600160a01b03811681146103f357600080fd5b939250505056fea2646970667358221220b9f844a5d2d15713091e7569fc26eaa5d84e90ad047f2f1a5ab983f6817d2a9364736f6c6343000814003360e06040523480156200001157600080fd5b506040516200300c3803806200300c8339810160408190526200003491620001bd565b600180556001600160a01b0384166200004c57600080fd5b6001600160a01b0383166200006057600080fd5b6001600160a01b0382166200007457600080fd5b6001600160a01b0381166200008857600080fd5b6001600160a01b0384811660805283811660a052821660c0526002805461ff0019169055620000b9600082620000f1565b50620000e67f97667070c54ef182b0f5858b034beac1b6f3089aa2d3188bb1e8929f4fa9b92982620000f1565b50505050506200021a565b6000828152602081815260408083206001600160a01b038516845290915281205460ff1662000196576000838152602081815260408083206001600160a01b03861684529091529020805460ff191660011790556200014d3390565b6001600160a01b0316826001600160a01b0316847f2f8788117e7eff1d82e926ec794901d17c78024a50270940304540a733656f0d60405160405180910390a45060016200019a565b5060005b92915050565b80516001600160a01b0381168114620001b857600080fd5b919050565b60008060008060808587031215620001d457600080fd5b620001df85620001a0565b9350620001ef60208601620001a0565b9250620001ff60408601620001a0565b91506200020f60608601620001a0565b905092959194509250565b60805160a05160c051612d8a620002826000396000818161069a0152818161190801526126b901526000818161073401528181611c570152611de3015260008181610a5401528181610c8a01528181611836015281816118e601526121690152612d8a6000f3fe6080604052600436106102e85760003560e01c80636620cbe211610190578063b652dc2f116100dc578063d5f8cf0d11610095578063e746a1d21161006f578063e746a1d2146109d3578063f5b541a6146109f3578063f96f5b3514610a15578063fc0c546a14610a4257610330565b8063d5f8cf0d14610971578063db5e006314610991578063e1c1dd6f146109a657610330565b8063b652dc2f14610895578063c6bc88be146108b4578063c6d3107f146108e4578063c8bdbfb6146108fa578063d21a74ff1461090f578063d547741f1461095157610330565b80638c52dc41116101495780639b9ecc99116101235780639b9ecc991461082e578063a217fddf1461084b578063a52dba3c14610860578063b5545a3c1461088057610330565b80638c52dc41146107db57806391d14854146107f057806394d95f8f1461081057610330565b80636620cbe2146106ea5780637dc0d1d0146107225780637f649783146107565780638456cb5914610776578063865eb74a1461078b5780638b9a71cf146107bb57610330565b80633af32abf1161024f578063599d56e0116102085780635fc2d283116101e25780635fc2d2831461063e578063603f4d521461065c57806361d027b31461068857806363b20117146106d457610330565b8063599d56e0146105f05780635c79e717146106065780635c975abb1461062657610330565b80633af32abf146105395780633f4ba83a1461056957806340650c911461057e57806348eb38fb1461059b578063548db174146105bb57806358a687ec146105db57610330565b80632f2ff15d116102a15780632f2ff15d1461048757806330e9d37b146104a957806331ad36ab146104c757806332855ed2146104da57806336568abe146104fa5780633a03171c1461051a57610330565b806301ffc9a71461036e578063055ad42e146103a35780631252af75146103c7578063248a9ca3146103dd57806325915ff21461040d5780632e37eef61461044557610330565b366103305760405162461bcd60e51b815260206004820152601360248201527255736520627579576974684e6174697665282960681b60448201526064015b60405180910390fd5b60405162461bcd60e51b815260206004820152601360248201527255736520627579576974684e6174697665282960681b6044820152606401610327565b34801561037a57600080fd5b5061038e61038936600461283a565b610a76565b60405190151581526020015b60405180910390f35b3480156103af57600080fd5b506103b960045481565b60405190815260200161039a565b3480156103d357600080fd5b506103b960055481565b3480156103e957600080fd5b506103b96103f836600461286b565b60009081526020819052604090206001015490565b34801561041957600080fd5b506103b96104283660046128a0565b600d60209081526000928352604080842090915290825290205481565b34801561045157600080fd5b5061046561046036600461286b565b610aad565b604080519485526020850193909352918301521515606082015260800161039a565b34801561049357600080fd5b506104a76104a23660046128d3565b610aea565b005b3480156104b557600080fd5b506103b969d3c21bcecceda100000081565b6104a76104d536600461286b565b610b15565b3480156104e657600080fd5b506104a76104f536600461286b565b610c18565b34801561050657600080fd5b506104a76105153660046128d3565b610cfa565b34801561052657600080fd5b506103b96a52b7d2dcc80cd2e400000081565b34801561054557600080fd5b5061038e6105543660046128f6565b60086020526000908152604090205460ff1681565b34801561057557600080fd5b506104a7610d32565b34801561058a57600080fd5b506103b968056bc75e2d6310000081565b3480156105a757600080fd5b506104a76105b636600461286b565b610d45565b3480156105c757600080fd5b506104a76105d636600461295d565b610dd4565b3480156105e757600080fd5b506104a7610eda565b3480156105fc57600080fd5b506103b960065481565b34801561061257600080fd5b506104a761062136600461299f565b610f48565b34801561063257600080fd5b5060025460ff1661038e565b34801561064a57600080fd5b506103b969043c33c193756480000081565b34801561066857600080fd5b5060025461067b90610100900460ff1681565b60405161039a9190612a21565b34801561069457600080fd5b506106bc7f000000000000000000000000000000000000000000000000000000000000000081565b6040516001600160a01b03909116815260200161039a565b3480156106e057600080fd5b506103b960075481565b3480156106f657600080fd5b506103b96107053660046128d3565b600a60209081526000928352604080842090915290825290205481565b34801561072e57600080fd5b506106bc7f000000000000000000000000000000000000000000000000000000000000000081565b34801561076257600080fd5b506104a761077136600461295d565b611231565b34801561078257600080fd5b506104a7611337565b34801561079757600080fd5b5061038e6107a63660046128f6565b600e6020526000908152604090205460ff1681565b3480156107c757600080fd5b506104a76107d6366004612a49565b61134a565b3480156107e757600080fd5b506104a76114ad565b3480156107fc57600080fd5b5061038e61080b3660046128d3565b6114e3565b34801561081c57600080fd5b506103b9690a968163f0a57b40000081565b34801561083a57600080fd5b506103b9683635c9adc5dea0000081565b34801561085757600080fd5b506103b9600081565b34801561086c57600080fd5b506104a761087b366004612a8b565b61150c565b34801561088c57600080fd5b506104a76115d5565b3480156108a157600080fd5b506103b96a0c685fa11e01ec6f00000081565b3480156108c057600080fd5b5061038e6108cf36600461286b565b600b6020526000908152604090205460ff1681565b3480156108f057600080fd5b506103b961038481565b34801561090657600080fd5b506104a76117c6565b34801561091b57600080fd5b5061093f61092a3660046128f6565b600f6020526000908152604090205460ff1681565b60405160ff909116815260200161039a565b34801561095d57600080fd5b506104a761096c3660046128d3565b61192d565b34801561097d57600080fd5b506104a761098c366004612ac2565b611952565b34801561099d57600080fd5b506003546103b9565b3480156109b257600080fd5b506103b96109c13660046128f6565b60096020526000908152604090205481565b3480156109df57600080fd5b506106bc6109ee36600461286b565b611b39565b3480156109ff57600080fd5b506103b9600080516020612d3583398151915281565b348015610a2157600080fd5b506103b9610a303660046128f6565b600c6020526000908152604090205481565b348015610a4e57600080fd5b506106bc7f000000000000000000000000000000000000000000000000000000000000000081565b60006001600160e01b03198216637965db0b60e01b1480610aa757506301ffc9a760e01b6001600160e01b03198316145b92915050565b60038181548110610abd57600080fd5b60009182526020909120600490910201805460018201546002830154600390930154919350919060ff1684565b600082815260208190526040902060010154610b0581611b63565b610b0f8383611b6d565b50505050565b610b1d611bff565b610b25611c29565b3360009081526008602052604090205460ff16610b765760405162461bcd60e51b815260206004820152600f60248201526e139bdd081dda1a5d195b1a5cdd1959608a1b6044820152606401610327565b6000600254610100900460ff166003811115610b9457610b94612a0b565b14610b9e57600080fd5b60035460045410610bae57600080fd5b6000610bb8611c4d565b90506000670de0b6b3a7640000610bcf8334612afa565b610bd99190612b11565b9050610be58184611ebf565b336000908152600c602052604081208054349290610c04908490612b33565b90915550506001805550610c159050565b50565b610c20611bff565b610c28611c29565b6000818152600b602052604090205460ff16610c4357600080fd5b6000818152600a6020908152604080832033845290915290205480610c6757600080fd5b6000828152600a60209081526040808320338085529252822091909155610cb9907f00000000000000000000000000000000000000000000000000000000000000006001600160a01b031690836123c8565b604051818152829033907f9923b4306c6c030f2bdfbf156517d5983b87e15b96176da122cd4f2effa4ba7b9060200160405180910390a350610c1560018055565b6001600160a01b0381163314610d235760405163334bd91960e11b815260040160405180910390fd5b610d2d8282612427565b505050565b6000610d3d81611b63565b610c15612492565b600080516020612d35833981519152610d5d81611b63565b60038281548110610d7057610d70612b46565b600091825260209091206003600490920201015460ff16610d9057600080fd5b6000828152600b6020526040808220805460ff191660011790555183917fd5f2e48a1b20537d5d9999bf63ead088cc70afd46ef059d6982ce1f68ac73dca91a25050565b600080516020612d35833981519152610dec81611b63565b8115801590610dfd57506101f48211155b610e0657600080fd5b60005b82811015610b0f57600060086000868685818110610e2957610e29612b46565b9050602002016020810190610e3e91906128f6565b6001600160a01b031681526020810191909152604001600020805460ff1916911515919091179055838382818110610e7857610e78612b46565b9050602002016020810190610e8d91906128f6565b6001600160a01b03167ff93f9a76c1bf3444d22400a00cb9fe990e6abe9dbb333fda48859cfee864543d6000604051610eca911515815260200190565b60405180910390a2600101610e09565b6000610ee581611b63565b6003600254610100900460ff166003811115610f0357610f03612a0b565b03610f0d57600080fd5b6002805461ff0019166102001790556040517ff33fd39ddc653e5f9033d50b852a4e85dc19ab2e3553927ce281aa99f9718c5d90600090a150565b6000610f5381611b63565b6000600254610100900460ff166003811115610f7157610f71612a0b565b14610fb05760405162461bcd60e51b815260206004820152600f60248201526e53616c65206e6f742061637469766560881b6044820152606401610327565b838214610ff75760405162461bcd60e51b8152602060048201526015602482015274082e4e4c2f240d8cadccee8d040dad2e6dac2e8c6d605b1b6044820152606401610327565b836110335760405162461bcd60e51b815260206004820152600c60248201526b456d7074792061727261797360a01b6044820152606401610327565b60005b8481101561122957600086868381811061105257611052612b46565b905060200201351161109d5760405162461bcd60e51b8152602060048201526014602482015273125b9d985b1a59081c1a185cd9481d185c99d95d60621b6044820152606401610327565b60008484838181106110b1576110b1612b46565b90506020020135116110fb5760405162461bcd60e51b8152602060048201526013602482015272496e76616c696420706861736520707269636560681b6044820152606401610327565b6003604051806080016040528088888581811061111a5761111a612b46565b90506020020135815260200186868581811061113857611138612b46565b602090810292909201358352506000828201819052604092830181905284546001808201875595825290829020845160049092020190815590830151818501559082015160028201556060909101516003918201805460ff1916911515919091179055546111a69190612b5c565b7e3a614d69232d07ce423df77598aa26a786bec214178a4f4c288fb03e930fba8787848181106111d8576111d8612b46565b905060200201358686858181106111f1576111f1612b46565b9050602002013560405161120f929190918252602082015260400190565b60405180910390a28061122181612b6f565b915050611036565b505050505050565b600080516020612d3583398151915261124981611b63565b811580159061125a57506101f48211155b61126357600080fd5b60005b82811015610b0f5760016008600086868581811061128657611286612b46565b905060200201602081019061129b91906128f6565b6001600160a01b031681526020810191909152604001600020805460ff19169115159190911790558383828181106112d5576112d5612b46565b90506020020160208101906112ea91906128f6565b6001600160a01b03167ff93f9a76c1bf3444d22400a00cb9fe990e6abe9dbb333fda48859cfee864543d6001604051611327911515815260200190565b60405180910390a2600101611266565b600061134281611b63565b610c156124e4565b611352611bff565b61135a611c29565b3360009081526008602052604090205460ff166113ab5760405162461bcd60e51b815260206004820152600f60248201526e139bdd081dda1a5d195b1a5cdd1959608a1b6044820152606401610327565b6001600160a01b0383166000908152600e602052604090205460ff166113d057600080fd5b6000600254610100900460ff1660038111156113ee576113ee612a0b565b146113f857600080fd5b6003546004541061140857600080fd5b61141d6001600160a01b038416333085612521565b6001600160a01b0383166000908152600f602052604081205460ff1690611445826012612b88565b61145090600a612c85565b61145a9085612afa565b336000908152600d602090815260408083206001600160a01b038a168452909152812080549293508692909190611492908490612b33565b909155506114a290508184611ebf565b5050610d2d60018055565b60006114b881611b63565b6a0c685fa11e01ec6f000000600554106114d157600080fd5b506002805461ff001916610300179055565b6000918252602082815260408084206001600160a01b0393909316845291905290205460ff1690565b600061151781611b63565b6001600160a01b0383166000908152600e602052604090205460ff161561153d57600080fd5b60128260ff16111561154e57600080fd5b506001600160a01b03919091166000818152600e602090815260408083208054600160ff199182168117909255600f909352908320805490921660ff90951694909417905560108054938401815590527f1b6847dc741a1b0cd08d278845f9d819d87b734759afb55fe2de5cb82a9ae67290910180546001600160a01b0319169091179055565b6115dd611bff565b6003600254610100900460ff1660038111156115fb576115fb612a0b565b1461160557600080fd5b336000908152600c602052604090205480156116b457336000818152600c60205260408082208290555190919083908381818185875af1925050503d806000811461166c576040519150601f19603f3d011682016040523d82523d6000602084013e611671565b606091505b50509050806116b25760405162461bcd60e51b815260206004820152600d60248201526c1499599d5b990819985a5b1959609a1b6044820152606401610327565b505b60105460005b8181101561174a576000601082815481106116d7576116d7612b46565b6000918252602080832090910154338352600d825260408084206001600160a01b0390921680855291909252912054909150801561174057336000818152600d602090815260408083206001600160a01b038716808552925282209190915561174091836123c8565b50506001016116ba565b50336000908152600960205260408120819055600354905b8181101561178c576000818152600a60209081526040808320338452909152812055600101611762565b5060405133907fe85b62fe517bf695ce7fed961f0244f59be2c256525a5a904fb90c32f42cfd3e90600090a25050506117c460018055565b565b60006117d181611b63565b60028054610100900460ff1660038111156117ee576117ee612a0b565b148061181557506003600254610100900460ff16600381111561181357611813612a0b565b145b61181e57600080fd5b6040516370a0823160e01b81523060048201526000907f00000000000000000000000000000000000000000000000000000000000000006001600160a01b0316906370a0823190602401602060405180830381865afa158015611885573d6000803e3d6000fd5b505050506040513d601f19601f820116820180604052508101906118a99190612c94565b9050600060075482116118bd5760006118ca565b6007546118ca9083612b5c565b9050600081116118d957600080fd5b610d2d6001600160a01b037f0000000000000000000000000000000000000000000000000000000000000000167f0000000000000000000000000000000000000000000000000000000000000000836123c8565b60008281526020819052604090206001015461194881611b63565b610b0f8383612427565b600061195d81611b63565b6000600254610100900460ff16600381111561197b5761197b612a0b565b1461198557600080fd5b600083116119cc5760405162461bcd60e51b8152602060048201526014602482015273125b9d985b1a59081c1a185cd9481d185c99d95d60621b6044820152606401610327565b60008211611a125760405162461bcd60e51b8152602060048201526013602482015272496e76616c696420706861736520707269636560681b6044820152606401610327565b604080516080810182528481526020810184815260009282018381526060830184815260038054600180820183559682905294517fc2575a0e9e593c00f959f8c92f12db2869c3395a3b0502d05e2516446f71f85b60049096029586015592517fc2575a0e9e593c00f959f8c92f12db2869c3395a3b0502d05e2516446f71f85c85015590517fc2575a0e9e593c00f959f8c92f12db2869c3395a3b0502d05e2516446f71f85d840155517fc2575a0e9e593c00f959f8c92f12db2869c3395a3b0502d05e2516446f71f85e909201805460ff19169215159290921790915554611afc9190612b5c565b60408051858152602081018590527e3a614d69232d07ce423df77598aa26a786bec214178a4f4c288fb03e930fba910160405180910390a2505050565b60108181548110611b4957600080fd5b6000918252602090912001546001600160a01b0316905081565b610c15813361255a565b6000611b7983836114e3565b611bf7576000838152602081815260408083206001600160a01b03861684529091529020805460ff19166001179055611baf3390565b6001600160a01b0316826001600160a01b0316847f2f8788117e7eff1d82e926ec794901d17c78024a50270940304540a733656f0d60405160405180910390a4506001610aa7565b506000610aa7565b600260015403611c2257604051633ee5aeb560e01b815260040160405180910390fd5b6002600155565b60025460ff16156117c45760405163d93c066560e01b815260040160405180910390fd5b60008060008060007f00000000000000000000000000000000000000000000000000000000000000006001600160a01b031663feaf968c6040518163ffffffff1660e01b815260040160a060405180830381865afa158015611cb3573d6000803e3d6000fd5b505050506040513d601f19601f82011682018060405250810190611cd79190612cc7565b94509450509350935060008313611d275760405162461bcd60e51b8152602060048201526014602482015273496e76616c6964206f7261636c6520707269636560601b6044820152606401610327565b610384611d348342612b5c565b1115611d775760405162461bcd60e51b81526020600482015260126024820152714f7261636c65207072696365207374616c6560701b6044820152606401610327565b8369ffffffffffffffffffff168169ffffffffffffffffffff161015611ddf5760405162461bcd60e51b815260206004820152601760248201527f496e636f6d706c657465206f7261636c6520726f756e640000000000000000006044820152606401610327565b60007f00000000000000000000000000000000000000000000000000000000000000006001600160a01b031663313ce5676040518163ffffffff1660e01b8152600401602060405180830381865afa158015611e3f573d6000803e3d6000fd5b505050506040513d601f19601f82011682018060405250810190611e639190612d17565b90506000611e72826012612b88565b611e7d90600a612c85565b611e879086612afa565b9050683635c9adc5dea000008110158015611eac575069043c33c19375648000008111155b611eb557600080fd5b9695505050505050565b60008211611eff5760405162461bcd60e51b815260206004820152600d60248201526c5a65726f20707572636861736560981b6044820152606401610327565b68056bc75e2d63100000821015611f585760405162461bcd60e51b815260206004820152601a60248201527f42656c6f77206d696e696d756d20636f6e747269627574696f6e0000000000006044820152606401610327565b33600090815260096020526040902054690a968163f0a57b40000090611f7f908490612b33565b1115611fc15760405162461bcd60e51b8152602060048201526011602482015270155cd95c8818d85c08195e18d959591959607a1b6044820152606401610327565b6a52b7d2dcc80cd2e400000082600554611fdb9190612b33565b111561201d5760405162461bcd60e51b815260206004820152601160248201527012185c990818d85c08195e18d959591959607a1b6044820152606401610327565b6000600454905060006003828154811061203957612039612b46565b60009182526020909120600490910201600381015490915060ff16156120925760405162461bcd60e51b815260206004820152600e60248201526d506861736520636f6d706c65746560901b6044820152606401610327565b805460028201546120a4908690612b33565b11156120e75760405162461bcd60e51b8152602060048201526012602482015271141a185cd94818d85c08195e18d95959195960721b6044820152606401610327565b600181015460009061210186670de0b6b3a7640000612afa565b61210b9190612b11565b9050838110156121515760405162461bcd60e51b815260206004820152601160248201527014db1a5c1c1859d948195e18d959591959607a1b6044820152606401610327565b6040516370a0823160e01b81523060048201526000907f00000000000000000000000000000000000000000000000000000000000000006001600160a01b0316906370a0823190602401602060405180830381865afa1580156121b8573d6000803e3d6000fd5b505050506040513d601f19601f820116820180604052508101906121dc9190612c94565b905081600754826121ed9190612b5c565b101561223b5760405162461bcd60e51b815260206004820152601c60248201527f496e73756666696369656e7420746f6b656e20696e76656e746f7279000000006044820152606401610327565b336000908152600960205260408120805488929061225a908490612b33565b92505081905550858360020160008282546122759190612b33565b92505081905550856005600082825461228e9190612b33565b90915550506000848152600a60209081526040808320338452909152812080548492906122bc908490612b33565b9250508190555081600760008282546122d59190612b33565b90915550506040805187815260208101849052859133917f0d1a0d5e3d583a0e92588799dd06e50fd78c07daf05f0cc06d7b848b1ca445f1910160405180910390a382546002840154106123c05760038301805460ff1916600117905560405184907fd4259e19938b793359dfc6c726df41a4cce156deffd8c4a4ed4a681a6167077490600090a26a0c685fa11e01ec6f0000006005541015801561239557506000600254610100900460ff16600381111561239357612393612a0b565b145b156123aa576002805461ff0019166101001790555b600480549060006123ba83612b6f565b91905055505b611229612597565b6040516001600160a01b03838116602483015260448201839052610d2d91859182169063a9059cbb906064015b604051602081830303815290604052915060e01b6020820180516001600160e01b038381831617835250505050612623565b600061243383836114e3565b15611bf7576000838152602081815260408083206001600160a01b0386168085529252808320805460ff1916905551339286917ff6391f5c32d9c69d2a47ea670b442974b53935d1edc7fd64eb21e047a839171b9190a4506001610aa7565b61249a612694565b6002805460ff191690557f5db9ee0a495bf2e6ff9c91a7834c1ba4fdd244a5e8aa4e537bd38aeae4b073aa335b6040516001600160a01b03909116815260200160405180910390a1565b6124ec611c29565b6002805460ff191660011790557f62e78cea01bee320cd4e420270b5ea74000d11b0c9f74754ebdbfc544b05a2586124c73390565b6040516001600160a01b038481166024830152838116604483015260648201839052610b0f9186918216906323b872dd906084016123f5565b61256482826114e3565b6125935760405163e2517d3f60e01b81526001600160a01b038216600482015260248101839052604401610327565b5050565b69d3c21bcecceda10000006006546125af9190612b33565b600554106117c45769d3c21bcecceda1000000600660008282546125d39190612b33565b909155506125e190506126b7565b60405169d3c21bcecceda100000081527f952b264c8e0a06cddb4bbaa6d6af1d565145329fd95bbe72cb2b53942b2dc9669060200160405180910390a1612597565b600080602060008451602086016000885af180612646576040513d6000823e3d81fd5b50506000513d9150811561265e57806001141561266b565b6001600160a01b0384163b155b15610b0f57604051635274afe760e01b81526001600160a01b0385166004820152602401610327565b60025460ff166117c457604051638dfc202b60e01b815260040160405180910390fd5b7f000000000000000000000000000000000000000000000000000000000000000047801561277a576000826001600160a01b03168260405160006040518083038185875af1925050503d806000811461272c576040519150601f19603f3d011682016040523d82523d6000602084013e612731565b606091505b50509050806127785760405162461bcd60e51b8152602060048201526013602482015272115512081d1c985b9cd9995c8819985a5b1959606a1b6044820152606401610327565b505b60105460005b81811015610b0f5760006010828154811061279d5761279d612b46565b60009182526020822001546040516370a0823160e01b81523060048201526001600160a01b03909116925082906370a0823190602401602060405180830381865afa1580156127f0573d6000803e3d6000fd5b505050506040513d601f19601f820116820180604052508101906128149190612c94565b90508015612830576128306001600160a01b03831687836123c8565b5050600101612780565b60006020828403121561284c57600080fd5b81356001600160e01b03198116811461286457600080fd5b9392505050565b60006020828403121561287d57600080fd5b5035919050565b80356001600160a01b038116811461289b57600080fd5b919050565b600080604083850312156128b357600080fd5b6128bc83612884565b91506128ca60208401612884565b90509250929050565b600080604083850312156128e657600080fd5b823591506128ca60208401612884565b60006020828403121561290857600080fd5b61286482612884565b60008083601f84011261292357600080fd5b50813567ffffffffffffffff81111561293b57600080fd5b6020830191508360208260051b850101111561295657600080fd5b9250929050565b6000806020838503121561297057600080fd5b823567ffffffffffffffff81111561298757600080fd5b61299385828601612911565b90969095509350505050565b600080600080604085870312156129b557600080fd5b843567ffffffffffffffff808211156129cd57600080fd5b6129d988838901612911565b909650945060208701359150808211156129f257600080fd5b506129ff87828801612911565b95989497509550505050565b634e487b7160e01b600052602160045260246000fd5b6020810160048310612a4357634e487b7160e01b600052602160045260246000fd5b91905290565b600080600060608486031215612a5e57600080fd5b612a6784612884565b95602085013595506040909401359392505050565b60ff81168114610c1557600080fd5b60008060408385031215612a9e57600080fd5b612aa783612884565b91506020830135612ab781612a7c565b809150509250929050565b60008060408385031215612ad557600080fd5b50508035926020909101359150565b634e487b7160e01b600052601160045260246000fd5b8082028115828204841417610aa757610aa7612ae4565b600082612b2e57634e487b7160e01b600052601260045260246000fd5b500490565b80820180821115610aa757610aa7612ae4565b634e487b7160e01b600052603260045260246000fd5b81810381811115610aa757610aa7612ae4565b600060018201612b8157612b81612ae4565b5060010190565b60ff8281168282160390811115610aa757610aa7612ae4565b600181815b80851115612bdc578160001904821115612bc257612bc2612ae4565b80851615612bcf57918102915b93841c9390800290612ba6565b509250929050565b600082612bf357506001610aa7565b81612c0057506000610aa7565b8160018114612c165760028114612c2057612c3c565b6001915050610aa7565b60ff841115612c3157612c31612ae4565b50506001821b610aa7565b5060208310610133831016604e8410600b8410161715612c5f575081810a610aa7565b612c698383612ba1565b8060001904821115612c7d57612c7d612ae4565b029392505050565b600061286460ff841683612be4565b600060208284031215612ca657600080fd5b5051919050565b805169ffffffffffffffffffff8116811461289b57600080fd5b600080600080600060a08688031215612cdf57600080fd5b612ce886612cad565b9450602086015193506040860151925060608601519150612d0b60808701612cad565b90509295509295909350565b600060208284031215612d2957600080fd5b815161286481612a7c56fe97667070c54ef182b0f5858b034beac1b6f3089aa2d3188bb1e8929f4fa9b929a2646970667358221220a26d219f09e1851c64df50fcf571e45bf27f9cf751809ee663b8174385ed28b364736f6c63430008140033",
  "linkReferences": {},
  "deployedLinkReferences": {}
}