{
  "_format": "hh-sol-artifact-1",
  "contractName": "EITCrowdsale",
  "sourceName": "contracts/EITCrowdsale.sol",
  "abi": [
    {
      "inputs": [
        {
          "internalType": "address",
          "name": "_token",
          "type": "address"
        },
        {
          "internalType": "address",
          "name": "_oracle",
          "type": "address"
        },
        {
          "internalType": "address",
          "name": "_treasury",
          "type": "address"
        },
        {
          "internalType": "address",
          "name": "admin",
          "type": "address"
        }
      ],
      "stateMutability": "nonpayable",
      "type": "constructor"
    },
    {
      "inputs": [],
      "name": "AccessControlBadConfirmation",
      "type": "error"
    },
    {
      "inputs": [
        {
          "internalType": "address",
          "name": "account",
          "type": "address"
        },
        {
          "internalType": "bytes32",
          "name": "neededRole",
          "type": "bytes32"
        }
      ],
      "name": "AccessControlUnauthorizedAccount",
      "type": "error"
    },
    {
      "inputs": [],
      "name": "EnforcedPause",
      "type": "error"
    },
    {
      "inputs": [],
      "name": "ExpectedPause",
      "type": "error"
    },
    {
      "inputs": [],
      "name": "ReentrancyGuardReentrantCall",
      "type": "error"
    },
    {
      "inputs": [
        {
          "internalType": "address",
          "name": "token",
          "type": "address"
        }
      ],
      "name": "SafeERC20FailedOperation",
      "type": "error"
    },
    {
      "anonymous": false,
      "inputs": [
        {
          "indexed": false,
          "internalType": "uint256",
          "name": "amountUSD",
          "type": "uint256"
        }
      ],
      "name": "FundsReleased",
      "type": "event"
    },
    {
      "anonymous": false,
      "inputs": [
        {
          "indexed": false,
          "internalType": "address",
          "name": "account",
          "type": "address"
        }
      ],
      "name": "Paused",
      "type": "event"
    },
    {
      "anonymous": false,
      "inputs": [
        {
          "indexed": true,
          "internalType": "uint256",
          "name": "phaseId",
          "type": "uint256"
        },
        {
          "indexed": false,
          "internalType": "uint256",
          "name": "targetUSD",
          "type": "uint256"
        },
        {
          "indexed": false,
          "internalType": "uint256",
          "name": "priceUSD",
          "type": "uint256"
        }
      ],
      "name": "PhaseAdded",
      "type": "event"
    },
    {
      "anonymous": false,
      "inputs": [
        {
          "indexed": true,
          "internalType": "uint256",
          "name": "phaseId",
          "type": "uint256"
        }
      ],
      "name": "PhaseClaimEnabled",
      "type": "event"
    },
    {
      "anonymous": false,
      "inputs": [
        {
          "indexed": true,
          "internalType": "uint256",
          "name": "phaseId",
          "type": "uint256"
        }
      ],
      "name": "PhaseCompleted",
      "type": "event"
    },
    {
      "anonymous": false,
      "inputs": [
        {
          "indexed": true,
          "internalType": "address",
          "name": "user",
          "type": "address"
        }
      ],
      "name": "RefundClaimed",
      "type": "event"
    },
    {
      "anonymous": false,
      "inputs": [
        {
          "indexed": true,
          "internalType": "bytes32",
          "name": "role",
          "type": "bytes32"
        },
        {
          "indexed": true,
          "internalType": "bytes32",
          "name": "previousAdminRole",
          "type": "bytes32"
        },
        {
          "indexed": true,
          "internalType": "bytes32",
          "name": "newAdminRole",
          "type": "bytes32"
        }
      ],
      "name": "RoleAdminChanged",
      "type": "event"
    },
    {
      "anonymous": false,
      "inputs": [
        {
          "indexed": true,
          "internalType": "bytes32",
          "name": "role",
          "type": "bytes32"
        },
        {
          "indexed": true,
          "internalType": "address",
          "name": "account",
          "type": "address"
        },
        {
          "indexed": true,
          "internalType": "address",
          "name": "sender",
          "type": "address"
        }
      ],
      "name": "RoleGranted",
      "type": "event"
    },
    {
      "anonymous": false,
      "inputs": [
        {
          "indexed": true,
          "internalType": "bytes32",
          "name": "role",
          "type": "bytes32"
        },
        {
          "indexed": true,
          "internalType": "address",
          "name": "account",
          "type": "address"
        },
        {
          "indexed": true,
          "internalType": "address",
          "name": "sender",
          "type": "address"
        }
      ],
      "name": "RoleRevoked",
      "type": "event"
    },
    {
      "anonymous": false,
      "inputs": [],
      "name": "SaleFinalized",
      "type": "event"
    },
    {
      "anonymous": false,
      "inputs": [
        {
          "indexed": true,
          "internalType": "address",
          "name": "user",
          "type": "address"
        },
        {
          "indexed": true,
          "internalType": "uint256",
          "name": "phaseId",
          "type": "uint256"
        },
        {
          "indexed": false,
          "internalType": "uint256",
          "name": "amount",
          "type": "uint256"
        }
      ],
      "name": "TokensClaimed",
      "type": "event"
    },
    {
      "anonymous": false,
      "inputs": [
        {
          "indexed": true,
          "internalType": "address",
          "name": "buyer",
          "type": "address"
        },
        {
          "indexed": true,
          "internalType": "uint256",
          "name": "phaseId",
          "type": "uint256"
        },
        {
          "indexed": false,
          "internalType": "uint256",
          "name": "usdAmount",
          "type": "uint256"
        },
        {
          "indexed": false,
          "internalType": "uint256",
          "name": "tokenAmount",
          "type": "uint256"
        }
      ],
      "name": "TokensPurchased",
      "type": "event"
    },
    {
      "anonymous": false,
      "inputs": [
        {
          "indexed": false,
          "internalType": "address",
          "name": "account",
          "type": "address"
        }
      ],
      "name": "Unpaused",
      "type": "event"
    },
    {
      "anonymous": false,
      "inputs": [
        {
          "indexed": true,
          "internalType": "address",
          "name": "user",
          "type": "address"
        },
        {
          "indexed": false,
          "internalType": "bool",
          "name": "status",
          "type": "bool"
        }
      ],
      "name": "WhitelistUpdated",
      "type": "event"
    },
    {
      "stateMutability": "payable",
      "type": "fallback"
    },
    {
      "inputs": [],
      "name": "DEFAULT_ADMIN_ROLE",
      "outputs": [
        {
          "internalType": "bytes32",
          "name": "",
          "type": "bytes32"
        }
      ],
      "stateMutability": "view",
      "type": "function"
    },
    {
      "inputs": [],
      "name": "HARD_CAP",
      "outputs": [
        {
          "internalType": "uint256",
          "name": "",
          "type": "uint256"
        }
      ],
      "stateMutability": "view",
      "type": "function"
    },
    {
      "inputs": [],
      "name": "MAX_CONTRIBUTION",
      "outputs": [
        {
          "internalType": "uint256",
          "name": "",
          "type": "uint256"
        }
      ],
      "stateMutability": "view",
      "type": "function"
    },
    {
      "inputs": [],
      "name": "MAX_ETH_PRICE",
      "outputs": [
        {
          "internalType": "uint256",
          "name": "",
          "type": "uint256"
        }
      ],
      "stateMutability": "view",
      "type": "function"
    },
    {
      "inputs": [],
      "name": "MAX_ORACLE_DELAY",
      "outputs": [
        {
          "internalType": "uint256",
          "name": "",
          "type": "uint256"
        }
      ],
      "stateMutability": "view",
      "type": "function"
    },
    {
      "inputs": [],
      "name": "MILESTONE_SIZE_USD",
      "outputs": [
        {
          "internalType": "uint256",
          "name": "",
          "type": "uint256"
        }
      ],
      "stateMutability": "view",
      "type": "function"
    },
    {
      "inputs": [],
      "name": "MIN_CONTRIBUTION",
      "outputs": [
        {
          "internalType": "uint256",
          "name": "",
          "type": "uint256"
        }
      ],
      "stateMutability": "view",
      "type": "function"
    },
    {
      "inputs": [],
      "name": "MIN_ETH_PRICE",
      "outputs": [
        {
          "internalType": "uint256",
          "name": "",
          "type": "uint256"
        }
      ],
      "stateMutability": "view",
      "type": "function"
    },
    {
      "inputs": [],
      "name": "OPERATOR_ROLE",
      "outputs": [
        {
          "internalType": "bytes32",
          "name": "",
          "type": "bytes32"
        }
      ],
      "stateMutability": "view",
      "type": "function"
    },
    {
      "inputs": [],
      "name": "SOFT_CAP",
      "outputs": [
        {
          "internalType": "uint256",
          "name": "",
          "type": "uint256"
        }
      ],
      "stateMutability": "view",
      "type": "function"
    },
    {
      "inputs": [
        {
          "internalType": "uint256",
          "name": "targetUSD",
          "type": "uint256"
        },
        {
          "internalType": "uint256",
          "name": "priceUSD",
          "type": "uint256"
        }
      ],
      "name": "addPhase",
      "outputs": [],
      "stateMutability": "nonpayable",
      "type": "function"
    },
    {
      "inputs": [
        {
          "internalType": "address",
          "name": "tokenAddr",
          "type": "address"
        },
        {
          "internalType": "uint8",
          "name": "decimals",
          "type": "uint8"
        }
      ],
      "name": "addStablecoin",
      "outputs": [],
      "stateMutability": "nonpayable",
      "type": "function"
    },
    {
      "inputs": [
        {
          "internalType": "address[]",
          "name": "users",
          "type": "address[]"
        }
      ],
      "name": "addToWhitelist",
      "outputs": [],
      "stateMutability": "nonpayable",
      "type": "function"
    },
    {
      "inputs": [
        {
          "internalType": "uint256",
          "name": "minTokensOut",
          "type": "uint256"
        }
      ],
      "name": "buyWithNative",
      "outputs": [],
      "stateMutability": "payable",
      "type": "function"
    },
    {
      "inputs": [
        {
          "internalType": "address",
          "name": "stableToken",
          "type": "address"
        },
        {
          "internalType": "uint256",
          "name": "amount",
          "type": "uint256"
        },
        {
          "internalType": "uint256",
          "name": "minTokensOut",
          "type": "uint256"
        }
      ],
      "name": "buyWithStablecoin",
      "outputs": [],
      "stateMutability": "nonpayable",
      "type": "function"
    },
    {
      "inputs": [
        {
          "internalType": "uint256",
          "name": "phaseId",
          "type": "uint256"
        }
      ],
      "name": "claimPhase",
      "outputs": [],
      "stateMutability": "nonpayable",
      "type": "function"
    },
    {
      "inputs": [],
      "name": "claimRefund",
      "outputs": [],
      "stateMutability": "nonpayable",
      "type": "function"
    },
    {
      "inputs": [],
      "name": "currentPhase",
      "outputs": [
        {
          "internalType": "uint256",
          "name": "",
          "type": "uint256"
        }
      ],
      "stateMutability": "view",
      "type": "function"
    },
    {
      "inputs": [
        {
          "internalType": "uint256",
          "name": "phaseId",
          "type": "uint256"
        }
      ],
      "name": "enablePhaseClaim",
      "outputs": [],
      "stateMutability": "nonpayable",
      "type": "function"
    },
    {
      "inputs": [],
      "name": "enableRefunds",
      "outputs": [],
      "stateMutability": "nonpayable",
      "type": "function"
    },
    {
      "inputs": [
        {
          "internalType": "address",
          "name": "",
          "type": "address"
        }
      ],
      "name": "ethContributed",
      "outputs": [
        {
          "internalType": "uint256",
          "name": "",
          "type": "uint256"
        }
      ],
      "stateMutability": "view",
      "type": "function"
    },
    {
      "inputs": [],
      "name": "finalizeSale",
      "outputs": [],
      "stateMutability": "nonpayable",
      "type": "function"
    },
    {
      "inputs": [],
      "name": "getPhaseCount",
      "outputs": [
        {
          "internalType": "uint256",
          "name": "",
          "type": "uint256"
        }
      ],
      "stateMutability": "view",
      "type": "function"
    },
    {
      "inputs": [
        {
          "internalType": "bytes32",
          "name": "role",
          "type": "bytes32"
        }
      ],
      "name": "getRoleAdmin",
      "outputs": [
        {
          "internalType": "bytes32",
          "name": "",
          "type": "bytes32"
        }
      ],
      "stateMutability": "view",
      "type": "function"
    },
    {
      "inputs": [
        {
          "internalType": "bytes32",
          "name": "role",
          "type": "bytes32"
        },
        {
          "internalType": "address",
          "name": "account",
          "type": "address"
        }
      ],
      "name": "grantRole",
      "outputs": [],
      "stateMutability": "nonpayable",
      "type": "function"
    },
    {
      "inputs": [
        {
          "internalType": "bytes32",
          "name": "role",
          "type": "bytes32"
        },
        {
          "internalType": "address",
          "name": "account",
          "type": "address"
        }
      ],
      "name": "hasRole",
      "outputs": [
        {
          "internalType": "bool",
          "name": "",
          "type": "bool"
        }
      ],
      "stateMutability": "view",
      "type": "function"
    },
    {
      "inputs": [
        {
          "internalType": "address",
          "name": "",
          "type": "address"
        }
      ],
      "name": "isWhitelisted",
      "outputs": [
        {
          "internalType": "bool",
          "name": "",
          "type": "bool"
        }
      ],
      "stateMutability": "view",
      "type": "function"
    },
    {
      "inputs": [],
      "name": "oracle",
      "outputs": [
        {
          "internalType": "contract AggregatorV3Interface",
          "name": "",
          "type": "address"
        }
      ],
      "stateMutability": "view",
      "type": "function"
    },
    {
      "inputs": [],
      "name": "pause",
      "outputs": [],
      "stateMutability": "nonpayable",
      "type": "function"
    },
    {
      "inputs": [],
      "name": "paused",
      "outputs": [
        {
          "internalType": "bool",
          "name": "",
          "type": "bool"
        }
      ],
      "stateMutability": "view",
      "type": "function"
    },
    {
      "inputs": [
        {
          "internalType": "uint256",
          "name": "",
          "type": "uint256"
        }
      ],
      "name": "phaseClaimEnabled",
      "outputs": [
        {
          "internalType": "bool",
          "name": "",
          "type": "bool"
        }
      ],
      "stateMutability": "view",
      "type": "function"
    },
    {
      "inputs": [
        {
          "internalType": "uint256",
          "name": "",
          "type": "uint256"
        },
        {
          "internalType": "address",
          "name": "",
          "type": "address"
        }
      ],
      "name": "phasePurchased",
      "outputs": [
        {
          "internalType": "uint256",
          "name": "",
          "type": "uint256"
        }
      ],
      "stateMutability": "view",
      "type": "function"
    },
    {
      "inputs": [
        {
          "internalType": "uint256",
          "name": "",
          "type": "uint256"
        }
      ],
      "name": "phases",
      "outputs": [
        {
          "internalType": "uint256",
          "name": "targetUSD",
          "type": "uint256"
        },
        {
          "internalType": "uint256",
          "name": "priceUSD",
          "type": "uint256"
        },
        {
          "internalType": "uint256",
          "name": "raisedUSD",
          "type": "uint256"
        },
        {
          "internalType": "bool",
          "name": "isComplete",
          "type": "bool"
        }
      ],
      "stateMutability": "view",
      "type": "function"
    },
    {
      "inputs": [
        {
          "internalType": "address[]",
          "name": "users",
          "type": "address[]"
        }
      ],
      "name": "removeFromWhitelist",
      "outputs": [],
      "stateMutability": "nonpayable",
      "type": "function"
    },
    {
      "inputs": [
        {
          "internalType": "bytes32",
          "name": "role",
          "type": "bytes32"
        },
        {
          "internalType": "address",
          "name": "callerConfirmation",
          "type": "address"
        }
      ],
      "name": "renounceRole",
      "outputs": [],
      "stateMutability": "nonpayable",
      "type": "function"
    },
    {
      "inputs": [
        {
          "internalType": "bytes32",
          "name": "role",
          "type": "bytes32"
        },
        {
          "internalType": "address",
          "name": "account",
          "type": "address"
        }
      ],
      "name": "revokeRole",
      "outputs": [],
      "stateMutability": "nonpayable",
      "type": "function"
    },
    {
      "inputs": [],
      "name": "saleState",
      "outputs": [
        {
          "internalType": "enum EITCrowdsale.SaleState",
          "name": "",
          "type": "uint8"
        }
      ],
      "stateMutability": "view",
      "type": "function"
    },
    {
      "inputs": [
        {
          "internalType": "address",
          "name": "",
          "type": "address"
        },
        {
          "internalType": "address",
          "name": "",
          "type": "address"
        }
      ],
      "name": "stableContributed",
      "outputs": [
        {
          "internalType": "uint256",
          "name": "",
          "type": "uint256"
        }
      ],
      "stateMutability": "view",
      "type": "function"
    },
    {
      "inputs": [
        {
          "internalType": "uint256",
          "name": "",
          "type": "uint256"
        }
      ],
      "name": "stableList",
      "outputs": [
        {
          "internalType": "address",
          "name": "",
          "type": "address"
        }
      ],
      "stateMutability": "view",
      "type": "function"
    },
    {
      "inputs": [
        {
          "internalType": "address",
          "name": "",
          "type": "address"
        }
      ],
      "name": "stablecoinDecimals",
      "outputs": [
        {
          "internalType": "uint8",
          "name": "",
          "type": "uint8"
        }
      ],
      "stateMutability": "view",
      "type": "function"
    },
    {
      "inputs": [
        {
          "internalType": "address",
          "name": "",
          "type": "address"
        }
      ],
      "name": "supportedStable",
      "outputs": [
        {
          "internalType": "bool",
          "name": "",
          "type": "bool"
        }
      ],
      "stateMutability": "view",
      "type": "function"
    },
    {
      "inputs": [
        {
          "internalType": "bytes4",
          "name": "interfaceId",
          "type": "bytes4"
        }
      ],
      "name": "supportsInterface",
      "outputs": [
        {
          "internalType": "bool",
          "name": "",
          "type": "bool"
        }
      ],
      "stateMutability": "view",
      "type": "function"
    },
    {
      "inputs": [],
      "name": "token",
      "outputs": [
        {
          "internalType": "contract IERC20",
          "name": "",
          "type": "address"
        }
      ],
      "stateMutability": "view",
      "type": "function"
    },
    {
      "inputs": [],
      "name": "totalRaisedUSD",
      "outputs": [
        {
          "internalType": "uint256",
          "name": "",
          "type": "uint256"
        }
      ],
      "stateMutability": "view",
      "type": "function"
    },
    {
      "inputs": [],
      "name": "totalReleasedUSD",
      "outputs": [
        {
          "internalType": "uint256",
          "name": "",
          "type": "uint256"
        }
      ],
      "stateMutability": "view",
      "type": "function"
    },
    {
      "inputs": [],
      "name": "totalTokensSold",
      "outputs": [
        {
          "internalType": "uint256",
          "name": "",
          "type": "uint256"
        }
      ],
      "stateMutability": "view",
      "type": "function"
    },
    {
      "inputs": [],
      "name": "treasury",
      "outputs": [
        {
          "internalType": "address",
          "name": "",
          "type": "address"
        }
      ],
      "stateMutability": "view",
      "type": "function"
    },
    {
      "inputs": [],
      "name": "unpause",
      "outputs": [],
      "stateMutability": "nonpayable",
      "type": "function"
    },
    {
      "inputs": [
        {
          "internalType": "address",
          "name": "",
          "type": "address"
        }
      ],
      "name": "userTotalUSD",
      "outputs": [
        {
          "internalType": "uint256",
          "name": "",
          "type": "uint256"
        }
      ],
      "stateMutability": "view",
      "type": "function"
    },
    {
      "inputs": [],
      "name": "withdrawUnsoldTokens",
      "outputs": [],
      "stateMutability": "nonpayable",
      "type": "function"
    },
    {
      "stateMutability": "payable",
      "type": "receive"
    }
  ],
  "bytecode": "0x60e06040523480156200001157600080fd5b5060405162002c6f38038062002c6f8339810160408190526200003491620001bd565b600180556001600160a01b0384166200004c57600080fd5b6001600160a01b0383166200006057600080fd5b6001600160a01b0382166200007457600080fd5b6001600160a01b0381166200008857600080fd5b6001600160a01b0384811660805283811660a052821660c0526002805461ff0019169055620000b9600082620000f1565b50620000e67f97667070c54ef182b0f5858b034beac1b6f3089aa2d3188bb1e8929f4fa9b92982620000f1565b50505050506200021a565b6000828152602081815260408083206001600160a01b038516845290915281205460ff1662000196576000838152602081815260408083206001600160a01b03861684529091529020805460ff191660011790556200014d3390565b6001600160a01b0316826001600160a01b0316847f2f8788117e7eff1d82e926ec794901d17c78024a50270940304540a733656f0d60405160405180910390a45060016200019a565b5060005b92915050565b80516001600160a01b0381168114620001b857600080fd5b919050565b60008060008060808587031215620001d457600080fd5b620001df85620001a0565b9350620001ef60208601620001a0565b9250620001ff60408601620001a0565b91506200020f60608601620001a0565b905092959194509250565b60805160a05160c0516129ed6200028260003960008181610660015281816115e501526123a10152600081816106fa015281816119340152611ac0015260008181610a1a01528181610c5001528181611513015281816115c30152611e4601526129ed6000f3fe6080604052600436106102cd5760003560e01c80637dc0d1d011610175578063b652dc2f116100dc578063d5f8cf0d11610095578063e746a1d21161006f578063e746a1d214610999578063f5b541a6146109b9578063f96f5b35146109db578063fc0c546a14610a0857610315565b8063d5f8cf0d14610937578063db5e006314610957578063e1c1dd6f1461096c57610315565b8063b652dc2f1461085b578063c6bc88be1461087a578063c6d3107f146108aa578063c8bdbfb6146108c0578063d21a74ff146108d5578063d547741f1461091757610315565b806391d148541161012e57806391d14854146107b657806394d95f8f146107d65780639b9ecc99146107f4578063a217fddf14610811578063a52dba3c14610826578063b5545a3c1461084657610315565b80637dc0d1d0146106e85780637f6497831461071c5780638456cb591461073c578063865eb74a146107515780638b9a71cf146107815780638c52dc41146107a157610315565b80633af32abf11610234578063599d56e0116101ed578063603f4d52116101c7578063603f4d521461062257806361d027b31461064e57806363b201171461069a5780636620cbe2146106b057610315565b8063599d56e0146105d65780635c975abb146105ec5780635fc2d2831461060457610315565b80633af32abf1461051f5780633f4ba83a1461054f57806340650c911461056457806348eb38fb14610581578063548db174146105a157806358a687ec146105c157610315565b80632f2ff15d116102865780632f2ff15d1461046c57806330e9d37b1461048e57806331ad36ab146104ad57806332855ed2146104c057806336568abe146104e05780633a03171c1461050057610315565b806301ffc9a714610353578063055ad42e146103885780631252af75146103ac578063248a9ca3146103c257806325915ff2146103f25780632e37eef61461042a57610315565b366103155760405162461bcd60e51b815260206004820152601360248201527255736520627579576974684e6174697665282960681b60448201526064015b60405180910390fd5b60405162461bcd60e51b815260206004820152601360248201527255736520627579576974684e6174697665282960681b604482015260640161030c565b34801561035f57600080fd5b5061037361036e366004612522565b610a3c565b60405190151581526020015b60405180910390f35b34801561039457600080fd5b5061039e60045481565b60405190815260200161037f565b3480156103b857600080fd5b5061039e60055481565b3480156103ce57600080fd5b5061039e6103dd366004612553565b60009081526020819052604090206001015490565b3480156103fe57600080fd5b5061039e61040d366004612588565b600d60209081526000928352604080842090915290825290205481565b34801561043657600080fd5b5061044a610445366004612553565b610a73565b604080519485526020850193909352918301521515606082015260800161037f565b34801561047857600080fd5b5061048c6104873660046125bb565b610ab0565b005b34801561049a57600080fd5b5061039e6a0422ca8b0a00a42500000081565b61048c6104bb366004612553565b610adb565b3480156104cc57600080fd5b5061048c6104db366004612553565b610bde565b3480156104ec57600080fd5b5061048c6104fb3660046125bb565b610cc0565b34801561050c57600080fd5b5061039e6a52b7d2dcc80cd2e400000081565b34801561052b57600080fd5b5061037361053a3660046125de565b60086020526000908152604090205460ff1681565b34801561055b57600080fd5b5061048c610cf8565b34801561057057600080fd5b5061039e68056bc75e2d6310000081565b34801561058d57600080fd5b5061048c61059c366004612553565b610d0b565b3480156105ad57600080fd5b5061048c6105bc3660046125f9565b610d9a565b3480156105cd57600080fd5b5061048c610ea0565b3480156105e257600080fd5b5061039e60065481565b3480156105f857600080fd5b5060025460ff16610373565b34801561061057600080fd5b5061039e69043c33c193756480000081565b34801561062e57600080fd5b5060025461064190610100900460ff1681565b60405161037f9190612684565b34801561065a57600080fd5b506106827f000000000000000000000000000000000000000000000000000000000000000081565b6040516001600160a01b03909116815260200161037f565b3480156106a657600080fd5b5061039e60075481565b3480156106bc57600080fd5b5061039e6106cb3660046125bb565b600a60209081526000928352604080842090915290825290205481565b3480156106f457600080fd5b506106827f000000000000000000000000000000000000000000000000000000000000000081565b34801561072857600080fd5b5061048c6107373660046125f9565b610f0e565b34801561074857600080fd5b5061048c611014565b34801561075d57600080fd5b5061037361076c3660046125de565b600e6020526000908152604090205460ff1681565b34801561078d57600080fd5b5061048c61079c3660046126ac565b611027565b3480156107ad57600080fd5b5061048c61118a565b3480156107c257600080fd5b506103736107d13660046125bb565b6111c0565b3480156107e257600080fd5b5061039e690a968163f0a57b40000081565b34801561080057600080fd5b5061039e683635c9adc5dea0000081565b34801561081d57600080fd5b5061039e600081565b34801561083257600080fd5b5061048c6108413660046126ee565b6111e9565b34801561085257600080fd5b5061048c6112b2565b34801561086757600080fd5b5061039e6a0c685fa11e01ec6f00000081565b34801561088657600080fd5b50610373610895366004612553565b600b6020526000908152604090205460ff1681565b3480156108b657600080fd5b5061039e61038481565b3480156108cc57600080fd5b5061048c6114a3565b3480156108e157600080fd5b506109056108f03660046125de565b600f6020526000908152604090205460ff1681565b60405160ff909116815260200161037f565b34801561092357600080fd5b5061048c6109323660046125bb565b61160a565b34801561094357600080fd5b5061048c610952366004612725565b61162f565b34801561096357600080fd5b5060035461039e565b34801561097857600080fd5b5061039e6109873660046125de565b60096020526000908152604090205481565b3480156109a557600080fd5b506106826109b4366004612553565b611816565b3480156109c557600080fd5b5061039e60008051602061299883398151915281565b3480156109e757600080fd5b5061039e6109f63660046125de565b600c6020526000908152604090205481565b348015610a1457600080fd5b506106827f000000000000000000000000000000000000000000000000000000000000000081565b60006001600160e01b03198216637965db0b60e01b1480610a6d57506301ffc9a760e01b6001600160e01b03198316145b92915050565b60038181548110610a8357600080fd5b60009182526020909120600490910201805460018201546002830154600390930154919350919060ff1684565b600082815260208190526040902060010154610acb81611840565b610ad5838361184a565b50505050565b610ae36118dc565b610aeb611906565b3360009081526008602052604090205460ff16610b3c5760405162461bcd60e51b815260206004820152600f60248201526e139bdd081dda1a5d195b1a5cdd1959608a1b604482015260640161030c565b6000600254610100900460ff166003811115610b5a57610b5a61266e565b14610b6457600080fd5b60035460045410610b7457600080fd5b6000610b7e61192a565b90506000670de0b6b3a7640000610b95833461275d565b610b9f9190612774565b9050610bab8184611b9c565b336000908152600c602052604081208054349290610bca908490612796565b90915550506001805550610bdb9050565b50565b610be66118dc565b610bee611906565b6000818152600b602052604090205460ff16610c0957600080fd5b6000818152600a6020908152604080832033845290915290205480610c2d57600080fd5b6000828152600a60209081526040808320338085529252822091909155610c7f907f00000000000000000000000000000000000000000000000000000000000000006001600160a01b031690836120ad565b604051818152829033907f9923b4306c6c030f2bdfbf156517d5983b87e15b96176da122cd4f2effa4ba7b9060200160405180910390a350610bdb60018055565b6001600160a01b0381163314610ce95760405163334bd91960e11b815260040160405180910390fd5b610cf3828261210c565b505050565b6000610d0381611840565b610bdb612177565b600080516020612998833981519152610d2381611840565b60038281548110610d3657610d366127a9565b600091825260209091206003600490920201015460ff16610d5657600080fd5b6000828152600b6020526040808220805460ff191660011790555183917fd5f2e48a1b20537d5d9999bf63ead088cc70afd46ef059d6982ce1f68ac73dca91a25050565b600080516020612998833981519152610db281611840565b8115801590610dc357506101f48211155b610dcc57600080fd5b60005b82811015610ad557600060086000868685818110610def57610def6127a9565b9050602002016020810190610e0491906125de565b6001600160a01b031681526020810191909152604001600020805460ff1916911515919091179055838382818110610e3e57610e3e6127a9565b9050602002016020810190610e5391906125de565b6001600160a01b03167ff93f9a76c1bf3444d22400a00cb9fe990e6abe9dbb333fda48859cfee864543d6000604051610e90911515815260200190565b60405180910390a2600101610dcf565b6000610eab81611840565b6003600254610100900460ff166003811115610ec957610ec961266e565b03610ed357600080fd5b6002805461ff0019166102001790556040517ff33fd39ddc653e5f9033d50b852a4e85dc19ab2e3553927ce281aa99f9718c5d90600090a150565b600080516020612998833981519152610f2681611840565b8115801590610f3757506101f48211155b610f4057600080fd5b60005b82811015610ad557600160086000868685818110610f6357610f636127a9565b9050602002016020810190610f7891906125de565b6001600160a01b031681526020810191909152604001600020805460ff1916911515919091179055838382818110610fb257610fb26127a9565b9050602002016020810190610fc791906125de565b6001600160a01b03167ff93f9a76c1bf3444d22400a00cb9fe990e6abe9dbb333fda48859cfee864543d6001604051611004911515815260200190565b60405180910390a2600101610f43565b600061101f81611840565b610bdb6121c9565b61102f6118dc565b611037611906565b3360009081526008602052604090205460ff166110885760405162461bcd60e51b815260206004820152600f60248201526e139bdd081dda1a5d195b1a5cdd1959608a1b604482015260640161030c565b6001600160a01b0383166000908152600e602052604090205460ff166110ad57600080fd5b6000600254610100900460ff1660038111156110cb576110cb61266e565b146110d557600080fd5b600354600454106110e557600080fd5b6110fa6001600160a01b038416333085612206565b6001600160a01b0383166000908152600f602052604081205460ff16906111228260126127bf565b61112d90600a6128bc565b611137908561275d565b336000908152600d602090815260408083206001600160a01b038a16845290915281208054929350869290919061116f908490612796565b9091555061117f90508184611b9c565b5050610cf360018055565b600061119581611840565b6a0c685fa11e01ec6f000000600554106111ae57600080fd5b506002805461ff001916610300179055565b6000918252602082815260408084206001600160a01b0393909316845291905290205460ff1690565b60006111f481611840565b6001600160a01b0383166000908152600e602052604090205460ff161561121a57600080fd5b60128260ff16111561122b57600080fd5b506001600160a01b03919091166000818152600e602090815260408083208054600160ff199182168117909255600f909352908320805490921660ff90951694909417905560108054938401815590527f1b6847dc741a1b0cd08d278845f9d819d87b734759afb55fe2de5cb82a9ae67290910180546001600160a01b0319169091179055565b6112ba6118dc565b6003600254610100900460ff1660038111156112d8576112d861266e565b146112e257600080fd5b336000908152600c6020526040902054801561139157336000818152600c60205260408082208290555190919083908381818185875af1925050503d8060008114611349576040519150601f19603f3d011682016040523d82523d6000602084013e61134e565b606091505b505090508061138f5760405162461bcd60e51b815260206004820152600d60248201526c1499599d5b990819985a5b1959609a1b604482015260640161030c565b505b60105460005b81811015611427576000601082815481106113b4576113b46127a9565b6000918252602080832090910154338352600d825260408084206001600160a01b0390921680855291909252912054909150801561141d57336000818152600d602090815260408083206001600160a01b038716808552925282209190915561141d91836120ad565b5050600101611397565b50336000908152600960205260408120819055600354905b81811015611469576000818152600a6020908152604080832033845290915281205560010161143f565b5060405133907fe85b62fe517bf695ce7fed961f0244f59be2c256525a5a904fb90c32f42cfd3e90600090a25050506114a160018055565b565b60006114ae81611840565b60028054610100900460ff1660038111156114cb576114cb61266e565b14806114f257506003600254610100900460ff1660038111156114f0576114f061266e565b145b6114fb57600080fd5b6040516370a0823160e01b81523060048201526000907f00000000000000000000000000000000000000000000000000000000000000006001600160a01b0316906370a0823190602401602060405180830381865afa158015611562573d6000803e3d6000fd5b505050506040513d601f19601f8201168201806040525081019061158691906128cb565b90506000600754821161159a5760006115a7565b6007546115a790836128e4565b9050600081116115b657600080fd5b610cf36001600160a01b037f0000000000000000000000000000000000000000000000000000000000000000167f0000000000000000000000000000000000000000000000000000000000000000836120ad565b60008281526020819052604090206001015461162581611840565b610ad5838361210c565b600061163a81611840565b6000600254610100900460ff1660038111156116585761165861266e565b1461166257600080fd5b600083116116a95760405162461bcd60e51b8152602060048201526014602482015273125b9d985b1a59081c1a185cd9481d185c99d95d60621b604482015260640161030c565b600082116116ef5760405162461bcd60e51b8152602060048201526013602482015272496e76616c696420706861736520707269636560681b604482015260640161030c565b604080516080810182528481526020810184815260009282018381526060830184815260038054600180820183559682905294517fc2575a0e9e593c00f959f8c92f12db2869c3395a3b0502d05e2516446f71f85b60049096029586015592517fc2575a0e9e593c00f959f8c92f12db2869c3395a3b0502d05e2516446f71f85c85015590517fc2575a0e9e593c00f959f8c92f12db2869c3395a3b0502d05e2516446f71f85d840155517fc2575a0e9e593c00f959f8c92f12db2869c3395a3b0502d05e2516446f71f85e909201805460ff191692151592909217909155546117d991906128e4565b60408051858152602081018590527e3a614d69232d07ce423df77598aa26a786bec214178a4f4c288fb03e930fba910160405180910390a2505050565b6010818154811061182657600080fd5b6000918252602090912001546001600160a01b0316905081565b610bdb813361223f565b600061185683836111c0565b6118d4576000838152602081815260408083206001600160a01b03861684529091529020805460ff1916600117905561188c3390565b6001600160a01b0316826001600160a01b0316847f2f8788117e7eff1d82e926ec794901d17c78024a50270940304540a733656f0d60405160405180910390a4506001610a6d565b506000610a6d565b6002600154036118ff57604051633ee5aeb560e01b815260040160405180910390fd5b6002600155565b60025460ff16156114a15760405163d93c066560e01b815260040160405180910390fd5b60008060008060007f00000000000000000000000000000000000000000000000000000000000000006001600160a01b031663feaf968c6040518163ffffffff1660e01b815260040160a060405180830381865afa158015611990573d6000803e3d6000fd5b505050506040513d601f19601f820116820180604052508101906119b49190612911565b94509450509350935060008313611a045760405162461bcd60e51b8152602060048201526014602482015273496e76616c6964206f7261636c6520707269636560601b604482015260640161030c565b610384611a1183426128e4565b1115611a545760405162461bcd60e51b81526020600482015260126024820152714f7261636c65207072696365207374616c6560701b604482015260640161030c565b8369ffffffffffffffffffff168169ffffffffffffffffffff161015611abc5760405162461bcd60e51b815260206004820152601760248201527f496e636f6d706c657465206f7261636c6520726f756e64000000000000000000604482015260640161030c565b60007f00000000000000000000000000000000000000000000000000000000000000006001600160a01b031663313ce5676040518163ffffffff1660e01b8152600401602060405180830381865afa158015611b1c573d6000803e3d6000fd5b505050506040513d601f19601f82011682018060405250810190611b409190612961565b90506000611b4f8260126127bf565b611b5a90600a6128bc565b611b64908661275d565b9050683635c9adc5dea000008110158015611b89575069043c33c19375648000008111155b611b9257600080fd5b9695505050505050565b60008211611bdc5760405162461bcd60e51b815260206004820152600d60248201526c5a65726f20707572636861736560981b604482015260640161030c565b68056bc75e2d63100000821015611c355760405162461bcd60e51b815260206004820152601a60248201527f42656c6f77206d696e696d756d20636f6e747269627574696f6e000000000000604482015260640161030c565b33600090815260096020526040902054690a968163f0a57b40000090611c5c908490612796565b1115611c9e5760405162461bcd60e51b8152602060048201526011602482015270155cd95c8818d85c08195e18d959591959607a1b604482015260640161030c565b6a52b7d2dcc80cd2e400000082600554611cb89190612796565b1115611cfa5760405162461bcd60e51b815260206004820152601160248201527012185c990818d85c08195e18d959591959607a1b604482015260640161030c565b60006004549050600060038281548110611d1657611d166127a9565b60009182526020909120600490910201600381015490915060ff1615611d6f5760405162461bcd60e51b815260206004820152600e60248201526d506861736520636f6d706c65746560901b604482015260640161030c565b80546002820154611d81908690612796565b1115611dc45760405162461bcd60e51b8152602060048201526012602482015271141a185cd94818d85c08195e18d95959195960721b604482015260640161030c565b6001810154600090611dde86670de0b6b3a764000061275d565b611de89190612774565b905083811015611e2e5760405162461bcd60e51b815260206004820152601160248201527014db1a5c1c1859d948195e18d959591959607a1b604482015260640161030c565b6040516370a0823160e01b81523060048201526000907f00000000000000000000000000000000000000000000000000000000000000006001600160a01b0316906370a0823190602401602060405180830381865afa158015611e95573d6000803e3d6000fd5b505050506040513d601f19601f82011682018060405250810190611eb991906128cb565b90508160075482611eca91906128e4565b1015611f185760405162461bcd60e51b815260206004820152601c60248201527f496e73756666696369656e7420746f6b656e20696e76656e746f727900000000604482015260640161030c565b3360009081526009602052604081208054889290611f37908490612796565b9250508190555085836002016000828254611f529190612796565b925050819055508560056000828254611f6b9190612796565b90915550506000848152600a6020908152604080832033845290915281208054849290611f99908490612796565b925050819055508160076000828254611fb29190612796565b90915550506040805187815260208101849052859133917f0d1a0d5e3d583a0e92588799dd06e50fd78c07daf05f0cc06d7b848b1ca445f1910160405180910390a3825460028401541061209d5760038301805460ff1916600117905560405184907fd4259e19938b793359dfc6c726df41a4cce156deffd8c4a4ed4a681a6167077490600090a26a0c685fa11e01ec6f0000006005541015801561207257506000600254610100900460ff1660038111156120705761207061266e565b145b15612087576002805461ff0019166101001790555b600480549060006120978361297e565b91905055505b6120a561227c565b505050505050565b6040516001600160a01b03838116602483015260448201839052610cf391859182169063a9059cbb906064015b604051602081830303815290604052915060e01b6020820180516001600160e01b03838183161783525050505061230b565b600061211883836111c0565b156118d4576000838152602081815260408083206001600160a01b0386168085529252808320805460ff1916905551339286917ff6391f5c32d9c69d2a47ea670b442974b53935d1edc7fd64eb21e047a839171b9190a4506001610a6d565b61217f61237c565b6002805460ff191690557f5db9ee0a495bf2e6ff9c91a7834c1ba4fdd244a5e8aa4e537bd38aeae4b073aa335b6040516001600160a01b03909116815260200160405180910390a1565b6121d1611906565b6002805460ff191660011790557f62e78cea01bee320cd4e420270b5ea74000d11b0c9f74754ebdbfc544b05a2586121ac3390565b6040516001600160a01b038481166024830152838116604483015260648201839052610ad59186918216906323b872dd906084016120da565b61224982826111c0565b6122785760405163e2517d3f60e01b81526001600160a01b03821660048201526024810183905260440161030c565b5050565b6a0422ca8b0a00a4250000006006546122959190612796565b600554106114a1576a0422ca8b0a00a425000000600660008282546122ba9190612796565b909155506122c8905061239f565b6040516a0422ca8b0a00a42500000081527f952b264c8e0a06cddb4bbaa6d6af1d565145329fd95bbe72cb2b53942b2dc9669060200160405180910390a161227c565b600080602060008451602086016000885af18061232e576040513d6000823e3d81fd5b50506000513d91508115612346578060011415612353565b6001600160a01b0384163b155b15610ad557604051635274afe760e01b81526001600160a01b038516600482015260240161030c565b60025460ff166114a157604051638dfc202b60e01b815260040160405180910390fd5b7f0000000000000000000000000000000000000000000000000000000000000000478015612462576000826001600160a01b03168260405160006040518083038185875af1925050503d8060008114612414576040519150601f19603f3d011682016040523d82523d6000602084013e612419565b606091505b50509050806124605760405162461bcd60e51b8152602060048201526013602482015272115512081d1c985b9cd9995c8819985a5b1959606a1b604482015260640161030c565b505b60105460005b81811015610ad557600060108281548110612485576124856127a9565b60009182526020822001546040516370a0823160e01b81523060048201526001600160a01b03909116925082906370a0823190602401602060405180830381865afa1580156124d8573d6000803e3d6000fd5b505050506040513d601f19601f820116820180604052508101906124fc91906128cb565b90508015612518576125186001600160a01b03831687836120ad565b5050600101612468565b60006020828403121561253457600080fd5b81356001600160e01b03198116811461254c57600080fd5b9392505050565b60006020828403121561256557600080fd5b5035919050565b80356001600160a01b038116811461258357600080fd5b919050565b6000806040838503121561259b57600080fd5b6125a48361256c565b91506125b26020840161256c565b90509250929050565b600080604083850312156125ce57600080fd5b823591506125b26020840161256c565b6000602082840312156125f057600080fd5b61254c8261256c565b6000806020838503121561260c57600080fd5b823567ffffffffffffffff8082111561262457600080fd5b818501915085601f83011261263857600080fd5b81358181111561264757600080fd5b8660208260051b850101111561265c57600080fd5b60209290920196919550909350505050565b634e487b7160e01b600052602160045260246000fd5b60208101600483106126a657634e487b7160e01b600052602160045260246000fd5b91905290565b6000806000606084860312156126c157600080fd5b6126ca8461256c565b95602085013595506040909401359392505050565b60ff81168114610bdb57600080fd5b6000806040838503121561270157600080fd5b61270a8361256c565b9150602083013561271a816126df565b809150509250929050565b6000806040838503121561273857600080fd5b50508035926020909101359150565b634e487b7160e01b600052601160045260246000fd5b8082028115828204841417610a6d57610a6d612747565b60008261279157634e487b7160e01b600052601260045260246000fd5b500490565b80820180821115610a6d57610a6d612747565b634e487b7160e01b600052603260045260246000fd5b60ff8281168282160390811115610a6d57610a6d612747565b600181815b808511156128135781600019048211156127f9576127f9612747565b8085161561280657918102915b93841c93908002906127dd565b509250929050565b60008261282a57506001610a6d565b8161283757506000610a6d565b816001811461284d576002811461285757612873565b6001915050610a6d565b60ff84111561286857612868612747565b50506001821b610a6d565b5060208310610133831016604e8410600b8410161715612896575081810a610a6d565b6128a083836127d8565b80600019048211156128b4576128b4612747565b029392505050565b600061254c60ff84168361281b565b6000602082840312156128dd57600080fd5b5051919050565b81810381811115610a6d57610a6d612747565b805169ffffffffffffffffffff8116811461258357600080fd5b600080600080600060a0868803121561292957600080fd5b612932866128f7565b9450602086015193506040860151925060608601519150612955608087016128f7565b90509295509295909350565b60006020828403121561297357600080fd5b815161254c816126df565b60006001820161299057612990612747565b506001019056fe97667070c54ef182b0f5858b034beac1b6f3089aa2d3188bb1e8929f4fa9b929a264697066735822122042ce382f31fcf01bf9810e22be026a83c39303266e313989d351f7d5b5d1eedf64736f6c63430008140033",
  "linkReferences": {},
  "deployedLinkReferences": {}
}