{
  "_format": "hh-sol-artifact-1",
  "contractName": "EITDistributor",
  "sourceName": "contracts/EITDistributor.sol",
  "abi": [
    {
      "inputs": [],
      "stateMutability": "nonpayable",
      "type": "constructor"
    },
    {
      "inputs": [
        {
          "internalType": "address",
          "name": "owner",
          "type": "address"
        }
      ],
      "name": "OwnableInvalidOwner",
      "type": "error"
    },
    {
      "inputs": [
        {
          "internalType": "address",
          "name": "account",
          "type": "address"
        }
      ],
      "name": "OwnableUnauthorizedAccount",
      "type": "error"
    },
    {
      "inputs": [],
      "name": "ReentrancyGuardReentrantCall",
      "type": "error"
    },
    {
      "inputs": [
        {
          "internalType": "address",
          "name": "token",
          "type": "address"
        }
      ],
      "name": "SafeERC20FailedOperation",
      "type": "error"
    },
    {
      "anonymous": false,
      "inputs": [
        {
          "indexed": true,
          "internalType": "address",
          "name": "token",
          "type": "address"
        },
        {
          "indexed": false,
          "internalType": "uint256",
          "name": "amount",
          "type": "uint256"
        }
      ],
      "name": "EmergencyWithdrawal",
      "type": "event"
    },
    {
      "anonymous": false,
      "inputs": [
        {
          "indexed": true,
          "internalType": "address",
          "name": "previousOwner",
          "type": "address"
        },
        {
          "indexed": true,
          "internalType": "address",
          "name": "newOwner",
          "type": "address"
        }
      ],
      "name": "OwnershipTransferred",
      "type": "event"
    },
    {
      "anonymous": false,
      "inputs": [
        {
          "indexed": true,
          "internalType": "address",
          "name": "token",
          "type": "address"
        },
        {
          "indexed": false,
          "internalType": "uint256",
          "name": "totalAmount",
          "type": "uint256"
        },
        {
          "indexed": false,
          "internalType": "uint256",
          "name": "recipientCount",
          "type": "uint256"
        }
      ],
      "name": "RewardsDistributed",
      "type": "event"
    },
    {
      "inputs": [],
      "name": "MAX_BATCH_SIZE",
      "outputs": [
        {
          "internalType": "uint256",
          "name": "",
          "type": "uint256"
        }
      ],
      "stateMutability": "view",
      "type": "function"
    },
    {
      "inputs": [
        {
          "internalType": "address",
          "name": "tokenAddress",
          "type": "address"
        },
        {
          "internalType": "address[]",
          "name": "recipients",
          "type": "address[]"
        },
        {
          "internalType": "uint256[]",
          "name": "amounts",
          "type": "uint256[]"
        }
      ],
      "name": "distribute",
      "outputs": [],
      "stateMutability": "nonpayable",
      "type": "function"
    },
    {
      "inputs": [],
      "name": "owner",
      "outputs": [
        {
          "internalType": "address",
          "name": "",
          "type": "address"
        }
      ],
      "stateMutability": "view",
      "type": "function"
    },
    {
      "inputs": [],
      "name": "renounceOwnership",
      "outputs": [],
      "stateMutability": "nonpayable",
      "type": "function"
    },
    {
      "inputs": [
        {
          "internalType": "address",
          "name": "newOwner",
          "type": "address"
        }
      ],
      "name": "transferOwnership",
      "outputs": [],
      "stateMutability": "nonpayable",
      "type": "function"
    },
    {
      "inputs": [
        {
          "internalType": "address",
          "name": "tokenAddress",
          "type": "address"
        }
      ],
      "name": "withdrawEmergency",
      "outputs": [],
      "stateMutability": "nonpayable",
      "type": "function"
    }
  ],
  "bytecode": "0x608060405234801561001057600080fd5b50338061003757604051631e4fbdf760e01b81526000600482015260240160405180910390fd5b6100408161004a565b506001805561009a565b600080546001600160a01b038381166001600160a01b0319831681178455604051919092169283917f8be0079c531659141344cd1fd0a4f28419497f9722a3daafe3b4186f6b6457e09190a35050565b61084b806100a96000396000f3fe608060405234801561001057600080fd5b50600436106100625760003560e01c806315270ace14610067578063715018a61461007c5780638da5cb5b14610084578063a1c04f0e146100a4578063cfdbf254146100b7578063f2fde38b146100cd575b600080fd5b61007a6100753660046106fb565b6100e0565b005b61007a6103b3565b6000546040516001600160a01b0390911681526020015b60405180910390f35b61007a6100b236600461077c565b6103c7565b6100bf60c881565b60405190815260200161009b565b61007a6100db36600461077c565b6104e0565b6100e861051e565b6100f0610548565b8281146101365760405162461bcd60e51b815260206004820152600f60248201526e098cadccee8d040dad2e6dac2e8c6d608b1b60448201526064015b60405180910390fd5b826101735760405162461bcd60e51b815260206004820152600d60248201526c4e6f20726563697069656e747360981b604482015260640161012d565b60c88311156101c45760405162461bcd60e51b815260206004820152601960248201527f426174636820746f6f206c6172676520284d6178203230302900000000000000604482015260640161012d565b846000805b83811015610209578484828181106101e3576101e361079e565b90506020020135826101f591906107ca565b915080610201816107e3565b9150506101c9565b506040516370a0823160e01b815230600482015281906001600160a01b038416906370a0823190602401602060405180830381865afa158015610250573d6000803e3d6000fd5b505050506040513d601f19601f8201168201806040525081019061027491906107fc565b10156102c25760405162461bcd60e51b815260206004820152601b60248201527f496e73756666696369656e74205265776172642042616c616e63650000000000604482015260640161012d565b60005b8581101561035c5760008585838181106102e1576102e161079e565b90506020020135111561034a5761034a8787838181106103035761030361079e565b9050602002016020810190610318919061077c565b86868481811061032a5761032a61079e565b90506020020135856001600160a01b03166105759092919063ffffffff16565b80610354816107e3565b9150506102c5565b5060408051828152602081018790526001600160a01b038916917fe4e801442ed461792c0bdfa7f5c25444d391d67d68422437bd9005796c67cb23910160405180910390a250506103ac60018055565b5050505050565b6103bb610548565b6103c560006105cc565b565b6103cf610548565b6040516370a0823160e01b815230600482015281906000906001600160a01b038316906370a0823190602401602060405180830381865afa158015610418573d6000803e3d6000fd5b505050506040513d601f19601f8201168201806040525081019061043c91906107fc565b9050600081116104845760405162461bcd60e51b81526020600482015260136024820152724e6f7468696e6720746f20776974686472617760681b604482015260640161012d565b6104986001600160a01b0383163383610575565b826001600160a01b03167f23d6711a1d031134a36921253c75aa59e967d38e369ac625992824315e204f20826040516104d391815260200190565b60405180910390a2505050565b6104e8610548565b6001600160a01b03811661051257604051631e4fbdf760e01b81526000600482015260240161012d565b61051b816105cc565b50565b60026001540361054157604051633ee5aeb560e01b815260040160405180910390fd5b6002600155565b6000546001600160a01b031633146103c55760405163118cdaa760e01b815233600482015260240161012d565b604080516001600160a01b038416602482015260448082018490528251808303909101815260649091019091526020810180516001600160e01b031663a9059cbb60e01b1790526105c790849061061c565b505050565b600080546001600160a01b038381166001600160a01b0319831681178455604051919092169283917f8be0079c531659141344cd1fd0a4f28419497f9722a3daafe3b4186f6b6457e09190a35050565b600080602060008451602086016000885af18061063f576040513d6000823e3d81fd5b50506000513d91508115610657578060011415610664565b6001600160a01b0384163b155b1561068d57604051635274afe760e01b81526001600160a01b038516600482015260240161012d565b50505050565b80356001600160a01b03811681146106aa57600080fd5b919050565b60008083601f8401126106c157600080fd5b50813567ffffffffffffffff8111156106d957600080fd5b6020830191508360208260051b85010111156106f457600080fd5b9250929050565b60008060008060006060868803121561071357600080fd5b61071c86610693565b9450602086013567ffffffffffffffff8082111561073957600080fd5b61074589838a016106af565b9096509450604088013591508082111561075e57600080fd5b5061076b888289016106af565b969995985093965092949392505050565b60006020828403121561078e57600080fd5b61079782610693565b9392505050565b634e487b7160e01b600052603260045260246000fd5b634e487b7160e01b600052601160045260246000fd5b808201808211156107dd576107dd6107b4565b92915050565b6000600182016107f5576107f56107b4565b5060010190565b60006020828403121561080e57600080fd5b505191905056fea2646970667358221220f3d9b494a0646510b0b5c6e06347db9ebee7d07b7e31fd1acb84cdb84870898964736f6c63430008140033",
  "linkReferences": {},
  "deployedLinkReferences": {}
}